:020000040800F2
:10000000508200240D001008D9100008711000085B
:100010007910000869040008A1130008000000001E
:10002000000000000000000000000000E1111008C6
:100030007104000800000000D9111008E91110082F
:100040003300100833001008330010083300100884
:100050003300100833001008330010083300100874
:100060003300100833001008330010083300100864
:100070003300100833001008330010083300100854
:100080003300100833001008330010083300100844
:100090003300100833001008330010083300100834
:1000A0003300100833001008330010083300100824
:1000B0003300100833001008330010083300100814
:1000C0003300100833001008330010083300100804
:1000D00033001008291300083300100833001008FB
:1000E000330010083300100800000000330010082F
:1000F00033001008330010083300100833001008D4
:1001000033001008330010083300100833001008C3
:100110003300100833001008C9110008330010081C
:1001200033001008330010083300100833001008A3
:100130003300100833001008330010083300100893
:1001400000000000000000000000000000000000AF
:100150003300100833001008330010083300100873
:100160003300100833001008330010083300100863
:10017000330010083300100833001008000000009E
:100180003300100833001008330010083300100843
:100190003300100833001008330010083300100833
:1001A0003300100833001008330010083300100823
:1001B0003300100833001008330010083300100813
:1001C0003300100833001008330010083300100803
:1001D00033001008330010083300100833001008F3
:1001E00033001008330010083300100833001008E3
:1001F00033001008330010083300100833001008D3
:1002000033001008330010083300100833001008C2
:1002100033001008330010083300100833001008B2
:1002200033001008330010083300100800000000ED
:1002300033001008330010080000000033001008DD
:100240003300100833001008330010083300100882
:100250003300100833001008330010083300100872
:100260003300100833001008330010083300100862
:10027000330010083300100833001008000000009D
:10028000330010083300100833001008000000008D
:10029000000000003300100800F002F800F051F8F0
:1002A00014A696E8000CB244B344DA4501D100F03C
:1002B00048F8BAE80F000FA696E83000A5EB040551
:1002C00004EB0607AAEB0704A7F101074FEA15158F
:1002D0004FEA3414A4F10104AC4201D300F031F828
:1002E00013F0010F18BFFB1A43F0010300F001F8EF
:1002F000DBE718471416000034160000103A24BF3C
:1003000078C878C1FAD8520724BF30C830C144BF7A
:1003100004680C6070470000704700000023002450
:1003200000250026103A28BF78C1FBD8520728BF05
:1003300030C148BF0B607047642900F01D80002069
:100340007047FFF0C9FF1146FFF05AFE01F0D8F8E0
:1003500000F07EF803B4FFF057FE03BC01F024F870
:100360000FB4044910B503AA0298FFF09BFF10BC1C
:100370005DF814FB800000242DE9F04106460024BE
:1003800010687529314616A510D0AFF300800028FB
:1003900002DA404213A507E031688A0701D512A5A9
:1003A00002E0490704D511A5012401E0AFF3008064
:1003B00000210A2206F1240709E0B0FBF2FCB0FBA1
:1003C000F2F302FB1C00303078541846491C002818
:1003D000F3D123462A463046BDE8F041FFF0F1BE96
:1003E000000000002D0000002B0000002000000095
:1003F00002F0FF0343EA032242EA024200F002B89D
:100400004FF0000200B5134694469646203922BFAD
:10041000A0E80C50A0E80C50B1F12001BFF4F7AFF8
:10042000090728BFA0E80C5048BF0CC05DF804EBDA
:10043000890028BF40F8042B08BF704748BF20F848
:10044000022B11F0804F18BF00F8012B7047704746
:1004500010B50446AFF300802046BDE81040FFF71A
:1004600079BF000000000000FEE70000000000006F
:100470007047000000000000B0B5044600F0ECF842
:1004800040F20C010546C2F20041621C097818BF17
:100490000C4400BF00F0E0F8401BA042FAD3B0BD0E
:1004A0002DE9F04F83B00F68002F00F0C98000F1F4
:1004B000264642F2004506F1FF76C5F602050A22FD
:1004C000A8424FEAB62540F2040C08BF092200F109
:1004D00020030093092DC5F6000C38BF4FEAB62261
:1004E000002400264FF0000801920AE008F10108FC
:1004F0000F6837FA08F206F1020604F1040400F06E
:100500009F80012202FA08FE17EA0E09EED0D1F808
:1005100004B003220BF00307B2407D1E6FEA020A0B
:10052000012D11D88268CD6802EA0A02B5402A433B
:100530008260CBF30015426822EA0E0205FA08F544
:100540002A43426004E000BF032F01D103271FE0CC
:10055000C2688D6802EA0A02B540022F42EA05022B
:10056000C26015D16FF0030204F01C0502EA580BBB
:10057000009A0F2352F80BE0AB400F692EEA0303F9
:10058000AF403B4342F80B30D1F804B00BF0030707
:10059000026807FA06F302EA0A021BF4403F42EA45
:1005A00003020260A2D044F2F44340F2084EC5F6C2
:1005B0000203C5F6000E0F251A6842F002021A6007
:1005C0001A6802F00202029228F00302029B04F071
:1005D0000C0352F80E709D40AF43019D05FA03F3E2
:1005E0003B4342F80E304FF0B04EDEF800204B682F
:1005F00042EA0907DD0258BF22EA09079D02CEF848
:100600000070DCF8002042EA090758BF22EA090717
:100610009D03CCF80070DCF8802042EA090758BF3F
:1006200022EA0907DB03CCF88070DCF87C2042EA80
:10063000090758BF22EA0907CCF87C7056E700BFCB
:1006400003B0BDE8F08F000041F20000C5F60040A5
:100650000068000C7047000040F24820C2F20040E1
:10066000006870470000000040F20C0040F2482192
:10067000C2F20040C2F2004100780A6810440860EB
:10068000704700000000000070B54EF60C5C4FF0A3
:10069000FF36CEF2000C00F1604505F56445DCF84C
:1006A0000030C3F3022E8EF00703042B28BF04236F
:1006B000BEF1030406FA03F321EA030100F00F037D
:1006C00038BF0024043B0028634406FA04F048BF06
:1006D00003F10C05A14022EA000008430001287044
:1006E00070BD0000000000004EF60C514FF6FF03F5
:1006F000CEF200010A681A4060F30A2242F08060DC
:1007000040F0FD7008607047B0B544F60C05C5F6C2
:10071000020529684907296806D401F00701081A6B
:1007200018BF0120B0BD00BF21F0070108432860B9
:10073000FFF792FF044600BF55F8080C800407D469
:10074000FFF78AFF001BB0F57A7FF5D90120B0BD15
:100750000020B0BD000000002DE9F04381B000286A
:1007600000F0208142F200090446C5F20029D9F8C0
:10077000000000F00F0081420DD9D9F8000020F0F0
:100780000F000843C9F80000D9F8000000F00F007E
:10079000884240F00781206844F218464207C5F6B7
:1007A00002060AD52269336803F070039A4204D91D
:1007B000336823F070031A43326002070AD5626976
:1007C000736803F070039A4204D9736823F07003CE
:1007D0001A437260C2060AD5A269736803F4E06323
:1007E0009A4204D9736823F4E0631A437260820664
:1007F0000AD5E269B36803F070039A4204D9B3687A
:1008000023F070031A43B26010F002020AD0E368CA
:10081000376807F00F07BB4204D9376827F00F0786
:100820003B433360C3073FD0306820F47062D4E9A3
:1008300001031A433260012856F8182C0AD0032805
:1008400004D002280AD192030BD4ABE0920108D461
:10085000A8E000BFD20504D4A4E000BF520740F1D5
:10086000A180884656F8081C21F00701084346F885
:10087000080CFFF7F1FE054641F2883756F8080CE0
:10088000616800F03800B0EBC10F09D0FFF7E4FE5B
:10089000401BB842F2D9032001B0BDE8F08300BF8D
:1008A0002068414600F0020252B1E268336803F06A
:1008B0000F039A4204D2336823F00F031A433260C5
:1008C000D9F8002002F00F0291420CD2D9F8002092
:1008D00022F00F020A43C9F80020D9F8002002F0E4
:1008E0000F028A425ED141070AD52169326802F0BF
:1008F0007002914204D2326822F0700211433160DA
:1009000001070AD56169726802F07002914204D24F
:10091000726822F0700211437160C1060AD5A169A4
:10092000726802F4E062914204D2726822F4E062DA
:100930001143716080060AD5E069B16801F0700169
:10094000884204D2B16821F070010843B060FFF022
:100950009BFD316841F63F02C0F61002C1F303214E
:10096000515C336803F00F0301F01F01D25C20FAE1
:1009700001F102F01F0040F20802C2F2004221FA27
:1009800000F0106040F2100040F20402C2F2004099
:10099000C2F200420068116001B0BDE8F043FFF010
:1009A00007BD00BF012001B0BDE8F08300000000DA
:1009B00080B5FFF069FD44F2184C41F63F03C5F6DF
:1009C000020CC0F61003DCF80020C2F303229A5C8C
:1009D000DCF8001001F00F0102F01F02595CD0405A
:1009E00040F20802C2F2004201F01F0120FA01F1B8
:1009F000116040F20402C2F200421060DCF8040010
:100A0000C0F30210185C00F01F0021FA00F080BD56
:100A10007047000000000000704700000000000068
:100A200041F200010068C4F20001884218BF70471B
:100A300080B582B044F2E8400322C5F602000168A6
:100A400041F0100101600068012100F010000190E8
:100A500001983620FFF718FE362002B0BDE880402E
:100A6000FFF0D2BC0000000090F83D10012917D122
:100A7000022180F83D10016841F2FF70C4F20000CD
:100A800081420FDC40F2FF70C4F20000814217DCAB
:100A9000B1F1804F2CD040F20040C4F2000025E0BC
:100AA0000120704740F2FF30C4F20100814213DCA4
:100AB00041F60000C4F20000814219D0002013E08A
:100AC00040F60000C4F20000814211D040F6004020
:100AD000C4F200000AE000BF44F20000C4F20100CA
:100AE000814205D040F20040C4F2010081420BD1A6
:100AF00007228868C0F2010202400020062A18BFBF
:100B0000B2F5803F00D17047086840F001000860EE
:100B10000020704700000000704700000000000047
:100B20007047000000000000002800F01981F0B5B7
:100B30009BB000250446C5F6020502210022284686
:100B4000FFF0FAFB012000F153FB022101222846AD
:100B5000FFF0F2FB08212846FFF0E6FB01384FF0DA
:100B6000FF37B0FA80F001AE40098DF8040000BFF5
:100B7000042101222846FFF0DFFB012000F138FBB1
:100B8000042100222846FFF0D7FB012000F130FBB2
:100B900008212846FFF0C8FB0138F119B0FA80F0AF
:100BA0000137662F4FEA50108870E1D1002104F11F
:100BB00018007218193992F8673092F8607000F8CE
:100BC000183C92F8663000F8173C92F8653000F84F
:100BD000163C92F8643000F8153C92F8633000F847
:100BE000143C92F8623000F8133C92F8613000F83F
:100BF000123C92F85F3000F8103C92F85D3000F83B
:100C00000E3C92F85C3000F80D3C92F85B3000F836
:100C10000C3C92F85A3000F80B3C92F8593000F82E
:100C20000A3C92F8583000F8117C92F85E7000F897
:100C3000093C92F8563000F80F7C92F8577000F893
:100C4000073C92F8543000F8087C92F8557000F890
:100C5000053C92F8533000F8067C92F8527000F888
:100C6000043C92F84F3092F8515092F8502000F81E
:100C7000012C11F1640200F8037C00F8025C00F81A
:100C8000193B68D07218193992F8673000F8183C8F
:100C900092F8663000F8173C92F8653000F8163C80
:100CA00092F8643000F8153C92F8633000F8143C78
:100CB00092F8623000F8133C92F8613000F8123C70
:100CC00092F8603000F8113C92F85F3000F8103C68
:100CD00092F85E3000F80F3C92F85D3000F80E3C60
:100CE00092F85C3000F80D3C92F85B3000F80C3C58
:100CF00092F85A3000F80B3C92F8593000F80A3C50
:100D000092F8583000F8093C92F8573000F8083C47
:100D100092F8563000F8073C92F8553000F8063C3F
:100D200092F8543000F8053C92F8533000F8043C37
:100D300092F8523000F8033C92F8513000F8023C2F
:100D400092F8503000F8013C92F84F2011F1640302
:100D500000F8192B96D11BB0BDE8F0400120704778
:100D6000002070470000000010B586B000200590FC
:100D7000CDE90300CDE9010044F2E04040F6000473
:100D8000C5F60200C5F60204016841F004010160E5
:100D9000006801A900F00400009000987020019004
:100DA00001200290022004902046FFF779FB4021A9
:100DB00000222046FFF0C0FA202100222046FFF04A
:100DC000BBFA102100222046FFF0B6FA002000F105
:100DD000B7F906B010BD0000B0B540F600040546F6
:100DE000C5F60204C20910212046FFF0A5FA202111
:100DF00001222046FFF0A0FA00BF20210022204659
:100E0000FFF09AFAC5F3801210212046FFF094FA01
:100E1000202101222046FFF08FFA00BF202100226E
:100E20002046FFF089FAC5F3401210212046FFF05A
:100E300083FA202101222046FFF07EFA00BF202104
:100E400000222046FFF078FAC5F300121021204658
:100E5000FFF072FA202101222046FFF06DFA00BF58
:100E6000202100222046FFF067FAC5F3C0021021BE
:100E70002046FFF061FA202101222046FFF05CFAB3
:100E800000BF202100222046FFF056FAC5F3800261
:100E900010212046FFF050FA202101222046FFF0C9
:100EA0004BFA00BF202100222046FFF045FAC5F38F
:100EB000400210212046FFF03FFA20210122204667
:100EC000FFF03AFA00BF202100222046FFF034FA5A
:100ED00005F0010210212046FFF02EFA2021012208
:100EE0002046FFF029FA00BF202100222046BDE85D
:100EF000B040FFF021BA000070B540F23826002162
:100F0000C2F200464FF0010C3173C6E90011B16026
:100F100003E000BF0A31642972D0435C3BB1CB08C7
:100F200001F006020CFA02F2F45C2243F254431878
:100F30005A7842B1CA084C1C04F00704B55C0CFA9C
:100F400004F42543B5549A7842B18A1CD50802F0BE
:100F500006020CFA02F2745D22437255DA7842B14D
:100F6000CA1CD50802F007020CFA02F2745D224393
:100F700072551A7942B10A1DD50802F006020CFA20
:100F800002F2745D224372555A7942B14A1DD50866
:100F900002F007020CFA02F2745D224372559A794C
:100FA00042B18A1DD50802F006020CFA02F2745D05
:100FB00022437255DA7942B1CA1DD50802F0070200
:100FC0000CFA02F2745D224372551A7A4AB101F1A9
:100FD000080201F00605D2080CFA05F5B45C2543B9
:100FE000B5545A7A002A95D001F10902D30802F0CB
:100FF00007020CFA02F2F55C2A43F2548AE700BFBA
:10100000307BFFF7E9FEF07AFFF7E6FEB07AFFF7F4
:10101000E3FE707AFFF7E0FE307AFFF7DDFEF0794D
:10102000FFF7DAFEB079FFF7D7FE7079FFF7D4FE4D
:101030003079FFF7D1FEF078FFF7CEFEB078FFF7FA
:10104000CBFE7078FFF7C8FE3078FFF7C5FE40F69C
:1010500000044021C5F6020401222046FFF06CF98D
:1010600000BF402100222046BDE87040FFF064B977
:10107000FEE700000000000080B540F200400121C2
:10108000C5F60200002200F17FFB09A0FFF080F806
:101090004FF47A7000F0F0F90AA0FFF079F84FF4FD
:1010A0007A7000F0E9F9BDE8804000F0B9BB00BFFC
:1010B0004D656D20416363657373204572726F7275
:1010C00021210D00536F6674205265736574696E3B
:1010D000672E2E2E0D000000FEE70000000000002D
:1010E000B0B59CB044F6180409A84C21C5F602041A
:1010F000FFF786F902200025CDE90755CDE9055512
:10110000CDE90355CDE90155FFF7FEFA40F22C4039
:101110000095C5F60000016821F00101016000683A
:1011200000F001000090206840F4404020602068FA
:1011300000F44040009000982068800409D42068A2
:1011400080045CBF20685FEA804002D4206880048D
:10115000F2D5012009904FF480300A900220052139
:10116000CDE912001491A021CDE915100421082425
:10117000CDE9171009A819940025CDE91A55FFF0FB
:1011800013FA28B1EFF3108072B600BFFEE700BF7C
:101190003F20019003204FF48061CDE902054020FB
:1011A0000494CDE90500CDE9071001A80221FFF75D
:1011B000D3FA28B1EFF3108072B600BFFEE700BF8C
:1011C0001CB0B0BD0000000040F2D400C2F20040EC
:1011D000FFF026BE0000000040F6FF32C4F200021D
:1011E0009042026810DCB0F1804F1ED040F2004304
:1011F000C4F20003984218D040F60003C4F2000382
:10120000984212D015E000BF40F60043C4F200033C
:1012100098420AD040F20043C4F20103984204D03D
:101220000023C4F20103984203D122F070024B68FC
:101230001A434FF6FF7343F6FF7CC4F20003C4F277
:10124000010C984210DD604528DD44F20003C4F231
:10125000010398422DD044F60003C4F201039842E2
:1012600027D044F2004320E040F2FF73C4F20003B1
:10127000984207DCB0F1804F1BD040F20043C4F22B
:10128000000314E040F60003C4F20003984210D0BB
:1012900040F60043C4F2000309E000BF0023C4F29B
:1012A0000103984205D040F20043C4F20103984282
:1012B00003D122F44072CB681A4310B522F08002A9
:1012C000D1F800E04C698B6822430260C36260453C
:1012D000C0F828E0BDE8104014DD44F20002C4F27A
:1012E0000102904219D044F60002C4F20102904279
:1012F00013D044F20042C4F2010290420DD0012109
:10130000416170470022C4F20102904205D040F2D0
:101310000042C4F201029042F1D109690163012146
:10132000416170470000000080B541F22000C4F226
:10133000010050F8041C89062AD540F2E81CD0F8B8
:1013400004E0C2F2004CBCF8002011B200291FD406
:101350005FFA8EF3B2F5804F04D20D2B0CD142F41C
:10136000804113E048F2000E0021CFF6FF7E0A2BE9
:1013700008BF42EA0E0109E040F22013511CC2F2FC
:101380000043C62A03F802E088BF0021ACF8001031
:10139000016841F00801016080BD0000000000000C
:1013A000FEE70000000000007047000000000000A1
:1013B00010B540F2D40441F20002C2F20044C4F27B
:1013C0000002C4E900210021C4E902102046FFF018
:1013D0009BFB2046BDE81040FFF0C6BB00000000AC
:1013E000B0B58EB044F2E8400025C5F60200CDE964
:1013F0000C55CDE90A55016841F002010160006811
:1014000000F0020002900298FFF7D2FA044602A808
:1014100001A9FFF00DF807984DF683610028C4F28A
:101420001B3118BF01204FF0FF3204FA00F040F2E8
:10143000EC14A0FB0101C2F2004440F20040C4F2EF
:101440000000206002EB9140A561C4E901054FF660
:10145000FF70C4E903052046FFF056FB4FF48050AF
:101460000A900AA92046FFF0DBFB2046FFF7FCFAB2
:101470000EB0B0BD00000000002808BF70473D2836
:1014800002D3FEF7F9BF00BF40F2EC114FF47A72BD
:10149000C2F20041504309684A6A00BF4B6A9B1A76
:1014A00038BF03F58033834214D24B6A9B1A38BF8E
:1014B00003F5803383420DD24B6A9B1A38BF03F584
:1014C0008033834206D24B6A9B1A38BF03F58033C0
:1014D0008342E3D37047000041F21C01C4F20101D2
:1014E0000A68520609D40A6852065CBF0A685FEAB5
:1014F000426202D40A685206F2D5C2B2CA6070478C
:1015000000F01AF8FEF020FFFFF7EAFDFFF768FF92
:1015100064204FF4E13100F08FF9FFF0A9FEFFF0F5
:10152000E3FEFFF07DFF632040F65F11FFF740FF11
:10153000FFF072FFFEE700004EF660704FF6B45207
:10154000CEF20000CFF6FF728158890312D4BFF3A8
:101550004F8FBFF36F8F002140F8101CBFF34F8FE8
:10156000BFF36F8F815841F400318150BFF34F8F2B
:10157000BFF36F8F2DE9F04F82B08158C90361D45A
:101580004FF624610022CFF6FF71012742504FF63B
:101590002061CFF6FF71BFF34F8F4158CB08C1F3E5
:1015A000C905C1F34E32A5F1020B07EBD107691E45
:1015B0004FEA837E07F003064FEA817A43F6E0772D
:1015C0004FEA8B730193EB1E009303E0002AA2F114
:1015D000010229D007EA42142B467EB1012E4EEAC1
:1015E000040303600B4609D0022E4AEA0403036099
:1015F0005B4603D0019B23430360009B032DE5D38F
:1016000044EA8374013304F1404C84F0004804F14F
:10161000804900BF043B0460C0F800C0C0F80080EF
:10162000C0F80090F6D1D1E74FF6B452CFF6FF7272
:10163000BFF34F8F815841F480318150BFF34F8FFA
:10164000BFF36F8FC16B41F00401C16302B0BDE80D
:10165000F08F0000000000002DE9F04F571EDDF86C
:1016600028C0022F6AD2DDF8249000264FF0030A2A
:10167000022404E002360434102E00F0CF8001274B
:1016800007FA06F818EA010F2AD0A51ED0F800E0E4
:101690000AFA05FB2EEA0B07076002FA05FE076847
:1016A00047EA0E070760876809FA05FE27EA0B0775
:1016B0008760876847EA0E078760476803FA06FE77
:1016C00027EA08074760476847EA0E074760C76888
:1016D00027EA0B07C7600CFA05F7C5682F43C760F8
:1016E0000227B7400F42C5D00AFA04FE056825EA72
:1016F0000E05056002FA04F8056845EA080505606C
:10170000856809FA04F825EA0E058560856845EACA
:1017100008058560456806F10108BD43456003FA88
:1017200008F547683D434560C56825EA0E07C76070
:101730000CFA04F7C5682F43C7609BE700234FF0FE
:1017400030084FF00C094FF0030A002704E000BFF7
:1017500004370833102F61D021FA07F4E50713D0BE
:101760000AFA03F50668AE43066002FA03FB066850
:1017700046EA0B060660C66826EA0505C5600CFA4F
:1017800003F5C6683543C560A50716D509FA03F603
:10179000056803F1020BB543056002FA0BF5D0F8BA
:1017A00000E045EA0E050560C56825EA0606C66044
:1017B0000CFA0BF6C5682E43C660660715D508FA05
:1017C00003F5066803F1040EAE43066002FA0EFB51
:1017D000066846EA0B060660C66826EA0505C56087
:1017E0000CFA0EF6C5682E43C6602607B0D5C02594
:1017F00004689D409E1DAC43046002FA06FE046826
:1018000044EA0E040460C4680CFA06F624EA0505EE
:10181000C560C5682E43C6609AE700BFBDE8F08F7B
:101820004EF60C500421CEF20000C0F2FA510160D5
:1018300070470000000000002DE9F04182B044F242
:10184000E0420026C5F602020546C5F602060C4631
:1018500013684FF4007143F001031360136801270C
:1018600043F0010313601069002340F01000106181
:101870000222304600974FF000080197FFF7ECFE78
:101880004FF4806102220023304600970197FFF752
:10189000E3FE4FF4007107223046FFF0A9FE4FF43B
:1018A000806107223046FFF0A3FE43F6095061082D
:1018B00068432522022301EB80100321B0FBF4F0E2
:1018C00041F20004C4F20104E060C4F80080206822
:1018D00020602068206020682060206840F00800B8
:1018E0002060206840F004002060206840F0200064
:1018F00020600320FFF050FF206840F001002060CE
:1019000002B0BDE8F08100002819000800000024A2
:1019100018000000FC02000840190008180000240C
:10192000388200001C030008010000000090D00372
:101930000090D00301000000100000000000000033
:020000040810E2
:100000001FB501F007FC1FBD10B510BDDFF83000B3
:10001000016841F470010160BFF34F8F0948004748
:10002000FEE7FEE7FEE7FEE7FEE7FEE7FEE7FEE7A8
:10003000FEE7FEE704480549034A054B7047000008
:1000400088ED00E09902000850020024508200244C
:1000500050020024704700002DE9F05F89460446F5
:100060004FF0000ADFF824B1FB44C0F820A020467E
:10007000E168884700287DD0252806D0D4E90121F1
:100080009047206A401C2062F1E700255F46204629
:10009000E16888472028064607DB312E05D2B819CB
:1000A00010F8200C08B10543F1E7A80701D525F0A9
:1000B0000405C4F81CA00027C4F818A02A2E09D0F3
:1000C000304601F0A0FB38B304EB8708303EC8F897
:1000D000186019E059F8041B204604EB870291616F
:1000E000E1688847012F064618D1E069002820DA28
:1000F00025F020051DE0D8F8180000EB800006EB85
:1001000040003038C8F818002046E16888470646A5
:1001100001F079FB0028EED1012F0AD02E2E08D154
:100120002046E16888477F1C0646022F45F02005DF
:10013000C4DBA069002803DA404245F00105A06154
:10014000E80701D025F01005A6B1A6F14100192855
:1001500002D8203645F400654A46314620462560DF
:100160004D4600F7E9F860B1012807D0ED1D25F0F4
:10017000070000E007E000F1080978E705F104094D
:1001800075E730467AE7206ABDE8F09FC2170000A5
:1001900010B5044603E001F79FF9401C09D014F89C
:1001A000010B05490028F6D1BDE810400A2001F7EF
:1001B00093B94FF0FF3010BD8000002470477047A6
:1001C00070472DE9F0470D4699469246044600F1E6
:1001D00024080168880604D5E06921F01001216037
:1001E00000E00120A84201DD471B00E00027A169D3
:1001F0007A1902EB0900081AA0612078C00602D41F
:100200002046AFF30080002608E0D4E901211AF867
:1002100006009047206A401C761C20624E45F4DBA5
:100220002078C0060AD52046AFF3008006E0D4E966
:10023000012130209047206A401C2062381EA7F11F
:100240000107F4DC07E0D4E9012118F80500904724
:10025000206A401C2062281EA5F10105F3DC20461F
:10026000AFF300802078000602D50220BDE8F087B9
:100270000120FBE701694A1C02610878704700B55C
:100280008FB0CDE901310021059105497944CDE9CF
:10029000031011466846FFF7DFFE0FB000BD0000F7
:1002A000E5FFFFFF074B70B50D467B44FFF7E7FF07
:1002B0000446284600F008F810B14FF0FF3070BD3A
:1002C000204670BD2B12F0FF007B00F080007047CD
:1002D00000487047180000247546FFF7F9FFAE4646
:1002E00005006946534620F00700854618B020B542
:1002F000FFF7A0FEBDE820404FF000064FF00007DA
:100300004FF000084FF0000BAC46ACE8C009ACE879
:10031000C009ACE8C009ACE8C00921F007018D466E
:1003200070470000000000000069084018BF01206D
:100330007047000000000000002A08BF0904816126
:10034000704700000000000080B5032000F7CCF9E2
:1003500000F09AF844F2184141F63F03C5F6020155
:10036000C0F610030A68C2F303229A5C096801F020
:100370000F0102F01F02595CD04040F20802C2F2A5
:10038000004201F01F0120FA01F1116040F2040166
:10039000C2F2004108600F2000F00AF800281CBFDC
:1003A000012080BD00F02CF8002080BD000000007E
:1003B000B0B540F20C05C2F200452978F1B104460F
:1003C00040F20400C2F200404FF47A72B2FBF1F145
:1003D0000068B0FBF1F000F07BFB0F2C01464FF002
:1003E00001000AD8002918BFB0BD4FF0FF3000222D
:1003F000214600F749F900206C60B0BD0120B0BD76
:100400007047000000000000002848BF704700F05F
:100410001F01012202FA01F14EF20012C0F34A104C
:10042000CEF2000242F820107047000000000000E9
:100430003F22026044F21842C5F6020252F8083C1C
:1004400003F007034360136803F470638360136869
:1004500003F00F03C360136803F070030361536874
:1004600003F070034361536803F4E06383619268AF
:1004700002F07002C26142F20000C5F20020006882
:1004800000F00F000860704744F20041C5F6020119
:100490000869C0F3C200032816D002280ED0002835
:1004A00032D10868800649F20000C0F2D03058BF4F
:1004B00070470968C1F3C101C840704747F6400062
:1004C000C0F27D10704700BF8B6A886AD1F82CC0DB
:1004D0004A6BC0F30510E8B1C2F3CC0203F003038A
:1004E00000EE102A9FED2A1AB8EE400A20EE010A0B
:1004F0009FED281ADFE803F0022110210A68920616
:100500000ED49FED261A18E040F60010C0F23D0010
:10051000704700BF002070479FED1F1A0DE000BF1D
:100520000A6849F20003C0F2D033C2F3C10223FAD1
:1005300002F201EE102AB8EE411A0A6B9FED183A4A
:100540006FF35F2202EE102A5FEACC7203FE000A0C
:1005500003EE100A086BB8EE422AC0F34620B8EE4C
:10056000433A013030EE020AB7EE002A81EE031A58
:1005700030EE020A21EE000A01EE100AB8EE411A2E
:1005800080EE010ABCEEC00A10EE100A704700BFF0
:10059000000000390024744A20BCBE4B0024744C77
:1005A000000000000000000070B3F0B581B0044608
:1005B000007844F20046C007C5F6020626D120782E
:1005C000800740F1C280306910F03801B06A3FD036
:1005D000182908BF5FEA80703AD0E06831680028C7
:1005E00062D021F019010843306000F735F8054664
:1005F0003068400748D400F72FF8401B0228F7D98D
:10060000032001B0F0BD00BF01207047306900F049
:100610003801B06A102905D018290BD100F0030069
:10062000022807D130688003C9D560680028C6D188
:1006300034E100BF6168306800294FD0B1F5A02FC8
:1006400044D0B1F5803F5FD140F4803062E000BF1C
:1006500030684007E06802D5002800F01F8131684B
:1006600021F0190108433060FFF6F6FF054600BF90
:100670003068400708D4FFF6EFFF401B02284FF018
:100680000300F5D901B0F0BDFFF6DEFF41F2030132
:1006900088424FD820697168402821F47C3151D1BB
:1006A00041F4003050E000BF21F001003060FFF65F
:1006B000D3FF05463068400747D5FFF6CDFF401B06
:1006C00002284FF00300F5D9DCE700BF40F480209A
:1006D0003060306840F480301CE000BF20F480308F
:1006E0003060306820F480203060FFF6B5FF0546AA
:1006F000306880037FF563AFFFF6AEFF401B6428D0
:100700004FF00300F4D9BDE720F48030306030684A
:1007100020F480203060FFF69FFF0546306880039C
:100720003FF54DAFFFF698FF401B6428F6D9032034
:1007300001B0F0BD7068216920F0FE4040EA016020
:1007400002E000BF41EA003070602078C00654D556
:10075000306900F03801B06A082905D0182919D18C
:1007600000F00300012815D13068C00503D5E06909
:10077000802840F09380FFF667FF41F20301884232
:100780001ED8206A7168202821F0F84132D141F04A
:10079000804031E0E0690028306819D040F08000E6
:1007A0003060FFF659FF05463068C005E3D4FFF618
:1007B00053FF401B02284FF00300F5D962E700BF4A
:1007C000F068216A20F07C5040EA0160F06014E09B
:1007D00020F080003060FFF63FFF05463068C0051E
:1007E0000BD5FFF639FF401B02284FF00300F5D967
:1007F00048E700BF41EA806070602078000737D486
:10080000207880064ED42078400761D4656A65B3AD
:10081000306900F03800182840F0A080012DB16A3E
:10082000306B3BD001F00302A36A9A4236D1C1F388
:100830000511E26A914231D10146226B6FF35F21CB
:10084000013A91422AD1C0F34622616B01398A42B2
:1008500024D1C0F30642A16B01398A421ED1C0F3F4
:100860000660E16B0139884218D1002001B0F0BD6B
:1008700060690028706F41D040F001007067FFF69A
:10088000EBFE0546706F8007BAD4FFF6E5FE401B0D
:100890000228F7D9032001B0F0BD00BF012001B04C
:1008A000F0BD00BFA0690028306845D040F48050FA
:1008B0003060FFF6D1FE054630688004A3D4FFF611
:1008C000CBFE401B0228F7D9032001B0F0BD00BFCA
:1008D000D6F8000440F48070C6F80004FFF6BCFEB1
:1008E000054600BFD6F80004C00519D4FFF6B4FED3
:1008F000401B6428F6D9032001B0F0BD20F00100B0
:100900007067FFF6A9FE0546706F80077FF578AF28
:10091000FFF6A2FE401B02284FF00300F4D9B1E617
:10092000A168306F002943D0052939D0012957D15A
:1009300040F001005AE000BF20F480503060FFF624
:100940008BFE0546306880047FF55DAFFFF684FEC0
:10095000401B02284FF00300F4D993E6306820F0E2
:1009600080703060FFF678FE022D05460CD100BF86
:10097000306880014CD5FFF66FFE401B02284FF017
:100980000300F5D97EE600BF306880017FF56DAFCA
:10099000FFF662FE401B02284FF00300F4D971E617
:1009A00040F004003067306F40F001001EE000BFEF
:1009B00020F001003067306F20F004003067FFF650
:1009C0004BFE054641F28837306F80077FF51EAF3A
:1009D000FFF642FE401BB8424FF00300F4D951E647
:1009E00020F001003067306F20F004003067FFF620
:1009F00033FE054641F28837306F80073FF506AF7A
:100A0000FFF62AFE401BB8424FF00300F4D939E646
:100A100004F12807B06A40F2F33188438ECF0843CF
:100A2000591E40EA02104FF47E426FF35F21B0621C
:100A300002EB47204FF4FE0280B2E36B0844A16B47
:100A400002EB01414FF0FE4201F4FE0102EB0362B2
:100A5000084402F0FE4108443063F06A4FF6F87132
:100A600020F00100F062706BA26C884340EAC20083
:100A70007063F06A216C20F00C000843F062F06AA9
:100A8000616C20F002000843F062F06A40F48030AC
:100A9000F062F06A40F40030F062F06A40F48020C6
:100AA000F062F06A40F00100F062306840F080705F
:100AB0003060FFF6D1FD0446306880013FF5D5AEC9
:100AC000FFF6CAFD001B02284FF00300F4D9D9E558
:100AD000411E0020B0EB116F02D00120704700BF13
:100AE0004EF21002F023CEF2000251604EF6235176
:100AF000CEF200010B70072190601160704700007A
:100B0000704700000000000060B310B5044690F884
:100B10003D0028B9002084F83C002046FFF680FF05
:100B2000022084F83D002068211D00F755FB0120BC
:100B300084F8480084F83E0084F83F0084F84000C0
:100B400084F8410084F8420084F8430084F84400AB
:100B500084F8450084F8460084F8470084F83D0096
:100B6000002010BD0120704790F83D1001291BD1D5
:100B7000022180F83D10016841F2FF70C4F20000CC
:100B80008142C86840F00100C8600FDC40F2FF708D
:100B9000C4F20000814217DCB1F1804F2CD040F24A
:100BA0000040C4F2000025E00120704740F2FF3011
:100BB000C4F20100814213DC41F60000C4F20000DF
:100BC000814219D0002013E040F60000C4F200007A
:100BD000814211D040F60040C4F200000AE000BF9C
:100BE00044F20000C4F20100814205D040F200400E
:100BF000C4F2010081420BD107228868C0F20102D1
:100C000002400020062A18BFB2F5803F00D170478D
:100C1000086840F0010008600020704700000000F4
:100C200090F83C20012A4FF0020200F0AA8080B523
:100C300080F83D208822D0F800C0CFF6CE72DCF8D4
:100C400008301A40CCF808200B686F2B0EDDB3F18A
:100C5000101F37DAB3F5005F6EDA702B00F0B68044
:100C6000B3F5805F00F08480D8E000BF2F2B33DD28
:100C70004F2B39DC302B6FD0402B40F0CF80D1F898
:100C800004E0C968DCF82030DCF8202022F0010202
:100C9000CCF82020DCF8182022F0F00242EA011102
:100CA00023F00A02CCF8181042EA0E01CCF820100A
:100CB0004FF68872DCF80810CFF6CF72114047313A
:100CC00054E000BF2F21C0F210018B423ADCB3F197
:100CD000101F41D020213BE0002B18BF102B3BD030
:100CE000202B39D09AE000BF502B4DD0602B40F024
:100CF0009580D1F804E0C968DCF8203023F01003B7
:100D0000CCF82030DCF81830DCF8202023F47043D5
:100D100022F0A00243EA0131CCF8181042EA0E1189
:100D2000CCF820104FF68872DCF80810CFF6CF729E
:100D3000114067311AE000BF5CD0B3F5801F0BD0C3
:100D40006CE000BF3021C0F210018B4204D0402182
:100D5000C0F210018B4261D14FF68872DCF80810A6
:100D6000CFF6CF721140194341F00701CCF80810BB
:100D70000022012180F83D10002180F83C10BDE8E0
:100D800080401046704700BFD1F804E0C968DCF825
:100D90002030DCF8202022F00102CCF82020DCF802
:100DA000182022F0F00242EA011123F00A02CCF8E6
:100DB000181042EA0E01CCF820104FF68872DCF8C9
:100DC0000810CFF6CF7211405731CFE701F1040E72
:100DD0009EE80C40DCF808101A4321F47F4142EAF7
:100DE0000E221143CCF80810DCF8081041F077010E
:100DF000BCE700BF01F1040E9EE80C40DCF80810CF
:100E00001A4321F47F4142EA0E221143CCF8081024
:100E1000DCF8081041F48041A8E700BF0122A8E7F0
:100E200010B5044600680169890744BFC1685FEADC
:100E300081713FD40169490744BFC1685FEA4171CC
:100E400044D40169090744BFC1685FEA01714BD40A
:100E50000169C90644BFC1685FEAC16150D4016934
:100E6000C9071CBFC1685FEAC17157D10169090692
:100E700044BFC1685FEA016158D40169C90544BF34
:100E8000C1685FEA016159D40169490644BFC1687C
:100E90005FEA41615AD40169890646BFC1685FEAC9
:100EA000816110BD6FF0200101612046BDE8104056
:100EB000FFF6B2BD6FF00201016101212177806967
:100EC00080074BD02046FFF627FE4DE06FF004016F
:100ED000016102212177806910F4407F48D02046CB
:100EE000FFF61AFE4AE000BF6FF00801016104211D
:100EF0002177C069800745D02046FFF60DFE47E008
:100F00006FF01001016108212177C06910F4407F62
:100F100042D02046FFF600FE44E000BF6FF0010122
:100F20000161204600F048F820689FE76FF08001DB
:100F300001612046FFF7E4FD20689EE76FF48071B1
:100F400001612046FFF664FD20689DE76FF04001D7
:100F50000161204600F03CF820689CE7204600F044
:100F600027F82046FFF6DCFD00202077206861E7A7
:100F7000204600F01DF82046FFF6D2FD0020207725
:100F800020685EE7204600F013F82046FFF6C8FD13
:100F90000020207720685BE7204600F009F8204613
:100FA000FFF6BEFD00202077206858E70000000013
:100FB000704700000000000041F200010068C4F228
:100FC0000001884218BF7047012000F081B900007D
:100FD0007047000000000000F0B587B044F2E04028
:100FE0000026C5F602000696CDE90466CDE9026644
:100FF0000168002441F0010101600068C5F60204A7
:1010000000F00100019002AD0198022002900590CD
:101010002046294601270397FFF642FA0420029052
:1010200020462946FFF63CFA02A90820C1C1204605
:101030002946FFF635FA022101222046FFF77CF906
:10104000042100222046FFF777F907B0F0BD000029
:10105000B2B0FFF689FEFFF7BFFF19AC6421012291
:101060002046FFF6C5F96D4664212846FFF6C8F90B
:101070002046FFF641FF6420FFF6FEF92846FFF602
:1010800053FD00260FF24408002702E00136642ECB
:101090000AD0A25DAB5D9A42F8D040463146013796
:1010A000FFF65EF9F2E700BF380605D0F9B212A0EC
:1010B000FFF656F904E000BF18A0FFF769F800BF7B
:1010C0004FF47A70FFF6D8F9FAE700BF4D69736DF7
:1010D000617463682061742050696E2025643A2031
:1010E0004F75747075743D25642C20496E7075744D
:1010F0003D25640D0A000000546573742046616943
:101100006C65643A202564204D69736D6174636871
:10111000657320466F756E64210D0A005465737403
:10112000205061737365643A20416C6C2050696E85
:1011300073204D61746368210D0000000000000001
:1011400010B5044640F238210028C2F200411CBF0D
:101150004FF0FF30FF244FF00132087304FB02F020
:10116000C1E9000088602046FFF636FE2046FFF603
:1011700033FE2046FFF630FE2046FFF62DFE2046C9
:10118000FFF62AFE2046FFF627FE2046FFF624FE45
:101190002046FFF621FE2046FFF61EFE2046FFF603
:1011A0001BFE2046FFF618FE2046FFF615FE2046E1
:1011B000FFF612FE40F600044021C5F602040122AB
:1011C0002046FFF7B9F800BF402100222046BDE8C5
:1011D0001040FFF7B1B800007047000000000000A9
:1011E0007047000000000000FFF63EBA000000005B
:1011F000002808BF7047B0B54EF6612188420FD372
:1012000044F6D3510546C1F26201A0FB01129409D4
:101210002046FFF631F94FF47A7104FB115008B300
:1012200040F2EC11C2F2004109684A6A4B6A9B1A0B
:1012300038BF03F58033834214D24B6A9B1A38BF00
:1012400003F5803383420DD24B6A9B1A38BF03F5F6
:101250008033834206D24B6A9B1A38BF03F5803332
:101260008342E3D3BDE8B0407047000000000000B7
:10127000B0B582B044F2E04040F20044C5F602004E
:10128000C5F60204012200230168012541F0020194
:101290000160016841F002010160022120460095D1
:1012A000019500F7D9F9012101220023204600957C
:1012B000019500F7D1F902210122204600F064FADD
:1012C00001210122204602B0BDE8B04000F05CBA26
:1012D00040F278010022C2F200410A704A681044CC
:1012E00048607047000000004EF624502522CEF2E0
:1012F0000000C0F20332016821F480310160016F07
:1013000021F001010167012141674FF00051816720
:10131000111FC16705210167036843F4803303602F
:10132000036823F480330360036F23F00103036732
:10133000022343674FF010538367C2670167036856
:1013400043F480330360036823F480330360036F46
:1013500023F001030367032343674FF04053836780
:10136000C2670167036843F480330360036823F4B2
:1013700080330360036F23F0010303670423436793
:101380004FF060538367931FC36701670C32036894
:1013900043F480330360036823F480330360036FF6
:1013A00023F00103036741674FF0C0438367332392
:1013B000C0F20033C3670167036843F480330360FE
:1013C000036823F480330360036F23F00103036792
:1013D000062343674FF040438367C2670167026893
:1013E00042F480320260026822F480320260026FAE
:1013F00022F001020267072242674FF00042826733
:101400003722C1F20032C2670167016841F48031BE
:101410000160704700000000FFF71AFE00000000A6
:101420002DE9F04F83B044F2D44040F6000AC5F6EF
:101430000200C5F6020A44F258164FF6FC74C16861
:10144000022241F07C01C1600168002341F4805117
:1014500001600D215046C5F20026C0F21F044FF076
:10146000010B4FF00308CDE9008B00F7F5F80AF502
:1014700080604CF20371022200230290CDE9008BC0
:1014800000F7EAF80AF500694FF68371022200239B
:101490004846CDE9008B00F7DFF80AF540674FF6C4
:1014A0003F01022200233846CDE9008B00F7D4F833
:1014B0000AF5805548F23711022200232846CDE96B
:1014C000008B00F7C9F80D210C22504600F090F86F
:1014D0004CF203710C22029800F08AF84FF68371E7
:1014E0000C22484600F084F84FF63F010C223846A3
:1014F00000F07EF848F237110C22284600F078F808
:1015000041F6591046F8180C46F27160C0F21110FD
:1015100046F8100C4FF6A860CFF6FF70315841F036
:1015200000413150112046F8080C204631688906E8
:1015300044BF31685FEA81610AD53168890644BFDA
:1015400031685FEA816103D50028A0F10400EDD184
:101550004FF4FA70FFF74CFE122046F8080C2046B4
:101560003168890644BF31685FEA81610AD5316814
:10157000890644BF31685FEA816103D50028A0F184
:101580000400EDD140F2131046F8080C20463168F3
:10159000890644BF31685FEA81610AD531688906EE
:1015A00044BF31685FEA816103D50028A0F10400DF
:1015B000EDD144F21420C0F2040046F8080C306863
:1015C000800644BF30685FEA80600AD530688006D4
:1015D00044BF30685FEA806003D5002CA4F10404A6
:1015E000EDD140F28E6046F8040C03B0BDE8F08FF8
:1015F000CB0735D18B073CD44B0744D40B074CD4D5
:10160000CB0654D48B065CD44B0664D40B066CD446
:10161000CB0575D48B057DD44B0500F186800B0579
:1016200000F18E80CB0400F196808B0400F19E8047
:101630004B0407D5436A23F070634362436A43EA6D
:101640000263436209B2B1F1FF3FC8BF7047416A0C
:1016500021F070414162416A41EA02714162704782
:10166000036A23F00F030362036A134303628B07C9
:10167000C2D5036A23F0F0030362036A43EA02134C
:1016800003624B07BAD5036A23F470630362036AEB
:1016900043EA022303620B07B2D5036A23F47043C3
:1016A0000362036A43EA02330362CB06AAD5036AE4
:1016B00023F470230362036A43EA024303628B0646
:1016C000A2D5036A23F470030362036A43EA025358
:1016D00003624B069AD5036A23F070630362036AC0
:1016E00043EA026303620B0692D5036A23F0704358
:1016F0000362036A43EA02730362CB057FF58AAF94
:10170000436A23F00F034362436A134343628B052A
:101710007FF582AF436A23F0F0034362436A43EAF2
:10172000021343624B057FF57AAF436A23F470637B
:101730004362436A43EA022343620B057FF572AFBB
:10174000436A23F470434362436A43EA02334362C9
:10175000CB047FF56AAF436A23F470234362436A84
:1017600043EA024343628B047FF562AF436A23F48A
:1017700070034362436A43EA025343624B043FF5FA
:1017800059AF5FE700000000D20708BF0904826973
:101790001143816170470000B0B54EF60C5E4FF00A
:1017A000070CCEF2000E2CEA030C4FF6FF05DEF814
:1017B00000402C4044EA0C25C3F1040445F0806548
:1017C00000FA04FC45F0FD75CEF800500F25012409
:1017D00025FA03F31C25194002F01F0304FA03F352
:1017E0004EF2001405EAD205CEF200042243285935
:1017F000184328514CEA010092F8001341EA001006
:1018000082F80003B0BD30380A2801D201207047A9
:1018100000207047F1EE100A4FF6FF71C0F2C031A0
:1018200020EA010040F04070E1EE100A7047040029
:10183000000800000000000000020001000010008D
:101840000000000102030401020304060708090066
:040000050800029954
:00000001FF
