:020000040800F2
:100000006882002465030008691800086118000868
:1000100091121008D9001008E91B00080000000028
:10002000000000000000000000000000D1171008D0
:10003000F106000800000000F1121008D91710089E
:100040008B0300088B0300088B030008C1171008FE
:100050008B0300088B0300088B0300088B03000848
:100060008B0300088B0300088B0300088B03000838
:100070008B0300088B0300088B0300088B03000828
:100080008B0300088B0300088B0300088B03000818
:100090008B0300088B0300088B0300088B03000808
:1000A0008B0300088B0300088B0300088B030008F8
:1000B0008B0300088B0300088B0300088B030008E8
:1000C0008B0300088B0300088B0300088B030008D8
:1000D0008B030008711B00088B0300088B030008CA
:1000E0008B030008891A0008000000008B03000839
:1000F0008B0300088B0300088B0300088B030008A8
:100100008B0300088B0300088B0300088B03000897
:100110008B0300088B030008611B00088B03000899
:100120008B0300088B0300088B0300088B03000877
:100130008B0300088B0300088B0300088B03000867
:1001400000000000000000000000000000000000AF
:100150008B0300088B0300088B0300088B03000847
:100160008B0300088B0300088B0300088B03000837
:100170008B0300088B0300088B03000800000000BD
:100180008B0300088B0300088B0300088B03000817
:100190008B0300088B0300088B0300088B03000807
:1001A0008B0300088B0300088B0300088B030008F7
:1001B0008B0300088B0300088B0300088B030008E7
:1001C0008B0300088B0300088B0300088B030008D7
:1001D0008B0300088B0300088B0300088B030008C7
:1001E0008B0300088B0300088B0300088B030008B7
:1001F0008B0300088B0300088B0300088B030008A7
:100200008B0300088B0300088B0300088B03000896
:100210008B0300088B0300088B0300088B03000886
:100220008B0300088B0300088B030008000000000C
:100230008B0300088B030008000000008B030008FC
:100240008B0300088B0300088B0300088B03000856
:100250008B0300088B0300088B0300088B03000846
:100260008B0300088B0300088B0300088B03000836
:100270008B0300088B0300088B03000800000000BC
:100280008B0300088B0300088B03000800000000AC
:10029000000000008B03000800F002F800F053F8A3
:1002A00014A696E8000CB244B344DA4501D100F03C
:1002B0004AF8BAE80F000FA696E83000A5EB04054F
:1002C00004EB0607AAEB0704A7F101074FEA15158F
:1002D0004FEA3414A4F10104AC4201D300F033F826
:1002E00013F0010F18BFFB1A43F0010300F001F8EF
:1002F000DBE718471C1D00003C1D0000103A24BF1E
:1003000078C878C1FAD8520724BF30C830C144BF7A
:1003100004680C6070470000704700000023002450
:1003200000250026103A28BF78C1FBD8520728BF05
:1003300030C148BF0B607047752900F0398000203C
:10034000704710B510BD00F0A5F91146FFF058FE3A
:1003500001F18EFC00F0C3F903B4FFF7F2FF03BC18
:1003600001F046FCDFF83000016841F470010160E3
:10037000BFF34F8F09480047FEE7FEE7FEE7FEE7C1
:10038000FEE7FEE7FEE7FEE7FEE7FEE70448054975
:10039000034A054B7047000088ED00E09902000811
:1003A000680200246882002468020024704700006C
:1003B0002DE9F0410646002410687529314616A53E
:1003C00010D0AFF30080002802DA404213A507E006
:1003D00031688A0701D512A502E0490704D511A5A5
:1003E000012401E0AFF3008000210A2206F1240776
:1003F00009E0B0FBF2FCB0FBF2F302FB1C00303072
:1004000078541846491C0028F3D123462A46304622
:10041000BDE8F04100F0CCB8000000002D00000065
:100420002B000000200000002DE9F05F8946044603
:100430004FF0000ADFF874B1FB44C0F820A020465A
:10044000E1688847002874D0252806D0D4E9012126
:100450009047206A401C2062F1E700265F46204654
:10046000E16888472028054607DB312D05D2781939
:1004700010F8200C08B10643F1E7B00701D526F0CB
:100480000406C4F81CA00027C4F818A02A2D09D01F
:10049000284601F15EFD38B304EB8708303DC8F80B
:1004A000185019E059F8041B204604EB87029161AB
:1004B000E1688847012F054618D1E069002820DA55
:1004C00026F020061DE0D8F8180000EB800005EBB0
:1004D00040003038C8F818002046E16888470546D3
:1004E00001F137FD0028EED1012F0AD02E2D08D1C1
:1004F0002046E16888477F1C0546022F46F020060B
:10050000C4DBA069002803DA404246F00106A0617E
:10051000F00701D026F010066C2D0BD0682D09D005
:100520004C2D39D06A2D35D0742D35D07A2D33D05D
:1005300016E038E0E1682F4620468847B842054675
:1005400009D16C2F26D04FF48060E1680643204625
:100550008847054604E06C2F1AD04FF4807006439C
:100560000DB3A5F14100192802D8203546F40066E4
:100570004A462946204626604E46FFF7DDFE80B1FA
:1005800001280BD0F61D26F0070000F1080956E7F8
:100590004020E4E78020D8E70020D6E706F10409F0
:1005A0004DE7284652E7206ABDE8F09F241B100063
:1005B0002DE9F0470D4699469246044600F124087D
:1005C0000168880604D5E06921F01001216000E08F
:1005D0000120A84201DD471B00E00027A1697A192C
:1005E00002EB0900081AA0612078C00602D4204658
:1005F000AFF30080002608E0D4E901211AF80600D4
:100600009047206A401C761C20624E45F4DB20781F
:10061000C0060AD52046AFF3008006E0D4E90121E8
:1006200030209047206A401C2062381EA7F1010745
:10063000F4DC07E0D4E9012118F805009047206AAE
:10064000401C2062281EA5F10105F3DC2046AFF313
:1006500000802078000602D50220BDE8F087012046
:10066000FBE7000001694A1C02610878704700B589
:100670008FB0CDE901310021059105497944CDE9DB
:10068000031011466846FFF7CFFE0FB000BD000013
:10069000E5FFFFFF7546FFF01BFDAE46050069460E
:1006A000534620F00700854618B020B5FFF76EFED0
:1006B000BDE820404FF000064FF000074FF0000863
:1006C0004FF0000BAC46ACE8C009ACE8C009ACE8A0
:1006D000C009ACE8C00921F007018D46704710B58C
:1006E0000446AFF300802046BDE81040FFF734BE5B
:1006F0007047000000000000B0B5044600F0ECF8C0
:1007000040F20E010546C2F20041621C097818BF92
:100710000C4400BF00F0E0F8401BA042FAD3B0BD8B
:100720002DE9F04F83B00E68002E00F0C78000F175
:10073000264742F2004507F1FF77C5F602050A2277
:10074000A8424FEAB72500F1200308BF0922009311
:10075000092D38BF4FEAB722002400274FF0000AC6
:1007600001920AE00AF1010A0E6836FA0AF207F16C
:10077000020704F1040400F0A180012202FA0AFB3E
:1007800016EA0B08EED0D1F80490032209F0030E0C
:10079000AEF10106012E02FA07F610D8D0F808C013
:1007A000CD682CEA0602BD402A438260C9F30015D9
:1007B000426822EA0B0205FA0AF52A434260BEF1BA
:1007C000030F1FD0C2688D68B243BD40BEF1020F57
:1007D00042EA0502C26015D16FF00302009D02EAF1
:1007E0005A0B04F01C030F2255F80BC002FA03FE4B
:1007F000D1F810902CEA0E0C09FA03F343EA0C032B
:1008000045F80B3002684B68B24303F00306BE4064
:1008100013F4403F42EA06020260A3D044F2F443DC
:1008200040F2084CC5F60203C5F6000C0F251A6805
:1008300042F002021A601A6802F0020202922AF0E2
:100840000302029B04F00C0352F80C609D40AE437F
:10085000019D05FA03F3334342F80C304FF0B04CDE
:10086000DCF800204B6842EA0806DD0258BF22EAA5
:1008700008069D02CCF8006040F2040CC5F6000C9E
:10088000DCF8002042EA080658BF22EA08069D0369
:10089000CCF80060DCF8802042EA080658BF22EA63
:1008A0000806DB03CCF88060DCF87C2042EA08060E
:1008B00058BF22EA0806CCF87C6053E703B0BDE8D5
:1008C000F08F00000000000041F20000C5F600407B
:1008D0000068000C7047000040F26020C2F2004047
:1008E000006870470000000080B5032000F074F835
:1008F00000F0D6F944F2184142F20003C5F60201B5
:10090000C0F600030A68C2F303229A5C096801F08A
:100910000F0102F01F02595CD04040F20802C2F2FF
:10092000004201F01F0120FA01F1116040F20401C0
:10093000C2F2004108600F20FFF0E2FB00281CBF5C
:10094000012080BDFFF008FC002080BD00000000F9
:10095000002848BF704700F01F01012202FA01F190
:100960004EF20012C0F34A10CEF2000242F82010FC
:10097000704700000000000070B54EF60C5C4FF0B0
:10098000FF36CEF2000C00F1604505F56445DCF859
:100990000030C3F3022E8EF00703042B28BF04237C
:1009A000BEF1030406FA03F321EA030100F00F038A
:1009B00038BF0024043B0028634406FA04F048BF13
:1009C00003F10C05A14022EA000008430001287051
:1009D00070BD0000000000004EF60C514FF6FF0302
:1009E000CEF200010A681A4060F30A2242F08060E9
:1009F00040F0FD70086070472DE9F04381B0002899
:100A000000F0F88042F200080446C5F2002889464A
:100A1000D8F8000000F00F0081420ED9D8F800008D
:100A200020F00F0040EA0900C8F80000D8F80000E4
:100A300000F00F00484540F0DD80206844F2184780
:100A40004107C5F602070AD521693A6802F070022B
:100A5000914204D93A6822F07002114339600107CB
:100A60000AD561697A6802F07002914204D97A6805
:100A700022F0700211437960C1060AD5A1697A6833
:100A800002F4E062914204D97A6822F4E0621143F0
:100A9000796081060AD5E169BA6802F07002914274
:100AA00004D9BA6822F070021143B96081070AD5EF
:100AB000E1683A6802F00F02914204D93A6822F0E4
:100AC0000F0211433960C00740F080802068810721
:100AD0000AD5E1683A6802F00F02914204D23A68FE
:100AE00022F00F0211433960D8F8001001F00F0115
:100AF00089450DD2D8F8001021F00F0141EA090113
:100B0000C8F80010D8F8001001F00F01494571D164
:100B100041070AD521693A6802F07002914204D275
:100B20003A6822F070021143396001070AD5616901
:100B30007A6802F07002914204D27A6822F0700260
:100B400011437960C1060AD5A1697A6802F4E062AE
:100B5000914204D27A6822F4E062114379608006FF
:100B60000AD5E069B96801F07001884204D2B96819
:100B700021F070010843B86000F092F8396842F241
:100B80000002C0F60002C1F30321515C3B6803F090
:100B90000F0301F01F01D25C20FA01F102F01F00E7
:100BA00040F20802C2F2004221FA00F0106040F266
:100BB000100040F20402C2F20040C2F2004200689B
:100BC000116001B0BDE8F043FFF09ABA386820F434
:100BD0007061D4E9010211433960012857F8181CEB
:100BE0000CD0032804D0022828D1890302D507E0BD
:100BF000890105D4012001B0BDE8F083C905F9D50C
:100C000057F8081C21F00701084347F8080CFFF7C4
:100C100063FE064641F2883557F8080C616800F01B
:100C20003800B0EBC10F3FF451AFFFF755FE801B0A
:100C3000A842F1D9032001B0BDE8F0834907D9D516
:100C4000DEE70000000000003F22026044F218428C
:100C5000C5F6020252F8083C03F00703436013682C
:100C600003F470638360136803F00F03C3601368B9
:100C700003F070030361536803F07003436153682A
:100C800003F4E0638361926802F07002C26142F291
:100C90000000C5F20020006800F00F0008607047F7
:100CA00044F20041C5F602010869C0F3C2000328FE
:100CB00014D002280DD088BB0868800649F20000D5
:100CC000C0F2D03058BF70470968C1F3C101C840B5
:100CD000704747F64000C0F27D1070478B6A886A03
:100CE000D1F82CC04A6BC0F30510E0B1C2F3CC02BE
:100CF00003F0030300EE102A9FED291AB8EE400A14
:100D000020EE010A9FED271ADFE803F0021F0F1FF4
:100D10000A6892060CD49FED251A16E040F60010E2
:100D2000C0F23D007047002070479FED1F1A0CE095
:100D30000A6849F20003C0F2D033C2F3C10223FAB9
:100D400002F201EE102AB8EE411A0A6B9FED183A32
:100D50006FF35F2202EE102A5FEACC7203FE000AF4
:100D600003EE100A086BB8EE422AC0F34620B8EE34
:100D7000433A013030EE020AB7EE002A81EE031A40
:100D800030EE020A21EE000A01EE100AB8EE411A16
:100D900080EE010ABCEEC00A10EE100A704700BFD8
:100DA000000000390024744A20BCBE4B0024744C5F
:100DB00000000000000000002DE9F04381B0002891
:100DC00000F09E818046007844F20049C007C5F6D5
:100DD000020954D0D9F8100000F03801D9F82800E1
:100DE000102905D018290CD100F00300022808D1E1
:100DF000D9F8000080033ED5D8F80400D8BB0127FD
:100E00002CE0D8F80440D9F800002CB1B4F5A02F9C
:100E10000BD0B4F5803F0ED020F48030C9F800002C
:100E2000D9F8000020F4802007E040F48020C9F8C1
:100E30000000D9F8000040F48030C9F80000FFF746
:100E40004BFD05469CB100BFD9F80000800312D4C9
:100E5000FFF742FD401B6428F6D90327002070B934
:100E600094E100BFFFF738FD401B6428F5D8D9F89E
:100E700000008003F6D40120002800F0878198F854
:100E80000000800740F18080D9F8100010F0380190
:100E9000D9F828001CD0182908BF5FEA807017D045
:100EA000D8F80C00D9F80010002845D021F019011D
:100EB0000843C9F80000FFF70FFD0546D9F8000008
:100EC000400728D4FFF708FD401B0228F6D91EE092
:100ED000D9F80000400704D5D8F80C00002800F02D
:100EE000B481D9F80000D8F80C1020F0190008439C
:100EF000C9F80000FFF7F0FC054600BFD9F8000074
:100F0000400708D4FFF7E8FC401B0228F6D9032766
:100F10000024CCBB3AE1FFF7D7FC41F20301884241
:100F200021D8D8F81000D9F80410402821F47C31D9
:100F300022D141F4003021E021F00100C9F8000085
:100F4000FFF7CAFC05460126D9F8000010F004009E
:100F500086EA900415D0FFF7BFFC401B0228F3D9A6
:100F600003278CB912E1D9F80400D8F8101020F04A
:100F7000FE4040EA016001E041EA00300124C9F886
:100F80000400002C00F0028198F80000C00670D523
:100F9000D9F8100000F03801D9F82800082905D048
:100FA00018291CD100F00300012818D1D9F800003D
:100FB000C00503D5D8F81C00802855D1FFF784FC64
:100FC00041F20301884222D8D8F82000D9F8041051
:100FD000202821F0F8413ED141F080403DE0D8F892
:100FE0001C000028D9F800001ED040F08000C9F88D
:100FF0000000FFF771FC0546D9F80000C005DDD4FC
:10100000FFF76AFC401B0228F6D903272DE0D9F828
:101010000C00D8F8201020F07C50012440EA016038
:10102000C9F80C002CBBB1E020F08000C9F800002A
:10103000FFF752FC05460126D9F8000010F4807035
:1010400086EA10240CD0FFF747FC401B0328F3D39B
:10105000032774B99AE041EA8060C9F804000124CA
:10106000002C00F0938004E001270024002C00F005
:101070008D8098F80000000744D498F8000080069E
:1010800058D498F8000040076CD4D8F82440ACB38A
:10109000D9F8100000F03800182840F0B480012C76
:1010A000D9F82810D9F830002AD001F00302D8F876
:1010B00028309A4224D1C1F30511D8F82C2091424E
:1010C0001ED10146D8F830206FF35F21013A9142DA
:1010D00016D1C0F34622D8F8341001398A420FD114
:1010E000C0F30642D8F8381001398A4208D1C0F35B
:1010F0000660D8F83C100139884201D1002745E04C
:10110000012743E0D8F814000028D9F8740041D032
:1011100040F00100C9F87400FFF7DEFB054600BF90
:10112000D9F874008007A8D4FFF7D6FB401B02282B
:10113000F6D92AE0D8F818000028D9F800004ED0D7
:1011400040F48050C9F80000FFF7C6FB054600BF19
:10115000D9F80000800494D4FFF7BEFB401B02289E
:10116000F6D912E0D9F8000440F48070C9F8000400
:10117000FFF7B2FB054600BFD9F80004C0051CD438
:10118000FFF7AAFB401B6428F6D90327F8B201B089
:10119000BDE8F08320F00100C9F87400FFF79CFB64
:1011A00005460327D9F8740080077FF566AFFFF77F
:1011B00093FB401B0228F5D9E8E7D8F80840D9F896
:1011C00070001CB1052C42D0012C46D020F001004B
:1011D000C9F87000D9F8700020F004003FE020F456
:1011E0008050C9F80000FFF777FB0546032700BFD2
:1011F000D9F8000080047FF544AFFFF76DFB401B7A
:101200000228F5D9C2E7D9F8000020F08070C9F8AB
:101210000000FFF761FB022C05464FF0030709D1E0
:10122000D9F8000080013CD5FFF756FB401B02288F
:10123000F6D9ABE7D9F8000080017FF55FAFFFF783
:101240004BFB401B0228F5D9A0E7012760E640F0E0
:101250000400C9F87000D9F8700040F00100C9F826
:101260007000FFF739FB002C054641F288344FF03F
:10127000030711D0D9F8700080073FF506AFFFF7DC
:101280002BFB401BA042F5D980E700BFFFF724FBF2
:10129000401BA0423FF67AAFD9F870008007F5D422
:1012A000F3E608F12807D9F8280040F2F331884323
:1012B0008ECF0843591E40EA02104FF47E426FF36E
:1012C0005F21C9F8280002EB47204FF4FE0280B2EC
:1012D000D8F83C300844D8F8381002EB01414FF000
:1012E000FE4201F4FE0102EB0362084402F0FE41FB
:1012F0000844C9F83000D9F82C004FF6F87120F0F6
:101300000100C9F82C00D9F83400D8F848208843E7
:1013100040EAC200C9F83400D9F82C00D8F84010CF
:1013200020F00C000843C9F82C00D9F82C00D8F89C
:10133000441020F002000843C9F82C00D9F82C0012
:1013400040F48030C9F82C00D9F82C0040F400306B
:10135000C9F82C00D9F82C0040F48020C9F82C00E2
:10136000D9F82C0040F00100C9F82C00D9F8000091
:1013700040F08070C9F80000FFF7AEFA044603277A
:10138000D9F8000080013FF5B9AEFFF7A5FA001BC0
:101390000228F5D9FAE6000040F21440C5F6020032
:1013A000016881F001010160704700000000000049
:1013B00001A0FEF035BE00BF414C41524D204121FD
:1013C0000D000000000000002DE9F047044690F8F1
:1013D00020000225012800F09B804FF0010084F8D6
:1013E000200084F821503AB14878CA7891F802A0D8
:1013F000000240EA024849E04878C20603D500F0FE
:10140000EF000A304870C8784FF0CD0C91F802A078
:10141000A0F10A06F2B202FB0CF74A78FD0AA2F12B
:101420000A085FFA88F305EB850E03FB0CF3C7B2DD
:10143000A6EB4E06092F4FEAD32306EB051688BF0D
:1014400006F1100003EB8307AAF10A06F5B2A8EB38
:10145000470705FB0CFCD5B207EB0313C0B2092DFF
:1014600088BF03F110025FFA8AF54FEADC23D2B29B
:10147000092D03EB83074FEA0222A6EB470707EB90
:10148000031342EA004888BF03F1100A206891F86C
:101490000090CA21416253214162C16849061BD4B0
:1014A0004FF0FF31C160FFF717FA2168C96849069C
:1014B00031D40646002500BFFFF70EFA801BB0F5B9
:1014C0007A7F02D9032584F821502068C06840063D
:1014D00003D4032DF0D100E0002575B95FFA8AF03E
:1014E000216840EA08004FEA493220F0C00010436A
:1014F0004860204600F114F9054620684FF0FF01CE
:10150000416215B9012084F82100002084F82000F0
:10151000E8B2BDE8F0870025002DEED1DEE700003F
:101520002DE9F04381B0044690F8200002250128FF
:1015300000F0AB80012084F8200084F82150884618
:101540002068CA211746416253214162C168490699
:101550001AD44FF0FF31C160FFF7BEF92168C968A6
:10156000490623D406460025FFF7B6F9801BB0F5DF
:101570007A7F02D9032584F821502068C06840068C
:1015800003D4032DF0D100E00025002D72D1206896
:1015900080687FB14006404601D40021C1700278C6
:1015A000437881781B0243EA024249E00025002D7E
:1015B00060D1ECE74006404601D40021C1700278BA
:1015C0004FF0CD0C4378A2F10A06F1B2A3F10A085C
:1015D0005FFA88F701FB0CF1CD0A817805EB850EE7
:1015E000A6EB4E0607FB0CFED7B206EB05154FEA3D
:1015F000DE29092F88BF05F1100209EB890EA1F140
:101600000A05EEB2A8EB4E0706FB0CFCDEB207EBB8
:101610000917092E88BF07F110034FEADC27DBB258
:101620005FFA82FC07EB8706CAB21B02A5EB4606EF
:10163000092A06EB071743EA0C4288BF07F110019D
:10164000C9B2C3781143226841EA835147F67F73D8
:10165000C0F27F0319401160916821F480219160EC
:10166000D0E903010843916808439060204600F1E7
:1016700057F8054620684FF0FF01416215B9012077
:1016800084F82100002084F82000E8B201B0BDE811
:10169000F083000000000000411E0020B0EB116F3D
:1016A00001D0012070474EF21002F023CEF200026A
:1016B00051604EF62351CEF200010B70072190606D
:1016C000116070470000000070470000000000003B
:1016D000704700000000000060B310B5044690F8A9
:1016E0003D0028B9002084F83C00204600F024F892
:1016F000022084F83D002068211D00F1D9F8012066
:1017000084F8480084F83E0084F83F0084F84000E4
:1017100084F8410084F8420084F8430084F84400CF
:1017200084F8450084F8460084F8470084F83D00BA
:10173000002010BD0120704741F200010068C4F292
:101740000001884218BF704780B582B044F2E8407B
:101750000322C5F60200016841F010010160006833
:10176000012100F01000019001983620FFF704F9E4
:10177000362002B0BDE88040FFF7EAB80000000064
:1017800090F83D1001291BD1022180F83D1001681D
:1017900041F2FF70C4F200008142C86840F00100CD
:1017A000C8600FDC40F2FF70C4F20000814217DC19
:1017B000B1F1804F2BD040F20040C4F2000024E091
:1017C0000120704740F2FF30C4F20100814212DC78
:1017D00041F60000C4F20000814218D0002012E05F
:1017E00040F60000C4F20000814210D040F60040F4
:1017F000C4F2000009E044F20000C4F2010081429A
:1018000005D040F20040C4F2010081420BD1072212
:101810008868C0F2010202400020062A18BFB2F513
:10182000803F00D17047086840F001000860002048
:10183000704700000000000070470000000000003A
:10184000704700000000000041F200010068C4F28F
:101850000001884218BF7047012000F1F9B900006B
:10186000FEE7000000000000FEE7000000000000AE
:10187000B0B545F2080E4D1EC5F2002EDEF80C2064
:10188000DEF81030CEF808504FF0010565F39B628A
:10189000DEF8045045F00205CEF80450CEF80C20D6
:1018A000CEF8103021B340F2010C0022CFF6FF7CBD
:1018B000DEF8003013F0060F02D000230EE000BF68
:1018C000644600BF651C42F10003A54206D3DEF862
:1018D000004014F0060F2C46F4D000BF2BB99EF840
:1018E0001840013900F8014BE2D1180638D101E067
:1018F000180635D15EF8080C002340F004004EF8BD
:10190000080CDEF8000080074FF000000CD4012125
:10191000CFF6FF714A1C40F100038A4204D3DEF87F
:10192000001089071146F5D5D3B9DEF8040000236D
:1019300040F00200CEF80400DEF8000080064FF010
:1019400000000DD50121CFF6FF7100BF4A1C40F108
:1019500000038A4204D3DEF8001089061146F5D44C
:10196000D8B2B0BD00000000F0B581B044F22C4701
:10197000C5F6020757F8042C02F00302032A02D12D
:10198000012001B0F0BD054657F82C0C0C4620F0A4
:10199000805047F82C0CFEF79FFF064657F82C0C9A
:1019A000800005D5FEF798FF801B0228F6D964E079
:1019B00057F8040CEE6895E80E0020F07C70012CBE
:1019C00040EA0150A2F101016FF35F214FF47E4222
:1019D00002EB432247F8040C92B24FF0FE4302EBB5
:1019E00001004FF4FE012A6901EB064101F4FE01FA
:1019F00003EB0262084402F0FE4108447861386853
:101A0000696920F4406040EA010038603868A969DB
:101A100020F4007040EA0100386038684FF6F87131
:101A200020F480703860B869EA6920EA01004FF05C
:101A3000807140EAC200B861386808BF4FF4000105
:101A400040F48070002C386008BF4FF48001386883
:101A50000843386057F82C0C40F0805047F82C0CA5
:101A6000FEF73AFF044600BF57F82C0C800007D45D
:101A7000FEF732FF001B0328F6D3032001B0F0BDB0
:101A8000002001B0F0BD000040F27800C2F200403A
:101A9000FFF012B900000000B0B586B040F2780047
:101AA00044F20001C2F20040C5F600017F2201604D
:101AB000002141608260FF22C0E90321C0E90611D4
:101AC000FFF02AF908B1022429E040F27800002151
:101AD000C2F200400024FFF067F845F2500188424E
:101AE0001DD040F2780543F20A20C2F20045019071
:101AF00001A900222846CDE90444FFF711FD40F674
:101B0000020001A9C1F20D10019000222846FFF742
:101B10005BFC002145F250022846FFF04DF82046BC
:101B200006B0B0BD0000000080B540F2780C8646DB
:101B3000C2F2004CDCF80020D36863F4906020F41B
:101B40008060D06060467246FFF03EF803200221BC
:101B50000222FEF711FF0320BDE88040FEF7F8BE29
:101B600040F2F400C2F20040FFF0C6BA00000000EC
:101B700080B541F22000C4F2010050F8041C89062F
:101B80002AD540F2082CD0F804E0C2F2004CBCF890
:101B9000002011B200291FD45FFA8EF3B2F5804FF6
:101BA00004D20D2B0CD142F4804113E048F2000E18
:101BB0000021CFF6FF7E0A2B08BF42EA0E0109E0A2
:101BC00040F24013511CC2F20043C62A03F802E05F
:101BD00088BF0021ACF80010016841F008010160E5
:101BE00080BD000000000000FEE7000000000000D3
:101BF0007047000000000000B0B58EB044F2E8402D
:101C00000025C5F60200CDE90C55CDE90A5501685D
:101C100041F002010160006800F0020002900298A9
:101C2000FEF08EFF044602A801A9FFF70DF8079801
:101C30004DF683610028C4F21B3118BF01204FF01C
:101C4000FF3204FA00F040F20C24A0FB0101C2F2C2
:101C5000004440F20040C4F20000206002EB9140DA
:101C6000A561C4E901054FF6FF70C4E903052046EC
:101C7000FFF732FD4FF480500A900AA92046FFF08A
:101C80003FF92046FFF0E4F80EB0B0BD00000000C0
:101C9000B0B582B044F2E04040F20044C5F6020024
:101CA000C5F60204012200230168012541F002016A
:101CB0000160016841F002010160022120460095A7
:101CC000019500F1BDF80121012200232046009575
:101CD000019500F1B5F802210122204600F1A8F893
:101CE00001210122204602B0BDE8B04000F1A0B8B9
:101CF0004EF624502522CEF20000C0F203320168D5
:101D000021F480310160016F21F00101016701219F
:101D100041674FF000518167111FC16705210167BD
:101D2000036843F480330360036823F48033036063
:101D3000036F23F001030367022343674FF010533F
:101D40008367C2670167036843F4803303600368F5
:101D500023F480330360036F23F00103036703233D
:101D600043674FF040538367C2670167036843F4DA
:101D700080330360036823F480330360036F23F030
:101D800001030367042343674FF060538367931F86
:101D9000C36701670C32036843F480330360036850
:101DA00023F480330360036F23F00103036741676B
:101DB0004FF0C04383673323C0F20033C36701672A
:101DC000036843F480330360036823F480330360C3
:101DD000036F23F001030367062343674FF040437B
:101DE0008367C2670167026842F48032026002685A
:101DF00022F480320260026F22F0010202670722A1
:101E000042674FF0004282673722C1F20032C26758
:101E10000167016841F480310160704700000000F3
:101E20004EF61450CEF200000168890312D4BFF3BD
:101E30004F8FBFF36F8F0021C0F83C12BFF34F8F5D
:101E4000BFF36F8F016841F400310160BFF34F8F22
:101E5000BFF36F8FB0B50168C90329D400210167B2
:101E6000BFF34F8FC26E43F6E07ED308C2F34E310C
:101E7000C2F3C90202F1010C9B074A0102EA0E04F7
:101E800065461C44013DC0F84C4204F14044F9D180
:101E90000029A1F10101A2F12002EFD1BFF34F8F80
:101EA000016841F480310160BFF34F8FBFF36F8F42
:101EB000D0F8881241F00401C0F88812B0BD0000CB
:101EC0002DE9F04100F1200800234FF00F0C6FF0D6
:101ED000030E002404E000BF01340433102C16D09C
:101EE00021FA04F5ED07F7D00EEA540503F01C06BD
:101EF0000CFA06F758F80500B84348F8050002FA4E
:101F000006F058F80560304348F80500E4E7BDE8FE
:101F1000F0810000000000002DE9F04182B044F2A1
:101F2000E0420026C5F602020546C5F602060C464A
:101F300013684FF4007143F0010313601368012725
:101F400043F0010313601069002340F0100010619A
:101F50000222304600974FF000080197FFF070FF13
:101F60004FF4806102220023304600970197FFF072
:101F700067FF4FF4007107223046FFF7A1FF4FF4CF
:101F8000806107223046FFF79BFF43F60950610846
:101F900068432522022301EB80100321B0FBF4F0FB
:101FA00041F20004C4F20104E060C4F8008020683B
:101FB00020602068206020682060206840F00800D1
:101FC0002060206840F004002060206840F020007D
:101FD00020600320FFF07CFF206840F001002060BB
:101FE00002B0BDE8F081F1EE100A4FF6FF71C0F2C9
:101FF000C03120EA010040F04070E1EE100A704765
:10200000000000000102030401020304060708099E
:10201000302000080000002418000000FC02000826
:102020004820000818000024508200001C0300080B
:10203000010000000090D0030090D00316EF0100D3
:08204000100000000000000088
:020000040810E2
:100000001FB501F7F0FF1FBD0FB4044910B503AAD7
:10001000029800F047F810BC5DF814FBA000002423
:1000200010B5044603E001F007FE401C09D014F8A7
:10003000010B05490028F6D1BDE810400A2001F067
:10004000FBBD4FF0FF3010BDA00000244FF00002B8
:1000500000B5134694469646203922BFA0E80C50BE
:10006000A0E80C50B1F12001BFF4F7AF090728BF99
:10007000A0E80C5048BF0CC05DF804EB890028BF15
:1000800040F8042B08BF704748BF20F8022B11F03E
:10009000804F18BF00F8012B7047704770477047BA
:1000A00070470000074B70B50D467B4400F7DFFA40
:1000B0000446284600F008F810B14FF0FF3070BD3C
:1000C000204670BD8B1B0000007B00F08000704755
:1000D0000048704718000024FEE700000000000000
:1000E00040F20E0040F26021C2F20040C2F2004134
:1000F00000780A68104408607047000000000000A3
:1001000040F20E01C2F20041097819B310B504465D
:1001100040F20400C2F200404FF47A72B2FBF1F1F7
:100120000068B0FBF1F001F7B7FA0F2C01464FF071
:1001300001000ED8002918BF10BD4FF0FF3000227B
:10014000214600F719FC40F210010020C2F20041E4
:100150000C6010BD012070477047000000000000D7
:10016000B0B544F60C05C5F60205296849072968AB
:1001700005D401F00701081A18BF0120B0BD21F015
:1001800007010843286000F7A7FB044655F8080C50
:10019000800407D400F7A0FB001BB0F57A7FF5D9E7
:1001A0000120B0BD0020B0BD44F60000C5F602003D
:1001B000016841F480710160704700000000000098
:1001C0002DE9F04381B00446C07844F22C49000781
:1001D000C5F6020901D400261FE0606E4FEA3050D8
:1001E000032837D80026DFE800F0020A1B21D9F8DF
:1001F000000040F40030C9F80000CEB905E0201D31
:10020000022101F0FDF9064696B9D9F82400616E85
:1002100020F440100843C9F824004FF0000808E01B
:1002200004F12400022101F79FFB0646002EECD0CA
:10023000B0466078C00721D0606D042800F2478185
:10024000DFE810F0E70018010C00050005006EB1B2
:10025000B04613E00126002EEAD1D6E704F12400CF
:10026000002101F781FB0646002EF1D1D9F82400C8
:10027000616D20F007000843C9F82400607880070A
:100280001FD5A06D4FEAB010042800F22581DFE8E9
:1002900010F0CA00FA000800050005004EB1B04693
:1002A0000FE004F12400002101F75EFB0646002E5A
:1002B000F5D1D9F82400A16D20F4E0700843C9F805
:1002C00024006078400721D5D4F8A4004FEA70508C
:1002D000042800F20681DFE810F0B000DF0008001B
:1002E000050005004EB1B04610E004F124000021E5
:1002F00001F73AFB0646002EF5D1D9F82C00D4F8C8
:10030000A41020F460000843C9F82C0060780007AE
:100310001FD5D4F8A8004FEA3060042800F2E68028
:10032000DFE800F095C3060303004EB1B04610E0CD
:1003300004F12400002101F717FB0646002EF5D139
:10034000D9F82C00D4F8A81020F0E0600843C9F8D0
:100350002C00E07880071BD5A06C4FEA30100328F2
:100360002FD8DFE800F0020526024EB1B0460FE0BC
:10037000D9F8000040F40030C9F80000002EF5D193
:10038000D9F82000A16C20F030000843C9F8200003
:100390006078C00629D5E06D4FEA3030042800F2BD
:1003A000AA80DFE800F05E8B12030300AEB1B04616
:1003B0001BE0201D022101F023F90646002ED5D1B5
:1003C000DEE70126002ED1D1DAE704F12400002176
:1003D00001F7CAFA0646002EE9D1D9F82400E16DEA
:1003E00020F4E0400843C9F824006078800640F11A
:1003F0009B80206E4FEA3040052800F28A80DFE8BB
:1004000000F085037F858585201D012101F0F8F826
:100410007BE0D9F8000040F40030C9F80000002E5D
:100420007FF416AF22E7D9F8000040F40030C9F895
:100430000000002E7FF433AF3BE7D9F8000040F412
:100440000030C9F80000002E7FF44DAF55E7D9F811
:10045000000040F40030C9F80000002E7FF466AFC1
:100460006EE7D9F8000040F40030C9F80000002E13
:100470009DD1B2E7201D002101F0C2F80646002EF2
:100480007FF4E6AEF2E6201D002101F0B9F8064641
:10049000002E7FF404AF0CE7201D002101F0B0F81E
:1004A0000646002E7FF41FAF27E7201D002101F034
:1004B000A7F80646002E7FF439AF41E7201D002142
:1004C00001F09EF80646002E7FF471AF85E7012605
:1004D000002E7FF4BDAEC9E60126002E7FF4DFAE0C
:1004E000E7E60126002E7FF4FEAE06E70126002E89
:1004F0007FF41CAF24E70126002E7FF458AF6CE791
:1005000004F12400012101F72FFA064626B1B04676
:100510000AE00126002EFAD1D9F82400216E20F439
:10052000E0200843C9F824006078400624D5D4F8B8
:10053000AC004FEA3070052812D8DFE800F00E0357
:10054000080E0E0E201D012101F05AF804E004F1FE
:100550002400012101F708FA064626B1B0460BE057
:100560000126002EFAD1D9F82C00D4F8AC1020F0D6
:10057000E0400843C9F82C00607800061FD5E06E03
:10058000D0B1B0F1005F12D0B0F1805F25D1D9F8C1
:10059000000040F40030C9F800007EB9D9F824000A
:1005A000E16E20F040500843C9F8240007E0201D08
:1005B000012101F025F80646002EEFD0B046E07884
:1005C000C0071ED0606C032800F27F80DFE800F0D7
:1005D000020974026EB1B04613E00126002EEDD17F
:1005E000DCE7D9F8000040F40030C9F80000002E24
:1005F000F1D1D9F82000616C20F003000843C9F85C
:100600002000A078400645D5D9F8D40340F4807086
:10061000C9F8D40300F760F9074600BFD9F8D4033E
:10062000C00505D400F758F9C01B6528F6D303268A
:100630007EBBD9F84410D4F8B000414011F4407F9B
:1006400011D0D9F84410D9F8442042F48032C9F8C6
:100650004420D9F8442021F4407122F48032C9F8B2
:100660004420C9F84410B0F5807F0FD100F734F969
:10067000074641F2893500BFD9F84400800705D408
:1006800000F72AF9C01BA842F6D30326002E00F07B
:100690003A82B0462078C00730D0A06F4FEAF00011
:1006A000052820D8DFE800F01C03161C1C1C201DA8
:1006B000012100F0A5FF12E0201D022100F0A0FFA3
:1006C0000646002E7FF487AF93E70126002E7FF4C5
:1006D00082AF8EE704F12400012101F745F90646B7
:1006E00026B1B0460AE00126002EFAD1D9F828003A
:1006F000A16F20F038000843C9F82800207880074F
:1007000020D5606F052812D8DFE800F00E03080E30
:100710000E0E201D012100F073FF04E004F12400FF
:10072000012101F721F9064626B1B0460AE001266B
:10073000002EFAD1D9F82800616F20F00700084395
:10074000C9F828002078400722D5D4F89000052861
:1007500012D8DFE800F00E03080E0E0E201D012156
:1007600000F04EFF04E004F12400012101F7FCF841
:10077000064626B1B0460BE00126002EFAD1D9F884
:100780002C00D4F8901020F007000843C9F82C0082
:100790002078800624D5D4F88C004FEA30700528E4
:1007A00012D8DFE800F00E03080E0E0E201D002107
:1007B00000F026FF04E004F12400022101F7D4F840
:1007C000064626B1B0460BE00126002EFAD1D9F834
:1007D0002800D4F88C1020F0E0400843C9F8280025
:1007E0002078400624D5D4F898004FEAB020052898
:1007F00012D8DFE800F00E03080E0E0E201D0021B7
:1008000000F0FEFE04E004F12400022101F7ACF840
:10081000064626B1B0460BE00126002EFAD1D9F8E3
:100820002C00D4F8981020F4E0500843C9F82C00AC
:100830002078000624D5D4F89C004FEA70300528B3
:1008400012D8DFE800F00E03080E0E0E201D002166
:1008500000F0D6FE04E004F12400022101F784F840
:10086000064626B1B0460BE00126002EFAD1D9F893
:100870002C00D4F89C1020F460400843C9F82C00E8
:100880002078000716D5D4F88000B0F5805F08D135
:1008900004F12400022101F767F8002818BF4FF087
:1008A0000108D9F82800D4F8801020F440500843FB
:1008B000C9F828002078C00616D5D4F89400B0F501
:1008C000807F08D104F12400022101F74DF80028AF
:1008D00018BF4FF00108D9F82C00D4F8941020F478
:1008E00040700843C9F82C00A078000723D5D4F83D
:1008F000A000B0F5003F1BD0B0F5803F12D000281B
:1009000040F0E980201D002100F07AFE06468EB9F5
:10091000D9F82C00D4F8A01020F440300843C9F8CE
:100920002C0008E004F12400022101F71DF806461E
:10093000002EEDD0B046A078400725D5D4F884002D
:10094000B0F5401F1DD0B0F5001F14D0B0F5801FCA
:1009500040F0C680D9F8000040F40030C9F800002B
:100960008EB9D9F82800D4F8841020F44010084338
:10097000C9F8280008E004F12400012100F7F4FF81
:100980000646002EEDD0B046A078C0071ED0E06C21
:10099000B0F5803F0BD0002840F09880D9F80000D7
:1009A00040F40030C9F8000046B1B0460EE0201D0A
:1009B000022100F025FE0646002EF6D1D9F82000CF
:1009C000E16C20F480300843C9F82000E07880060C
:1009D00008D504F12400022100F7C6FF002818BF43
:1009E0004FF00108206881031ED4C10234D4C10035
:1009F0003CD4810245D441004DD4B0F1FF3F5ADDD3
:100A0000000208D5D9F82800D4F8881020F4400056
:100A10000843C9F82800B8F1000F18BF4FF00108CB
:100A2000404601B0BDE8F083E16F6FF0010202EBD8
:100A30003122022A0AD34FEA31223AB1012A54D193
:100A4000D9F8002042F40032C9F80020002E4FD01F
:100A50004FF00108C102CAD5D9F82410226F21F045
:100A600000411143C9F82410C100C2D559F81C1C1B
:100A7000D4F8B42021F48041114349F81C1C8102B0
:100A8000B9D5D9F82410A26E21F080711143C9F8AC
:100A900024104100B1D559F81C1C21F4004149F83B
:100AA0001C1CD4F8B81059F81C2C114349F81C1C14
:100AB000B0F1FF3FA4DCD9F82010226D21F04051A5
:100AC0001143C9F8201000029CD4A4E70126002E8F
:100AD0007FF46BAF72E70126002E7FF42BAF17E790
:100AE0000126002E7FF44FAF3BE70126002EAFD149
:100AF000D9F8282022F440721143C9F82810C10205
:100B00007FF575AFA8E74FF6CF73D4F8B00059F86A
:100B10001C2CC0F2FF0300F4407122F47C5203EA63
:100B20001013B1F5407F08BF1A436FF31F3049F827
:100B30001C2CD9F844100843C9F84400AAE5000069
:100B400080B500F7ADF844F2184C42F20003C5F648
:100B5000020CC0F60003DCF80020C2F303229A5C0A
:100B6000DCF8001001F00F0102F01F02595CD040C8
:100B700040F20802C2F2004201F01F0120FA01F126
:100B8000116040F20402C2F200421060DCF804007E
:100B9000C0F30210185C00F01F0021FA00F080BDC5
:100BA0007047000000000000006800EB8100006D4D
:100BB0007047000000000000006800EB8100026543
:100BC0007047000000000000F0B581B0044690F8C6
:100BD000200001284FF002004DD00E46012184F87C
:100BE0002010CA2184F82100154620684162532153
:100BF000416244F20800C5F60000016821F48061FA
:100C000001604068400611D4FFF666FE074600BF4B
:100C10002068C068400709D4FFF65EFEC01BB0F52F
:100C20007A7FF5D92168032203201DE021684FF067
:100C3000B0434E61886820F0070028438860802018
:100C4000C5F60000026842F4002202601868012222
:100C500040F400201860886840F48040886088680C
:100C600040F4806088600020FF234B6284F82120DC
:100C7000002184F8201001B0F0BD00000000000049
:100C800010B588214FF40022C5F6000104460A6021
:100C90000068C168490508D5C16861F4906121F414
:100CA0008061C160204600F777FB012084F82100B5
:100CB00010BD00000000000010B588214FF4003284
:100CC000C5F6000104460A6000688168C90444BF93
:100CD000C1685FEAC1510BD420688168890444BFB0
:100CE000C1685FEA81510DD4012084F8210010BD54
:100CF000C16861F4C07121F48071C160204600F7C1
:100D000057FBE9E7C16861F4207121F40071C1600B
:100D10002046FFF745FFE7E770B578B3044690F843
:100D2000210028B9002084F82000204600F060F857
:100D3000022084F821002068CA21416253214162C7
:100D4000C16849061DD44FF0FF31C160FFF6C4FDF4
:100D50002168C96849063AD406460025FFF6BCFD5D
:100D6000801BB0F57A7F02D9032584F821502068D2
:100D7000C068400606D4032DF0D103E00125E8B297
:100D800070BD002535BB94E80F004FF6BF7586682F
:100D9000CFF68F752E40866026693143A6693143B0
:100DA00086683143816043EA02410161204600F0D8
:100DB000B7FC054670B920686169E269C36C1143EC
:100DC00023F00303C364C26C1143C16402E0002535
:100DD000002DD8D020684FF0FF0141620DB1E8B27C
:100DE00070BD012084F82100E8B270BD0000000051
:100DF00010B5C2B044F2F444C5F60204206840F4D1
:100E000080302060206800F4803000900098FFF768
:100E1000CBF904202F9000203890012031902FA88A
:100E2000FFF6CAFF4FF4800000904FF480702C90C2
:100E30006846FFF7C5F954F8840C40F4004044F8C4
:100E4000840C42B010BD000070470000000000009C
:100E500090F83D10012917D1022180F83D1001685A
:100E600041F2FF70C4F2000081420FDC40F2FF70DB
:100E7000C4F20000814217DCB1F1804F2BD040F268
:100E80000040C4F2000024E00120704740F2FF302F
:100E9000C4F20100814212DC41F60000C4F20000FD
:100EA000814218D0002012E040F60000C4F2000099
:100EB000814210D040F60040C4F2000009E044F244
:100EC0000000C4F20100814205D040F20040C4F2AB
:100ED000010081420BD107228868C0F20102024062
:100EE0000020062A18BFB2F5803F00D1704708687D
:100EF00040F0010008600020704700000000000082
:100F000090F83C20012A4FF0020200F0A78080B543
:100F1000012380F83C3080F83D208822D0F800C0C2
:100F2000CFF6CE72DCF808301A40CCF808200B68F7
:100F30006F2B0CDDB3F1101F34DAB3F5005F69DA03
:100F4000702B00F0AF80B3F5805F7ED0D0E02F2B08
:100F500032DD4F2B37DC302B6BD0402B40F0C8807C
:100F6000D1F804E0C968DCF82030DCF8202022F059
:100F70000102CCF82020DCF8182022F0F00242EA2E
:100F8000011123F00A02CCF8181042EA0E01CCF845
:100F900020104FF68872DCF80810CFF6CF7211409F
:100FA000473150E02F21C0F210018B4237DCB3F102
:100FB000101F3ED0202138E0002B18BF102B38D056
:100FC000202B36D094E0502B4AD0602B40F09080FC
:100FD000D1F804E0C968DCF8203023F01003CCF825
:100FE0002030DCF81830DCF8202023F4704322F0A5
:100FF000A00243EA0131CCF8181042EA0E11CCF8F5
:1010000020104FF68872DCF80810CFF6CF7211402E
:10101000673118E059D0B3F5801F0AD068E030215D
:10102000C0F210018B4204D04021C0F210018B426B
:101030005ED14FF68872DCF80810CFF6CF721140FF
:10104000194341F00701CCF808100022012180F873
:101050003D10002180F83C10BDE8804010467047EC
:10106000D1F804E0C968DCF82030DCF8202022F058
:101070000102CCF82020DCF8182022F0F00242EA2D
:10108000011123F00A02CCF8181042EA0E01CCF844
:1010900020104FF68872DCF80810CFF6CF7211409E
:1010A0005731D0E701F1040E9EE80C40DCF808103F
:1010B0001A4321F47F4142EA0E221143CCF8081072
:1010C000DCF8081041F07701BDE701F1040E9EE85D
:1010D0000C40DCF808101A4321F47F4142EA0E224A
:1010E0001143CCF80810DCF8081041F48041AAE75D
:1010F0000122ABE70000000010B50446006801695A
:10110000890744BFC1685FEA817147D420680169DB
:10111000490744BFC1685FEA41714BD42068016947
:10112000090744BFC1685FEA017150D420680169B2
:10113000C90644BFC1685FEAC16154D4206801692F
:10114000C9071CBFC1685FEAC17159D12068016934
:10115000090644BFC1685FEA016158D4206801698B
:10116000C90544BFC1685FEA016157D420680169BD
:10117000490644BFC1685FEA416156D420680169ED
:10118000890646BFC1685FEA816110BD6FF020012A
:1011900001612046BDE8104000F79ABA6FF00201E5
:1011A0000161012121778069800745D0204600F741
:1011B00043FB47E06FF00401016102212177806960
:1011C00010F4407F41D0204600F736FB43E06FF03B
:1011D0000801016104212177C06980073ED02046C3
:1011E00000F72AFB40E06FF0100101610821217730
:1011F000C06910F4407F3AD0204600F71DFB3CE068
:101200006FF001010161204600F71EFB9EE76FF0C1
:10121000800101612046FFF717FE9FE76FF48071A0
:101220000161204600F750FAA0E76FF0400101612C
:10123000204600F029F8A1E7204600F021F82046DA
:1012400000F7FEFA0020207760E7204600F018F84B
:10125000204600F7F5FA002020775FE7204600F0EF
:101260000FF8204600F7ECFA002020775EE72046D2
:1012700000F006F8204600F7E3FA002020775DE74B
:1012800070470000000000007047000000000000F0
:1012900080B540F200400121C5F60200002200F0B6
:1012A000C7FD09A0FEF7BCFE4FF47A7000F084FC85
:1012B0000AA0FEF7B5FE4FF47A7000F07DFCBDE8A1
:1012C000804000F03DBE00BF4D656D204163636509
:1012D0007373204572726F7221210D00536F667413
:1012E000205265736574696E672E2E2E0D00000006
:1012F00070470000000000002DE9F04F87B044F275
:10130000E0440020C5F602040690CDE90400CDE9D2
:101310000200206841F2004140F002002060206895
:10132000C5F6020100F0020001900198206840F02B
:10133000200020602068A1F5805600F02000019078
:10134000019854F80C0C40F4804044F80C0C54F80C
:101350000C0C02AD00F48040019045F200070198AA
:10136000042002900920069030462946C5F2002745
:101370004FF00209CDF80C904FF0010ACDF810A003
:101380004FF0030BCDF814B0FFF6CAF902A94020C4
:101390004FF00A08CDF8188081E8010E3046294642
:1013A000FFF6BEF902A941F200464FF48070C5F67F
:1013B000020681E8010E30462946CDF81880FFF676
:1013C000AFF902A94FF40070CDF81880B04681E85B
:1013D000010E30462946FFF6A3F902A9802009260E
:1013E000069681E8010E40462946FFF699F902A9C2
:1013F0004020069681E8010E40462946FFF690F906
:1014000054F8640C40F4804044F8640C54F8640CC4
:1014100020F4804044F8640CB868800608D50120A8
:10142000CFF6FF70013015D2B9688906FAD488B1B9
:1014300040F21030C0F60070386040F20170C0F227
:1014400018007860386840F001003860002007B06C
:10145000BDE8F08F012007B0BDE8F08F000000006C
:1014600010B545F2080CC5F2002CDCF800E05FEA8C
:101470008E6E0DD540F2010ECFF6FF7E1EF1010EED
:1014800031D2DCF80040A406F8D4BEF1000F2AD017
:1014900002F0C00412F00C0F43EA04034FF47C5432
:1014A00004EA022444EA83431844CCF80C0018BF31
:1014B000CCF810103F2A16D8DCF8000080070CD4B6
:1014C0000120CFF6FF7000BF01300CD2DCF8001015
:1014D0008907F9D5002808BF10BDDCF8040040F0EA
:1014E0000200CCF8040010BD70B582B045F20806C9
:1014F000C5F20026F2683369A1F10103B360736895
:1015000022F0406243F002037360F26049B340F29C
:10151000010C0023CFF6FF7C01E000BF09B3326865
:1015200052070BD4644600BF621C43F10005A2427F
:1015300005D3346864071446F6D500E000259DB94C
:10154000013910F8012B0C073276E7D10193019A8B
:10155000632AE3DC019A01320192019A642AF9DBE1
:10156000DCE7280635D104E01BA0FEF74DFD280678
:101570002FD156F8080C002540F0040046F8080C5E
:10158000306880074FF000000BD40121CFF6FF71C7
:101590004A1C40F100058A4203D33168890711468D
:1015A000F6D5B5B97068002540F00200706030686B
:1015B00080064FF000000CD50121CFF6FF7100BF6F
:1015C0004A1C40F100058A4203D33168890611465E
:1015D000F6D4E8B202B070BD515350492074726124
:1015E0006E736D69742074696D656F7574206174B4
:1015F000206279746520256C750D0A0000000000DA
:10160000F0B581B044F22C47C5F6020757F8042C18
:1016100002F00302032A02D1012001B0F0BD054609
:1016200057F82C0C0C4620F0806047F82C0CFFF685
:1016300053F9064657F82C0C000105D5FFF64CF976
:10164000801B0228F6D964E057F8040CEE6895E890
:101650000E0020F47C30012C40EA0130A2F101019F
:101660006FF35F214FF47E4202EB432247F8040CF4
:1016700092B24FF0FE4302EB01004FF4FE012A69E3
:1016800001EB064101F4FE0103EB0262084402F0A3
:10169000FE410844F8603868696920F0C00040EAFB
:1016A000010038603868A96920F0200040EA010094
:1016B000386038684FF6F87120F0100038603869EB
:1016C000EA6920EA01004FF4001140EAC2003861E3
:1016D000386808BF4FF4801140F01000002C3860CB
:1016E00008BF4FF4002138680843386057F82C0CC5
:1016F00040F0806047F82C0CFFF6EEF8044600BF7F
:1017000057F82C0C000107D4FFF6E6F8001B03285D
:10171000F6D3032001B0F0BD002001B0F0BD000001
:10172000F0B581B044F208060446C5F600067168BB
:1017300021F0400171603168890618D42068C168C1
:1017400021F0A001C160FFF6C7F805462068C06817
:10175000860629D4FFF6C0F8401BB0F57A7FF5D98C
:10176000002E21D4032084F8210001B0F0BD3068A0
:1017700020F0200030602068C16821F0A001C16025
:10178000FFF6AAF8054600BF2068C06887060ED499
:10179000FFF6A2F8401BB0F57A7FF5D9002F06D4EA
:1017A000032084F8210003E0002001B0F0BD0020F8
:1017B000316841F02001316001B0F0BD000000004F
:1017C00040F27800C2F20040FFF75ABA0000000071
:1017D0007047000000000000FEF782BC000000001F
:1017E000B0B59CB044F6180409A84C21C5F6020413
:1017F000FEF72CFC02200025CDE90755CDE9055563
:10180000CDE90355CDE90155FEF7AAFC40F22C4085
:101810000095C5F60000016821F001010160006833
:1018200000F001000090206840F4404020602068F3
:1018300000F440400090009820688004FCD501200E
:1018400009904FF480300A9002200521CDE9120062
:101850001491A021CDE9151004210824CDE9171019
:1018600009A819940025CDE91A55FFF6A5FA20B16B
:10187000EFF3108072B600BFFEE73F200190032017
:101880004FF48061CDE9020540200494CDE90500C4
:10189000CDE9071001A80221FFF6AEF818B1EFF369
:1018A000108072B6FEE71CB0B0BD00000000000062
:1018B00040F6FF32C4F20002904202680FDCB0F141
:1018C000804F1DD040F20043C4F20003984217D06D
:1018D00040F60003C4F20003984211D014E040F631
:1018E0000043C4F2000398420AD040F20043C4F21D
:1018F0000103984204D00023C4F20103984203D1AB
:1019000022F070024B681A434FF6FF7343F6FF7CD8
:10191000C4F20003C4F2010C984210DD604527DDDB
:1019200044F20003C4F2010398422CD044F60003B1
:10193000C4F20103984226D044F200431FE040F273
:10194000FF73C4F20003984207DCB0F1804F1AD055
:1019500040F20043C4F2000313E040F60003C4F277
:10196000000398420FD040F60043C4F2000308E0A1
:101970000023C4F20103984205D040F20043C4F2B0
:101980000103984203D122F44072CB681A4310B588
:1019900022F08002D1F800E04C698B68224302609B
:1019A000C3626045C0F828E0BDE810400EDD44F297
:1019B0000002C4F20102904213D044F60002C4F2C5
:1019C000010290420DD044F2004206E00022C4F22F
:1019D0000102904205D040F20042C4F2010290425E
:1019E00001D10969016301214161704700000000D4
:1019F000B0B582B0FFF780FC00F07EF840F29C05A5
:101A0000EF22C2F20045002100230024287800289C
:101A10004FF0900008BF6522FFF722FD01A80221C8
:101A2000FFF626FFBDF8040040F20C024EF61671D8
:101A3000C2F2004240BA884210805BD12878C322AB
:101A40000021002300284FF015008DF806404FF0CC
:101A5000C30408BF4122FFF703FD0DF10600012179
:101A6000FFF606FF9DF806008DF80300C10710D0B1
:101A7000287803220021002300284FF0060008BF29
:101A80000122FFF7EDFCE920002103220023FFF7EC
:101A9000E7FC28780021002300284FF0150008BF3C
:101AA00041248DF807102246FFF7DAFC0DF10700FC
:101AB0000121FFF6DDFE28789DF8071003228DF83E
:101AC000031000284FF006004FF000014FF0000314
:101AD00008BF0122FFF7C4FCC0200021C32200235D
:101AE000FFF7BEFC30208DF803000DF1030001214B
:101AF000FFF7FAFC02B0B0BDF0B581B040F29C0532
:101B00000021C2F20045C32200238DF8021028787C
:101B1000C32400284FF0350008BF4122FFF7A0FC86
:101B20000DF1020001210126FFF6A2FE9DF80270D0
:101B3000B8071ED4287803220021002300284FF084
:101B4000060008BF0122FFF78BFC287847F002014E
:101B5000002300284FF0310008BF41248DF8031006
:101B600000212246FFF77CFC0DF103000121FFF765
:101B7000BBFC3820002101220023FFF771FC2E70EE
:101B800001B0F0BD0000000010B540F2F40441F2D5
:101B90000002C2F20044C4F20002C4E900210021A4
:101BA000C4E902102046FFF697FD2046BDE810402C
:101BB000FFF6E6BD00000000002808BF70473D2882
:101BC00001D3FEF699BD40F20C214FF47A72C2F2B5
:101BD0000041504309684A6A4B6A9B1A38BF03F5B3
:101BE00080338342F8D37047002808BF7047B0B5F0
:101BF0004EF6612188420FD344F6D3510546C1F217
:101C00006201A0FB011294092046FEF675FD4FF417
:101C10007A7104FB115060B140F20C21C2F2004114
:101C200009684A6A4B6A9B1A38BF03F580338342BE
:101C3000F8D3BDE8B040704741F21C01C4F2010185
:101C40000A685206FCD5C2B2CA60704700000000A4
:101C500040F25C210022C2F200410A7040F2582199
:101C6000C2F200410A68104408607047000000009A
:101C700000F7D6F8FEF638FEFFF7B2FDFFF6BCFF20
:101C800064204FF4E13100F747F900F701F800F75D
:101C90002FF800F011F8632040F65F11FFF774FF92
:101CA000FFF7A6FEFFF6F8FE04200021FFF63CFF3A
:101CB000FEE70000000000002DE9F04F83B044F281
:101CC000D44040F6000AC5F60200C5F6020A44F206
:101CD00050164FF6FF74C168022241F07C01C160CA
:101CE0000168002341F4805101600D215046C5F286
:101CF0000026C0F21F044FF0010B4FF00308CDE99E
:101D0000008B00F09DF80AF580604CF2037102220E
:101D100000230290CDE9008B00F092F80AF50069EB
:101D20004FF68371022200234846CDE9008B00F074
:101D300087F80AF540674FF63F0102220023384634
:101D4000CDE9008B00F07CF80AF5805548F2371198
:101D5000022200232846CDE9008B00F071F80D2106
:101D60000C22504600F7ACF84CF203710C2202989A
:101D700000F7A6F84FF683710C22484600F7A0F84A
:101D80004FF63F010C22384600F79AF848F2371117
:101D90000C22284600F794F841F6591046F8100C2A
:101DA00046F27160C0F2111046F8080C4FF6B060B0
:101DB000CFF6FF70315841F00041315011203060B2
:101DC000204600BFB168890603D50028A0F10100B4
:101DD000F8D14FF4FA70FFF707FF12203060204669
:101DE000B168890603D50028A0F10100F8D140F2BE
:101DF00013103060204600BFB168890603D5002863
:101E0000A0F10100F8D144F21420C0F204003060C7
:101E1000B068800603D5002CA4F10104F8D140F28B
:101E20008E60706003B0BDE8F08F0000000000001D
:101E3000D20708BF0904826911438161704700001D
:101E40002DE9F04FDDF828C0A2F1010A00254FF07E
:101E500001094FF0030800270DE000BFC66806EA3D
:101E60000B06C6600CFA05F6C4682643C660013747
:101E70000235102F2AD009FA07F60E42F7D008FAD9
:101E800005F4D0F800E06FEA040B2EEA04040460C5
:101E900002FA05FE0468BAF1010F44EA0E04046078
:101EA000DCD8846804EA0B048460099C04FA05FE0B
:101EB000846844EA0E048460446824EA06064660A6
:101EC00003FA07F6446826434660C7E7BDE8F08F8B
:101ED000B0B54EF60C5E4FF0070CCEF2000E2CEAB9
:101EE000030C4FF6FF05DEF800402C4044EA0C25B9
:101EF000C3F1040445F0806500FA04FC45F0FD756B
:101F0000CEF800500F25012425FA03F31C251940B3
:101F100002F01F0304FA03F34EF2001405EAD2059F
:101F2000CEF2000422432859184328514CEA0100FC
:101F300092F8001341EA001082F80003B0BD0000DF
:101F40004EF60C500421CEF20000C0F2FA510160AE
:101F5000704730380A2801D20120704700207047AE
:101F60000400000800000000000000020001000062
:041F7000100000005D
:040000050800029954
:00000001FF
