:020000040800F2
:10000000688200243900100801130008F912000862
:100010003119100879050008F919000800000000DE
:10002000000000000000000000000000311C10086B
:100030008105000800000000911910083918000817
:100040005F0010085F0010085F0010082918000802
:100050005F0010085F0010085F0010085F001008C4
:100060005F0010085F0010085F0010085F001008B4
:100070005F0010085F0010085F0010085F001008A4
:100080005F0010085F0010085F0010085F00100894
:100090005F0010085F0010085F0010085F00100884
:1000A0005F0010085F0010085F0010085F00100874
:1000B0005F0010085F0010085F0010085F00100864
:1000C0005F0010085F0010085F0010085F00100854
:1000D0005F001008811900085F0010085F00100819
:1000E0005F001008B91A1008000000005F00100837
:1000F0005F0010085F0010085F0010085F00100824
:100100005F0010085F0010085F0010085F00100813
:100110005F0010085F001008091D10085F0010083C
:100120005F0010085F0010085F0010085F001008F3
:100130005F0010085F0010085F0010085F001008E3
:1001400000000000000000000000000000000000AF
:100150005F0010085F0010085F0010085F001008C3
:100160005F0010085F0010085F0010085F001008B3
:100170005F0010085F0010085F001008000000001A
:100180005F0010085F0010085F0010085F00100893
:100190005F0010085F0010085F0010085F00100883
:1001A0005F0010085F0010085F0010085F00100873
:1001B0005F0010085F0010085F0010085F00100863
:1001C0005F0010085F0010085F0010085F00100853
:1001D0005F0010085F0010085F0010085F00100843
:1001E0005F0010085F0010085F0010085F00100833
:1001F0005F0010085F0010085F0010085F00100823
:100200005F0010085F0010085F0010085F00100812
:100210005F0010085F0010085F0010085F00100802
:100220005F0010085F0010085F0010080000000069
:100230005F0010085F001008000000005F00100859
:100240005F0010085F0010085F0010085F001008D2
:100250005F0010085F0010085F0010085F001008C2
:100260005F0010085F0010085F0010085F001008B2
:100270005F0010085F0010085F0010080000000019
:100280005F0010085F0010085F0010080000000009
:10029000000000005F00100800F002F8FFF0C2FE4E
:1002A00014A696E8000CB244B344DA4501D1FFF03D
:1002B000B9FEBAE80F000FA696E83000A5EB0405DA
:1002C00004EB0607AAEB0704A7F101074FEA15158F
:1002D0004FEA3414A4F10104AC4201D3FFF0A2FEB2
:1002E00013F0010F18BFFB1A43F0010300F001F8EF
:1002F000DBE71847501F0000701F0000103A24BFB2
:1003000078C878C1FAD8520724BF30C830C144BF7A
:1003100004680C6070470000704700000023002450
:1003200000250026103A28BF78C1FBD8520728BF05
:1003300030C148BF0B60704710B510BD03B4FFF764
:10034000FBFF03BC01F038FC704700000FB4044908
:1003500010B503AA029800F0C7F810BC5DF814FBB2
:10036000A000002470B5044685690068C10601D567
:10037000302600E02026C00707D070BDD4E9012157
:1003800030469047206A401C20626D1EF6D570BD35
:1003900070B5044685690078C00707D170BDD4E9FF
:1003A000012120209047206A401C20626D1EF6D556
:1003B00070BD70B50C460546012A05D02878800628
:1003C00000D5EA69002302E0012305E05B1C9342AB
:1003D00002D2E05C0028F9D1A869E618C01AA86129
:1003E000286A184428622846FFF7BCFF04E0D5E9D4
:1003F000012114F8010B9047B442F8D32846FFF7C7
:10040000C7FF70BD10B5044603E001F1ADFC401C10
:1004100009D014F8010B05490028F6D1BDE81040B9
:100420000A2001F1A1BC4FF0FF3010BDA000002454
:100430007047704770472DE9F0470D469946924640
:10044000044600F124080168880604D5E06921F01B
:100450001001216000E00120A84201DD471B00E0FF
:100460000027A1697A1902EB0900081AA061207817
:10047000C00602D42046FFF775FF002608E0D4E945
:1004800001211AF806009047206A401C761C206261
:100490004E45F4DB2078C0060AD52046FFF762FF00
:1004A00006E0D4E9012130209047206A401C2062F8
:1004B000381EA7F10107F4DC07E0D4E9012118F8A0
:1004C00005009047206A401C2062281EA5F1010506
:1004D000F3DC2046FFF75CFF2078000602D50220FF
:1004E000BDE8F0870120FBE7074B70B50D467B4464
:1004F000FFF01FFF0446284600F008F810B14FF047
:10050000FF3070BD204670BD77181000007B00F0F2
:100510008000704700487047180000247546FFF7B8
:10052000F9FFAE4605006946534620F007008546B0
:1005300018B020B5FFF094FDBDE820404FF0000654
:100540004FF000074FF000084FF0000BAC46ACE84E
:10055000C009ACE8C009ACE8C009ACE8C00921F0AA
:1005600007018D46704710B50446AFF30080204662
:10057000BDE81040FFF7E2BEFEE70000000000000B
:100580007047000000000000B0B50446FFF0D8FF3F
:1005900040F20E010546C2F20041621C097818BF04
:1005A0000C4400BFFFF0CCFF401BA042FAD3B0BD0B
:1005B00040F20E0040F26021C2F20040C2F200415F
:1005C00000780A68104408607047000000000000CE
:1005D00080B50320FFF0ECFF00F11AFD44F2184152
:1005E00042F23423C5F60201C0F600030A68C2F3E2
:1005F00003229A5C096801F00F0102F01F02595CA6
:10060000D04040F20802C2F2004201F01F0120FA7D
:1006100001F1116040F20401C2F2004108600F20B4
:10062000FFF096FF00281CBF012080BDFFF0BCFF3B
:10063000002080BD00000000002848BF704700F087
:100640001F01012202FA01F14EF20012C0F34A101A
:10065000CEF2000242F820107047000000000000B7
:1006600070B54EF60C5C4FF0FF36CEF2000C00F188
:10067000604505F56445DCF80030C3F3022E8EF0CA
:100680000703042B28BF0423BEF1030406FA03F377
:1006900021EA030100F00F0338BF0024043B0028C7
:1006A000634406FA04F048BF03F10C05A14022EAB6
:1006B000000008430001287070BD00000000000029
:1006C0002DE9F04381B0002800F0F88042F20008E4
:1006D0000446C5F200288946D8F8000000F00F0053
:1006E00081420ED9D8F8000020F00F0040EA09003E
:1006F000C8F80000D8F8000000F00F00484540F0AE
:10070000DD80206844F218474107C5F602070AD584
:1007100021693A6802F07002914204D93A6822F0E5
:1007200070021143396001070AD561697A6802F0E5
:100730007002914204D97A6822F070021143796004
:10074000C1060AD5A1697A6802F4E062914204D92F
:100750007A6822F4E0621143796081060AD5E16982
:10076000BA6802F07002914204D9BA6822F07002AD
:100770001143B96081070AD5E1683A6802F00F02B7
:10078000914204D93A6822F00F0211433960C00740
:1007900040F08080206881070AD5E1683A6802F05D
:1007A0000F02914204D23A6822F00F0211433960DD
:1007B000D8F8001001F00F0189450DD2D8F80010CB
:1007C00021F00F0141EA0901C8F80010D8F8001023
:1007D00001F00F01494571D141070AD521693A68F5
:1007E00002F07002914204D23A6822F07002114382
:1007F000396001070AD561697A6802F07002914296
:1008000004D27A6822F0700211437960C1060AD5D9
:10081000A1697A6802F4E062914204D27A6822F413
:10082000E0621143796080060AD5E069B96801F099
:100830007001884204D2B96821F070010843B860A1
:1008400000F1E6FB396842F23422C0F60002C1F33F
:100850000321515C3B6803F00F0301F01F01D25CE0
:1008600020FA01F102F01F0040F20802C2F2004239
:1008700021FA00F0106040F2100040F20402C2F2CF
:100880000040C2F200420068116001B0BDE8F043D0
:10089000FFF05EBE386820F47061D4E901021143B4
:1008A0003960012857F8181C0CD0032804D00228FE
:1008B00028D1890302D507E0890105D4012001B0C0
:1008C000BDE8F083C905F9D557F8081C21F00701E8
:1008D000084347F8080CFFF033FE064641F288351E
:1008E00057F8080C616800F03800B0EBC10F3FF416
:1008F00051AFFFF025FE801BA842F1D9032001B0C3
:10090000BDE8F0834907D9D5DEE70000000000000C
:100910003F22026044F21842C5F6020252F8083C37
:1009200003F007034360136803F470638360136884
:1009300003F00F03C360136803F07003036153688F
:1009400003F070034361536803F4E06383619268CA
:1009500002F07002C26142F20000C5F2002000689D
:1009600000F00F00086070472DE9F04381B00028C7
:1009700000F09E818046007844F20049C007C5F629
:10098000020954D0D9F8100000F03801D9F8280035
:10099000102905D018290CD100F00300022808D135
:1009A000D9F8000080033ED5D8F80400D8BB012751
:1009B0002CE0D8F80440D9F800002CB1B4F5A02FF1
:1009C0000BD0B4F5803F0ED020F48030C9F8000081
:1009D000D9F8000020F4802007E040F48020C9F816
:1009E0000000D9F8000040F48030C9F80000FFF0A2
:1009F000A7FD05469CB100BFD9F80000800312D4C2
:100A0000FFF09EFD401B6428F6D90327002070B933
:100A100094E100BFFFF094FD401B6428F5D8D9F89D
:100A200000008003F6D40120002800F0878198F8A8
:100A30000000800740F18080D9F8100010F03801E4
:100A4000D9F828001CD0182908BF5FEA807017D099
:100A5000D8F80C00D9F80010002845D021F0190171
:100A60000843C9F80000FFF06BFD0546D9F8000007
:100A7000400728D4FFF064FD401B0228F6D91EE091
:100A8000D9F80000400704D5D8F80C00002800F081
:100A9000B481D9F80000D8F80C1020F019000843F0
:100AA000C9F80000FFF04CFD054600BFD9F8000072
:100AB000400708D4FFF044FD401B0228F6D9032765
:100AC0000024CCBB3AE1FFF033FD41F20301884240
:100AD00021D8D8F81000D9F80410402821F47C312E
:100AE00022D141F4003021E021F00100C9F80000DA
:100AF000FFF026FD05460126D9F8000010F004009D
:100B000086EA900415D0FFF01BFD401B0228F3D9A4
:100B100003278CB912E1D9F80400D8F8101020F09E
:100B2000FE4040EA016001E041EA00300124C9F8DA
:100B30000400002C00F0028198F80000C00670D577
:100B4000D9F8100000F03801D9F82800082905D09C
:100B500018291CD100F00300012818D1D9F8000091
:100B6000C00503D5D8F81C00802855D1FFF0E0FC63
:100B700041F20301884222D8D8F82000D9F80410A5
:100B8000202821F0F8413ED141F080403DE0D8F8E6
:100B90001C000028D9F800001ED040F08000C9F8E1
:100BA0000000FFF0CDFC0546D9F80000C005DDD4FB
:100BB000FFF0C6FC401B0228F6D903272DE0D9F828
:100BC0000C00D8F8201020F07C50012440EA01608D
:100BD000C9F80C002CBBB1E020F08000C9F800007F
:100BE000FFF0AEFC05460126D9F8000010F4807035
:100BF00086EA10240CD0FFF0A3FC401B0328F3D39B
:100C0000032774B99AE041EA8060C9F8040001241E
:100C1000002C00F0938004E001270024002C00F059
:100C20008D8098F80000000744D498F800008006F2
:100C300058D498F8000040076CD4D8F82440ACB3DE
:100C4000D9F8100000F03800182840F0B480012CCA
:100C5000D9F82810D9F830002AD001F00302D8F8CA
:100C600028309A4224D1C1F30511D8F82C209142A2
:100C70001ED10146D8F830206FF35F21013A91422E
:100C800016D1C0F34622D8F8341001398A420FD168
:100C9000C0F30642D8F8381001398A4208D1C0F3AF
:100CA0000660D8F83C100139884201D1002745E0A0
:100CB000012743E0D8F814000028D9F8740041D087
:100CC00040F00100C9F87400FFF03AFC054600BF8F
:100CD000D9F874008007A8D4FFF032FC401B02282A
:100CE000F6D92AE0D8F818000028D9F800004ED02C
:100CF00040F48050C9F80000FFF022FC054600BF18
:100D0000D9F80000800494D4FFF01AFC401B02289C
:100D1000F6D912E0D9F8000440F48070C9F8000454
:100D2000FFF00EFC054600BFD9F80004C0051CD436
:100D3000FFF006FC401B6428F6D90327F8B201B087
:100D4000BDE8F08320F00100C9F87400FFF0F8FB63
:100D500005460327D9F8740080077FF566AFFFF0DA
:100D6000EFFB401B0228F5D9E8E7D8F80840D9F88E
:100D700070001CB1052C42D0012C46D020F001009F
:100D8000C9F87000D9F8700020F004003FE020F4AA
:100D90008050C9F80000FFF0D3FB0546032700BFD1
:100DA000D9F8000080047FF544AFFFF0C9FB401B79
:100DB0000228F5D9C2E7D9F8000020F08070C9F800
:100DC0000000FFF0BDFB022C05464FF0030709D1E0
:100DD000D9F8000080013CD5FFF0B2FB401B02288F
:100DE000F6D9ABE7D9F8000080017FF55FAFFFF0DF
:100DF000A7FB401B0228F5D9A0E7012760E640F0D9
:100E00000400C9F87000D9F8700040F00100C9F87A
:100E10007000FFF095FB002C054641F288344FF03E
:100E2000030711D0D9F8700080073FF506AFFFF037
:100E300087FB401BA042F5D980E700BFFFF080FB95
:100E4000401BA0423FF67AAFD9F870008007F5D476
:100E5000F3E608F12807D9F8280040F2F331884377
:100E60008ECF0843591E40EA02104FF47E426FF3C2
:100E70005F21C9F8280002EB47204FF4FE0280B240
:100E8000D8F83C300844D8F8381002EB01414FF054
:100E9000FE4201F4FE0102EB0362084402F0FE414F
:100EA0000844C9F83000D9F82C004FF6F87120F04A
:100EB0000100C9F82C00D9F83400D8F8482088433C
:100EC00040EAC200C9F83400D9F82C00D8F8401024
:100ED00020F00C000843C9F82C00D9F82C00D8F8F1
:100EE000441020F002000843C9F82C00D9F82C0067
:100EF00040F48030C9F82C00D9F82C0040F40030C0
:100F0000C9F82C00D9F82C0040F48020C9F82C0036
:100F1000D9F82C0040F00100C9F82C00D9F80000E5
:100F200040F08070C9F80000FFF00AFB0446032778
:100F3000D9F8000080013FF5B9AEFFF001FB001BBE
:100F40000228F5D9FAE60000006800EB8100006D88
:100F50007047000000000000006800EB810002659F
:100F6000704700000000000040F21440C5F6020087
:100F7000016881F00101016070470000000000007D
:100F800001A0FFF73FBA00BF414C41524D20412123
:100F90000D0000000000000010B5C2B044F2F4449F
:100FA000C5F60204206840F480302060206800F418
:100FB000803000900098FFF02FFB04202F9000203D
:100FC0003890012031902FA8FFF7CEFC4FF480001D
:100FD00000904FF480702C906846FFF029FB54F885
:100FE000840C40F4004044F8840C42B010BD000072
:100FF0007047000000000000704700000000000083
:1010000060B310B5044690F83D0028B9002084F87C
:101010003C00204600F024F8022084F83D002068BF
:10102000211D00F00DFC012084F8480084F83E00EA
:1010300084F83F0084F8400084F8410084F84200BE
:1010400084F8430084F8440084F8450084F846009E
:1010500084F8470084F83D00002010BD012070474F
:1010600041F200010068C4F20001884218BF7047D5
:1010700080B582B044F2E8400322C5F60200016860
:1010800041F0100101600068012100F010000190A2
:1010900001983620FFF7E4FA362002B0BDE8804020
:1010A000FFF7CABA0000000090F83D1001291BD1DB
:1010B000022180F83D10016841F2FF70C4F2000087
:1010C0008142C86840F00100C8600FDC40F2FF7048
:1010D000C4F20000814217DCB1F1804F2BD040F206
:1010E0000040C4F2000024E00120704740F2FF30CD
:1010F000C4F20100814212DC41F60000C4F200009B
:10110000814218D0002012E040F60000C4F2000036
:10111000814210D040F60040C4F2000009E044F2E1
:101120000000C4F20100814205D040F20040C4F248
:10113000010081420BD107228868C0F201020240FF
:101140000020062A18BFB2F5803F00D1704708681A
:1011500040F001000860002070470000000000001F
:10116000704700000000000010B5044600680169E7
:10117000890744BFC1685FEA817147D4206801696B
:10118000490744BFC1685FEA41714BD420680169D7
:10119000090744BFC1685FEA017150D42068016942
:1011A000C90644BFC1685FEAC16154D420680169BF
:1011B000C9071CBFC1685FEAC17159D120680169C4
:1011C000090644BFC1685FEA016158D4206801691B
:1011D000C90544BFC1685FEA016157D4206801694D
:1011E000490644BFC1685FEA416156D4206801697D
:1011F000890646BFC1685FEA816110BD6FF02001BA
:1012000001612046BDE81040FFF7F6BE6FF0020115
:101210000161012121778069800745D02046FFF7D1
:101220009FFF47E06FF0040101610221217780698F
:1012300010F4407F41D02046FFF792FF43E06FF06B
:101240000801016104212177C06980073ED0204652
:10125000FFF786FF40E06FF0100101610821217760
:10126000C06910F4407F3AD02046FFF779FF3CE098
:101270006FF001010161204600F14AFB9EE76FF02B
:1012800080010161204600F1E7F99FE76FF480716A
:1012900001612046FFF7ACFEA0E76FF0400101615D
:1012A000204600F141FBA1E7204600F12DFB20463E
:1012B00000F01EF80020207760E7204600F124FBB4
:1012C000204600F015F8002020775FE7204600F167
:1012D0001BFB204600F00CF8002020775EE720463C
:1012E00000F112FB204600F003F8002020775DE7B4
:1012F0007047000000000000FEE700000000000052
:10130000FEE70000000000002DE9F04F87B044F236
:10131000E0440020C5F602040690CDE90400CDE9C2
:101320000200206841F2004140F002002060206885
:10133000C5F6020100F0020001900198206840F01B
:10134000200020602068A1F5805600F02000019068
:10135000019854F80C0C40F4804044F80C0C54F8FC
:101360000C0C02AD00F48040019045F2000701989A
:10137000042002900920069030462946C5F2002735
:101380004FF00209CDF80C904FF0010ACDF810A0F3
:101390004FF0030BCDF814B0FEF0F6FF02A9402089
:1013A0004FF00A08CDF8188081E8010E3046294632
:1013B000FEF0EAFF02A941F200464FF48070C5F644
:1013C000020681E8010E30462946CDF81880FEF06D
:1013D000DBFF02A94FF40070CDF81880B04681E819
:1013E000010E30462946FEF0CFFF02A980200926D3
:1013F000069681E8010E40462946FEF0C5FF02A987
:101400004020069681E8010E40462946FEF0BCFFCA
:1014100054F8640C40F4804044F8640C54F8640CB4
:1014200020F4804044F8640CB868800608D5012098
:10143000CFF6FF70013015D2B9688906FAD488B1A9
:1014400040F21030C0F60070386040F20170C0F217
:1014500018007860386840F001003860002007B05C
:10146000BDE8F08F012007B0BDE8F08F000000005C
:10147000B0B545F2080E4D1EC5F2002EDEF80C2068
:10148000DEF81030CEF808504FF0010565F39B628E
:10149000DEF8045045F00205CEF80450CEF80C20DA
:1014A000CEF8103021B340F2010C0022CFF6FF7CC1
:1014B000DEF8003013F0060F02D000230EE000BF6C
:1014C000644600BF651C42F10003A54206D3DEF866
:1014D000004014F0060F2C46F4D000BF2BB99EF844
:1014E0001840013900F8014BE2D1180638D101E06B
:1014F000180635D15EF8080C002340F004004EF8C1
:10150000080CDEF8000080074FF000000CD4012129
:10151000CFF6FF714A1C40F100038A4204D3DEF883
:10152000001089071146F5D5D3B9DEF80400002371
:1015300040F00200CEF80400DEF8000080064FF014
:1015400000000DD50121CFF6FF7100BF4A1C40F10C
:1015500000038A4204D3DEF8001089061146F5D450
:10156000D8B2B0BD0000000010B545F2080CC5F2BD
:10157000002CDCF800E05FEA8E6E0DD540F2010E23
:10158000CFF6FF7E1EF1010E31D2DCF80040A4063A
:10159000F8D4BEF1000F2AD002F0C00412F00C0FF4
:1015A00043EA04034FF47C5404EA022444EA8343EC
:1015B0001844CCF80C0018BFCCF810103F2A16D8ED
:1015C000DCF8000080070CD40120CFF6FF7000BFCC
:1015D00001300CD2DCF800108907F9D5002808BFCB
:1015E00010BDDCF8040040F00200CCF8040010BD8F
:1015F00070B582B045F20806C5F20026F26833697C
:10160000A1F10103B360736822F0406243F002036A
:101610007360F26049B340F2010C0023CFF6FF7C07
:1016200001E000BF09B3326852070BD4644600BF23
:10163000621C43F10005A24205D3346864071446D6
:10164000F6D500E000259DB9013910F8012B0C07F3
:101650003276E7D10193019A632AE3DC019A0132E1
:101660000192019A642AF9DBDCE7280635D104E00F
:101670001BA0FEF76BFE28062FD156F8080C00259C
:1016800040F0040046F8080C306880074FF0000076
:101690000BD40121CFF6FF714A1C40F100058A42AC
:1016A00003D3316889071146F6D5B5B970680025AE
:1016B00040F002007060306880064FF000000CD5EA
:1016C0000121CFF6FF7100BF4A1C40F100058A429C
:1016D00003D3316889061146F6D4E8B202B070BD72
:1016E00051535049207472616E736D69742074692E
:1016F0006D656F7574206174206279746520256C46
:10170000750D0A0000000000F0B581B044F22C47CE
:10171000C5F6020757F8042C02F00302032A02D18F
:10172000012001B0F0BD054657F82C0C0C4620F006
:10173000806047F82C0CFEF003FF064657F82C0C8F
:10174000000105D5FEF0FCFE801B0228F6D964E0FE
:1017500057F8040CEE6895E80E0020F47C30012C5C
:1017600040EA0130A2F101016FF35F214FF47E42A4
:1017700002EB432247F8040C92B24FF0FE4302EB17
:1017800001004FF4FE012A6901EB064101F4FE015C
:1017900003EB0262084402F0FE410844F860386836
:1017A000696920F0C00040EA010038603868A96922
:1017B00020F0200040EA0100386038684FF6F871E8
:1017C00020F0100038603869EA6920EA01004FF41F
:1017D000001140EAC2003861386808BF4FF4801138
:1017E00040F01000002C386008BF4FF4002138682A
:1017F0000843386057F82C0C40F0806047F82C0CF8
:10180000FEF09EFE044600BF57F82C0C000107D4E2
:10181000FEF096FE001B0328F6D3032001B0F0BDB6
:10182000002001B0F0BD000040F27800C2F200409C
:10183000FFF0DABC00000000FEF7BABE00000000B6
:1018400040F6FF32C4F20002904202680FDCB0F1B1
:10185000804F1DD040F20043C4F20003984217D0DD
:1018600040F60003C4F20003984211D014E040F6A1
:101870000043C4F2000398420AD040F20043C4F28D
:101880000103984204D00023C4F20103984203D11B
:1018900022F070024B681A434FF6FF7343F6FF7C49
:1018A000C4F20003C4F2010C984210DD604527DD4C
:1018B00044F20003C4F2010398422CD044F6000322
:1018C000C4F20103984226D044F200431FE040F2E4
:1018D000FF73C4F20003984207DCB0F1804F1AD0C6
:1018E00040F20043C4F2000313E040F60003C4F2E8
:1018F000000398420FD040F60043C4F2000308E012
:101900000023C4F20103984205D040F20043C4F220
:101910000103984203D122F44072CB681A4310B5F8
:1019200022F08002D1F800E04C698B68224302600B
:10193000C3626045C0F828E0BDE810400EDD44F207
:101940000002C4F20102904213D044F60002C4F235
:10195000010290420DD044F2004206E00022C4F29F
:101960000102904205D040F20042C4F201029042CE
:1019700001D1096901630121416170470000000044
:1019800080B541F22000C4F2010050F8041C890621
:101990002AD540F2082CD0F804E0C2F2004CBCF882
:1019A000002011B200291FD45FFA8EF3B2F5804FE8
:1019B00004D20D2B0CD142F4804113E048F2000E0A
:1019C0000021CFF6FF7E0A2B08BF42EA0E0109E094
:1019D00040F24013511CC2F20043C62A03F802E051
:1019E00088BF0021ACF80010016841F008010160D7
:1019F00080BD000000000000FEE7000000000000C5
:101A0000B0B582B0FFF780FC00F07EF840F29C0594
:101A1000EF22C2F20045002100230024287800288C
:101A20004FF0900008BF6522FFF79EFD01A802213C
:101A3000FFF71EFDBDF8040040F20C024EF61671D1
:101A4000C2F2004240BA884210805BD12878C3229B
:101A50000021002300284FF015008DF806404FF0BC
:101A6000C30408BF4122FFF77FFD0DF106000121ED
:101A7000FFF7FEFC9DF806008DF80300C10710D0AB
:101A8000287803220021002300284FF0060008BF19
:101A90000122FFF769FDE920002103220023FFF75F
:101AA00063FD28780021002300284FF0150008BFAF
:101AB00041248DF807102246FFF756FD0DF107006F
:101AC0000121FFF7D5FC28789DF8071003228DF837
:101AD000031000284FF006004FF000014FF0000304
:101AE00008BF0122FFF740FDC0200021C3220023D0
:101AF000FFF73AFD30208DF803000DF103000121BE
:101B0000FFF776FD02B0B0BDF0B581B040F29C05A4
:101B10000021C2F20045C32200238DF8021028786C
:101B2000C32400284FF0350008BF4122FFF71CFDF9
:101B30000DF1020001210126FFF79AFC9DF80270C9
:101B4000B8071ED4287803220021002300284FF074
:101B5000060008BF0122FFF707FD287847F00201C1
:101B6000002300284FF0310008BF41248DF80310F6
:101B700000212246FFF7F8FC0DF103000121FFF7D9
:101B800037FD3820002101220023FFF7EDFC2E70E5
:101B900001B0F0BD00000000B0B5144605460B20B2
:101BA000EF220823FFF7E0FC28462146BDE8B040BD
:101BB000FFF75EBC0000000070470000000000005E
:101BC00010B540F2F40441F20002C2F20044C4F243
:101BD0000002C4E900210021C4E902102046FFF7F9
:101BE0000FFA2046BDE81040FFF75EBA0000000083
:101BF000B0B58EB044F2E8400025C5F60200CDE94C
:101C00000C55CDE90A55016841F0020101600068F8
:101C100000F0020002900298FFF0CAF9044602A800
:101C200001A9FEF775FE07984DF683610028C4F2FE
:101C30001B3118BF01204FF0FF3204FA00F040F2D0
:101C40000C24A0FB0101C2F2004440F20040C4F2A7
:101C50000000206002EB9140A561C4E901054FF648
:101C6000FF70C4E903052046FFF7CAF94FF480501E
:101C70000A900AA92046FFF04BFD2046FFF0F0FC39
:101C80000EB0B0BD00000000002808BF70473D281E
:101C900001D3FEF779BC40F20C214FF47A72C2F204
:101CA0000041504309684A6A4B6A9B1A38BF03F5E2
:101CB00080338342F8D37047B0B582B044F2E0403D
:101CC00040F20044C5F60200C5F6020401220023DA
:101CD0000168012541F002010160016841F0020143
:101CE0000160022120460095019500F11DF90121B6
:101CF0000122002320460095019500F115F90221EB
:101D00000122204600F038F901210122204602B0CC
:101D1000BDE8B04000F030B900F0DEF8FEF758FC46
:101D2000FFF08AFFFFF764FF64204FF4E13100F019
:101D300013FAFFF7C1FF00F133F800F011F8632048
:101D400040F65F11FFF73CFFFFF75AFEFFF00CFF74
:101D500004200021FFF050FF00F016F9FEE700001C
:101D60002DE9F04F83B044F2D44040F6000AC5F6A6
:101D70000200C5F6020A44F250164FF6FF74C1681D
:101D8000022241F07C01C1600168002341F48051CE
:101D900001600D215046C5F20026C0F21F044FF02D
:101DA000010B4FF00308CDE9008B00F1BDF80AF5F7
:101DB00080604CF20371022200230290CDE9008B77
:101DC00000F1B2F80AF500694FF683710222002390
:101DD0004846CDE9008B00F1A7F80AF540674FF6B9
:101DE0003F01022200233846CDE9008B00F19CF828
:101DF0000AF5805548F23711022200232846CDE922
:101E0000008B00F191F80D210C22504600F160F892
:101E10004CF203710C22029800F15AF84FF68371CC
:101E20000C22484600F154F84FF63F010C22384688
:101E300000F14EF848F237110C22284600F148F81C
:101E400041F6591046F8100C46F27160C0F21110BC
:101E500046F8080C4FF6B060CFF6FF70315841F0ED
:101E60000041315011203060204600BFB168890622
:101E700003D50028A0F10100F8D14FF4FA70FFF06B
:101E80004BFF122030602046B168890603D5002838
:101E9000A0F10100F8D140F213103060204600BFDD
:101EA000B168890603D50028A0F10100F8D144F2F9
:101EB0001420C0F204003060B068800603D5002C06
:101EC000A4F10104F8D140F28E60706003B0BDE867
:101ED000F08F0000000000004EF61450CEF200001B
:101EE0000168890312D4BFF34F8FBFF36F8F0021B6
:101EF000C0F83C12BFF34F8FBFF36F8F016841F4FE
:101F000000310160BFF34F8FBFF36F8FB0B5016831
:101F1000C90329D400210167BFF34F8FC26E43F676
:101F2000E07ED308C2F34E31C2F3C90202F1010CC4
:101F30009B074A0102EA0E0465461C44013DC0F8B5
:101F40004C4204F14044F9D10029A1F10101A2F170
:101F50002002EFD1BFF34F8F016841F4803101605F
:101F6000BFF34F8FBFF36F8FD0F8881241F0040199
:101F7000C0F88812B0BD0000D20708BF090482690A
:101F800011438161704700002DE9F04FADF2044D1F
:101F90004CA0FEF737FA002081AF00BF3854013063
:101FA000B0F5007FFAD14EA0FEF72CFA56A0FEF74E
:101FB00029FA5EA001210124FEF7C8F90DF10409F8
:101FC00000214FF4807248460025FFF7E5FD42F2FC
:101FD0008D06C0F6100603E00135B5F5807F0DD003
:101FE00019F805307A5D9342F6D030462946FEF75F
:101FF000ADF9052D4FF00004EED902E0002C18BF1A
:10200000012442F2811842F27C1AC0F61008C0F690
:10201000100A41464BA0002C18BF5146FEF796F916
:1020200042F203100221C0F61000FEF78FF94FF4C0
:1020300080714FF480724846FFF7AEFD42F2C00B4C
:1020400001250026C0F6100B04E000BF0136B6F5EE
:10205000807F0FD0B81919F8063090F8002193420C
:10206000F4D058463146FEF771F9052E4FF00005C1
:10207000ECD902E0002D18BF0125002D42F2F3003B
:1020800018BFD046C0F610004146FEF75FF942F295
:102090001B10C0F61000FEF7B5F942F25A1042F2DA
:1020A0003611C0F61000C0F61001002D08BF08461A
:1020B000002C08BF0846FEF7A5F90DF2044DBDE857
:1020C000F08F00BF3D3D3D20B7D6B2BDB2E2CAD4CD
:1020D000466C617368B2D9D7F7203D3D3D000000E2
:1020E0003E3E3E20D1E9D6A4C4A3CABDA3BABDF6E4
:1020F000B6C1C8A1D1E9D6A4CAFDBEDDB1A3B3D68D
:10210000D0D4203C3C3C0000D5FDD4DAD1E9D6A4A3
:10211000C9CFB5E7BAF3466C617368CAFDBEDDCAC4
:10212000C7B7F1B1A3B3D62E2E2E0000B2BDD6E8AC
:102130002564A3BAB6C1C8A1B5DAD2BBD2B3D1E97E
:10214000D6A40A00B5DAD2BBD2B3BDE1B9FB3A20BE
:1021500025730A00000000002DE9F04182B044F22E
:10216000E0420026C5F602020546C5F602060C4608
:1021700013684FF4007143F00103136013680127E3
:1021800043F0010313601069002340F01000106158
:102190000222304600974FF000080197FFF0C4FE7E
:1021A0004FF4806102220023304600970197FFF030
:1021B000BBFE4FF4007107223046FFF089FE4FF45A
:1021C000806107223046FFF083FE43F60950610824
:1021D00068432522022301EB80100321B0FBF4F0B9
:1021E00041F20004C4F20104E060C4F800802068F9
:1021F00020602068206020682060206840F008008F
:102200002060206840F004002060206840F020003A
:1022100020600320FFF0D0FE206840F00100206025
:1022200002B0BDE8F08130380A2801D201207047A1
:1022300000207047000000000102030401020304B3
:1022400006070809682200080000002418000000A2
:10225000FC020008802200081800002450820000C0
:102260001C03000800000000010000000090D003E3
:102270000090D00316EF01001000000000000000E5
:020000040810E2
:10000000642900F03D80752900F03A80782900F0DD
:100010007380732900F0B281002070471FB502F091
:100020000CF81FBD00F77AFA1146FFF7F7FF01F74A
:1000300073FE00F798FA0000DFF83000016841F421
:1000400070010160BFF34F8F09480047FEE7FEE7EC
:10005000FEE7FEE7FEE7FEE7FEE7FEE7FEE7FEE778
:1000600004480549034A054B7047000088ED00E04D
:1000700099020008680200246882002468020024B3
:100080002DE9F0410646002410687529314616A571
:1000900010D0AFF30080002802DA404213A507E039
:1000A00031688A0701D512A502E0490704D511A5D8
:1000B000012401E0AFF3008000210A2206F12407A9
:1000C00009E0B0FBF2FCB0FBF2F302FB1C003030A5
:1000D00078541846491C0028F3D123462A46304656
:1000E000BDE8F04100F7A7B9000000002D000000B6
:1000F0002B0000002000000070B504460D4621468C
:100100001068AFF300802188090502D50F4A7A44B0
:1001100002E00E4A7A440E32002104F1240305E085
:1001200000F00F060009965D5E54491C0028F7D1C7
:1001300020780023000704D5702D02D009B10223D6
:1001400011322046BDE8704000F775B9421F00002B
:100150002DE9F05F894604464FF0000ADFF874B1DC
:10016000FB44C0F820A02046E1688847002874D0EE
:10017000252806D0D4E901219047206A401C20623E
:10018000F1E700265F462046E168884720280546BB
:1001900007DB312D05D2781910F8200C08B1064381
:1001A000F1E7B00701D526F00406C4F81CA000272B
:1001B000C4F818A02A2D09D0284602F734F838B31D
:1001C00004EB8708303DC8F8185019E059F8041BB3
:1001D000204604EB87029161E1688847012F0546BC
:1001E00018D1E069002820DA26F020061DE0D8F8B2
:1001F000180000EB800005EB40003038C8F818000C
:100200002046E1688847054602F70DF80028EED140
:10021000012F0AD02E2D08D12046E16888477F1C87
:100220000546022F46F02006C4DBA069002803DA49
:10023000404246F00106A061F00701D026F010060A
:100240006C2D0BD0682D09D04C2D39D06A2D35D0AE
:10025000742D35D07A2D33D016E038E0E1682F4682
:1002600020468847B842054609D16C2F26D04FF466
:100270008060E168064320468847054604E06C2F0D
:100280001AD04FF4807006430DB3A5F14100192830
:1002900002D8203546F400664A46294620462660A4
:1002A0004E46FFF7ADFE80B101280BD0F61D26F0BB
:1002B000070000F1080956E74020E4E78020D8E76E
:1002C0000020D6E706F104094DE7284652E7206AE8
:1002D000BDE8F09F181F00004FF0000200B5134664
:1002E00094469646203922BFA0E80C50A0E80C5056
:1002F000B1F12001BFF4F7AF090728BFA0E80C5007
:1003000048BF0CC05DF804EB890028BF40F8042BFF
:1003100008BF704748BF20F8022B11F0804F18BF6C
:1003200000F8012B7047704701694A1C0261087888
:10033000704700B58FB0CDE9013100210591054925
:100340007944CDE9031011466846FFF701FF0FB06D
:1003500000BD0000E5FFFFFF10B5436913B1AFF327
:10036000008001E000F725F8012010BD127800F1AF
:1003700024010A7000224A700122EDE711684FF053
:10038000FF32E9E7000000002DE9F04F83B00E686E
:10039000002E00F0C78000F1264742F2004507F129
:1003A000FF77C5F602050A22A8424FEAB72500F1F9
:1003B000200308BF09220093092D38BF4FEAB72256
:1003C000002400274FF0000A01920AE00AF1010A16
:1003D0000E6836FA0AF207F1020704F1040400F08D
:1003E000A180012202FA0AFB16EA0B08EED0D1F82E
:1003F0000490032209F0030EAEF10106012E02FA69
:1004000007F610D8D0F808C0CD682CEA0602BD4027
:100410002A438260C9F30015426822EA0B0205FAFA
:100420000AF52A434260BEF1030F1FD0C2688D68EF
:10043000B243BD40BEF1020F42EA0502C26015D1CF
:100440006FF00302009D02EA5A0B04F01C030F2216
:1004500055F80BC002FA03FED1F810902CEA0E0CEE
:1004600009FA03F343EA0C0345F80B3002684B68C2
:10047000B24303F00306BE4013F4403F42EA0602D3
:100480000260A3D044F2F44340F2084CC5F60203E4
:10049000C5F6000C0F251A6842F002021A601A68AD
:1004A00002F0020202922AF00302029B04F00C0303
:1004B00052F80C609D40AE43019D05FA03F33343AF
:1004C00042F80C304FF0B04CDCF800204B6842EAA8
:1004D0000806DD0258BF22EA08069D02CCF800603B
:1004E00040F2040CC5F6000CDCF8002042EA0806D5
:1004F00058BF22EA08069D03CCF80060DCF8802093
:1005000042EA080658BF22EA0806DB03CCF88060FE
:10051000DCF87C2042EA080658BF22EA0806CCF83C
:100520007C6053E703B0BDE8F08F000000000000DE
:1005300041F20000C5F600400068000C7047000062
:1005400040F26020C2F200400068704700000000E6
:1005500040F20E01C2F20041097819B310B5044609
:1005600040F20400C2F200404FF47A72B2FBF1F1A3
:100570000068B0FBF1F001F057F80F2C01464FF086
:1005800001000ED8002918BF10BD4FF0FF30002227
:10059000214600F765F840F210010020C2F2004148
:1005A0000C6010BD01207047704700000000000083
:1005B0004EF60C514FF6FF03CEF200010A681A40C6
:1005C00060F30A2242F0806040F0FD7008607047DE
:1005D000B0B544F60C05C5F6020529684907296837
:1005E00005D401F00701081A18BF0120B0BD21F0A1
:1005F000070108432860FFF7A3FF044655F8080CDD
:10060000800407D4FFF79CFF001BB0F57A7FF5D973
:100610000120B0BD0020B0BD44F60000C5F60200C8
:10062000016841F480710160704700000000000023
:100630002DE9F04381B00446C07844F22C4900070C
:10064000C5F6020901D400261FE0606E4FEA305063
:10065000032837D80026DFE800F0020A1B21D9F86A
:10066000000040F40030C9F80000CEB905E0201DBC
:10067000022101F749F8064696B9D9F82400616EBF
:1006800020F440100843C9F824004FF0000808E0A7
:1006900004F12400022101F07FF90646002EECD07F
:1006A000B0466078C00721D0606D042800F2478111
:1006B000DFE810F0E70018010C00050005006EB13E
:1006C000B04613E00126002EEAD1D6E704F124005B
:1006D000002101F061F90646002EF1D1D9F824007D
:1006E000616D20F007000843C9F824006078800796
:1006F0001FD5A06D4FEAB010042800F22581DFE875
:1007000010F0CA00FA000800050005004EB1B0461E
:100710000FE004F12400002101F03EF90646002E0E
:10072000F5D1D9F82400A16D20F4E0700843C9F890
:1007300024006078400721D5D4F8A4004FEA705017
:10074000042800F20681DFE810F0B000DF000800A6
:10075000050005004EB1B04610E004F12400002170
:1007600001F01AF90646002EF5D1D9F82C00D4F87C
:10077000A41020F460000843C9F82C00607800073A
:100780001FD5D4F8A8004FEA3060042800F2E680B4
:10079000DFE800F095C3060303004EB1B04610E059
:1007A00004F12400002101F0F7F80646002EF5D1EF
:1007B000D9F82C00D4F8A81020F0E0600843C9F85C
:1007C0002C00E07880071BD5A06C4FEA301003287E
:1007D0002FD8DFE800F0020526024EB1B0460FE048
:1007E000D9F8000040F40030C9F80000002EF5D11F
:1007F000D9F82000A16C20F030000843C9F820008F
:100800006078C00629D5E06D4FEA3030042800F248
:10081000AA80DFE800F05E8B12030300AEB1B046A1
:100820001BE0201D022100F76FFF0646002ED5D1E8
:10083000DEE70126002ED1D1DAE704F12400002101
:1008400001F0AAF80646002EE9D1D9F82400E16D9E
:1008500020F4E0400843C9F824006078800640F1A5
:100860009B80206E4FEA3040052800F28A80DFE846
:1008700000F085037F858585201D012100F744FF59
:100880007BE0D9F8000040F40030C9F80000002EE9
:100890007FF416AF22E7D9F8000040F40030C9F821
:1008A0000000002E7FF433AF3BE7D9F8000040F49E
:1008B0000030C9F80000002E7FF44DAF55E7D9F89D
:1008C000000040F40030C9F80000002E7FF466AF4D
:1008D0006EE7D9F8000040F40030C9F80000002E9F
:1008E0009DD1B2E7201D002100F70EFF0646002E25
:1008F0007FF4E6AEF2E6201D002100F705FF064674
:10090000002E7FF404AF0CE7201D002100F7FCFE51
:100910000646002E7FF41FAF27E7201D002100F7B9
:10092000F3FE0646002E7FF439AF41E7201D00217B
:1009300000F7EAFE0646002E7FF471AF85E7012638
:10094000002E7FF4BDAEC9E60126002E7FF4DFAE97
:10095000E7E60126002E7FF4FEAE06E70126002E14
:100960007FF41CAF24E70126002E7FF458AF6CE71C
:1009700004F12400012101F00FF8064626B1B0462B
:100980000AE00126002EFAD1D9F82400216E20F4C5
:10099000E0200843C9F824006078400624D5D4F844
:1009A000AC004FEA3070052812D8DFE800F00E03E3
:1009B000080E0E0E201D012100F7A6FE04E004F132
:1009C0002400012100F0E8FF064626B1B0460BE006
:1009D0000126002EFAD1D9F82C00D4F8AC1020F062
:1009E000E0400843C9F82C00607800061FD5E06E8F
:1009F000D0B1B0F1005F12D0B0F1805F25D1D9F84D
:100A0000000040F40030C9F800007EB9D9F8240095
:100A1000E16E20F040500843C9F8240007E0201D93
:100A2000012100F771FE0646002EEFD0B046E078B7
:100A3000C0071ED0606C032800F27F80DFE800F062
:100A4000020974026EB1B04613E00126002EEDD10A
:100A5000DCE7D9F8000040F40030C9F80000002EAF
:100A6000F1D1D9F82000616C20F003000843C9F8E7
:100A70002000A078400645D5D9F8D40340F4807012
:100A8000C9F8D403FFF75CFD074600BFD9F8D403CB
:100A9000C00505D4FFF754FDC01B6528F6D3032617
:100AA0007EBBD9F84410D4F8B000414011F4407F27
:100AB00011D0D9F84410D9F8442042F48032C9F852
:100AC0004420D9F8442021F4407122F48032C9F83E
:100AD0004420C9F84410B0F5807F0FD1FFF730FDF6
:100AE000074641F2893500BFD9F84400800705D494
:100AF000FFF726FDC01BA842F6D30326002E00F008
:100B00003A82B0462078C00730D0A06F4FEAF0009C
:100B1000052820D8DFE800F01C03161C1C1C201D33
:100B2000012100F7F1FD12E0201D022100F7ECFD8C
:100B30000646002E7FF487AF93E70126002E7FF450
:100B400082AF8EE704F12400012100F025FF064664
:100B500026B1B0460AE00126002EFAD1D9F82800C5
:100B6000A16F20F038000843C9F8280020788007DA
:100B700020D5606F052812D8DFE800F00E03080EBC
:100B80000E0E201D012100F7BFFD04E004F124003A
:100B9000012100F001FF064626B1B0460AE0012619
:100BA000002EFAD1D9F82800616F20F00700084321
:100BB000C9F828002078400722D5D4F890000528ED
:100BC00012D8DFE800F00E03080E0E0E201D0121E2
:100BD00000F79AFD04E004F12400012100F0DCFE9E
:100BE000064626B1B0460BE00126002EFAD1D9F810
:100BF0002C00D4F8901020F007000843C9F82C000E
:100C00002078800624D5D4F88C004FEA307005286F
:100C100012D8DFE800F00E03080E0E0E201D002192
:100C200000F772FD04E004F12400022100F0B4FE9C
:100C3000064626B1B0460BE00126002EFAD1D9F8BF
:100C40002800D4F88C1020F0E0400843C9F82800B0
:100C50002078400624D5D4F898004FEAB020052823
:100C600012D8DFE800F00E03080E0E0E201D002142
:100C700000F74AFD04E004F12400022100F08CFE9C
:100C8000064626B1B0460BE00126002EFAD1D9F86F
:100C90002C00D4F8981020F4E0500843C9F82C0038
:100CA0002078000624D5D4F89C004FEA703005283F
:100CB00012D8DFE800F00E03080E0E0E201D0021F2
:100CC00000F722FD04E004F12400022100F064FE9C
:100CD000064626B1B0460BE00126002EFAD1D9F81F
:100CE0002C00D4F89C1020F460400843C9F82C0074
:100CF0002078000716D5D4F88000B0F5805F08D1C1
:100D000004F12400022100F047FE002818BF4FF034
:100D10000108D9F82800D4F8801020F44050084386
:100D2000C9F828002078C00616D5D4F89400B0F58C
:100D3000807F08D104F12400022100F02DFE00285C
:100D400018BF4FF00108D9F82C00D4F8941020F403
:100D500040700843C9F82C00A078000723D5D4F8C8
:100D6000A000B0F5003F1BD0B0F5803F12D00028A6
:100D700040F0E980201D002100F7C6FC06468EB930
:100D8000D9F82C00D4F8A01020F440300843C9F85A
:100D90002C0008E004F12400022100F0FDFD0646CD
:100DA000002EEDD0B046A078400725D5D4F88400B9
:100DB000B0F5401F1DD0B0F5001F14D0B0F5801F56
:100DC00040F0C680D9F8000040F40030C9F80000B7
:100DD0008EB9D9F82800D4F8841020F440100843C4
:100DE000C9F8280008E004F12400012100F0D4FD36
:100DF0000646002EEDD0B046A078C0071ED0E06CAD
:100E0000B0F5803F0BD0002840F09880D9F8000062
:100E100040F40030C9F8000046B1B0460EE0201D95
:100E2000022100F771FC0646002EF6D1D9F8200009
:100E3000E16C20F480300843C9F82000E078800697
:100E400008D504F12400022100F0A6FD002818BFF7
:100E50004FF00108206881031ED4C10234D4C100C0
:100E60003CD4810245D441004DD4B0F1FF3F5ADD5E
:100E7000000208D5D9F82800D4F8881020F44000E2
:100E80000843C9F82800B8F1000F18BF4FF0010857
:100E9000404601B0BDE8F083E16F6FF0010202EB64
:100EA0003122022A0AD34FEA31223AB1012A54D11F
:100EB000D9F8002042F40032C9F80020002E4FD0AB
:100EC0004FF00108C102CAD5D9F82410226F21F0D1
:100ED00000411143C9F82410C100C2D559F81C1CA7
:100EE000D4F8B42021F48041114349F81C1C81023C
:100EF000B9D5D9F82410A26E21F080711143C9F838
:100F000024104100B1D559F81C1C21F4004149F8C6
:100F10001C1CD4F8B81059F81C2C114349F81C1C9F
:100F2000B0F1FF3FA4DCD9F82010226D21F0405130
:100F30001143C9F8201000029CD4A4E70126002E1A
:100F40007FF46BAF72E70126002E7FF42BAF17E71B
:100F50000126002E7FF44FAF3BE70126002EAFD1D4
:100F6000D9F8282022F440721143C9F82810C10290
:100F70007FF575AFA8E74FF6CF73D4F8B00059F8F6
:100F80001C2CC0F2FF0300F4407122F47C5203EAEF
:100F90001013B1F5407F08BF1A436FF31F3049F8B3
:100FA0001C2CD9F844100843C9F84400AAE50000F5
:100FB00080B500F02DF844F2184C42F23423C5F607
:100FC000020CC0F60003DCF80020C2F303229A5C96
:100FD000DCF8001001F00F0102F01F02595CD04054
:100FE00040F20802C2F2004201F01F0120FA01F1B2
:100FF000116040F20402C2F200421060DCF804000A
:10100000C0F30210185C00F01F0021FA00F080BD50
:1010100044F20041C5F602010869C0F3C20003288A
:1010200014D002280DD088BB0868800649F2000061
:10103000C0F2D03058BF70470968C1F3C101C84041
:10104000704747F64000C0F27D1070478B6A886A8F
:10105000D1F82CC04A6BC0F30510E0B1C2F3CC024A
:1010600003F0030300EE102A9FED291AB8EE400AA0
:1010700020EE010A9FED271ADFE803F0021F0F1F81
:101080000A6892060CD49FED251A16E040F600106F
:10109000C0F23D007047002070479FED1F1A0CE022
:1010A0000A6849F20003C0F2D033C2F3C10223FA46
:1010B00002F201EE102AB8EE411A0A6B9FED183ABF
:1010C0006FF35F2202EE102A5FEACC7203FE000A81
:1010D00003EE100A086BB8EE422AC0F34620B8EEC1
:1010E000433A013030EE020AB7EE002A81EE031ACD
:1010F00030EE020A21EE000A01EE100AB8EE411AA3
:1011000080EE010ABCEEC00A10EE100A704700BF64
:10111000000000390024744A20BCBE4B0024744CEB
:101120000000000000000000704700000000000008
:10113000F0B581B0044690F8200001284FF002007D
:101140004DD00E46012184F82010CA2184F82100D8
:101150001546206841625321416244F20800C5F6F9
:101160000000016821F4806101604068400611D4EC
:10117000FFF7E6F9074600BF2068C068400709D4BA
:10118000FFF7DEF9C01BB0F57A7FF5D9216803229D
:1011900003201DE021684FF0B0434E61886820F0C5
:1011A0000700284388608020C5F60000026842F4EA
:1011B000002202601868012240F40020186088684C
:1011C00040F480408860886840F480608860002037
:1011D000FF234B6284F82120002184F8201001B005
:1011E000F0BD00000000000010B588214FF400227F
:1011F000C5F6000104460A600068C168490508D5C3
:10120000C16861F4906121F48061C1602046FFF6FD
:10121000ABFE012084F8210010BD0000000000009A
:1012200010B588214FF40032C5F6000104460A606B
:1012300000688168C90444BFC1685FEAC1510BD42A
:1012400020688168890444BFC1685FEA81510DD478
:10125000012084F8210010BDC16861F4C07121F43F
:101260008071C1602046FFF68BFEE9E7C16861F43A
:10127000207121F40071C1602046FFF755FFE7E7B8
:1012800070B578B3044690F8210028B9002084F89E
:1012900020002046FFF680FE022084F8210020680E
:1012A000CA21416253214162C16849061DD44FF0F1
:1012B000FF31C160FFF744F92168C96849063AD493
:1012C00006460025FFF73CF9801BB0F57A7F02D96E
:1012D000032584F821502068C068400606D4032DF9
:1012E000F0D103E00125E8B270BD002535BB94E8DC
:1012F0000F004FF6BF758668CFF68F752E4086605B
:1013000026693143A669314386683143816043EAE7
:1013100002410161204600F0D7FB054670B9206804
:101320006169E269C36C114323F00303C364C26CB7
:101330001143C16402E00025002DD8D020684FF091
:10134000FF0141620DB1E8B270BD012084F82100B7
:10135000E8B270BD000000002DE9F047044690F8A7
:1013600020000225012800F09B804FF0010084F846
:10137000200084F821503AB14878CA7891F802A048
:10138000000240EA024849E04878C20603D500F06E
:10139000EF000A304870C8784FF0CD0C91F802A0E9
:1013A000A0F10A06F2B202FB0CF74A78FD0AA2F19C
:1013B0000A085FFA88F305EB850E03FB0CF3C7B24E
:1013C000A6EB4E06092F4FEAD32306EB051688BF7E
:1013D00006F1100003EB8307AAF10A06F5B2A8EBA9
:1013E000470705FB0CFCD5B207EB0313C0B2092D70
:1013F00088BF03F110025FFA8AF54FEADC23D2B20C
:10140000092D03EB83074FEA0222A6EB470707EB00
:10141000031342EA004888BF03F1100A206891F8DC
:101420000090CA21416253214162C16849061BD420
:101430004FF0FF31C160FFF783F82168C9684906A2
:1014400031D40646002500BFFFF77AF8801BB0F5BF
:101450007A7F02D9032584F821502068C0684006AD
:1014600003D4032DF0D100E0002575B95FFA8AF0AE
:10147000216840EA08004FEA493220F0C0001043DA
:101480004860204600F020FB054620684FF0FF0131
:10149000416215B9012084F82100002084F8200061
:1014A000E8B2BDE8F0870025002DEED1DEE70000B0
:1014B0002DE9F04381B0044690F820000225012870
:1014C00000F0AB80012084F8200084F82150884689
:1014D0002068CA211746416253214162C16849060A
:1014E0001AD44FF0FF31C160FFF72AF82168C968AC
:1014F000490623D406460025FFF722F8801BB0F5E5
:101500007A7F02D9032584F821502068C0684006FC
:1015100003D4032DF0D100E00025002D72D1206806
:1015200080687FB14006404601D40021C170027836
:10153000437881781B0243EA024249E00025002DEE
:1015400060D1ECE74006404601D40021C17002782A
:101550004FF0CD0C4378A2F10A06F1B2A3F10A08CC
:101560005FFA88F701FB0CF1CD0A817805EB850E57
:10157000A6EB4E0607FB0CFED7B206EB05154FEAAD
:10158000DE29092F88BF05F1100209EB890EA1F1B0
:101590000A05EEB2A8EB4E0706FB0CFCDEB207EB29
:1015A0000917092E88BF07F110034FEADC27DBB2C9
:1015B0005FFA82FC07EB8706CAB21B02A5EB460660
:1015C000092A06EB071743EA0C4288BF07F110010E
:1015D000C9B2C3781143226841EA835147F67F7349
:1015E000C0F27F0319401160916821F4802191605D
:1015F000D0E903010843916808439060204600F059
:1016000063FA054620684FF0FF01416215B90120D9
:1016100084F82100002084F82000E8B201B0BDE881
:10162000F083000000000000411E0020B0EB116FAD
:1016300001D0012070474EF21002F023CEF20002DA
:1016400051604EF62351CEF200010B7007219060DD
:1016500011607047000000007047000000000000AB
:1016600090F83D10012917D1022180F83D10016842
:1016700041F2FF70C4F2000081420FDC40F2FF70C3
:10168000C4F20000814217DCB1F1804F2BD040F250
:101690000040C4F2000024E00120704740F2FF3017
:1016A000C4F20100814212DC41F60000C4F20000E5
:1016B000814218D0002012E040F60000C4F2000081
:1016C000814210D040F60040C4F2000009E044F22C
:1016D0000000C4F20100814205D040F20040C4F293
:1016E000010081420BD107228868C0F2010202404A
:1016F0000020062A18BFB2F5803F00D17047086865
:1017000040F0010008600020704700000000000069
:1017100090F83C20012A4FF0020200F0A78080B52B
:10172000012380F83C3080F83D208822D0F800C0AA
:10173000CFF6CE72DCF808301A40CCF808200B68DF
:101740006F2B0CDDB3F1101F34DAB3F5005F69DAEB
:10175000702B00F0AF80B3F5805F7ED0D0E02F2BF0
:1017600032DD4F2B37DC302B6BD0402B40F0C88064
:10177000D1F804E0C968DCF82030DCF8202022F041
:101780000102CCF82020DCF8182022F0F00242EA16
:10179000011123F00A02CCF8181042EA0E01CCF82D
:1017A00020104FF68872DCF80810CFF6CF72114087
:1017B000473150E02F21C0F210018B4237DCB3F1EA
:1017C000101F3ED0202138E0002B18BF102B38D03E
:1017D000202B36D094E0502B4AD0602B40F09080E4
:1017E000D1F804E0C968DCF8203023F01003CCF80D
:1017F0002030DCF81830DCF8202023F4704322F08D
:10180000A00243EA0131CCF8181042EA0E11CCF8DC
:1018100020104FF68872DCF80810CFF6CF72114016
:10182000673118E059D0B3F5801F0AD068E0302145
:10183000C0F210018B4204D04021C0F210018B4253
:101840005ED14FF68872DCF80810CFF6CF721140E7
:10185000194341F00701CCF808100022012180F85B
:101860003D10002180F83C10BDE8804010467047D4
:10187000D1F804E0C968DCF82030DCF8202022F040
:101880000102CCF82020DCF8182022F0F00242EA15
:10189000011123F00A02CCF8181042EA0E01CCF82C
:1018A00020104FF68872DCF80810CFF6CF72114086
:1018B0005731D0E701F1040E9EE80C40DCF8081027
:1018C0001A4321F47F4142EA0E221143CCF808105A
:1018D000DCF8081041F07701BDE701F1040E9EE845
:1018E0000C40DCF808101A4321F47F4142EA0E2232
:1018F0001143CCF80810DCF8081041F48041AAE745
:101900000122ABE70000000070470000000000006B
:1019100041F200010068C4F20001884218BF70471C
:10192000012000F02DBA0000704700000000000008
:1019300080B540F200400121C5F60200002200F708
:101940001BFB09A0FEF65EFD4FF47A7000F79CF9D0
:101950000AA0FEF657FD4FF47A7000F795F9BDE83E
:10196000804000F061BB00BF4D656D204163636541
:101970007373204572726F7221210D00536F66746C
:10198000205265736574696E672E2E2E0D0000005F
:101990007047000000000000F0B581B044F22C4711
:1019A000C5F6020757F8042C02F00302032A02D1FD
:1019B000012001B0F0BD054657F82C0C0C4620F074
:1019C000805047F82C0CFEF7BBFD064657F82C0C50
:1019D000800005D5FEF7B4FD801B0228F6D964E02F
:1019E00057F8040CEE6895E80E0020F07C70012C8E
:1019F00040EA0150A2F101016FF35F214FF47E42F2
:101A000002EB432247F8040C92B24FF0FE4302EB84
:101A100001004FF4FE012A6901EB064101F4FE01C9
:101A200003EB0262084402F0FE4108447861386822
:101A3000696920F4406040EA010038603868A969AB
:101A400020F4007040EA0100386038684FF6F87101
:101A500020F480703860B869EA6920EA01004FF02C
:101A6000807140EAC200B861386808BF4FF40001D5
:101A700040F48070002C386008BF4FF48001386853
:101A80000843386057F82C0C40F0805047F82C0C75
:101A9000FEF756FD044600BF57F82C0C800007D413
:101AA000FEF74EFD001B0328F6D3032001B0F0BD66
:101AB000002001B0F0BD000040F27800C2F200400A
:101AC000FFF7AEBB00000000F0B581B044F208069D
:101AD0000446C5F60006716821F040017160316866
:101AE000890618D42068C16821F0A001C160FEF702
:101AF00027FD05462068C068860629D4FEF720FD2C
:101B0000401BB0F57A7FF5D9002E21D4032084F84C
:101B1000210001B0F0BD306820F020003060206866
:101B2000C16821F0A001C160FEF70AFD054600BFB3
:101B30002068C06887060ED4FEF702FD401BB0F592
:101B40007A7FF5D9002F06D4032084F8210003E022
:101B5000002001B0F0BD0020316841F0200131606B
:101B600001B0F0BD00000000B0B586B040F27800D2
:101B700044F20001C2F20040C5F600017F2201607C
:101B8000002141608260FF22C0E90321C0E9061103
:101B9000FFF776FB08B1022429E040F2780000212B
:101BA000C2F200400024FFF6CFF945F2500188420E
:101BB0001DD040F2780543F20A20C2F200450190A0
:101BC00001A900222846CDE90444FFF771FC40F644
:101BD000020001A9C1F20D10019000222846FFF772
:101BE000BBFB002145F250022846FFF6B5F920461E
:101BF00006B0B0BD0000000080B540F2780C86460B
:101C0000C2F2004CDCF80020D36863F4906020F44A
:101C10008060D06060467246FFF78AFA0320022196
:101C20000222FEF61DFD0320BDE88040FEF604BD45
:101C30007047000000000000B0B59CB044F61804E6
:101C400009A84C21C5F60204FEF746FB0220002538
:101C5000CDE90755CDE90555CDE90355CDE9015548
:101C6000FEF7B6FC40F22C400095C5F60000016876
:101C700021F001010160006800F00100009020687F
:101C800040F440402060206800F4404000900098FC
:101C900020688004FCD5012009904FF480300A9020
:101CA00002200521CDE912001491A021CDE91510E3
:101CB00004210824CDE9171009A819940025CDE9BD
:101CC0001A55FEF651FE20B1EFF3108072B600BF38
:101CD000FEE73F20019003204FF48061CDE902052B
:101CE00040200494CDE90500CDE9071001A80221A8
:101CF000FEF6E6FC18B1EFF3108072B6FEE71CB0FA
:101D0000B0BD00000000000040F2F400C2F200404C
:101D1000FFF62ABA00000000002808BF7047B0B5DF
:101D20004EF6612188420FD344F6D3510546C1F2E5
:101D30006201A0FB011294092046FEF625FC4FF437
:101D40007A7104FB115060B140F20C21C2F20041E3
:101D500009684A6A4B6A9B1A38BF03F5803383428D
:101D6000F8D3BDE8B040704741F21C01C4F2010154
:101D70000A685206FCD5C2B2CA6070470000000073
:101D800040F25C210022C2F200410A7040F2582168
:101D9000C2F200410A681044086070470000000069
:101DA0004EF624502522CEF20000C0F20332016824
:101DB00021F480310160016F21F0010101670121EF
:101DC00041674FF000518167111FC167052101670D
:101DD000036843F480330360036823F480330360B3
:101DE000036F23F001030367022343674FF010538F
:101DF0008367C2670167036843F480330360036845
:101E000023F480330360036F23F00103036703238C
:101E100043674FF040538367C2670167036843F429
:101E200080330360036823F480330360036F23F07F
:101E300001030367042343674FF060538367931FD5
:101E4000C36701670C32036843F48033036003689F
:101E500023F480330360036F23F0010303674167BA
:101E60004FF0C04383673323C0F20033C367016779
:101E7000036843F480330360036823F48033036012
:101E8000036F23F001030367062343674FF04043CA
:101E90008367C2670167026842F4803202600268A9
:101EA00022F480320260026F22F0010202670722F0
:101EB00042674FF0004282673722C1F20032C267A8
:101EC0000167016841F48031016070470000000043
:101ED0002DE9F04100F1200800234FF00F0C6FF0C6
:101EE000030E002404E000BF01340433102C16D08C
:101EF00021FA04F5ED07F7D00EEA540503F01C06AD
:101F00000CFA06F758F80500B84348F8050002FA3D
:101F100006F058F80560304348F80500E4E7BDE8EE
:101F2000F0810000000000002DE9F04FDDF828C02E
:101F3000A2F1010A00254FF001094FF00308002724
:101F40000DE000BFC66806EA0B06C6600CFA05F68F
:101F5000C4682643C66001370235102F2AD009FA1B
:101F600007F60E42F7D008FA05F4D0F800E06FEA61
:101F7000040B2EEA0404046002FA05FE0468BAF1B8
:101F8000010F44EA0E040460DCD8846804EA0B0400
:101F90008460099C04FA05FE846844EA0E048460A7
:101FA000446824EA0606466003FA07F644682643B6
:101FB0004660C7E7BDE8F08FB0B54EF60C5E4FF057
:101FC000070CCEF2000E2CEA030C4FF6FF05DEF8EC
:101FD00000402C4044EA0C25C3F1040445F0806520
:101FE00000FA04FC45F0FD75CEF800500F250124E1
:101FF00025FA03F31C25194002F01F0304FA03F32A
:102000004EF2001405EAD205CEF20004224328590C
:10201000184328514CEA010092F8001341EA0010DD
:1020200082F80003B0BD00004EF60C500421CEF241
:102030000000C0F2FA5101607047F1EE100A4FF64D
:10204000FF71C0F2C03120EA010040F04070E1EEC3
:10205000100A70473031323334353637383941421F
:1020600043444546403058003031323334353637FA
:1020700038396162636465664030780004000008A6
:1020800000000000000000020001000010B5DAD2DC
:10209000BBD2B3D1E9D6A4CAA7B0DCA3ACC6ABD23D
:1020A000C62025643A20C6DACDFB203078253032B0
:1020B000582C20CAB5BCCA203078253032580A00C6
:1020C000B5DAB6FED2B3D1E9D6A4CAA7B0DCA3ACC8
:1020D000C6ABD2C62025643A20C6DACDFB203078C4
:1020E000253032582C20CAB5BCCA20307825303271
:1020F000580A00B5DAB6FED2B3BDE1B9FB3A2025E5
:10210000730A00B2BDD6E82564A3BAB6C1C8A1B5AA
:10211000DAB6FED2B3D1E9D6A40A003D3D3D20CACD
:10212000FDBEDDB1A3B3D6D0D4B2E2CAD4CDEAB3FA
:10213000C9203D3D3D003F20466C617368CAFDBE2D
:10214000DDD4DAB6CFB5E7D6D8C6F4BAF3B6AACAA4
:10215000A7BBF2CBF0BBB5A3A1003F20466C6173D7
:1021600068CAFDBEDDD4DAB6CFB5E7D6D8C6F4BAB4
:10217000F3B1A3B3D6CDEABAC3A3A100B3C9B9A63C
:0821800000CAA7B0DC0000005A
:040000050800029954
:00000001FF
