:020000040800F2
:100000007092002425001008791710087117100845
:10001000391D0008510A0008711D10080000000079
:10002000000000000000000000000000B9220008ED
:100030007106100800000000991D0008C122000888
:100040004B0010084B0010084B001008A9220008B4
:100050004B0010084B0010084B0010084B00100814
:100060004B0010084B0010084B0010084B00100804
:100070004B0010084B0010084B0010084B001008F4
:100080004B0010084B0010084B0010084B001008E4
:100090004B0010084B0010084B0010084B001008D4
:1000A0004B0010084B0010084B0010084B001008C4
:1000B0004B0010084B0010084B0010084B001008B4
:1000C0004B0010084B0010084B0010084B001008A4
:1000D0004B001008D92400084B0010084B001008F2
:1000E0004B001008A91B1008000000004B0010086E
:1000F0004B0010084B0010084B0010084B00100874
:100100004B0010084B0010084B0010084B00100863
:100110004B0010084B001008611D10084B00100820
:100120004B0010084B0010084B0010084B00100843
:100130004B0010084B0010084B0010084B00100833
:1001400000000000000000000000000000000000AF
:100150004B0010084B0010084B0010084B00100813
:100160004B0010084B0010084B0010084B00100803
:100170004B0010084B0010084B0010080000000056
:100180004B0010084B0010084B0010084B001008E3
:100190004B0010084B0010084B0010084B001008D3
:1001A0004B0010084B0010084B0010084B001008C3
:1001B0004B0010084B0010084B0010084B001008B3
:1001C0004B0010084B0010084B0010084B001008A3
:1001D0004B0010084B0010084B0010084B00100893
:1001E0004B0010084B0010084B0010084B00100883
:1001F0004B0010084B0010084B0010084B00100873
:100200004B0010084B0010084B0010084B00100862
:100210004B0010084B0010084B0010084B00100852
:100220004B0010084B0010084B00100800000000A5
:100230004B0010084B001008000000004B00100895
:100240004B0010084B0010084B0010084B00100822
:100250004B0010084B0010084B0010084B00100812
:100260004B0010084B0010084B0010084B00100802
:100270004B0010084B0010084B0010080000000055
:100280004B0010084B0010084B0010080000000045
:10029000000000004B00100800F002F8FFF0B2FE72
:1002A00014A696E8000CB244B344DA4501D1FFF03D
:1002B000A9FEBAE80F000FA696E83000A5EB0405EA
:1002C00004EB0607AAEB0704A7F101074FEA15158F
:1002D0004FEA3414A4F10104AC4201D3FFF092FEC2
:1002E00013F0010F18BFFB1A43F0010300F001F8EF
:1002F000DBE71847B0310000D0310000103A24BFCE
:1003000078C878C1FAD8520724BF30C830C144BF7A
:1003100004680C6070470000704700000023002450
:1003200000250026103A28BF78C1FBD8520728BF05
:1003300030C148BF0B607047642900F02B807529DD
:1003400000F02880732900F08A81002070471FB5D3
:1003500003F04AF800F088F904000020002103F0BF
:100360002DF8401C60601FBD0FB41CB5084B06AAD9
:100370007B4469460090059800F047F90446002048
:10038000694600F055F920461CBC5DF814FB0000DE
:10039000BD0200002DE9F0410646002410687529D1
:1003A000314616A510D0AFF30080002802DA404293
:1003B00013A507E031688A0701D512A502E04907B5
:1003C00004D511A5012401E0AFF3008000210A2229
:1003D00006F1240709E0B0FBF2FCB0FBF2F302FBEC
:1003E0001C00303078541846491C0028F3D12346AD
:1003F0002A463046BDE8F04100F0A9B800000000F0
:100400002D0000002B0000002000000010B5431C50
:1004100002E010F8011B71B18107FAD14FF00132EF
:1004200002C88C1A8C4314EAC211F9D0C01A0A0609
:1004300003D0C01E10BDC01A10BD0A0401D0801E1A
:1004400010BD0902FCD0401E10BDCBB22AB101780C
:100450008B4203D0401C521EF9D100207047032A62
:1004600040F2308010F0030C00F0158011F8013BD1
:10047000BCF1020F624498BF11F801CB00F8013BB8
:1004800038BF11F8013BA2F1040298BF00F801CB7C
:1004900038BF00F8013B11F0030300F02580083A53
:1004A000C0F0088051F8043B083A51F804CBA0E8AA
:1004B0000810F5E7121D5CBF51F8043B40F8043BFF
:1004C000AFF30080D20724BF11F8013B11F801CB34
:1004D00048BF11F8012B24BF00F8013B00F801CB05
:1004E00048BF00F8012B704710B5203AC0F00B80D0
:1004F000B1E81850A0E81850B1E81850A0E818501A
:10050000203ABFF4F5AF5FEA027C24BFB1E818508F
:10051000A0E8185044BF18C918C0BDE810405FEAF1
:10052000827C24BF51F8043B40F8043B08BF70476D
:10053000D20728BF31F8023B48BF11F8012B28BF72
:1005400020F8023B48BF00F8012B704770472DE9A7
:10055000F0470D4699469246044600F1240801688A
:10056000880604D5E06921F01001216000E0012037
:10057000A84201DD471B00E00027A1697A1902EBC0
:100580000900081AA0612078C00602D42046FFF0B6
:100590007BFD002608E0D4E901211AF80600904707
:1005A000206A401C761C20624E45F4DB2078C00691
:1005B0000AD52046FFF068FD06E0D4E9012130208D
:1005C0009047206A401C2062381EA7F10107F4DC26
:1005D00007E0D4E9012118F805009047206A401C83
:1005E0002062281EA5F10105F3DC2046FFF062FD24
:1005F0002078000602D50220BDE8F0870120FBE745
:1006000001694A1C02610878704700B58FB0CDE9D6
:1006100001310021059105497944CDE903101146C6
:100620006846FFF081FD0FB000BD0000E5FFFFFF51
:100630000A6802F8010B0A60704710B5436913B1EC
:10064000AFF3008001E0FFF046FD012010BD1278FD
:1006500000F124010A7000224A700122EDE71168BE
:100660004FF0FF32E9E700000048704738000024EF
:1006700010B50446FFF0E8FF0068005D00F00100DF
:1006800010BD00002DE9F34F4FF0000A0C4656460E
:100690008DB001200C9001F10C000B9062690B9859
:1006A00001219047051E2DD0252D2CD0216A884789
:1006B000C0B162690B9801219047216A88470028E0
:1006C000F7D16269411E0B98904700E0761CA16942
:1006D0000D988847216A88470028F7D1E1690D986D
:1006E0008847DBE7A1690D988847A842074601D1F2
:1006F000761CD3E7E1690D9888477F1C02D1BAF1D7
:10070000000F6FD06BE162690B9800273D463946B8
:1007100090472A2804D162690B980121904701254E
:10072000DFF8D08262690B9801219047A0F1300177
:100730000A290AD24745E5DC07EB870100EB4107B0
:10074000303FDFD445F01005ECE7E90601D46FF047
:1007500000476C280AD04C2814D0682815D06A2885
:100760000DD074281CD07A281AD01DE062690B982D
:10077000012190476C2802D045F0040514E045F0B3
:1007800002050DE045F020050AE062690B980121A1
:100790009047682802D045F0080505E045F400655B
:1007A00062690B9801219047C4E9015765283DD043
:1007B00019DC58287AD00CDC452837D004DC2528F1
:1007C00026D041289ED131E046282FD0472899D104
:1007D0002CE05B2877D0612828D063287CD064285F
:1007E00023D15AE0F6E06F2848D008DC66281DD0F7
:1007F00067281BD0692821D06E2816D127E07028E1
:1008000045D0732868D0752847D078280DD14DE0A1
:10081000A1690D988847252805463FF469AFE1692D
:100820000D9888476D1C3FF46AAFD8E00D992346B8
:100830006A466FF00100AFF30080C5E045F040006C
:1008400023464FF000026060A80736D43EE0E80778
:100850007FF447AF2068011D21600068290501D59C
:1008600006701BE7290701D5068017E7A90703D5FE
:10087000F117C0E9006111E706600FE745F040009D
:1008800023464FF008026060A80716D41EE040F629
:100890000E0125EA0100606016E045F040002346A5
:1008A0004FF00A026060A80707D40FE045F040004F
:1008B0006060A80708D5234610220D996FF001004B
:1008C000AFF3008080E007E0102223460D996FF01F
:1008D0000100FFF00BFD77E04FF0000963284F4661
:1008E000C8464B46CB4602D05B2806D038E0E80627
:1008F00001D40120A060012732E06269D4F80CB075
:100900000B98012190475E2807D14FF00109494615
:100910006269D4F80CB00B989047216939B900216D
:100920000A4603AB43F82120491C0829FADBD8B357
:10093000216949B308F1010862690B9801219047C8
:100940005D28F4D1B9F1000F09D0002003A951F8B6
:100950002020D24341F82020401C0828F7DB03ABBD
:100960002069002820794FEA40701ED05B4622465D
:10097000CDF80080CDE901970D9900286FF00100B6
:1009800020DAAFF300801FE0C11703AA00EBD161AA
:100990004B1121F01F0102EB8302411A1368012061
:1009A000884003431360C7E719E00D9922460028E9
:1009B0006FF00100009702DAAFF3008004E0AFF3BC
:1009C000008001E0AFF3008000280ADA401C06D165
:1009D0000C9820B14FF0FF300FB0BDE8F08F5046BB
:1009E000FAE7E90701D10AF1010A064400200C9058
:1009F00054E60000CCCCCC0C007B00F080007047AB
:100A00007546FFF01DFEAE4605006946534620F0D0
:100A10000700854618B020B5FFF018FBBDE8204060
:100A20004FF000064FF000074FF000084FF0000BAA
:100A3000AC46ACE8C009ACE8C009ACE8C009ACE819
:100A4000C00921F007018D4670470000000000003A
:100A5000FEE7000000000000B0B50446FFF0E8FE2D
:100A600040F20E010546C2F20041621C097818BF2F
:100A70000C4400BFFFF0DCFE401BA042FAD3B0BD27
:100A800080B50320FFF01CFF00F146FC44F2184142
:100A900043F21343C5F60201C0F600030A68C2F32D
:100AA00003229A5C096801F00F0102F01F02595CF1
:100AB000D04040F20802C2F2004201F01F0120FAC9
:100AC00001F1116040F20401C2F2004108600F2000
:100AD00000F00AF800281CBF012080BD00F030F8AB
:100AE000002080BD0000000040F20E01C2F2004173
:100AF000097819B310B5044640F20400C2F2004070
:100B00004FF47A72B2FBF1F10068B0FBF1F000F142
:100B100057FD0F2C01464FF001000ED8002918BFD9
:100B200010BD4FF0FF3000222146FFF099FE40F249
:100B300010010020C2F200410C6010BD012070477E
:100B40007047000000000000002848BF704700F018
:100B50001F01012202FA01F14EF20012C0F34A1005
:100B6000CEF2000242F820107047000000000000A2
:100B70002DE9F04381B0002800F0F88042F200082F
:100B80000446C5F200288946D8F8000000F00F009E
:100B900081420ED9D8F8000020F00F0040EA090089
:100BA000C8F80000D8F8000000F00F00484540F0F9
:100BB000DD80206844F218474107C5F602070AD5D0
:100BC00021693A6802F07002914204D93A6822F031
:100BD00070021143396001070AD561697A6802F031
:100BE0007002914204D97A6822F070021143796050
:100BF000C1060AD5A1697A6802F4E062914204D97B
:100C00007A6822F4E0621143796081060AD5E169CD
:100C1000BA6802F07002914204D9BA6822F07002F8
:100C20001143B96081070AD5E1683A6802F00F0202
:100C3000914204D93A6822F00F0211433960C0078B
:100C400040F08080206881070AD5E1683A6802F0A8
:100C50000F02914204D23A6822F00F021143396028
:100C6000D8F8001001F00F0189450DD2D8F8001016
:100C700021F00F0141EA0901C8F80010D8F800106E
:100C800001F00F01494571D141070AD521693A6840
:100C900002F07002914204D23A6822F070021143CD
:100CA000396001070AD561697A6802F070029142E1
:100CB00004D27A6822F0700211437960C1060AD525
:100CC000A1697A6802F4E062914204D27A6822F45F
:100CD000E0621143796080060AD5E069B96801F0E5
:100CE0007001884204D2B96821F070010843B860ED
:100CF00000F112FB396843F21342C0F60002C1F35F
:100D00000321515C3B6803F00F0301F01F01D25C2B
:100D100020FA01F102F01F0040F20802C2F2004284
:100D200021FA00F0106040F2100040F20402C2F21A
:100D30000040C2F200420068116001B0BDE8F0431B
:100D4000FFF7D2BE386820F47061D4E90102114384
:100D50003960012857F8181C0CD0032804D0022849
:100D600028D1890302D507E0890105D4012001B00B
:100D7000BDE8F083C905F9D557F8081C21F0070133
:100D8000084347F8080CFFF053FD064641F288354A
:100D900057F8080C616800F03800B0EBC10F3FF461
:100DA00051AFFFF045FD801BA842F1D9032001B0EF
:100DB000BDE8F0834907D9D5DEE700000000000058
:100DC00080B500F1A9FA44F2184C43F21343C5F67A
:100DD000020CC0F60003DCF80020C2F303229A5C88
:100DE000DCF8001001F00F0102F01F02595CD04046
:100DF00040F20802C2F2004201F01F0120FA01F1A4
:100E0000116040F20402C2F200421060DCF80400FB
:100E1000C0F30210185C00F01F0021FA00F080BD42
:100E20002DE9F04381B0002800F09E8180460078D3
:100E300044F20049C007C5F6020954D0D9F81000A1
:100E400000F03801D9F82800102905D018290CD154
:100E500000F00300022808D1D9F8000080033ED535
:100E6000D8F80400D8BB01272CE0D8F80440D9F802
:100E700000002CB1B4F5A02F0BD0B4F5803F0ED0FC
:100E800020F48030C9F80000D9F8000020F4802058
:100E900007E040F48020C9F80000D9F8000040F4D1
:100EA0008030C9F80000FFF0C3FC05469CB100BFCC
:100EB000D9F80000800312D4FFF0BAFC401B64286C
:100EC000F6D90327002070B994E100BFFFF0B0FC11
:100ED000401B6428F5D8D9F800008003F6D401201F
:100EE000002800F0878198F80000800740F180809A
:100EF000D9F8100010F03801D9F828001CD01829B2
:100F000008BF5FEA807017D0D8F80C00D9F800103D
:100F1000002845D021F019010843C9F80000FFF06E
:100F200087FC0546D9F80000400728D4FFF080FC74
:100F3000401B0228F6D91EE0D9F80000400704D56E
:100F4000D8F80C00002800F0B481D9F80000D8F8D7
:100F50000C1020F019000843C9F80000FFF068FCED
:100F6000054600BFD9F80000400708D4FFF060FC38
:100F7000401B0228F6D903270024CCBB3AE1FFF03E
:100F80004FFC41F20301884221D8D8F81000D9F86B
:100F90000410402821F47C3122D141F4003021E0BA
:100FA00021F00100C9F80000FFF042FC05460126CF
:100FB000D9F8000010F0040086EA900415D0FFF084
:100FC00037FC401B0228F3D903278CB912E1D9F86A
:100FD0000400D8F8101020F0FE4040EA016001E063
:100FE00041EA00300124C9F80400002C00F002811D
:100FF00098F80000C00670D5D9F8100000F038014C
:10100000D9F82800082905D018291CD100F00300C0
:10101000012818D1D9F80000C00503D5D8F81C0064
:10102000802855D1FFF0FCFB41F20301884222D811
:10103000D8F82000D9F80410202821F0F8413ED13A
:1010400041F080403DE0D8F81C000028D9F80000AD
:101050001ED040F08000C9F80000FFF0E9FB054613
:10106000D9F80000C005DDD4FFF0E2FB401B0228E8
:10107000F6D903272DE0D9F80C00D8F8201020F07D
:101080007C50012440EA0160C9F80C002CBBB1E09F
:1010900020F08000C9F80000FFF0CAFB05460126D9
:1010A000D9F8000010F4807086EA10240CD0FFF00C
:1010B000BFFB401B0328F3D3032774B99AE041EA2E
:1010C0008060C9F804000124002C00F0938004E043
:1010D00001270024002C00F08D8098F80000000704
:1010E00044D498F80000800658D498F800004007CF
:1010F0006CD4D8F82440ACB3D9F8100000F0380014
:10110000182840F0B480012CD9F82810D9F8300004
:101110002AD001F00302D8F828309A4224D1C1F332
:101120000511D8F82C2091421ED10146D8F8302064
:101130006FF35F21013A914216D1C0F34622D8F8ED
:10114000341001398A420FD1C0F30642D8F8381062
:1011500001398A4208D1C0F30660D8F83C10013941
:10116000884201D1002745E0012743E0D8F8140068
:101170000028D9F8740041D040F00100C9F874008B
:10118000FFF056FB054600BFD9F874008007A8D4CD
:10119000FFF04EFB401B0228F6D92AE0D8F81800D1
:1011A0000028D9F800004ED040F48050C9F8000063
:1011B000FFF03EFB054600BFD9F80000800494D440
:1011C000FFF036FB401B0228F6D912E0D9F80004E4
:1011D00040F48070C9F80004FFF02AFB054600BF08
:1011E000D9F80004C0051CD4FFF022FB401B642882
:1011F000F6D90327F8B201B0BDE8F08320F0010072
:10120000C9F87400FFF014FB05460327D9F87400F1
:1012100080077FF566AFFFF00BFB401B0228F5D976
:10122000E8E7D8F80840D9F870001CB1052C42D086
:10123000012C46D020F00100C9F87000D9F87000E8
:1012400020F004003FE020F48050C9F80000FFF0D7
:10125000EFFA0546032700BFD9F8000080047FF5A8
:1012600044AFFFF0E5FA401B0228F5D9C2E7D9F8F0
:10127000000020F08070C9F80000FFF0D9FA022CBD
:1012800005464FF0030709D1D9F8000080013CD58D
:10129000FFF0CEFA401B0228F6D9ABE7D9F80000E0
:1012A00080017FF55FAFFFF0C3FA401B0228F5D93C
:1012B000A0E7012760E640F00400C9F87000D9F803
:1012C000700040F00100C9F87000FFF0B1FA002C86
:1012D000054641F288344FF0030711D0D9F8700069
:1012E00080073FF506AFFFF0A3FA401BA042F5D9F7
:1012F00080E700BFFFF09CFA401BA0423FF67AAFA8
:10130000D9F870008007F5D4F3E608F12807D9F87A
:10131000280040F2F33188438ECF0843591E40EA3B
:1013200002104FF47E426FF35F21C9F8280002EBF0
:1013300047204FF4FE0280B2D8F83C300844D8F879
:10134000381002EB01414FF0FE4201F4FE0102EBC6
:101350000362084402F0FE410844C9F83000D9F89D
:101360002C004FF6F87120F00100C9F82C00D9F8D4
:101370003400D8F84820884340EAC200C9F8340055
:10138000D9F82C00D8F8401020F00C000843C9F818
:101390002C00D9F82C00D8F8441020F002000843A3
:1013A000C9F82C00D9F82C0040F48030C9F82C0082
:1013B000D9F82C0040F40030C9F82C00D9F82C00E2
:1013C00040F48020C9F82C00D9F82C0040F001002E
:1013D000C9F82C00D9F8000040F08070C9F800006E
:1013E000FFF026FA04460327D9F8000080013FF5F4
:1013F000B9AEFFF01DFA001B0228F5D9FAE600008D
:10140000704700000000000040F21440C5F60200E2
:10141000016881F0010101607047000000000000D8
:1014200010B588214FF40032C5F6000104460A6069
:1014300000688168C90444BFC1685FEAC1510BD428
:1014400020688168890444BFC1685FEA81510DD476
:10145000012084F8210010BDC16861F4C07121F43D
:101460008071C160204600F16BF8E9E7C16861F462
:10147000207121F40071C1602046FFF7C1FFE7E74A
:1014800080B50068002A43684FEA134003F03F0E1E
:10149000C3F3042CC870C3F3423281F801C081F851
:1014A00002E00A7001D0002080BDC2B24FEA1E13D4
:1014B0001209A2EB820200EB4200C8704FEA1C1234
:1014C000A3EB8300A2EB82020EEB400088700CEBD2
:1014D00042024A70002080BD70B578B3044690F88F
:1014E000210028B9002084F82000204600F060F890
:1014F000022084F821002068CA2141625321416200
:10150000C16849061DD44FF0FF31C160FFF090F96A
:101510002168C96849063AD406460025FFF088F9D3
:10152000801BB0F57A7F02D9032584F8215020680A
:10153000C068400606D4032DF0D103E00125E8B2CF
:1015400070BD002535BB94E80F004FF6BF75866867
:10155000CFF68F752E40866026693143A6693143E8
:1015600086683143816043EA02410161204600F010
:1015700023FD054670B920686169E269C36C1143B7
:1015800023F00303C364C26C1143C16402E000256D
:10159000002DD8D020684FF0FF0141620DB1E8B2B4
:1015A00070BD012084F82100E8B270BD0000000089
:1015B00010B5C2B044F2F444C5F60204206840F409
:1015C00080302060206800F4803000900098FFF0A8
:1015D000ABF904202F9000203890012031902FA8E3
:1015E000FFF71EFC4FF4800000904FF480702C90A9
:1015F0006846FFF0A5F954F8840C40F4004044F824
:10160000840C42B010BD00002DE9F047044690F86C
:1016100020000225012800F09B804FF0010084F893
:10162000200084F821503AB14878CA7891F802A095
:10163000000240EA024849E04878C20603D500F0BB
:10164000EF000A304870C8784FF0CD0C91F802A036
:10165000A0F10A06F2B202FB0CF74A78FD0AA2F1E9
:101660000A085FFA88F305EB850E03FB0CF3C7B29B
:10167000A6EB4E06092F4FEAD32306EB051688BFCB
:1016800006F1100003EB8307AAF10A06F5B2A8EBF6
:10169000470705FB0CFCD5B207EB0313C0B2092DBD
:1016A00088BF03F110025FFA8AF54FEADC23D2B259
:1016B000092D03EB83074FEA0222A6EB470707EB4E
:1016C000031342EA004888BF03F1100A206891F82A
:1016D0000090CA21416253214162C16849061BD46E
:1016E0004FF0FF31C160FFF0A3F82168C9684906D7
:1016F00031D40646002500BFFFF09AF8801BB0F5F4
:101700007A7F02D9032584F821502068C0684006FA
:1017100003D4032DF0D100E0002575B95FFA8AF0FB
:10172000216840EA08004FEA493220F0C000104327
:101730004860204600F040FC054620684FF0FF015D
:10174000416215B9012084F82100002084F82000AE
:10175000E8B2BDE8F0870025002DEED1DEE70000FD
:101760002DE9F04381B0044690F8200002250128BD
:1017700000F0AB80012084F8200084F821508846D6
:101780002068CA211746416253214162C168490657
:101790001AD44FF0FF31C160FFF04AF82168C968E0
:1017A000490623D406460025FFF042F8801BB0F519
:1017B0007A7F02D9032584F821502068C06840064A
:1017C00003D4032DF0D100E00025002D72D1206854
:1017D00080687FB14006404601D40021C170027884
:1017E000437881781B0243EA024249E00025002D3C
:1017F00060D1ECE74006404601D40021C170027878
:101800004FF0CD0C4378A2F10A06F1B2A3F10A0819
:101810005FFA88F701FB0CF1CD0A817805EB850EA4
:10182000A6EB4E0607FB0CFED7B206EB05154FEAFA
:10183000DE29092F88BF05F1100209EB890EA1F1FD
:101840000A05EEB2A8EB4E0706FB0CFCDEB207EB76
:101850000917092E88BF07F110034FEADC27DBB216
:101860005FFA82FC07EB8706CAB21B02A5EB4606AD
:10187000092A06EB071743EA0C4288BF07F110015B
:10188000C9B2C3781143226841EA835147F67F7396
:10189000C0F27F0319401160916821F480219160AA
:1018A000D0E903010843916808439060204600F0A6
:1018B00083FB054620684FF0FF01416215B9012006
:1018C00084F82100002084F82000E8B201B0BDE8CF
:1018D000F0830000000000007047000000000000DE
:1018E00090F83D10012917D1022180F83D100168C0
:1018F00041F2FF70C4F2000081420FDC40F2FF7041
:10190000C4F20000814217DCB1F1804F2BD040F2CD
:101910000040C4F2000024E00120704740F2FF3094
:10192000C4F20100814212DC41F60000C4F2000062
:10193000814218D0002012E040F60000C4F20000FE
:10194000814210D040F60040C4F2000009E044F2A9
:101950000000C4F20100814205D040F20040C4F210
:10196000010081420BD107228868C0F201020240C7
:101970000020062A18BFB2F5803F00D170470868E2
:1019800040F00100086000207047000000000000E7
:1019900090F83C20012A4FF0020200F0A78080B5A9
:1019A000012380F83C3080F83D208822D0F800C028
:1019B000CFF6CE72DCF808301A40CCF808200B685D
:1019C0006F2B0CDDB3F1101F34DAB3F5005F69DA69
:1019D000702B00F0AF80B3F5805F7ED0D0E02F2B6E
:1019E00032DD4F2B37DC302B6BD0402B40F0C880E2
:1019F000D1F804E0C968DCF82030DCF8202022F0BF
:101A00000102CCF82020DCF8182022F0F00242EA93
:101A1000011123F00A02CCF8181042EA0E01CCF8AA
:101A200020104FF68872DCF80810CFF6CF72114004
:101A3000473150E02F21C0F210018B4237DCB3F167
:101A4000101F3ED0202138E0002B18BF102B38D0BB
:101A5000202B36D094E0502B4AD0602B40F0908061
:101A6000D1F804E0C968DCF8203023F01003CCF88A
:101A70002030DCF81830DCF8202023F4704322F00A
:101A8000A00243EA0131CCF8181042EA0E11CCF85A
:101A900020104FF68872DCF80810CFF6CF72114094
:101AA000673118E059D0B3F5801F0AD068E03021C3
:101AB000C0F210018B4204D04021C0F210018B42D1
:101AC0005ED14FF68872DCF80810CFF6CF72114065
:101AD000194341F00701CCF808100022012180F8D9
:101AE0003D10002180F83C10BDE880401046704752
:101AF000D1F804E0C968DCF82030DCF8202022F0BE
:101B00000102CCF82020DCF8182022F0F00242EA92
:101B1000011123F00A02CCF8181042EA0E01CCF8A9
:101B200020104FF68872DCF80810CFF6CF72114003
:101B30005731D0E701F1040E9EE80C40DCF80810A4
:101B40001A4321F47F4142EA0E221143CCF80810D7
:101B5000DCF8081041F07701BDE701F1040E9EE8C2
:101B60000C40DCF808101A4321F47F4142EA0E22AF
:101B70001143CCF80810DCF8081041F48041AAE7C2
:101B80000122ABE70000000010B5044600680169BF
:101B9000890744BFC1685FEA817147D42068016941
:101BA000490744BFC1685FEA41714BD420680169AD
:101BB000090744BFC1685FEA017150D42068016918
:101BC000C90644BFC1685FEAC16154D42068016995
:101BD000C9071CBFC1685FEAC17159D1206801699A
:101BE000090644BFC1685FEA016158D420680169F1
:101BF000C90544BFC1685FEA016157D42068016923
:101C0000490644BFC1685FEA416156D42068016952
:101C1000890646BFC1685FEA816110BD6FF020018F
:101C200001612046BDE81040FFF0E6BC6FF0020104
:101C30000161012121778069800745D02046FFF0AE
:101C40008FFD47E06FF00401016102212177806977
:101C500010F4407F41D02046FFF082FD43E06FF05A
:101C60000801016104212177C06980073ED0204628
:101C7000FFF076FD40E06FF010010161082121774F
:101C8000C06910F4407F3AD02046FFF069FD3CE087
:101C90006FF001010161204600F03EF89EE76FF011
:101CA000800101612046FFF717FE9FE76FF4807106
:101CB00001612046FFF09CFCA0E76FF0400101614C
:101CC000204600F035F8A1E7204600F021F8204634
:101CD000FFF04AFD0020207760E7204600F018F86A
:101CE0002046FFF041FD002020775FE7204600F00E
:101CF0000FF82046FFF038FD002020775EE72046F1
:101D000000F006F82046FFF02FFD002020775DE769
:101D1000704700000000000041F200010068C4F2BA
:101D20000001884218BF7047012001F0B5B90000DA
:101D3000704700000000000080B540F20040012123
:101D4000C5F60200002201F02BFB09A0FEF074FB97
:101D50004FF47A7000F12CFB0AA0FEF06DFB4FF4FB
:101D60007A7000F125FBBDE8804001F145BB00BF62
:101D70004D656D20416363657373204572726F72A8
:101D800021210D00536F6674205265736574696E6E
:101D9000672E2E2E0D00000070470000000000008E
:101DA000B0B545F2080E4D1EC5F2002EDEF80C202F
:101DB000DEF81030CEF808504FF0010565F39B6255
:101DC000DEF8045045F00205CEF80450CEF80C20A1
:101DD000CEF8103021B340F2010C0022CFF6FF7C88
:101DE000DEF8003013F0060F02D000230EE000BF33
:101DF000644600BF651C42F10003A54206D3DEF82D
:101E0000004014F0060F2C46F4D000BF2BB99EF80A
:101E10001840013900F8014BE2D1180638D101E031
:101E2000180635D15EF8080C002340F004004EF887
:101E3000080CDEF8000080074FF000000CD40121F0
:101E4000CFF6FF714A1C40F100038A4204D3DEF84A
:101E5000001089071146F5D5D3B9DEF80400002338
:101E600040F00200CEF80400DEF8000080064FF0DB
:101E700000000DD50121CFF6FF7100BF4A1C40F1D3
:101E800000038A4204D3DEF8001089061146F5D417
:101E9000D8B2B0BD00000000F0B581B044F22C47CC
:101EA000C5F6020757F8042C02F00302032A02D1F8
:101EB000012001B0F0BD054657F82C0C0C4620F06F
:101EC000806047F82C0CFEF0B3FC064657F82C0C4B
:101ED000000105D5FEF0ACFC801B0228F6D964E0B9
:101EE00057F8040CEE6895E80E0020F47C30012CC5
:101EF00040EA0130A2F101016FF35F214FF47E420D
:101F000002EB432247F8040C92B24FF0FE4302EB7F
:101F100001004FF4FE012A6901EB064101F4FE01C4
:101F200003EB0262084402F0FE410844F86038689E
:101F3000696920F0C00040EA010038603868A9698A
:101F400020F0200040EA0100386038684FF6F87150
:101F500020F0100038603869EA6920EA01004FF487
:101F6000001140EAC2003861386808BF4FF48011A0
:101F700040F01000002C386008BF4FF40021386892
:101F80000843386057F82C0C40F0806047F82C0C60
:101F9000FEF04EFC044600BF57F82C0C000107D49D
:101FA000FEF046FC001B0328F6D3032001B0F0BD71
:101FB000002001B0F0BD0000F0B581B044F2080689
:101FC0000446C5F60006716821F040017160316871
:101FD000890618D42068C16821F0A001C160FEF014
:101FE00027FC05462068C068860629D4FEF020FC40
:101FF000401BB0F57A7FF5D9002E21D4032084F858
:10200000210001B0F0BD306820F020003060206871
:10201000C16821F0A001C160FEF00AFC054600BFC6
:102020002068C06887060ED4FEF002FC401BB0F5A5
:102030007A7FF5D9002F06D4032084F8210003E02D
:10204000002001B0F0BD0020316841F02001316076
:1020500001B0F0BD00000000B0B586B040F28000D5
:1020600044F20001C2F20040C5F600017F22016087
:10207000002141608260FF22C0E90321C0E906110E
:10208000FFF72AFA08B1022429E040F2800000217B
:10209000C2F200400024FFF0CBF945F25001884223
:1020A0001DD040F2800543F20A20C2F200450190A3
:1020B00001A900222846CDE90444FFF751FB40F670
:1020C000020001A9C1F20D10019000222846FFF77D
:1020D0009BFA002145F250022846FFF0B1F9204654
:1020E00006B0B0BD0000000080B5ADF5025D8CB05B
:1020F00009A83221FEF0E2F943F249510DF584506E
:10210000C0F61001012200F0D7FC38B1014643F2BD
:10211000DE40C0F61000FDF0ABFF65E043F23D513C
:1021200016A8C0F61001012200F00EFD30B10146E4
:1021300004283ED12EA0FEF07FF94DE016A809A993
:1021400008AB312200F058FE0146C8BB0898B8B36E
:102150000DF11D00009007A801900DF11B000290E9
:102160000DF11A0003902FA109A80DF11F020DF126
:102170001E030DF1190CCDF810C0FEF099F80728D8
:1021800023D19DF81F009DF819309DF81E109DF871
:102190001D20FFF0B9FD9DF81C009DF81B109DF857
:1021A0001A200023FFF0C4FD43F21F50C0F61000B8
:1021B0000CE043F20950C0F61000FDF059FF0BE0AF
:1021C00043F2F340C0F6100001E020A009A9FDF0A1
:1021D0004FFF16A800F050FC43F249510020C0F612
:1021E0001001002200F068FC0DF5025D0CB080BD0E
:1021F0005254432074696D652066696C6520646F74
:102200006573206E6F742065786973742C2077690C
:102210006C6C207573652064656661756C742074E0
:10222000696D65003230256868752D256868752DE3
:102230002568687520256868753A256868753A25A7
:102240006868752025686875000000005061727329
:10225000652046696C6520436F6E74656E74204618
:1022600061696C65643A2025730A00000000000073
:1022700080B540F2800C8646C2F2004CDCF80020AB
:10228000D36863F4906020F48060D060604672464A
:10229000FFF0DEF8032002210222FEF0E1FA032023
:1022A000BDE88040FEF750BC40F28000C2F2004022
:1022B000FFF02AB900000000704700000000000095
:1022C000FEF0BEBA00000000B0B59CB044F61804A1
:1022D00009A84C21C5F60204FEF0F0F80220002502
:1022E000CDE90755CDE90555CDE90355CDE90155B2
:1022F000FEF0F6FA40F22C400095C5F600000168A9
:1023000021F001010160006800F0010000902068E8
:1023100040F440402060206800F440400090009865
:1023200020688004FCD5012009904FF480300A9089
:1023300002200521CDE912001491A021CDE915104C
:1023400004210824CDE9171009A819940025CDE926
:102350001A55FEF765FD20B1EFF3108072B600BF8D
:10236000FEE73F20019003204FF48061CDE9020594
:1023700040200494CDE90500CDE9071001A8022111
:10238000FEF7F6FB18B1EFF3108072B6FEE71CB053
:10239000B0BD00000000000040F6FF32C4F20002B1
:1023A000904202680FDCB0F1804F1DD040F2004334
:1023B000C4F20003984217D040F60003C4F20003B1
:1023C000984211D014E040F60043C4F20003984252
:1023D0000AD040F20043C4F20103984204D0002323
:1023E000C4F20103984203D122F070024B681A43F1
:1023F0004FF6FF7343F6FF7CC4F20003C4F2010CF6
:10240000984210DD604527DD44F20003C4F2010369
:1024100098422CD044F60003C4F20103984226D01F
:1024200044F200431FE040F2FF73C4F200039842FD
:1024300007DCB0F1804F1AD040F20043C4F2000331
:1024400013E040F60003C4F2000398420FD040F6B8
:102450000043C4F2000308E00023C4F201039842E1
:1024600005D040F20043C4F20103984203D122F4A4
:102470004072CB681A4310B522F08002D1F800E018
:102480004C698B6822430260C3626045C0F828E053
:10249000BDE810400EDD44F20002C4F20102904299
:1024A00013D044F60002C4F2010290420DD044F26F
:1024B000004206E00022C4F20102904205D040F240
:1024C0000042C4F20102904201D109690163012175
:1024D000416170470000000080B541F22000C4F265
:1024E000010050F8041C89062AD541F2142CD0F8BA
:1024F00004E0C2F2004CBCF8002011B200291FD445
:102500005FFA8EF3B2F5804F04D20D2B0CD142F45A
:10251000804113E048F2000E0021CFF6FF7E0A2B27
:1025200008BF42EA0E0109E041F24C13511CC2F20D
:102530000043C62A03F802E088BF0021ACF800106F
:10254000016841F00801016080BD0000000000004A
:10255000F0B583B041F2A4060446C2F20046C3229D
:1025600000210023307800278DF80770C32500284C
:102570004FF0050008BF4122FFF0B6F90DF107004A
:102580000121FFF70DFC30780322002100230028F1
:102590004FF0060008BF0122FFF0A6F930780021B5
:1025A000002300284FF0050008BF41258DF8087072
:1025B0002A46FFF099F902A80121FFF7F1FB9DF8E7
:1025C000080080074FD50DF1090500BF3078C32200
:1025D0000021002300284FF005008DF8097008BF86
:1025E0004122FFF081F901212846FFF7D9FB9DF830
:1025F0000900C00703D00120FEF72EFAE6E7210309
:1026000020202F2200230025FFF06EF90DF10A048F
:102610003078C3220021002300284FF005008DF8F8
:102620000A5008BF4122FFF05FF901212046FFF761
:10263000B7FB9DF80A00C00703D00120FEF70CFA93
:10264000E6E730780021C322002300284FF0050080
:102650008DF80B1008BF4122FFF046F90DF10B0079
:102660000121FFF79DFB03B0F0BD0000000000005A
:10267000B0B5144605460B20EF220823FFF034F9CD
:1026800028462146BDE8B040FFF78ABB00000000A5
:1026900080B582B041F2A400EF22C2F200400021D6
:1026A0000023007800284FF0900008BF6522FFF05B
:1026B0001BF90DF106000221FFF772FBBDF80600C1
:1026C00000BA000C02B080BD70B582B041F2A40621
:1026D0000025C2F200460DF1070400BF3078C32286
:1026E0000021002300284FF005008DF8075008BF97
:1026F0004122FFF0F9F801212046FFF751FB9DF838
:102700000700C00703D00120FEF7A6F9E6E702B0F4
:1027100070BD00000000000010B541F2001441F24D
:102720000002C2F20044C4F20002C4E90021002108
:10273000C4E902102046FEF063FF2046BDE81040C9
:10274000FEF0B2BF0000000070B50446002020710A
:102750004FF0FF30E062204600F186FB00281CBFEE
:10276000042070BD94F83000B4F82E524AF6552675
:10277000E83803283DD802283BD0B54206D104F101
:1027800082001EA10822FDF06DFE80B3B4F83B006C
:10279000B0F5805F2DD194F83D0050B3552101EA8A
:1027A0005001401A332101EA900100F0330008443F
:1027B00000EB101000F00F0001281AD8E08FC0B114
:1027C00094F840000138012813D8B4F8410080B1D2
:1027D000B4F843007F2807D894F8520094F85310B7
:1027E000000450EA016004D0B4F8460008B10020AB
:1027F00070BD0320B54208BF022070BD464154336E
:102800003220202000000000002808BF7047B0B52B
:102810004EF6612188420FD344F6D3510546C1F2EA
:102820006201A0FB011294092046FEF715F94FF44E
:102830007A7104FB115060B141F21821C2F20041DB
:1028400009684A6A4B6A9B1A38BF03F58033834292
:10285000F8D3BDE8B0407047F0B581B004460079C8
:102860000D46D8B1607804F13006E26A01233146A2
:102870000127FFF049FEB0BB206AE16AA269081A8D
:1028800090424FF00000207108D2E078022805D174
:1028900060780A4401233146FFF036FE6169A81EC4
:1028A0000239884204D26189A26A00FB012600E055
:1028B000002604F130054FF480512846E662FDF011
:1028C000FDFD6089002750B16078F2190123294687
:1028D000FFF01AFE18B9608901378742F4D3608986
:1028E0003F1A18BF0127384601B0F0BD00000000B4
:1028F0002DE9F04381B04FF6FF730269C0F20F0378
:1029000002F1200603F58012964201D9002282616D
:10291000856915B3374604686FF31F372FB1E11986
:1029200006613031C161002018E0426901358561DE
:102930006AB165892B4413EA163FF0D10D46114662
:10294000814600F03DFB02280CD2022006E02189DE
:10295000B1EB561FE3D8002181610420C0B201B061
:10296000BDE8F083411C36D0616988420DD26269AE
:10297000811E023A914202464846C9F814201AD2F2
:102980006289A36A01FB023116E0BDB14846D9F85D
:102990001410FFF02DFC411C032913D24FF6F870E0
:1029A000C0F2FF0000EAC10040F20171C0F2020172
:1029B00021FA00F0D2E700218161B0E70020C9F8D8
:1029C0001800CAE7804620464146FFF745FF01460A
:1029D00040460029CBD00120C0E7000000000000E5
:1029E00008B1042070470429FBD80FF20C0000EB5B
:1029F00081030020DFE801F0040E130C0300F1E76F
:102A000080B5FFF761FE0A20FEF726F8002080BDA2
:102A1000082001E04FF480401060002070474FF420
:102A2000007010800020704700284FF0040011D182
:102A300003EB020CBCF5804F88BF704780B54FEAAE
:102A4000422C580282B208466146FFF711FE002070
:102A5000BDE880407047000041F2FC010028C2F24E
:102A6000004118BF0120097860EA010000F0010070
:102A7000704700000000000010B50446FFF05CFD48
:102A800000B110BD84B1206870B1017861B1A18836
:102A9000C288914208D14078FFF7DEFF00F00100C4
:102AA000404200F0090000E00920002818BF10BDD6
:102AB0000021216010BD000080B582B0019000911E
:102AC000D1B1002311F803E003F1010CBEF1210F95
:102AD00003D3BEF13A0F6346F4D1BEF13A0F2AD1C7
:102AE00009788CF0020381F03001194318BF0121ED
:102AF0004942002904D521E04FF0FF3100291DD4BF
:102B000040F2780CC2F2004C5CF821302BB14FF04F
:102B1000000E4CF821E083F800E020B14170002362
:102B200003704CF8210062B1684601A9002200F14F
:102B30004BF802B080BD00210029E1D50B2002B086
:102B400080BD002002B080BD2DE9F04F8FB00E9106
:102B500058B302F03F0B82460EA802A95A4600F174
:102B600033F80646002840F03B810E9903A8DDF8B3
:102B70000890CDF80C90FFF03FFE9DF83710064608
:102B800049B2B1F1FF3FD8BF0626002818BF06465C
:102B90001BF01C0F0BD0D6B1042E03D103A8FFF0FD
:102BA0001FFC06464BF0080B1CE009261DE1002E19
:102BB00040F093809DF81200C10670D4C0073046E3
:102BC00018BF07205FEA8B7148BF064685E09DF875
:102BD000120010F0110F01D0072603E05FEA4B70DE
:102BE00048BF0826002E78D11BF0080075D0FFF0F2
:102BF0008FFF0A99020A030C8873070ECA73B1F893
:102C00001A800B744F748875CA750B764F7699F8D5
:102C10000000032805D1087D4A7D120642EA0040E3
:102C200080442020C8720020488399F80020032A9D
:102C300008BF8882B8F1000FC8614FF0010089F821
:102C400004004AD0B8F1010FD9F82C1023D0039D0D
:102C5000686980451FD203AC4646019102E0874275
:102C60003E462ED22046314600F0AAF907460228F9
:102C700017DB00222846314600F13EF9F8B9D5E9C4
:102C80000410821E9142EAD26A790131296142F030
:102C900001016971E3E7022630061ED115E0042622
:102CA0001BE008204FF6F87100EBC700C0F2FF01EF
:102CB00008400121C0F2020121FA00F602E00646B6
:102CC00000E000260199300607D1484600F1CCF813
:102CD0000646A8F10100C9F80C00300602D0002811
:102CE0007ED10AE00BF008010A9A4BEAC10BD9F831
:102CF0002C10CAE90812002872D10A9899F800101D
:102D0000458B032905D1017D427D120642EA01412E
:102D10000D44CAF808500AF12808C769B9F8060036
:102D2000AAF8040000208AF811004FF48051CAF874
:102D30001C00CAF814004046CAF80C70CAF800908B
:102D40008AF810B0FDF0BAFB5FEA8B6048D5002F1F
:102D500046D0B9F80A00CAF81470B7EB003F18D98A
:102D6000040300BF5046294600F02AF90228054610
:102D700038BF02260130A7EB040708BF0126F0B2D6
:102D8000B0FA80F100284FEA511003D1A742E9D8E8
:102D900000E00120CAF8185010B338466FF31F3016
:102DA000F0B1D9F81410A81E0239884206D2B9F839
:102DB0000A10D9F8282000FB012100E0002171B1A0
:102DC00099F8010001EB173201234146CAF81C2093
:102DD0000124FFF729FE002818BF264600E002263E
:102DE00030061CBF0020CAF80000F0B20FB0BDE8EA
:102DF000F08F0000000000002DE9F04F81B09B46ED
:102E00000E4604464FF000011960A8B1206898B141
:102E10000178B9B1A188C388994213D14078154689
:102E2000FFF71AFE00F001002A46434280F001013C
:102E300003F0090011B909E0092039B1D4F800A064
:102E400048B906E0092000210029F7D14FF0000A17
:102E500008B9607C10B101B0BDE8F08F207CC007DC
:102E600003D1072001B0BDE8F08FE0686169451A21
:102E7000AA4238BF154625B104F12808CDF80080D4
:102E80002FE0002001B0BDE8F08F207C00F07F0033
:102E900020749AF80100012341464A46FFF7C4FD19
:102EA000002840F08480C4F81C9000BF60696FF374
:102EB0001F30C0F5805708EB0001AF42304628BFF5
:102EC0002F463A46FDF7CBFADBF80000ED1B3844FD
:102ED000CBF8000060693E44384460614FF0000068
:102EE000B9D060690105E1D1BAF80A10013911EAD7
:102EF00010380DD130B1A169204600F061F80228E8
:102F000003D256E0A068022853D3411C4FD0A061E1
:102F1000A069DAF8141002380239884206D2BAF8E9
:102F20000A10DAF8282000FB012000E00020002829
:102F30003FD02F0B00EB080924D0BAF80A1008EB99
:102F400007004A4688429AF8010088BFA1EB0807AB
:102F500031463B46FFF768FD48BB94F91000DDF8A9
:102F60000080B0F1FF3F0BDCE069A0EB0900B84244
:102F700006D206EB00304FF480524146FDF76FFA5F
:102F80003F03A1E7E269DDF800804A453FF48BAFDB
:102F900094F91000B0F1FF3F3FF77BAF9AF80100C2
:102FA00001234146FFF0B0FA00283FF46EAF012044
:102FB00000E00220607401B0BDE8F08F0000000066
:102FC000022901D2012070472DE9F04104686069AF
:102FD00081422BD2207803283BD0022829D0012817
:102FE00024D101EB5105206A884600EB15312046BB
:102FF000FFF03AFFA8BB04F130066F1C6FF31F35DA
:10300000206A755D00EB17312046FFF02DFF40BBB5
:103010006FF31F375FEAC872F05D45EA002108468A
:103020006FF31F3018BF0809BDE8F0810120BDE82B
:10303000F081206A0D4600EBD1212046FFF014FFFD
:1030400078B940F6FE7000EA45002044008EBDE8E5
:10305000F081206A0D4600EB91212046FFF004FF2D
:1030600018B14FF0FF30BDE8F08140F6FC7000EA87
:103070008500204490F8321090F8332090F83130D9
:10308000090290F8300041EA0241194461F31B2023
:10309000BDE8F0810000000041F268210022C2F288
:1030A00000410A7041F26421C2F200410A681044F2
:1030B000086070470000000000F1CEF8FDF7E0FC6A
:1030C000FFF702F9FFF028F964204FF4E13100F135
:1030D0009FF9FFF049FD00F013F8FFF095FF632022
:1030E00040F65F11FFF718FBFEF046FEFEF7B4FF57
:1030F00004200021FFF7BCF800F09AF8FEE700007A
:103100004EF624502522CEF20000C0F203320168B0
:1031100021F480310160016F21F00101016701217B
:1031200041674FF000518167111FC1670521016799
:10313000036843F480330360036823F4803303603F
:10314000036F23F001030367022343674FF010531B
:103150008367C2670167036843F4803303600368D1
:1031600023F480330360036F23F001030367032319
:1031700043674FF040538367C2670167036843F4B6
:1031800080330360036823F480330360036F23F00C
:1031900001030367042343674FF060538367931F62
:1031A000C36701670C32036843F48033036003682C
:1031B00023F480330360036F23F001030367416747
:1031C0004FF0C04383673323C0F20033C367016706
:1031D000036843F480330360036823F4803303609F
:1031E000036F23F001030367062343674FF0404357
:1031F0008367C2670167026842F480320260026836
:1032000022F480320260026F22F00102026707227C
:1032100042674FF0004282673722C1F20032C26734
:103220000167016841F480310160704700000000CF
:10323000BEB0FEF711FFFEF757FF04200021002665
:10324000FFF716F820A0FDF0F7F840F280090DF125
:10325000E00AC2F200490FF2880B0DF1180803E0F2
:103260004FF4FA70FDF7F8FB0022484639A9FEF04A
:1032700073F9002248465146FEF702F99DF8E00036
:103280009DF8E4709DF8E1309DF8E5409DF8E2106E
:103290009DF8E6509DF8E3200490CDE900174046E4
:1032A0005946CDE90245FDF75FF84046FDF0C4F808
:1032B000092E06F10106D3D317A03146FCF0D8FE43
:1032C000FEF07AFC0026CBE75374617274696E6776
:1032D000206D61696E206C6F6F702E2E2E000000C5
:1032E000446174653A203230253032642D25303205
:1032F000642D25303264202054696D653A202530D4
:1033000032643A253032643A2530326420205765E1
:10331000656B3A2025640000536176696E67205220
:1033200054432054696D6520746F2046696C652E86
:103330002E2E2028436F756E7465723A20256429FD
:103340000A000000000000002DE9F04100F1200813
:1033500000234FF00F0C6FF0030E002404E000BFB9
:1033600001340433102C16D021FA04F5ED07F7D000
:103370000EEA540503F01C060CFA06F758F805008F
:10338000B84348F8050002FA06F058F805603043E3
:1033900048F80500E4E7BDE8F08100000000000007
:1033A000D20708BF09048269114381617047303830
:1033B0000A2801D2012070470020704710B500296B
:1033C0000AD00878002807D005487844FDF0A0F816
:1033D000002801D0002010BD0248784410BD000034
:1033E000FA000000F2000000F1EE100A4FF6FF7143
:1033F000C0F2C03120EA010040F04070E1EE100A56
:1034000070470400000800000000000000020001F6
:103410000000100000000001020304010203040682
:10342000070809809A45418E418F804545454949A5
:10343000498E8F9092924F994F555559999A9B9CCE
:103440009D9E9F41494F55A5A5A6A7A8A9AAABAC8B
:10345000ADAEAFB0B1B2B3B4B5B6B7B8B9BABBBC24
:10346000BDBEBFC0C1C2C3C4C5C6C7C8C9CACBCC14
:10347000CDCECFD0D1D2D3D4D5D6D7D8D9DADBDC04
:10348000DDDEDFE0E1E2E3E4E5E6E7E8E9EAEBECF4
:10349000EDEEEFF0F1F2F3F4F5F6F7F8F9FAFBFCE4
:1034A000FDFEFF00D83500080000002418000000D1
:1034B000FC020008F03500081800002458920000B3
:1034C0001C0300081001000043000000F8FFFFFF8C
:1034D0000040404040404040404041414141414027
:1034E00040404040404040404040404040404040DC
:1034F000400502020202020202020202020202026B
:10350000022020202020202020202002020202026F
:1035100002029090909090901010101010101010C7
:1035200010101010101010101010101002020202D3
:103530000202888888888888080808080808080817
:103540000808080808080808080808080202020213
:10355000400000000000000000000000000000002B
:10356000000000000000000000000000000000005B
:10357000000000000000000000000000000000004B
:10358000000000000000000000000000000000003B
:10359000000000000000000000000000000000002B
:1035A000000000000000000000000000000000001B
:1035B000000000000000000000000000000000000B
:1035C00000000000000000000000000000000000FB
:1035D0000000000000000000010000000090D00387
:1035E0000090D00316EF0100100000000000000062
:020000040810E2
:1000000010B510BD00F7FCFC114600F7A0F903F78E
:1000100053F800F021FB03B4FFF7F2FF03BC02F03A
:10002000E3F80000DFF83000016841F4700101607E
:10003000BFF34F8F09480047FEE7FEE7FEE7FEE704
:10004000FEE7FEE7FEE7FEE7FEE7FEE704480549B8
:10005000034A054B7047000088ED00E09902000854
:100060007012002470920024701200247047000067
:100070000FB4044910B503AA029800F08BFA10BC23
:100080005DF814FBA810002470B50446856900686B
:10009000C10601D5302600E02026C00707D070BD7C
:1000A000D4E9012130469047206A401C20626D1E31
:1000B000F6D570BD70B5044685690078C00707D1D4
:1000C00070BDD4E9012120209047206A401C2062A5
:1000D0006D1EF6D570BD70B50C460546012A05D0DB
:1000E0002878800600D5EA69002302E0012305E0B4
:1000F0005B1C934202D2E05C0028F9D1A869E618A3
:10010000C01AA861286A184428622846FFF7BCFF75
:1001100004E0D5E9012114F8010B9047B442F8D36B
:100120002846FFF7C7FF70BD2DE9F05F89460446FA
:100130004FF0000ADFF874B1FB44C0F820A020465D
:10014000E1688847002874D0252806D0D4E9012129
:100150009047206A401C2062F1E700265F46204657
:10016000E16888472028054607DB312D05D278193C
:1001700010F8200C08B10643F1E7B00701D526F0CE
:100180000406C4F81CA00027C4F818A02A2D09D022
:10019000284603F70CF938B304EB8708303DC8F85C
:1001A000185019E059F8041B204604EB87029161AE
:1001B000E1688847012F054618D1E069002820DA58
:1001C00026F020061DE0D8F8180000EB800005EBB3
:1001D00040003038C8F818002046E16888470546D6
:1001E00003F7E5F80028EED1012F0AD02E2D08D113
:1001F0002046E16888477F1C0546022F46F020060E
:10020000C4DBA069002803DA404246F00106A06181
:10021000F00701D026F010066C2D0BD0682D09D008
:100220004C2D39D06A2D35D0742D35D07A2D33D060
:1002300016E038E0E1682F4620468847B842054678
:1002400009D16C2F26D04FF48060E1680643204628
:100250008847054604E06C2F1AD04FF4807006439F
:100260000DB3A5F14100192802D8203546F40066E7
:100270004A462946204626604E4600F75DF880B182
:1002800001280BD0F61D26F0070000F1080956E7FB
:100290004020E4E78020D8E70020D6E706F10409F3
:1002A0004DE7284652E7206ABDE8F09FC632F0FFCE
:1002B0000FB400B58DB010A9099000910B904FF0CC
:1002C000FF300A9000200C900648784406900648BB
:1002D00078446A4607900F9909A800F081F90DB09B
:1002E0005DF814FB330300004B0300002DE9FF5FB2
:1002F0001D464FF0FF3B91464FF000085F46D5E9A1
:100300000146A96901987F1C8847296A8246884767
:100310000028F6D1BAF1FF3F0CD0002E24F4C064BF
:1003200019DD600614D5BAF12B0F09D0BAF12D0FE3
:100330000ED103E0584604B0BDE8F09F44F4806459
:10034000A96901987F1C8847761E8246002E02DD2F
:10035000BAF1300F03D0B9F1000F26D032E0A9690D
:10036000761E01987F1C44F400748847002E824654
:1003700005DDBAF1780F06D0BAF1580F03D0B9F104
:10038000000F10D01EE0B9F1000F02D0B9F1100F2C
:1003900018D1A969761E01987F1C24F4007488473F
:1003A0008246102002E0082000E00A20814609E091
:1003B000A96908FB0908761E01987F1C44F40074A3
:1003C00088478246002E05DD4946504600F0F4F885
:1003D0000028EDDAE96901988847A00502D46FF09A
:1003E0000100A8E7E00725D1600613D5600502D516
:1003F000C8F1000000E0404629680A1D2A6009682B
:10040000220501D5087015E0220701D5088011E00A
:1004100008600FE02868011D29600068210502D5E9
:1004200080F8008006E0210702D5A0F8008001E0F6
:10043000C0F8008038467EE710B5044603E002F0BD
:100440005BFB401C09D014F8010B05490028F6D1CC
:10045000BDE810400A2002F04FBB4FF0FF3010BD46
:10046000A810002440EA010310B59B070FD1042A0D
:100470000DD310C808C9121F9C42F8D020BA19BA6F
:10048000884201D9012010BD4FF0FF3010BD1AB1D4
:10049000D30703D0521C07E0002010BD10F8013B29
:1004A00011F8014B1B1B07D110F8013B11F8014B50
:1004B0001B1B01D1921EF1D1184610BD4FF0000256
:1004C00000B5134694469646203922BFA0E80C504A
:1004D000A0E80C50B1F12001BFF4F7AF090728BF25
:1004E000A0E80C5048BF0CC05DF804EB890028BFA1
:1004F00040F8042B08BF704748BF20F8022B11F0CA
:10050000804F18BF00F8012B70470000000000006A
:1005100030B44FF0013C50F8042BCCFA52F451F8AF
:10052000043BD51A20D1FCB950F8042BCCFA52F474
:1005300051F8043BD51A17D1B4B950F8042BCCFAB2
:1005400052F451F8043BD51A0ED16CB950F8042B73
:10055000CCFA52F451F8043BD51A05D1002CDAD06C
:1005600030BC4FF00000704729BAB1FA81F111F0A8
:100570001801D1F120008440F2D1CA40CB4012F0E2
:10058000FF0213F0FF0330BCD01A7047704770476A
:1005900070470000074B70B50D467B4400F735F8F7
:1005A0000446284600F728FA10B14FF0FF3070BD1E
:1005B000204670BD5B2500003A2800D2303820F07C
:1005C0002002412A01D3A2F13700884201D34FF023
:1005D000FF30704702681144137801601846704775
:1005E000D16005497944516104497944116200217F
:1005F0001161114600F746B8EDFFFFFF8300F0FFE1
:10060000426842B1016811F8013B23B1521EC0E9B2
:100610000012184670470121C160881E7047426869
:100620005AB1C368016843B983688B4205D0491E3B
:10063000521CC0E90012002070474FF0FF30704795
:10064000004870471800002410B500F70DF8001D91
:1006500010BD00BF692DF0FF10B50446AFF3008058
:100660002046BDE81040FFF7D6BC000000000000A7
:1006700070470000000000002DE9F04F83B00E68C5
:10068000002E00F0C78000F1264742F2004507F136
:10069000FF77C5F602050A22A8424FEAB72500F106
:1006A000200308BF09220093092D38BF4FEAB72263
:1006B000002400274FF0000A01920AE00AF1010A23
:1006C0000E6836FA0AF207F1020704F1040400F09A
:1006D000A180012202FA0AFB16EA0B08EED0D1F83B
:1006E0000490032209F0030EAEF10106012E02FA76
:1006F00007F610D8D0F808C0CD682CEA0602BD4035
:100700002A438260C9F30015426822EA0B0205FA07
:100710000AF52A434260BEF1030F1FD0C2688D68FC
:10072000B243BD40BEF1020F42EA0502C26015D1DC
:100730006FF00302009D02EA5A0B04F01C030F2223
:1007400055F80BC002FA03FED1F810902CEA0E0CFB
:1007500009FA03F343EA0C0345F80B3002684B68CF
:10076000B24303F00306BE4013F4403F42EA0602E0
:100770000260A3D044F2F44340F2084CC5F60203F1
:10078000C5F6000C0F251A6842F002021A601A68BA
:1007900002F0020202922AF00302029B04F00C0310
:1007A00052F80C609D40AE43019D05FA03F33343BC
:1007B00042F80C304FF0B04CDCF800204B6842EAB5
:1007C0000806DD0258BF22EA08069D02CCF8006048
:1007D00040F2040CC5F6000CDCF8002042EA0806E2
:1007E00058BF22EA08069D03CCF80060DCF88020A0
:1007F00042EA080658BF22EA0806DB03CCF880600C
:10080000DCF87C2042EA080658BF22EA0806CCF849
:100810007C6053E703B0BDE8F08F000000000000EB
:1008200041F20000C5F600400068000C704700006F
:1008300041F26C20C2F200400068704700000000E6
:1008400040F20E0041F26C21C2F20040C2F20041BF
:1008500000780A681044086070470000000000003B
:1008600070B54EF60C5C4FF0FF36CEF2000C00F186
:10087000604505F56445DCF80030C3F3022E8EF0C8
:100880000703042B28BF0423BEF1030406FA03F375
:1008900021EA030100F00F0338BF0024043B0028C5
:1008A000634406FA04F048BF03F10C05A14022EAB4
:1008B000000008430001287070BD00000000000027
:1008C0004EF60C514FF6FF03CEF200010A681A40B3
:1008D00060F30A2242F0806040F0FD7008607047CB
:1008E000B0B544F60C05C5F6020529684907296824
:1008F00005D401F00701081A18BF0120B0BD21F08E
:10090000070108432860FFF793FF044655F8080CD9
:10091000800407D4FFF78CFF001BB0F57A7FF5D970
:100920000120B0BD0020B0BD44F60000C5F60200B5
:10093000016841F480710160704700000000000010
:100940002DE9F04381B00446C07844F22C490007F9
:10095000C5F6020901D400261FE0606E4FEA305050
:10096000032837D80026DFE800F0020A1B21D9F857
:10097000000040F40030C9F80000CEB905E0201DA9
:10098000022101F789FA064696B9D9F82400616E6A
:1009900020F440100843C9F824004FF0000808E094
:1009A00004F12400022101F06FF80646002EECD07D
:1009B000B0466078C00721D0606D042800F24781FE
:1009C000DFE810F0E70018010C00050005006EB12B
:1009D000B04613E00126002EEAD1D6E704F1240048
:1009E000002101F051F80646002EF1D1D9F824007B
:1009F000616D20F007000843C9F824006078800783
:100A00001FD5A06D4FEAB010042800F22581DFE861
:100A100010F0CA00FA000800050005004EB1B0460B
:100A20000FE004F12400002101F02EF80646002E0C
:100A3000F5D1D9F82400A16D20F4E0700843C9F87D
:100A400024006078400721D5D4F8A4004FEA705004
:100A5000042800F20681DFE810F0B000DF00080093
:100A6000050005004EB1B04610E004F1240000215D
:100A700001F00AF80646002EF5D1D9F82C00D4F87A
:100A8000A41020F460000843C9F82C006078000727
:100A90001FD5D4F8A8004FEA3060042800F2E680A1
:100AA000DFE800F095C3060303004EB1B04610E046
:100AB00004F12400002100F0E7FF0646002EF5D1E6
:100AC000D9F82C00D4F8A81020F0E0600843C9F849
:100AD0002C00E07880071BD5A06C4FEA301003286B
:100AE0002FD8DFE800F0020526024EB1B0460FE035
:100AF000D9F8000040F40030C9F80000002EF5D10C
:100B0000D9F82000A16C20F030000843C9F820007B
:100B10006078C00629D5E06D4FEA3030042800F235
:100B2000AA80DFE800F05E8B12030300AEB1B0468E
:100B30001BE0201D022101F7AFF90646002ED5D19A
:100B4000DEE70126002ED1D1DAE704F124000021EE
:100B500000F09AFF0646002EE9D1D9F82400E16D95
:100B600020F4E0400843C9F824006078800640F192
:100B70009B80206E4FEA3040052800F28A80DFE833
:100B800000F085037F858585201D012101F784F90B
:100B90007BE0D9F8000040F40030C9F80000002ED6
:100BA0007FF416AF22E7D9F8000040F40030C9F80E
:100BB0000000002E7FF433AF3BE7D9F8000040F48B
:100BC0000030C9F80000002E7FF44DAF55E7D9F88A
:100BD000000040F40030C9F80000002E7FF466AF3A
:100BE0006EE7D9F8000040F40030C9F80000002E8C
:100BF0009DD1B2E7201D002101F74EF90646002ED7
:100C00007FF4E6AEF2E6201D002101F745F9064625
:100C1000002E7FF404AF0CE7201D002101F73CF902
:100C20000646002E7FF41FAF27E7201D002101F7A5
:100C300033F90646002E7FF439AF41E7201D00212D
:100C400001F72AF90646002E7FF471AF85E70126E9
:100C5000002E7FF4BDAEC9E60126002E7FF4DFAE84
:100C6000E7E60126002E7FF4FEAE06E70126002E01
:100C70007FF41CAF24E70126002E7FF458AF6CE709
:100C800004F12400012100F0FFFE064626B1B04623
:100C90000AE00126002EFAD1D9F82400216E20F4B2
:100CA000E0200843C9F824006078400624D5D4F831
:100CB000AC004FEA3070052812D8DFE800F00E03D0
:100CC000080E0E0E201D012101F7E6F804E004F1E4
:100CD0002400012100F0D8FE064626B1B0460BE004
:100CE0000126002EFAD1D9F82C00D4F8AC1020F04F
:100CF000E0400843C9F82C00607800061FD5E06E7C
:100D0000D0B1B0F1005F12D0B0F1805F25D1D9F839
:100D1000000040F40030C9F800007EB9D9F8240082
:100D2000E16E20F040500843C9F8240007E0201D80
:100D3000012101F7B1F80646002EEFD0B046E07869
:100D4000C0071ED0606C032800F27F80DFE800F04F
:100D5000020974026EB1B04613E00126002EEDD1F7
:100D6000DCE7D9F8000040F40030C9F80000002E9C
:100D7000F1D1D9F82000616C20F003000843C9F8D4
:100D80002000A078400645D5D9F8D40340F48070FF
:100D9000C9F8D403FFF74CFD074600BFD9F8D403C8
:100DA000C00505D4FFF744FDC01B6528F6D3032614
:100DB0007EBBD9F84410D4F8B000414011F4407F14
:100DC00011D0D9F84410D9F8442042F48032C9F83F
:100DD0004420D9F8442021F4407122F48032C9F82B
:100DE0004420C9F84410B0F5807F0FD1FFF720FDF3
:100DF000074641F2893500BFD9F84400800705D481
:100E0000FFF716FDC01BA842F6D30326002E00F004
:100E10003A82B0462078C00730D0A06F4FEAF00089
:100E2000052820D8DFE800F01C03161C1C1C201D20
:100E3000012101F731F812E0201D022101F72CF801
:100E40000646002E7FF487AF93E70126002E7FF43D
:100E500082AF8EE704F12400012100F015FE064662
:100E600026B1B0460AE00126002EFAD1D9F82800B2
:100E7000A16F20F038000843C9F8280020788007C7
:100E800020D5606F052812D8DFE800F00E03080EA9
:100E90000E0E201D012100F7FFFF04E004F12400E5
:100EA000012100F0F1FD064626B1B0460AE0012618
:100EB000002EFAD1D9F82800616F20F0070008430E
:100EC000C9F828002078400722D5D4F890000528DA
:100ED00012D8DFE800F00E03080E0E0E201D0121CF
:100EE00000F7DAFF04E004F12400012100F0CCFD5A
:100EF000064626B1B0460BE00126002EFAD1D9F8FD
:100F00002C00D4F8901020F007000843C9F82C00FA
:100F10002078800624D5D4F88C004FEA307005285C
:100F200012D8DFE800F00E03080E0E0E201D00217F
:100F300000F7B2FF04E004F12400022100F0A4FD58
:100F4000064626B1B0460BE00126002EFAD1D9F8AC
:100F50002800D4F88C1020F0E0400843C9F828009D
:100F60002078400624D5D4F898004FEAB020052810
:100F700012D8DFE800F00E03080E0E0E201D00212F
:100F800000F78AFF04E004F12400022100F07CFD58
:100F9000064626B1B0460BE00126002EFAD1D9F85C
:100FA0002C00D4F8981020F4E0500843C9F82C0025
:100FB0002078000624D5D4F89C004FEA703005282C
:100FC00012D8DFE800F00E03080E0E0E201D0021DF
:100FD00000F762FF04E004F12400022100F054FD58
:100FE000064626B1B0460BE00126002EFAD1D9F80C
:100FF0002C00D4F89C1020F460400843C9F82C0061
:101000002078000716D5D4F88000B0F5805F08D1AD
:1010100004F12400022100F037FD002818BF4FF032
:101020000108D9F82800D4F8801020F44050084373
:10103000C9F828002078C00616D5D4F89400B0F579
:10104000807F08D104F12400022100F01DFD00285A
:1010500018BF4FF00108D9F82C00D4F8941020F4F0
:1010600040700843C9F82C00A078000723D5D4F8B5
:10107000A000B0F5003F1BD0B0F5803F12D0002893
:1010800040F0E980201D002100F706FF06468EB9DA
:10109000D9F82C00D4F8A01020F440300843C9F847
:1010A0002C0008E004F12400022100F0EDFC0646CB
:1010B000002EEDD0B046A078400725D5D4F88400A6
:1010C000B0F5401F1DD0B0F5001F14D0B0F5801F43
:1010D00040F0C680D9F8000040F40030C9F80000A4
:1010E0008EB9D9F82800D4F8841020F440100843B1
:1010F000C9F8280008E004F12400012100F0C4FC34
:101100000646002EEDD0B046A078C0071ED0E06C99
:10111000B0F5803F0BD0002840F09880D9F800004F
:1011200040F40030C9F8000046B1B0460EE0201D82
:10113000022100F7B1FE0646002EF6D1D9F82000B4
:10114000E16C20F480300843C9F82000E078800684
:1011500008D504F12400022100F096FC002818BFF5
:101160004FF00108206881031ED4C10234D4C100AD
:101170003CD4810245D441004DD4B0F1FF3F5ADD4B
:10118000000208D5D9F82800D4F8881020F44000CF
:101190000843C9F82800B8F1000F18BF4FF0010844
:1011A000404601B0BDE8F083E16F6FF0010202EB51
:1011B0003122022A0AD34FEA31223AB1012A54D10C
:1011C000D9F8002042F40032C9F80020002E4FD098
:1011D0004FF00108C102CAD5D9F82410226F21F0BE
:1011E00000411143C9F82410C100C2D559F81C1C94
:1011F000D4F8B42021F48041114349F81C1C810229
:10120000B9D5D9F82410A26E21F080711143C9F824
:1012100024104100B1D559F81C1C21F4004149F8B3
:101220001C1CD4F8B81059F81C2C114349F81C1C8C
:10123000B0F1FF3FA4DCD9F82010226D21F040511D
:101240001143C9F8201000029CD4A4E70126002E07
:101250007FF46BAF72E70126002E7FF42BAF17E708
:101260000126002E7FF44FAF3BE70126002EAFD1C1
:10127000D9F8282022F440721143C9F82810C1027D
:101280007FF575AFA8E74FF6CF73D4F8B00059F8E3
:101290001C2CC0F2FF0300F4407122F47C5203EADC
:1012A0001013B1F5407F08BF1A436FF31F3049F8A0
:1012B0001C2CD9F844100843C9F84400AAE50000E2
:1012C0003F22026044F21842C5F6020252F8083C7E
:1012D00003F007034360136803F4706383601368CB
:1012E00003F00F03C360136803F0700303615368D6
:1012F00003F070034361536803F4E0638361926811
:1013000002F07002C26142F20000C5F200200068E3
:1013100000F00F000860704744F20041C5F602017A
:101320000869C0F3C200032814D002280DD088BB7E
:101330000868800649F20000C0F2D03058BF7047FC
:101340000968C1F3C101C840704747F64000C0F2C8
:101350007D1070478B6A886AD1F82CC04A6BC0F345
:101360000510E0B1C2F3CC0203F0030300EE102A33
:101370009FED291AB8EE400A20EE010A9FED271AC8
:10138000DFE803F0021F0F1F0A6892060CD49FEDDE
:10139000251A16E040F60010C0F23D00704700200C
:1013A00070479FED1F1A0CE00A6849F20003C0F273
:1013B000D033C2F3C10223FA02F201EE102AB8EED2
:1013C000411A0A6B9FED183A6FF35F2202EE102A62
:1013D0005FEACC7203FE000A03EE100A086BB8EE57
:1013E000422AC0F34620B8EE433A013030EE020AFA
:1013F000B7EE002A81EE031A30EE020A21EE000A4F
:1014000001EE100AB8EE411A80EE010ABCEEC00AE5
:1014100010EE100A704700BF000000390024744A23
:1014200020BCBE4B0024744C0000000000000000F3
:10143000006800EB8100006D7047000000000000B4
:10144000006800EB810002657047000000000000AA
:10145000F0B581B0044690F8200001284FF002005A
:101460004DD00E46012184F82010CA2184F82100B5
:101470001546206841625321416244F20800C5F6D6
:101480000000016821F4806101604068400611D4C9
:10149000FFF7CEF9074600BF2068C068400709D4AF
:1014A000FFF7C6F9C01BB0F57A7FF5D92168032292
:1014B00003201DE021684FF0B0434E61886820F0A2
:1014C0000700284388608020C5F60000026842F4C7
:1014D000002202601868012240F400201860886829
:1014E00040F480408860886840F480608860002014
:1014F000FF234B6284F82120002184F8201001B0E2
:10150000F0BD00000000000010B588214FF400225B
:10151000C5F6000104460A600068C168490508D59F
:10152000C16861F4906121F48061C1602046FFF6DA
:101530006BFF012084F8210010BD000000000000B6
:1015400001A0FEF779BF00BF414C41524D2041211F
:101550000D0000000000000080B50068002A836ACA
:101560004B6003696FF3DF338B60036803F07F0E1A
:1015700081F802E0C3F305400870C3F3062C81F83C
:1015800001C0C3F38052CA7001D0002080BD02099F
:101590004FEA1E13A2EB820200EB420008704FEAF2
:1015A0001C12A3EB8300A2EB82020EEB40008870BA
:1015B0000CEB42024A70002080BD000000000000D9
:1015C000411E0020B0EB116F01D0012070474EF298
:1015D0001002F023CEF2000251604EF62351CEF2FB
:1015E00000010B700721906011607047000000003F
:1015F000704700000000000070470000000000007D
:1016000060B310B5044690F83D0028B9002084F876
:101610003C00204600F024F8022084F83D002068B9
:10162000211D00F7B9FE012084F8480084F83E002F
:1016300084F83F0084F8400084F8410084F84200B8
:1016400084F8430084F8440084F8450084F8460098
:1016500084F8470084F83D00002010BD0120704749
:1016600041F200010068C4F20001884218BF7047CF
:1016700080B582B044F2E8400322C5F6020001685A
:1016800041F0100101600068012100F0100001909C
:1016900001983620FFF7E4F8362002B0BDE880401C
:1016A000FFF652BA0000000090F83D1001291BD14E
:1016B000022180F83D10016841F2FF70C4F2000081
:1016C0008142C86840F00100C8600FDC40F2FF7042
:1016D000C4F20000814217DCB1F1804F2BD040F200
:1016E0000040C4F2000024E00120704740F2FF30C7
:1016F000C4F20100814212DC41F60000C4F2000095
:10170000814218D0002012E040F60000C4F2000030
:10171000814210D040F60040C4F2000009E044F2DB
:101720000000C4F20100814205D040F20040C4F242
:10173000010081420BD107228868C0F201020240F9
:101740000020062A18BFB2F5803F00D17047086814
:1017500040F0010008600020704700000000000019
:10176000704700000000000070470000000000000B
:10177000FEE7000000000000FEE70000000000009F
:101780002DE9F04F87B044F2E0440020C5F6020492
:101790000690CDE90400CDE90200206841F2004145
:1017A00040F0020020602068C5F6020100F002004F
:1017B00001900198206840F0200020602068A1F589
:1017C000805600F020000190019854F80C0C40F471
:1017D000804044F80C0C54F80C0C02AD00F480402E
:1017E000019045F20007019804200290092006901C
:1017F00030462946C5F200274FF00209CDF80C907B
:101800004FF0010ACDF810A04FF0030BCDF814B043
:10181000FEF732FF02A940204FF00A08CDF81880E9
:1018200081E8010E30462946FEF726FF02A941F263
:1018300000464FF48070C5F6020681E8010E30467E
:101840002946CDF81880FEF717FF02A94FF4007063
:10185000CDF81880B04681E8010E30462946FEF7E3
:101860000BFF02A980200926069681E8010E40465A
:101870002946FEF701FF02A94020069681E8010EE5
:1018800040462946FEF7F8FE54F8640C40F48040C8
:1018900044F8640C54F8640C20F4804044F8640C60
:1018A000B868800608D50120CFF6FF70013015D248
:1018B000B9688906FAD488B140F21030C0F60070D9
:1018C000386040F20170C0F218007860386840F06B
:1018D00001003860002007B0BDE8F08F012007B09C
:1018E000BDE8F08F0000000010B545F2080CC5F20D
:1018F000002CDCF800E05FEA8E6E0DD540F2010EA0
:10190000CFF6FF7E1EF1010E31D2DCF80040A406B6
:10191000F8D4BEF1000F2AD002F0C00412F00C0F70
:1019200043EA04034FF47C5404EA022444EA834368
:101930001844CCF80C0018BFCCF810103F2A16D869
:10194000DCF8000080070CD40120CFF6FF7000BF48
:1019500001300CD2DCF800108907F9D5002808BF47
:1019600010BDDCF8040040F00200CCF8040010BD0B
:1019700070B582B045F20806C5F20026F2683369F8
:10198000A1F10103B360736822F0406243F00203E7
:101990007360F26049B340F2010C0023CFF6FF7C84
:1019A00001E000BF09B3326852070BD4644600BFA0
:1019B000621C43F10005A24205D334686407144653
:1019C000F6D500E000259DB9013910F8012B0C0770
:1019D0003276E7D10193019A632AE3DC019A01325E
:1019E0000192019A642AF9DBDCE7280635D104E08C
:1019F0001BA0FEF73DFB28062FD156F8080C00254A
:101A000040F0040046F8080C306880074FF00000F2
:101A10000BD40121CFF6FF714A1C40F100058A4228
:101A200003D3316889071146F6D5B5B9706800252A
:101A300040F002007060306880064FF000000CD566
:101A40000121CFF6FF7100BF4A1C40F100058A4218
:101A500003D3316889061146F6D4E8B202B070BDEE
:101A600051535049207472616E736D6974207469AA
:101A70006D656F7574206174206279746520256CC2
:101A8000750D0A0000000000F0B581B044F22C474B
:101A9000C5F6020757F8042C02F00302032A02D10C
:101AA000012001B0F0BD054657F82C0C0C4620F083
:101AB000805047F82C0CFEF7BBFE064657F82C0C5E
:101AC000800005D5FEF7B4FE801B0228F6D964E03D
:101AD00057F8040CEE6895E80E0020F07C70012C9D
:101AE00040EA0150A2F101016FF35F214FF47E4201
:101AF00002EB432247F8040C92B24FF0FE4302EB94
:101B000001004FF4FE012A6901EB064101F4FE01D8
:101B100003EB0262084402F0FE4108447861386831
:101B2000696920F4406040EA010038603868A969BA
:101B300020F4007040EA0100386038684FF6F87110
:101B400020F480703860B869EA6920EA01004FF03B
:101B5000807140EAC200B861386808BF4FF40001E4
:101B600040F48070002C386008BF4FF48001386862
:101B70000843386057F82C0C40F0805047F82C0C84
:101B8000FEF756FE044600BF57F82C0C800007D421
:101B9000FEF74EFE001B0328F6D3032001B0F0BD74
:101BA000002001B0F0BD000040F28000C2F2004011
:101BB000FFF636BC00000000B0B5ADF5035D40F2A5
:101BC000800407A9C2F2004400222046FFF7C4FCAB
:101BD00006A900222046FFF653FC43F249510DF1BD
:101BE000100EC0F610010EF58450012200F764FFBC
:101BF00048B1014643F2DE40C0F61000FEF738FA65
:101C00000DF5035DB0BD43F23D511AA8C0F61001B9
:101C10000A2200F799FF38B1014643F20950C0F695
:101C20001000FEF725FA36E09DF81AE09DF81C40FA
:101C30009DF819309DF81D009DF81B209DF81E1081
:101C4000CDE900E40DF136049DF818C0CDE902019C
:101C500016A12046CDF810C0FEF686FB2046FEF603
:101C6000D5FB02461AA80CAB214600F0CDFC044679
:101C700050B90DF136000C9DFEF6C8FB854203D12C
:101C800019A00DF1360101E011A02146FEF7F0F98F
:101C90001AA800F7F1FE43F249510020C0F61001E6
:101CA000002200F709FF0DF5035DB0BD323025308D
:101CB00032642D253032642D2530326420253032B7
:101CC000643A253032643A253032642025640A00B3
:101CD00057726974652046696C65204661696C6558
:101CE000643A2025640A00005254432054696D650B
:101CF00020536176656420746F2046696C653A20D4
:101D0000257300000000000080B582B08DF8070048
:101D100040F280008DF80620C2F200408DF80510D8
:101D200001A900228DF80430FFF66EFC02B080BDE0
:101D300080B586B08DF804000020CDE9040040F2A3
:101D400080008DF805108DF80620C2F2004001A930
:101D500000228DF80730FFF603FD06B080BD0000BD
:101D600041F20010C2F20040FFF60EBF000000007A
:101D7000FEE7000000000000B0B582B0FFF700FDF4
:101D800000F07EF841F2A405EF22C2F200450021E6
:101D900000230024287800284FF0900008BF652217
:101DA000FFF7A2FD01A80221FFF6FAFFBDF804002B
:101DB00040F20C024EF61671C2F2004240BA88425E
:101DC00010805BD12878C3220021002300284FF027
:101DD00015008DF806404FF0C30408BF4122FFF7FD
:101DE00083FD0DF106000121FFF6DAFF9DF80600E4
:101DF0008DF80300C10710D02878032200210023AA
:101E000000284FF0060008BF0122FFF76DFDE92012
:101E1000002103220023FFF767FD2878002100231B
:101E200000284FF0150008BF41248DF80710224606
:101E3000FFF75AFD0DF107000121FFF6B1FF2878E9
:101E40009DF8071003228DF8031000284FF00600BC
:101E50004FF000014FF0000308BF0122FFF744FDDF
:101E6000C0200021C3220023FFF73EFD30208DF863
:101E700003000DF103000121FFF77AFD02B0B0BDB0
:101E8000F0B581B041F2A4050021C2F20045C322A1
:101E900000238DF802102878C32400284FF0350065
:101EA00008BF4122FFF720FD0DF1020001210126AC
:101EB000FFF676FF9DF80270B8071ED4287803223B
:101EC0000021002300284FF0060008BF0122FFF781
:101ED0000BFD287847F00201002300284FF0310065
:101EE00008BF41248DF8031000212246FFF7FCFCB7
:101EF0000DF103000121FFF73BFD382000210122F5
:101F00000023FFF7F1FC2E7001B0F0BD00000000CF
:101F10002DE9F04F85B00C4641F2A40B6FF31F344E
:101F20000F46C4F580590D0B4FF0000AC2F2004B6A
:101F30000DF1110603904A45019238BF914600BF4A
:101F40004FEA05380B20EF2208234146FFF7CCFC6F
:101F500040F2A4004FF48051C2F20040FFF620FF8F
:101F60005FEA09400297009510D040F2A400C2F247
:101F700000400444002000BF81B2615CFF294FD1C2
:101F80001FFA89F2013081B29142F5D3F8B2394695
:101F90001FFA89F6C0F580742546A64238BF35463B
:101FA00003982A4600F0C8F8A64218D94E46DDE943
:101FB000027400BF14FA85F4761B17FA85F74FF404
:101FC00080751FFA86F82046B8F5807F394638BFFD
:101FD00045462A4600F0B0F8B8F5807FEAD8029F5F
:101FE0000DF11304009D0DF1110600BF9BF80000D8
:101FF000C3220021002300284FF005008DF813A014
:1020000008BF4122FFF770FC01212046FFF6C8FE01
:102010009DF81300C0076FD00120FEF61DFDE5E717
:10202000284600F795FA00BF9BF80000C322002164
:10203000002300284FF005008DF811A008BF4122B1
:10204000FFF752FC01213046FFF6AAFE9DF8110071
:10205000C00703D00120FEF6FFFCE5E71FFA89F078
:1020600003990139621E00BF11F8013F013802F8DF
:10207000013FF9D140F2A4074FF48072C2F2004749
:10208000414638464FF4807500F056F84FF48054BE
:1020900017FA85F7641B18FA85F84FF48075A6B215
:1020A0003846B6F5807F414638BF35462A4600F0AF
:1020B00043F8B6F5807FEBD8029F0DF11106009D25
:1020C0000DF112049BF80000C32200210023002818
:1020D0004FF005008DF812A008BF4122FFF704FC65
:1020E00001212046FFF65CFE9DF81200C00703D0D8
:1020F0000120FEF6B1FCE5E71FFA89F0019A91B2E2
:10210000814213D00398A2EB090210FA89F00390E0
:1021100017FA89F74FF480501FFA82F901920135BE
:10212000B9F5805F28BF8146002409E705B0BDE806
:10213000F08F0000000000002DE9F04381B041F273
:10214000A4070324C2F2004790460E4681463B781E
:10215000062000210025002B4FF0000308BF0124BA
:102160002246FFF7C1FB3878C32200210023002854
:102170004FF005008DF8025008BF4122FFF7B4FB75
:102180000DF102000121FFF60BFE9DF80200800711
:1021900002D401B0BDE8F0830220EF2200233146D3
:1021A000FFF7A2FB48464146FFF7E2FB0DF10304AF
:1021B0003878C3220021002300284FF005008DF855
:1021C000035008BF4122FFF78FFB01212046FFF695
:1021D000E7FD9DF80300C007DBD00120FEF63CFCC4
:1021E000E6E700000000000070470000000000006B
:1021F0002DE9F0410C460646D0F8008041B130464A
:10220000214600F7DDFE02280BD20120BDE8F08157
:10221000D8F80C501DB1D8F81400854208D3012518
:1022200006E0411C3DD0D8F814102546884236D32C
:10223000D8F81000002851D0A54219D16F1CD8F849
:1022400014008742304628BF0227394600F7B8FEFF
:10225000411C24D068B1012808BFBDE8F081D8F83E
:102260000C00022804D3D8F81410884238BF054661
:102270000027D7B14FF0FF324046394600F03CFE10
:10228000014634B129B9404621463A4600F034FEB1
:10229000014631B30120012908BF4FF0FF30BDE8EE
:1022A000F0814FF0FF30BDE8F0812F460137D8F8BC
:1022B0001400874228BF022701D3022D0ED33046D7
:1022C000394600F77DFE411CE9D00028D2D0012814
:1022D000E5D0AF424FF00000E8D1E0E70020BDE8D4
:1022E000F081D8F81000C8F80C7020B1D8F814109C
:1022F0000239884202D93846BDE8F08198F80510C5
:102300000138C8F8100041F0010088F8050038468F
:10231000BDE8F08100000000B0B58EB044F2E840A6
:102320000025C5F60200CDE90C55CDE90A55016836
:1023300041F002010160006800F002000290029882
:10234000FEF63EFD044602A801A9FEF7B9FF079874
:102350004DF683610028C4F21B3118BF01204FF0F5
:10236000FF3204FA00F041F21824A0FB0101C2F28E
:10237000004440F20040C4F20000206002EB9140B3
:10238000A561C4E901054FF6FF70C4E903052046C5
:10239000FFF736F94FF480500A900AA92046FFF65D
:1023A000F7FA2046FFF69CFA0EB0B0BD0000000020
:1023B000002808BF70473D2801D3FEF64DBB41F20F
:1023C00018214FF47A72C2F20041504309684A6AF8
:1023D0004B6A9B1A38BF03F580338342F8D37047AA
:1023E000B0B50546816804684FF000002861C1B1AE
:1023F00019B3608968B163698A1E023B9A4217D299
:10240000A36A02FB00301CE0022924D360698142E8
:1024100021D2284600F7D4FD01460130F4D1012035
:102420001AE02078032805D3616A0029E1D104E08D
:10243000002006E000210029DBD1208958B1606A24
:102440000021C5E9051030B104F13000E861002039
:10245000012119B913E00220002181B1A9692046A8
:1024600000F002FD58B9E9690978002918BFE5298B
:1024700005D00121284600F73BFA0028EED00428B9
:1024800008BF072000B1B0BDA969204600F0ECFCF0
:10249000002818BFB0BDE9690022CA618A614A619B
:1024A0000A61CA608A604A600A60E9692A6A6B6ADE
:1024B000D5F82750C1F807504B600A6001212171FF
:1024C000B0BD00000000000000281CBF01207047C4
:1024D00010B54EF6167400F7DBF8A04201D10120CA
