:020000040800F2
:10000000C009002445030008590300085B030008E9
:10001000390C00085F0300086103000800000000BD
:100020000000000000000000000000006303000862
:10003000650300080000000067030008690300086A
:100040006B0300086B0300086B0300086B030008D8
:100050006B0300086B0300086B0300086B030008C8
:100060006B0300086B0300086B0300086B030008B8
:100070006B0300086B0300086B0300086B030008A8
:100080006B0300086B0300086B0300086B03000898
:100090006B0300086B0300086B0300086B03000888
:1000A0006B0300086B0300086B0300086B03000878
:1000B0006B0300086B0300086B0300086B03000868
:1000C0006B0300086B0300086B0300086B03000858
:1000D0006B030008990C00086B0300086B03000811
:1000E0006B0300086B030008000000006B030008AE
:1000F0006B0300086B0300086B0300086B03000828
:100100006B0300086B0300086B0300086B03000817
:100110006B0300086B0300086B0300086B03000807
:100120006B0300086B0300086B0300086B030008F7
:100130006B0300086B0300086B0300086B030008E7
:1001400000000000000000000000000000000000AF
:100150006B0300086B0300086B0300086B030008C7
:100160006B0300086B0300086B0300086B030008B7
:100170006B0300086B0300086B030008000000001D
:100180006B0300086B0300086B0300086B03000897
:100190006B0300086B0300086B0300086B03000887
:1001A0006B0300086B0300086B0300086B03000877
:1001B0006B0300086B0300086B0300086B03000867
:1001C0006B0300086B0300086B0300086B03000857
:1001D0006B0300086B0300086B0300086B03000847
:1001E0006B0300086B0300086B0300086B03000837
:1001F0006B0300086B0300086B0300086B03000827
:100200006B0300086B0300086B0300086B03000816
:100210006B0300086B0300086B0300086B03000806
:100220006B0300086B0300086B030008000000006C
:100230006B0300086B030008000000006B0300085C
:100240006B0300086B0300086B0300086B030008D6
:100250006B0300086B0300086B0300086B030008C6
:100260006B0300086B0300086B0300086B030008B6
:100270006B0300086B0300086B030008000000001C
:100280006B0300086B0300086B030008000000000C
:10029000000000006B03000800F002F800F042F8D4
:1002A0000AA090E8000C82448344AAF10107DA45D1
:1002B00001D100F037F8AFF2090EBAE80F0013F0E1
:1002C000010F18BFFB1A43F001031847A85700009D
:1002D000C8570000103A24BF78C878C1FAD852072E
:1002E00024BF30C830C144BF04680C6070470000B0
:1002F0000023002400250026103A28BF78C1FBD82F
:10030000520728BF30C148BF0B6070471FB502F1CC
:10031000FDFAFFF03FFF04000020002102F1E0FAA7
:10032000E0601FBDFFF0F0FF1146FFF7EFFF01F1A6
:100330007BFF00F0F1FB03B4FFF070FE03BC00F0A4
:10034000F8FC0000DFF83000016841F47001016042
:10035000BFF34F8F09480047FEE7FEE7FEE7FEE7E1
:10036000FEE7FEE7FEE7FEE7FEE7FEE70448054995
:10037000034A054B7047000088ED00E09902000831
:10038000C0010024C0090024C00100240FB41CB522
:10039000074B06AA7B4469460090059800F049FB8C
:1003A00000206946FFF0DFFE1CBC5DF814FB000076
:1003B000CFFD0F0070B50C460546012A05D0287800
:1003C000800600D5EA69002302E0012305E05B1CFA
:1003D000934202D2E05C0028F9D1A869E618C01A5D
:1003E000A861286A184428622846AFF3008004E018
:1003F000D5E9012114F8010B9047B442F8D32846FF
:10040000AFF3008070BD000070B504460D46214674
:100410001068AFF300802188090502D50F4A7A449D
:1004200002E00E4A7A440E32002104F1240305E072
:1004300000F00F060009965D5E54491C0028F7D1B4
:1004400020780023000704D5702D02D009B10223C3
:1004500011322046BDE87040FFF02CBE8E541000D3
:100460002DE9F05F894604464FF0000ADFF824B119
:10047000FB44C0F820A02046E168884700287DD0D2
:10048000252806D0D4E901219047206A401C20622B
:10049000F1E700255F462046E168884720280646A8
:1004A00007DB312E05D2B81910F8200C08B105432E
:1004B000F1E7A80701D525F00405C4F81CA0002722
:1004C000C4F818A02A2E09D0304600F02BFC38B30F
:1004D00004EB8708303EC8F8186019E059F8041B8F
:1004E000204604EB87029161E1688847012F0646A8
:1004F00018D1E069002820DA25F020051DE0D8F8A1
:10050000180000EB800006EB40003038C8F81800F7
:100510002046E1688847064600F004FC0028EED13A
:10052000012F0AD02E2E08D12046E16888477F1C73
:100530000646022F45F02005C4DBA069002803DA37
:10054000404245F00105A061E80701D025F0100503
:10055000A6B1A6F14100192802D8203645F400655D
:100560004A463146204625604D46FFF049FD60B1C0
:10057000012807D0ED1D25F0070000E007E000F19D
:10058000080978E705F1040975E730467AE7206A3B
:10059000BDE8F09F645410004FF0013C50F8042B6C
:1005A00051F8043B9A4215D1A2EB0C03934313EA92
:1005B000CC130BD150F8042B51F8043B9A4209D1CB
:1005C000A2EB0C03934313EACC13E7D04FF00000E7
:1005D000704700BFD01A01BAB1FA81F101F01801D9
:1005E00022FA01F0CB40C1F12001DBB2C0B2C01A47
:1005F0002CFA01F3D11A914311EAC311E6D17047E5
:10060000704770477047704770472DE9FF4F0C46A1
:100610001E464FF0FF378BB0D2E90001DDF8608055
:100620000A908A46C1F30A5505B93D46002108469D
:100630004FF00000BAF1000F00F4400005DA00EBC3
:1006400080004FF4400101EA50004FEA9059B9F19F
:10065000010F00DDB9460A9850EA4A000ED044F670
:100660001050A5F2FF3545432F14B8F1000F1ED0EE
:100670007542291E1EDDC9F100021CE0B8F1010F10
:100680004FF0000001D0302103E0F24305E0215497
:10069000401CB042FBDB30460022002121540B9964
:1006A000C1F80880C1E900200FB0BDE8F08FBD1B84
:1006B0006D1CDEE74A4600DA694206A8FFF0AEFD8F
:1006C00006AB93E8070003AB83E8070050460A999E
:1006D00000F02BFA8DE80700A0F500501F380090BD
:1006E0000398002D0ADD42F21F014A460844002308
:1006F00003A90390684600F136F809E0A0F5005020
:100700004A461F38002303A90390684600F07FFA89
:100710008DE807000004000C03D04FF0FF304108C3
:1007200000E01046B8F1000F03D0002200921546F9
:100730001EE0751E05D400F0A5F9303262556D1E1D
:10074000F9D5B3460122084302D000227F1C04E001
:100750002078302801D100227F1E002A099784D0FA
:100760001DE0112D07DA00F08DF9303262556D1C55
:1007700050EA0102F5D1084302D00098C8B10EE05A
:100780000021681E05E0235C625C63542254401E15
:10079000491C8142F7DBAB46A81B401E0990002094
:1007A00004F80B000B98099AC0F80880C0E9002BE8
:1007B0007AE711264FF0000857E72DE9F04F8846F9
:1007C0000446D21D22F0070191B0D1E90001CDE924
:1007D0000A0100F105F902460B98C00F01D02D2047
:1007E00007E02068810701D52B2002E0202101EAE3
:1007F000C000032A099001D0072A05DB03464146C1
:100800002046FFF0CBFC0BE12078800601D5E069A3
:1008100000E00620B8F1650F814606D0B8F1660FFA
:1008200018D0B8F1670F70D131E00020B9F1110F85
:10083000009001DB112301E009F101030AAA01A9DB
:100840000CA8FFF7E2FEDDE90C70002609F10105B6
:10085000834647E001204B4600904FF000470AAA2C
:1008600001A90CA8FFF7D1FEDDE90DB00C995D469A
:10087000002610B909F101000D18B9EB050003D4E9
:10088000C0F1FF3609F10105A5EB09002BE0B9F134
:10089000010F01DA4FF001090020B9F1110F0090AA
:1008A000484601DD112300E003460AAA01A90CA86D
:1008B000FFF7ABFEDDE90C704D460026834620783D
:1008C00000070AD4AB4500DA5D4601A8012D04DD1E
:1008D000411911F8011C302907D04F4502DA17F1F0
:1008E000040F04DA012082460FE06D1EEEE7002FB0
:1008F00002DCED1B3E4403E0781CA84200DD7D1CB9
:10090000B81B00F1010A4FF000472078000703D41C
:10091000AA4501DB4FF0FF3A0021B7F1004F0DF17E
:1009200043088DF8431024D002202B23002F01DA36
:100930007F422D230A21021EA0F1010000DC5FB1DD
:1009400097FBF1FC97FBF1F201FB1C7C17460CF1C5
:10095000300C08F801CDEEE7A8F101000370218802
:10096000090501D5452100E06521A0F1010800F845
:10097000011C09980FA9A1EB0807FF1D00B1012078
:10098000411901EBEA70A1693844081A401EA061C0
:100990002078C00602D42046AFF30080099828B121
:1009A000D4E901219047206A401C20622078C006CB
:1009B00022D52046AFF300801EE0002E04DBB345B5
:1009C00002DD01A8805D00E03020D4E901219047DC
:1009D000206A401C2062761CAAF101005FEA000A2E
:1009E0000AD1FFF0D7FBC0680168405CD4E901215F
:1009F0009047206A401C2062281EA5F10105DCDC1E
:100A000007E0D4E9012118F8010B9047206A401C47
:100A10002062381EA7F10107F3DC2046AFF3008007
:100A2000032011B041E6000001694A1C0261087808
:100A3000704700B58FB0CDE901310021059105491E
:100A40007944CDE9031011466846FFF709FD0FB060
:100A500000BD0000E5FFFFFF10B5436913B1AFF320
:100A6000008001E0FFF7A6FC012010BD127800F124
:100A700024010A7000224A700122EDE711684FF04C
:100A8000FF32E9E730B5B0F10A024FEA900E71F19A
:100A900000034EEA817EB0EB0E0061EB91014FEA5C
:100AA000101E4EEA017E10EB0E0041EB11114FEAD1
:100AB000102E4EEA016E10EB0E0041EB11214FEAB1
:100AC000104E4EEA014E10EB0E0041EB1141401862
:100AD00041F100014FEAD00040EA41704FEAD101F4
:100AE00010EB80054FEA810444EA907444EB010462
:100AF0006D1944EB0404521BA3414FF0000348BF9F
:100B00000A3200D530BD401C41F1000130BD00006B
:100B1000004870476001002410B50446AFF3008020
:100B20002046BDE81040FFF706BC5FEA400C08BF56
:100B300091F0000F4FEA8C234FEAC12243EA515152
:100B40004FEA1C5018BF00F5F0404FEA300018BFC4
:100B500041F000415FEA6C5C00F02980BCF1FF3F8E
:100B600008BF40F080407047130C06BF12044FF0DE
:100B7000100C4FF0000C130E04BF12020CF1080C05
:100B8000130F04BF12010CF1040C930F04BF920069
:100B90000CF1020CD30F04BF52000CF1010C1146F2
:100BA0004FF00002A0F11F00A0EB0C00704711F005
:100BB000004F08BF704731F000413FF4D5AF0B0C38
:100BC00006BF09044FF0100C4FF0000C0B0E04BFD1
:100BD00009020CF1080C0B0F04BF09010CF1040C05
:100BE0008B0F04BF89000CF1020CCB0F04BF49002E
:100BF0000CF1010CCCF12003A0EB0C0022FA03F362
:100C000002FA0CF241EA030100F1010070472DE9FC
:100C1000804C9A46934670B491E8380007C810F0AB
:100C2000804F08BF13F0804F03D1FFF0B1FDFFF0FC
:100C30002CFDF0BCBDE8008C10B5002201210A4853
:100C400004F070F909A0FFF0EDF94FF47A7000F0AC
:100C500031F90CA0FFF0E6F94FF47A7000F02AF9B0
:100C600004F02CFA10BD0000000402584D656D2000
:100C7000416363657373204572726F7221210D0A9F
:100C800000000000536F6674205265736574696ECE
:100C9000672E2E2E0D0A00001F49C96901F02001A0
:100CA00009B31D49496AC8B21C49098801F40041C9
:100CB000C9B91A49098801F4804161B10A2803D0F1
:100CC0000021164A118020E01449098841F40041AE
:100CD000124A118019E00D2806D11049098841F403
:100CE00080410E4A118010E00C490988C1F30D01C2
:100CF0000B4A505409490988491C084A1180114679
:100D00000988C72901DD002111800349096A41F0E2
:100D10000801014A116270470010014008000024D8
:100D20006800002430380A2801D2012070470020D2
:100D3000704700BF704770B50446002600F176FB8F
:100D40002112A02202EB4101C8B200F069FA00F0C2
:100D50008DFA2546E11704EB11610912A4EB01217C
:100D6000C8B200F05DFA00F081FA00F15FFBA1204B
:100D700000F056FA00F07AFA002000F12DFB06464A
:100D800000F172FB304670BD70B505460C46164644
:100D900006E02178284600F009F8681C85B2641C3A
:100DA000301EA6F101018EB2F3D170BD70B50446BC
:100DB0000E4600F13BFB2112A02202EB4101C8B21A
:100DC00000F02EFA00F052FA2546E11704EB11610B
:100DD0000912A4EB0121C8B200F022FA00F046FA91
:100DE000304600F01DFA00F041FA00F13DFB0A2008
:100DF00000F060F870BD00001CB500BF114800682D
:100E000040F080000F49086000BF00BF084600683E
:100E100040F48070086000BF012000900346024645
:100E200040210190084804F089F801200090034611
:100E3000024608210190054804F080F8FFF09AFE70
:100E40001CBD0000E0440258001C0258002002585B
:100E500010B5012208210A4804F064F8FFF010FEE2
:100E600001224021074804F05DF8FFF009FE00224E
:100E70004021044804F056F8FFF002FE10BD0000C7
:100E800000200258001C02584FF0E021096941F08F
:100E900004014FF0E022116105490860114609691B
:100EA00041F0010111616FF0704151617047000024
:100EB0000000002410B504464FF47A7104FB01F0E1
:100EC000FFF03EFF10BD000000BF054AD26902F0EE
:100ED0004002002AF9D0C2B2014B9A62704700006A
:100EE000001001400EB500BF3B48006840F4807020
:100EF0003949086000BF00BF0846006840F0800024
:100F0000086000BF0120009000230246010201900A
:100F1000324804F013F80120009000231A46802183
:100F200001902F4804F00AF8FFF766FF00224FF403
:100F300080712A4803F0F6FF1420FFF7BBFF01225F
:100F40001102264803F0EEFF3220FFF7B3FF002026
:100F50008DF80800012202A9FFF016FF012202A964
:100F6000A420FFF011FF16208DF80800012202A92D
:100F70008020FFF009FF0C208DF80800012202A953
:100F80008820FFF001FF022202A9A12000F030F822
:100F90009DF80800302803D19DF8090003280DD0E2
:100FA0009DF80900012809D09DF80900022805D004
:100FB0009DF8080068B99DF8090050B99DF809002E
:100FC0009DF8082000EB022106A0FFF02BF800207E
:100FD0000EBD0120FCE70000E0440258002002584A
:100FE000001C02584354502049443A25780D0A0009
:100FF0002DE9F04106460F461546FFF09BFD702097
:10100000FFF070FDFFF0D2FDF0B2FFF06BFDFFF0DE
:10101000CDFDFFF08FFD7120FFF064FDFFF0C6FDF8
:1010200000240BE0691EA14201D0012100E0002153
:101030000846FFF02BFD3855601CC4B2AC42F1DB12
:10104000FFF098FDBDE8F0812DE9FC410746002046
:1010500001900024002661480078401C5F49087018
:10106000084600780A2190FBF1F201FB120018B14A
:101070005A4800780A2867DA012201A90220FFF7FE
:10108000B7FF9DF8040000F00F0000285CD09DF829
:10109000040000F00F0006287BDA9DF8040000F041
:1010A0000F014FF6FF70884085B2E84380B240F4EC
:1010B00040404B4988860420FFF7FCFE00245AE09C
:1010C0004748808E0121A1400840E0B3454931F8EE
:1010D000140004226946FFF78BFF414890F8440052
:1010E00000F00100C0B19DF801009DF8001001F072
:1010F0000F0100EB01203A49203121F814009DF83E
:1011000003009DF8021001F00F0100EB01213448AB
:101110000C3020F814101EE09DF801009DF800101E
:1011200001F00F0100EB01202F490988081A81B254
:101130002B480C3020F814109DF803009DF8021085
:1011400001F00F0101E014E023E000EB012024494D
:10115000203121F814009DF8000000F0F0008028F4
:1011600007D000211E48203020F81410143820F831
:101170001410601CC4B2052CA2DB0126184880891B
:1011800020B91748008C08B90020019000201349AD
:1011900008709DF8040000F01F00A8B91048808E68
:1011A00000F4004030B10E48808E20F400400C491D
:1011B000888609E04FF6FF7009498881088408464F
:1011C000808E00F46040888604480078F02802DDB4
:1011D0000A20024908703046BDE8FC811C0000244A
:1011E00020000024685A00083001002410B50122B4
:1011F00020210A4803F096FE00F1BEF801221021DA
:10120000064803F08FFE00F1B7F8002210210348D2
:1012100003F088FE00F1B0F810BD0000001C025879
:1012200070B50446002516E0E20920210E4803F0BF
:1012300079FE00F1A1F8012210210B4803F072FEA3
:1012400000F19AF800221021074803F06BFE6006B7
:10125000040E681CC5B2082DE6DB012220210248DD
:1012600003F060FE70BD0000001C025870B5002441
:10127000002501222021124803F054FE00F17CF8E1
:10128000012210210E4803F04DFE00F175F807E031
:10129000601CC4B2FA2C03DD00F1E6F8012505E07C
:1012A0002021074803F036FE0028F1D100BF0022BC
:1012B0001021034803F036FE00F15EF8284670BDA9
:1012C000001C02581CB500BF2048006840F0800098
:1012D0001E49086000BF00BF0846006840F080005B
:1012E000086000BF00BF0846006840F004000860C6
:1012F00000BF00BF0846006840F00100086000BF62
:101300000120009000231A4608210190104803F0A4
:1013100015FE0120009000231A46042101900C487C
:1013200003F00CFE0120009000231A4641030190B7
:10133000084803F003FE0220012100231A46CDE9EC
:101340000010054803F0FAFD1CBD0000E0440258FF
:10135000001C0258000802580000025810B504464C
:10136000604884716048006850B1204600F188FDF3
:101370005D48C08A5B4908805B48008B488010BD8F
:10138000002C58D1F020574908804FF4A0704880B5
:101390000846808845F21051884210D14FF43050F1
:1013A000504908814FF4285048814FF42C508881CF
:1013B0004FF4F07008804FF4487048801AE04948B4
:1013C000808841F6631188420DD12C20454908815F
:1013D0002B2048812A2088814FF4F07008804FF438
:1013E0004870488006E02C203E4908812A20488128
:1013F0002B2088813B48808845F21031884205D0F7
:101400003848808847F29671884206D14FF4A07020
:10141000344908804FF4F07048803248808849F69B
:101420000601884258D14FF4F0702E4908804FF4DD
:101430004870488050E04FF4A0702A490880F0209E
:1014400048800846808845F21051884210D14FF4F8
:101450003050244908814FF4285048814FF42C50D3
:1014600088814FF4487008804FF4F070488020E085
:101470001C48808841F66311884205D0194880884D
:1014800049F6060188420DD12C20164908812A20F0
:1014900048812B2088814FF4487008804FF4F07009
:1014A000488006E02C200F4908812A2048812B2003
:1014B00088810C48808845F21031884205D009485F
:1014C000808847F29671884206D14FF4F070054942
:1014D00008804FF4A0704880002000F18FF900BF11
:1014E0004DE7000030010024400100242DE9FF4FAA
:1014F00085B080468946129F002003900290B8452F
:1015000007DB0798B84204DBB94502DB0898B8420C
:1015100002DA09B0BDE8F08F0798A0EB080408983C
:10152000A0EB0905CDF80480CDF80090002C02DD79
:101530004FF0010A06E014B94FF0000A02E04FF044
:10154000FF3A6442002D02DD4FF0010B06E015B9B1
:101550004FF0000B02E04FF0FF3B6D42AC4201DD6B
:10156000264600E02E460020049023E0009A91B227
:10157000019A90B23A46139B02F0DBFB0398204499
:1015800003900298284402900398B04205DD039826
:10159000801B03900198504401900298B04205DDF1
:1015A0000298801B02900098584400900498401CB8
:1015B00080B20490711C04988842D7DD00BFA8E770
:1015C000F8B504460D4616461F463EB10948008848
:1015D000A04203DB07484088A84200DAF8BDA01902
:1015E000401E82B22B4629462046009700F1BEF8E5
:1015F00000BFF3E7300100242DE9FF4F85B081469D
:101600008A460020039083460798A0EB09050898B6
:10161000A0EB0A06CDF80890CDF804A0002D01DD5E
:10162000012705E00DB9002702E04FF0FF376D42BA
:10163000002E02DD4FF0010806E016B94FF0000859
:1016400002E04FF0FF387642B54201DD2C4600E063
:101650003446002004901EE0019A91B2029A90B2A2
:10166000129AFFF095FF039828440390B34403981F
:10167000A04205DD0398001B0390029838440290B5
:10168000A34504DDABEB040B0198404401900498A2
:10169000401C80B20490611C04988842DCDD09B0D3
:1016A000BDE8F08F10B5CF2002F0EAFE002000F177
:1016B0001BFBC12000F118FB302000F115FBED20D1
:1016C00002F0DEFE642000F10FFB032000F10CFBB2
:1016D000122000F109FB812000F106FBE82002F056
:1016E000CFFE852000F100FB102000F1FDFA7A20EA
:1016F00000F1FAFACB2002F0C3FE392000F1F4FA2F
:101700002C2000F1F1FA002000F1EEFA342000F173
:10171000EBFA022000F1E8FAF72002F0B1FE2020F7
:1017200000F1E2FAEA2002F0ABFE002000F1DCFA60
:10173000002000F1D9FAC02002F0A2FE1B2000F127
:10174000D3FAC12002F09CFE012000F1CDFAC520A1
:1017500002F096FE302000F1C7FA302000F1C4FA02
:10176000C72002F08DFEB72000F1BEFA362002F04D
:1017700087FE482000F1B8FA3A2002F081FE552099
:1017800000F1B2FAB12002F07BFE002000F1ACFAC9
:101790001A2000F1A9FAB62002F072FE0A2000F128
:1017A000A3FAA22000F1A0FAF22002F069FE0020C4
:1017B00000F19AFA262002F063FE012000F194FA6B
:1017C000E02002F05DFE0F2000F18EFA2A2000F1E9
:1017D0008BFA282000F188FA082000F185FA0E2003
:1017E00000F182FA082000F17FFA542000F17CFA1F
:1017F000A92000F179FA432000F176FA0A2000F1DD
:1018000073FA0F2000F170FA002000F16DFA002049
:1018100000F16AFA002000F167FA002000F164FA92
:10182000E12002F02DFE002000F15EFA152000F10B
:101830005BFA172000F158FA072000F155FA112041
:1018400000F152FA062000F14FFA2B2000F14CFA79
:10185000562000F149FA3C2000F146FA052000F13B
:1018600043FA102000F140FA0F2000F13DFA3F202A
:1018700000F13AFA3F2000F137FA0F2000F134FA74
:101880002B2002F0FDFD002000F12EFA002000F1D7
:101890002BFA012000F128FA3F2000F125FA2A2036
:1018A00002F0EEFD002000F11FFA002000F11CFA0A
:1018B000002000F119FAEF2000F116FA112002F0D1
:1018C000DFFD7820FFF7F6FA292002F0D9FD10BDE0
:1018D00010B5FF2002F0D4FDFF2000F105FA98209A
:1018E00000F102FA062000F1FFF9BC2002F0C8FD69
:1018F000012000F1F9F90F2000F1F6F9612000F163
:10190000F3F9FF2000F1F0F9012000F1EDF90120D9
:1019100000F1EAF90B2000F1E7F9102000F1E4F9F9
:10192000372000F1E1F9632000F1DEF9FF2000F13A
:10193000DBF9FF2000F1D8F9012000F1D5F90120F1
:1019400000F1D2F9002000F1CFF9002000F1CCF92C
:10195000FF2000F1C9F9522000F1C6F9012000F181
:10196000C3F9002000F1C0F9402000F1BDF9BD200D
:1019700002F086FD012000F1B7F9232000F1B4F94F
:10198000452000F1B1F9672000F1AEF9012000F126
:10199000ABF9232000F1A8F9452000F1A5F9672053
:1019A00000F1A2F9BE2002F06BFD002000F19CF9CD
:1019B000012000F199F9AB2000F196F9602000F1C7
:1019C00093F9222000F190F9222000F18DF92220D4
:1019D00000F18AF9222000F187F9222000F184F930
:1019E000C72002F04DFD362000F17EF9ED2002F017
:1019F00047FD7F2000F178F90F2000F175F9C02034
:101A000002F03EFD0F2000F16FF90B2000F16CF9A0
:101A10000A2000F169F9FC2002F032FD082000F1F3
:101A200063F9DF2002F02CFD002000F15DF90020B9
:101A300000F15AF9002000F157F9002000F154F9A3
:101A4000002000F151F9202000F14EF9F32002F0BE
:101A500017FD742000F148F9B42002F011FD0020B8
:101A600000F142F9002000F13FF9002000F13CF9BB
:101A7000F72002F005FD822000F136F9B12002F0D6
:101A8000FFFC002000F130F9132000F12DF91320A4
:101A900000F12AF9F22002F0F3FC802000F124F991
:101AA000042000F121F9402000F11EF9282000F166
:101AB0001BF9C12002F0E4FC172000F115F9882081
:101AC00000F112F9882000F10FF9202000F10CF943
:101AD000E02002F0D5FC002000F106F90A2000F118
:101AE00003F9122000F100F9102000F1FDF80E209A
:101AF00000F1FAF8202000F1F7F8CC2000F1F4F81A
:101B0000072000F1F1F8062000F1EEF80B2000F1BB
:101B1000EBF80E2000F1E8F80F2000F1E5F80D20B9
:101B200000F1E2F8152000F1DFF8102000F1DCF8F8
:101B3000002000F1D9F8E12002F0A2FC002000F121
:101B4000D3F80B2000F1D0F8132000F1CDF80D20D0
:101B500000F1CAF80E2000F1C7F81B2000F1C4F80C
:101B6000712000F1C1F8062000F1BEF8062000F156
:101B7000BBF80A2000F1B8F80F2000F1B5F80E20EC
:101B800000F1B2F80F2000F1AFF8152000F1ACF829
:101B90000C2000F1A9F8002000F1A6F82A2002F09C
:101BA0006FFC002000F1A0F8002000F19DF801205A
:101BB00000F19AF8DF2000F197F82B2002F060FC8A
:101BC000002000F191F8002000F18EF8032000F1D0
:101BD0008BF81F2000F188F83A2002F051FC5520C4
:101BE00000F182F8362002F04BFC002000F17CF876
:101BF000112002F045FC7820FFF75CF9292002F063
:101C00003FFC1420FFF756F92C2002F039FC10BDE0
:101C100010B5ED2002F034FC012000F165F8FE2043
:101C200000F162F8EE2002F02BFCDE2000F15CF8FF
:101C3000212000F159F8F12002F022FC012000F1EE
:101C400053F8DF2002F01CFC102000F14DF8C420F6
:101C500002F016FC8F2000F147F8C62002F010FCBD
:101C6000002000F141F8E22000F13EF8E22000F10E
:101C70003BF8E22000F138F8BF2002F001FCAA2076
:101C800000F132F8B02002F0FBFB0D2000F12CF83F
:101C9000002000F129F80D2000F126F8002000F1C5
:101CA00023F8112000F120F8002000F11DF8192080
:101CB00000F11AF8002000F117F8212000F114F8C3
:101CC000002000F111F82D2000F10EF8002000F1A5
:101CD0000BF83D2000F108F8002000F105F85D2028
:101CE00000F102F80020FFF0FFFF5D20FFF0FCFF95
:101CF0000020FFF0F9FFB12002F0C2FB8020FFF0CE
:101D0000F3FF0020FFF0F0FF8B20FFF0EDFF00203D
:101D1000FFF0EAFF9620FFF0E7FF0020FFF0E4FF6E
:101D2000B22002F0ADFB0020FFF0DEFF0020FFF04C
:101D3000DBFF0220FFF0D8FF0020FFF0D5FF0320DB
:101D4000FFF0D2FF0020FFF0CFFFB32002F098FB9E
:101D50000020FFF0C9FF0020FFF0C6FF0020FFF0C9
:101D6000C3FF0020FFF0C0FF0020FFF0BDFF0020F8
:101D7000FFF0BAFF0020FFF0B7FF0020FFF0B4FF34
:101D80000020FFF0B1FF0020FFF0AEFF0020FFF0C9
:101D9000ABFF0020FFF0A8FF0020FFF0A5FF002010
:101DA000FFF0A2FF0020FFF09FFF0020FFF09CFF4C
:101DB0000020FFF099FF0020FFF096FF0020FFF0C9
:101DC00093FF0020FFF090FF0020FFF08DFF002028
:101DD000FFF08AFF0020FFF087FF0020FFF084FF64
:101DE000B42002F04DFB8B20FFF07EFF0020FFF0BF
:101DF0007BFF9620FFF078FF0020FFF075FFA12009
:101E0000FFF072FF0020FFF06FFFB52002F038FBFB
:101E10000220FFF069FF0020FFF066FF0320FFF0C3
:101E200063FF0020FFF060FF0420FFF05DFF002053
:101E3000FFF05AFFB62002F023FB0020FFF054FF12
:101E40000020FFF051FFB72002F01AFB0020FFF046
:101E50004BFF0020FFF048FF3F20FFF045FF002030
:101E6000FFF042FF5E20FFF03FFF0020FFF03CFF4D
:101E70006420FFF039FF0020FFF036FF8C20FFF0D8
:101E800033FF0020FFF030FFAC20FFF02DFF0020DB
:101E9000FFF02AFFDC20FFF027FF0020FFF024FFE7
:101EA0007020FFF021FF0020FFF01EFF9020FFF0C8
:101EB0001BFF0020FFF018FFEB20FFF015FF0020B4
:101EC000FFF012FFDC20FFF00FFF0020FFF00CFFFF
:101ED000B82002F0D5FA0020FFF006FF0020FFF046
:101EE00003FF0020FFF000FF0020FFF0FDFE0020B8
:101EF000FFF0FAFE0020FFF0F7FE0020FFF0F4FEF6
:101F00000020FFF0F1FEBA2002F0BAFA2420FFF020
:101F1000EBFE0020FFF0E8FE0020FFF0E5FE0020D1
:101F2000FFF0E2FEC12002F0ABFA2020FFF0DCFE61
:101F30000020FFF0D9FE5420FFF0D6FE0020FFF075
:101F4000D3FEFF20FFF0D0FE0020FFF0CDFEC22028
:101F500002F096FA0A20FFF0C7FE0020FFF0C4FE50
:101F60000420FFF0C1FE0020FFF0BEFEC32002F0FF
:101F700087FA3C20FFF0B8FE0020FFF0B5FE3A20C3
:101F8000FFF0B2FE0020FFF0AFFE3920FFF0ACFE04
:101F90000020FFF0A9FE3720FFF0A6FE0020FFF092
:101FA000A3FE3C20FFF0A0FE0020FFF09DFE3620A7
:101FB000FFF09AFE0020FFF097FE3220FFF094FE23
:101FC0000020FFF091FE2F20FFF08EFE0020FFF09A
:101FD0008BFE2C20FFF088FE0020FFF085FE2920DC
:101FE000FFF082FE0020FFF07FFE2620FFF07CFE47
:101FF0000020FFF079FE2420FFF076FE0020FFF0A5
:1020000073FE2420FFF070FE0020FFF06DFE232001
:10201000FFF06AFE0020FFF067FE3C20FFF064FE48
:102020000020FFF061FE3620FFF05EFE0020FFF092
:102030005BFE3220FFF058FE0020FFF055FE2F20FF
:10204000FFF052FE0020FFF04FFE2C20FFF04CFE70
:102050000020FFF049FE2920FFF046FE0020FFF09F
:1020600043FE2620FFF040FE0020FFF03DFE24202E
:10207000FFF03AFE0020FFF037FE2420FFF034FE90
:102080000020FFF031FE2320FFF02EFE0020FFF0A5
:102090002BFEC42002F0F4F96220FFF025FE0020A0
:1020A000FFF022FE0520FFF01FFE0020FFF01CFEC7
:1020B0008420FFF019FE0020FFF016FEF020FFF054
:1020C00013FE0020FFF010FE1820FFF00DFE002090
:1020D000FFF00AFEA420FFF007FE0020FFF004FE40
:1020E0001820FFF001FE0020FFF0FEFD5020FFF061
:1020F000FBFD0020FFF0F8FD0C20FFF0F5FD0020B7
:10210000FFF0F2FD1720FFF0EFFD0020FFF0ECFDE7
:102110009520FFF0E9FD0020FFF0E6FDF320FFF041
:10212000E3FD0020FFF0E0FDE620FFF0DDFD0020F4
:10213000FFF0DAFDC52002F0A3F93220FFF0D4FD54
:102140000020FFF0D1FD4420FFF0CEFD0020FFF085
:10215000CBFD6520FFF0C8FD0020FFF0C5FD762017
:10216000FFF0C2FD0020FFF0BFFD8820FFF0BCFDA6
:102170000020FFF0B9FDC62002F082F92020FFF018
:10218000B3FD0020FFF0B0FD1720FFF0ADFD0020F3
:10219000FFF0AAFD0120FFF0A7FD0020FFF0A4FD45
:1021A000C72002F06DF90020FFF09EFD0020FFF037
:1021B0009BFD0020FFF098FD0020FFF095FDC8205A
:1021C00002F05EF90020FFF08FFD0020FFF08CFD93
:1021D0000020FFF089FD0020FFF086FDC92002F0FD
:1021E0004FF90020FFF080FD0020FFF07DFD002072
:1021F000FFF07AFD0020FFF077FD0020FFF074FD76
:102200000020FFF071FD0020FFF06EFD0020FFF0C8
:102210006BFD0020FFF068FD0020FFF065FD002051
:10222000FFF062FD0020FFF05FFD0020FFF05CFD8D
:102230000020FFF059FD0020FFF056FD0020FFF0C8
:1022400053FDE02002F01CF91620FFF04DFD0020A8
:10225000FFF04AFD1C20FFF047FD0020FFF044FD89
:102260002120FFF041FD0020FFF03EFD3620FFF071
:102270003BFD0020FFF038FD4620FFF035FD00203B
:10228000FFF032FD5220FFF02FFD0020FFF02CFD6B
:102290006420FFF029FD0020FFF026FD7A20FFF0EA
:1022A00023FD0020FFF020FD8B20FFF01DFD00200E
:1022B000FFF01AFD9920FFF017FD0020FFF014FD3C
:1022C000A820FFF011FD0020FFF00EFDB920FFF067
:1022D0000BFD0020FFF008FDC420FFF005FD0020ED
:1022E000FFF002FDCA20FFF0FFFC0020FFF0FCFC25
:1022F000D220FFF0F9FC0020FFF0F6FCD920FFF01F
:10230000F3FC0020FFF0F0FCE020FFF0EDFC0020EB
:10231000FFF0EAFCF320FFF0E7FC0020FFF0E4FC14
:10232000E12002F0ADF81620FFF0DEFC0020FFF007
:10233000DBFC1C20FFF0D8FC0020FFF0D5FC2220A5
:10234000FFF0D2FC0020FFF0CFFC3620FFF0CCFCE9
:102350000020FFF0C9FC4520FFF0C6FC0020FFF084
:10236000C3FC5220FFF0C0FC0020FFF0BDFC642045
:10237000FFF0BAFC0020FFF0B7FC7A20FFF0B4FCBD
:102380000020FFF0B1FC8B20FFF0AEFC0020FFF03E
:10239000ABFC9920FFF0A8FC0020FFF0A5FCA820D2
:1023A000FFF0A2FC0020FFF09FFCB920FFF09CFC96
:1023B0000020FFF099FCC420FFF096FC0020FFF005
:1023C00093FCCA20FFF090FC0020FFF08DFCD2208F
:1023D000FFF08AFC0020FFF087FCD820FFF084FC8F
:1023E0000020FFF081FCE020FFF07EFC0020FFF0E9
:1023F0007BFCF320FFF078FC0020FFF075FCE2206E
:1024000002F03EF80520FFF06FFC0020FFF06CFCAE
:102410000B20FFF069FC0020FFF066FC1B20FFF0A2
:1024200063FC0020FFF060FC3420FFF05DFC002026
:10243000FFF05AFC4420FFF057FC0020FFF054FC52
:102440004F20FFF051FC0020FFF04EFC6120FFF018
:102450004BFC0020FFF048FC7920FFF045FC0020F9
:10246000FFF042FC8820FFF03FFC0020FFF03CFC26
:102470009720FFF039FC0020FFF036FCA620FFF08B
:1024800033FC0020FFF030FCB720FFF02DFC0020D3
:10249000FFF02AFCC220FFF027FC0020FFF024FC04
:1024A000C720FFF021FC0020FFF01EFCD120FFF030
:1024B0001BFC0020FFF018FCD620FFF015FC0020CC
:1024C000FFF012FCDD20FFF00FFC0020FFF00CFC01
:1024D000F320FFF009FC0020FFF006FCE32001F0F0
:1024E000CFFF0520FFF000FC0020FFF0FDFB0A20DD
:1024F000FFF0FAFB0020FFF0F7FB1C20FFF0F4FBDD
:102500000020FFF0F1FB3320FFF0EEFB0020FFF096
:10251000EBFB4420FFF0E8FB0020FFF0E5FB502040
:10252000FFF0E2FB0020FFF0DFFB6220FFF0DCFBAE
:102530000020FFF0D9FB7820FFF0D6FB0020FFF051
:10254000D3FB8820FFF0D0FB0020FFF0CDFB9720CD
:10255000FFF0CAFB0020FFF0C7FBA620FFF0C4FB82
:102560000020FFF0C1FBB720FFF0BEFB0020FFF012
:10257000BBFBC220FFF0B8FB0020FFF0B5FBC7207B
:10258000FFF0B2FB0020FFF0AFFBD120FFF0ACFB6F
:102590000020FFF0A9FBD520FFF0A6FB0020FFF0F4
:1025A000A3FBDD20FFF0A0FB0020FFF09DFBF3204C
:1025B000FFF09AFB0020FFF097FBE42001F060FFA2
:1025C0000120FFF091FB0020FFF08EFB0120FFF0C7
:1025D0008BFB0020FFF088FB0220FFF085FB002032
:1025E000FFF082FB2A20FFF07FFB0020FFF07CFB46
:1025F0003C20FFF079FB0020FFF076FB4B20FFF042
:1026000073FB0020FFF070FB5D20FFF06DFB0020EE
:10261000FFF06AFB7420FFF067FB0020FFF064FB13
:102620008420FFF061FB0020FFF05EFB9320FFF0B1
:102630005BFB0020FFF058FBA220FFF055FB0020C1
:10264000FFF052FBB320FFF04FFB0020FFF04CFBEC
:10265000BE20FFF049FB0020FFF046FBC420FFF046
:1026600043FB0020FFF040FBCD20FFF03DFB0020AE
:10267000FFF03AFBD320FFF037FB0020FFF034FBE4
:10268000DD20FFF031FB0020FFF02EFBF320FFF0F8
:102690002BFB0020FFF028FBE52001F0F1FE0020DD
:1026A000FFF022FB0020FFF01FFB0020FFF01CFBCF
:1026B0000020FFF019FB0220FFF016FB0020FFF0C6
:1026C00013FB2920FFF010FB0020FFF00DFB3C2046
:1026D000FFF00AFB0020FFF007FB4B20FFF004FB9C
:1026E0000020FFF001FB5D20FFF0FEFA0020FFF06C
:1026F000FBFA7420FFF0F8FA0020FFF0F5FA8420CE
:10270000FFF0F2FA0020FFF0EFFA9320FFF0ECFA6E
:102710000020FFF0E9FAA220FFF0E6FA0020FFF027
:10272000E3FAB320FFF0E0FA0020FFF0DDFABE206C
:10273000FFF0DAFA0020FFF0D7FAC420FFF0D4FA55
:102740000020FFF0D1FACD20FFF0CEFA0020FFF0FC
:10275000CBFAD320FFF0C8FA0020FFF0C5FADC2046
:10276000FFF0C2FA0020FFF0BFFAF320FFF0BCFA3E
:102770000020FFF0B9FAE62001F082FE1120FFF000
:10278000B3FA0020FFF0B0FA3420FFF0ADFA0020D9
:10279000FFF0AAFA5620FFF0A7FA0020FFF0A4FAF3
:1027A0007620FFF0A1FA0020FFF09EFA7720FFF0DC
:1027B0009BFA0020FFF098FA6620FFF095FA0020BF
:1027C000FFF092FA8820FFF08FFA0020FFF08CFAD9
:1027D0009920FFF089FA0020FFF086FABB20FFF075
:1027E00083FA0020FFF080FA9920FFF07DFA0020A4
:1027F000FFF07AFA6620FFF077FA0020FFF074FA13
:102800005520FFF071FA0020FFF06EFA5520FFF01E
:102810006BFA0020FFF068FA4520FFF065FA00200F
:10282000FFF062FA4320FFF05FFA0020FFF05CFA4D
:102830004420FFF059FA0020FFF056FAE72001F09B
:102840001FFE3220FFF050FA0020FFF04DFA552015
:10285000FFF04AFA0020FFF047FA7620FFF044FA32
:102860000020FFF041FA6620FFF03EFA0020FFF062
:102870003BFA6720FFF038FA0020FFF035FA6720B6
:10288000FFF032FA0020FFF02FFA8720FFF02CFA39
:102890000020FFF029FA9920FFF026FA0020FFF02F
:1028A00023FABB20FFF020FA0020FFF01DFA992048
:1028B000FFF01AFA0020FFF017FA7720FFF014FA61
:1028C0000020FFF011FA4420FFF00EFA0020FFF084
:1028D0000BFA5620FFF008FA0020FFF005FA23203B
:1028E000FFF002FA0020FFF0FFF93320FFF0FCF9BF
:1028F0000020FFF0F9F94520FFF0F6F90020FFF085
:10290000F3F9E82001F0BCFD0020FFF0EDF9002014
:10291000FFF0EAF99920FFF0E7F90020FFF0E4F971
:102920008720FFF0E1F90020FFF0DEF98820FFF0BA
:10293000DBF90020FFF0D8F97720FFF0D5F900206F
:10294000FFF0D2F96620FFF0CFF90020FFF0CCF9BC
:102950008820FFF0C9F90020FFF0C6F9AA20FFF097
:10296000C3F90020FFF0C0F9BB20FFF0BDF9002043
:10297000FFF0BAF99920FFF0B7F90020FFF0B4F9A1
:102980006620FFF0B1F90020FFF0AEF95520FFF00E
:10299000ABF90020FFF0A8F95520FFF0A5F90020C1
:1029A000FFF0A2F94420FFF09FF90020FFF09CF90E
:1029B0004420FFF099F90020FFF096F95520FFF030
:1029C00093F90020FFF090F9E92001F059FDAA20C9
:1029D000FFF08AF90020FFF087F90020FFF084F96A
:1029E0000020FFF081F9002001F04AFDAA20FFF04D
:1029F0007BF9CF2001F044FD0020FFF075F90020A5
:102A0000FFF072F90020FFF06FF90020FFF06CF981
:102A10000020FFF069F90020FFF066F90020FFF0C8
:102A200063F90020FFF060F90020FFF05DF900205D
:102A3000FFF05AF90020FFF057F90020FFF054F999
:102A40000020FFF051F90020FFF04EF90020FFF0C8
:102A50004BF90020FFF048F90020FFF045F9F02085
:102A600001F00EFD0020FFF03FF95020FFF03CF98F
:102A70000020FFF039F90020FFF036F90020FFF0C8
:102A800033F9F32001F0FCFC0020FFF02DF9F920D0
:102A900001F0F6FC0620FFF027F91020FFF024F9E2
:102AA0002920FFF021F90020FFF01EF93A2001F063
:102AB000E7FC5520FFF018F9112001F0E1FC64203B
:102AC000FEF7F8F9292001F0DBFC352001F0D8FCF5
:102AD0000020FFF009F9512001F0D2FCFF20FFF0A7
:102AE00003F9532001F0CCFC2C20FFF0FDF8552019
:102AF00001F0C6FC8220FFF0F7F82C2001F0C0FCAA
:102B000010BD10B555214FF47040FFF0F9F8AA211F
:102B10004FF20100FFF0F4F852214FF20200FFF0F3
:102B2000EFF808214FF20300FFF0EAF801214FF21D
:102B30000400FFF0E5F80D214FF43040FFF0E0F81D
:102B40000D214BF20100FFF0DBF80D214BF20200EA
:102B5000FFF0D6F834214FF43640FFF0D1F834219D
:102B60004BF20160FFF0CCF834214BF20260FFF031
:102B7000C7F80D214FF43140FFF0C2F80D214BF2A0
:102B80000110FFF0BDF80D214BF20210FFF0B8F874
:102B900034214FF43740FFF0B3F834214BF2017089
:102BA000FFF0AEF834214BF20270FFF0A9F80021DB
:102BB0004FF43240FFF0A4F800214BF20120FFF067
:102BC0009FF800214BF20220FFF09AF824214FF4E5
:102BD0003840FFF095F824214BF60100FFF090F803
:102BE00024214BF60200FFF08BF801214FF43F4007
:102BF000FFF086F80F214FF43340FFF081F80F21EA
:102C00004BF20130FFF07CF80F214BF20230FFF065
:102C100077F834214FF43940FFF072F834214BF645
:102C20000110FFF06DF834214BF60210FFF068F848
:102C300008214FF43540FFF063F808214BF20150B2
:102C4000FFF05EF808214BF20250FFF059F8032123
:102C50004FF44240FFF054F824214FF43A40FFF083
:102C60004FF824214BF60120FFF04AF824214BF6BF
:102C70000220FFF045F800214FF43C40FFF040F8FF
:102C800078214BF60140FFF03BF800214BF6024063
:102C9000FFF036F800214FF43D40FFF031F8782185
:102CA0004BF60150FFF02CF800214BF60250FFF0DC
:102CB00027F800214FF43E40FFF022F864214BF644
:102CC0000160FFF01DF800214FF45140FFF018F8AB
:102CD00033214DF20110FFF013F800214DF20210E4
:102CE000FFF00EF834214DF20310FFF009F8002137
:102CF0004DF20410FFF004F83A214DF20510FEF0F9
:102D0000FFFF00214DF20610FEF0FAFF4A214DF2BE
:102D10000710FEF0F5FF00214DF20810FEF0F0FF65
:102D20005C214DF20910FEF0EBFF00214DF20A107C
:102D3000FEF0E6FF81214DF20B10FEF0E1FF0021D5
:102D40004DF20C10FEF0DCFFA6214DF20D10FEF04E
:102D5000D7FF00214DF20E10FEF0D2FFE5214DF21B
:102D60000F10FEF0CDFF01214DF21010FEF0C8FF54
:102D700013214DF21110FEF0C3FF01214DF212108C
:102D8000FEF0BEFF54214DF21310FEF0B9FF0121F9
:102D90004DF21410FEF0B4FF82214DF21510FEF03A
:102DA000AFFF01214DF21610FEF0AAFFCA214DF22D
:102DB0001710FEF0A5FF02214DF21810FEF0A0FF43
:102DC00000214DF21910FEF09BFF02214DF21A1066
:102DD000FEF096FF01214DF21B10FEF091FF022143
:102DE0004DF21C10FEF08CFF34214DF21D10FEF050
:102DF00087FF02214DF21E10FEF082FF67214DF287
:102E00001F10FEF07DFF02214DF22010FEF078FF32
:102E100084214DF22110FEF073FF02214DF22210A9
:102E2000FEF06EFFA4214DF22310FEF069FF022197
:102E30004DF22410FEF064FFB7214DF22510FEF094
:102E40005FFF02214DF22610FEF05AFFCF214DF216
:102E50002710FEF055FF02214DF22810FEF050FF22
:102E6000DE214DF22910FEF04BFF02214DF22A1017
:102E7000FEF046FFF2214DF22B10FEF041FF022141
:102E80004DF22C10FEF03CFFFE214DF22D10FEF015
:102E900037FF03214DF22E10FEF032FF10214DF2CC
:102EA0002F10FEF02DFF03214DF23010FEF028FF11
:102EB00033214DF23110FEF023FF03214DF2321089
:102EC000FEF01EFF6D214DF23310FEF019FF0021C0
:102ED0004FF45240FEF014FF33214DF20120FEF07A
:102EE0000FFF00214DF20220FEF00AFF34214DF2C7
:102EF0000320FEF005FF00214DF20420FEF000FF4C
:102F00003A214DF20520FEF0FBFE00214DF2062095
:102F1000FEF0F6FE4A214DF20720FEF0F1FE002100
:102F20004DF20820FEF0ECFE5C214DF20920FEF08F
:102F3000E7FE00214DF20A20FEF0E2FE81214DF273
:102F40000B20FEF0DDFE00214DF20C20FEF0D8FE3D
:102F5000A6214DF20D20FEF0D3FE00214DF20E20F1
:102F6000FEF0CEFEE5214DF20F20FEF0C9FE01215C
:102F70004DF21020FEF0C4FE13214DF21120FEF0A0
:102F8000BFFE01214DF21220FEF0BAFE54214DF297
:102F90001320FEF0B5FE01214DF21420FEF0B0FE2C
:102FA00082214DF21520FEF0ABFE01214DF21620DC
:102FB000FEF0A6FECA214DF21720FEF0A1FE02216E
:102FC0004DF21820FEF09CFE00214DF21920FEF07B
:102FD00097FE02214DF21A20FEF092FE01214DF2E1
:102FE0001B20FEF08DFE02214DF21C20FEF088FE1B
:102FF00034214DF21D20FEF083FE02214DF21E20F1
:10300000FEF07EFE67214DF21F20FEF079FE0221C8
:103010004DF22020FEF074FE84214DF22120FEF0BE
:103020006FFE02214DF22220FEF06AFEA4214DF235
:103030002320FEF065FE02214DF22420FEF060FE0A
:10304000B7214DF22520FEF05BFE02214DF2262035
:10305000FEF056FECF214DF22720FEF051FE022158
:103060004DF22820FEF04CFEDE214DF22920FEF02C
:1030700047FE02214DF22A20FEF042FEF2214DF2DF
:103080002B20FEF03DFE02214DF22C20FEF038FEFA
:10309000FE214DF22D20FEF033FE03214DF22E20B5
:1030A000FEF02EFE10214DF22F20FEF029FE03210E
:1030B0004DF23020FEF024FE33214DF23120FEF09F
:1030C0001FFE03214DF23220FEF01AFE6D214DF25B
:1030D0003320FEF015FE00214FF45340FEF010FEA9
:1030E00033214DF20130FEF00BFE00214DF2023093
:1030F000FEF006FE34214DF20330FEF001FE002109
:103100004DF20430FEF0FCFD3A214DF20530FEF0A8
:10311000F7FD00214DF20630FEF0F2FD4A214DF29E
:103120000730FEF0EDFD00214DF20830FEF0E8FD25
:103130005C214DF20930FEF0E3FD00214DF20A3032
:10314000FEF0DEFD81214DF20B30FEF0D9FD0021B5
:103150004DF20C30FEF0D4FDA6214DF20D30FEF004
:10316000CFFD00214DF20E30FEF0CAFDE5214DF2FB
:103170000F30FEF0C5FD01214DF21030FEF0C0FD14
:1031800013214DF21130FEF0BBFD01214DF2123042
:10319000FEF0B6FD54214DF21330FEF0B1FD0121D9
:1031A0004DF21430FEF0ACFD82214DF21530FEF0F0
:1031B000A7FD01214DF21630FEF0A2FDCA214DF20D
:1031C0001730FEF09DFD02214DF21830FEF098FD03
:1031D00000214DF21930FEF093FD02214DF21A301C
:1031E000FEF08EFD01214DF21B30FEF089FD022123
:1031F0004DF21C30FEF084FD34214DF21D30FEF006
:103200007FFD02214DF21E30FEF07AFD67214DF266
:103210001F30FEF075FD02214DF22030FEF070FDF2
:1032200084214DF22130FEF06BFD02214DF222305F
:10323000FEF066FDA4214DF22330FEF061FD022177
:103240004DF22430FEF05CFDB7214DF22530FEF04A
:1032500057FD02214DF22630FEF052FDCF214DF2F6
:103260002730FEF04DFD02214DF22830FEF048FDE2
:10327000DE214DF22930FEF043FD02214DF22A30CD
:10328000FEF03EFDF2214DF22B30FEF039FD022121
:103290004DF22C30FEF034FDFE214DF22D30FEF0CB
:1032A0002FFD03214DF22E30FEF02AFD10214DF2AC
:1032B0002F30FEF025FD03214DF23030FEF020FDD1
:1032C00033214DF23130FEF01BFD03214DF232303F
:1032D000FEF016FD6D214DF23330FEF011FD0021A0
:1032E0004FF45440FEF00CFD33214DF20140FEF04E
:1032F00007FD00214DF20240FEF002FD34214DF2A7
:103300000340FEF0FDFC00214DF20440FEF0F8FC0D
:103310003A214DF20540FEF0F3FC00214DF206404B
:10332000FEF0EEFC4A214DF20740FEF0E9FC0021E0
:103330004DF20840FEF0E4FC5C214DF20940FEF045
:10334000DFFC00214DF20A40FEF0DAFC81214DF253
:103350000B40FEF0D5FC00214DF20C40FEF0D0FCFD
:10336000A6214DF20D40FEF0CBFC00214DF20E40A7
:10337000FEF0C6FCE5214DF20F40FEF0C1FC01213C
:103380004DF21040FEF0BCFC13214DF21140FEF056
:10339000B7FC01214DF21240FEF0B2FC54214DF277
:1033A0001340FEF0ADFC01214DF21440FEF0A8FCEC
:1033B00082214DF21540FEF0A3FC01214DF2164092
:1033C000FEF09EFCCA214DF21740FEF099FC02214E
:1033D0004DF21840FEF094FC00214DF21940FEF031
:1033E0008FFC02214DF21A40FEF08AFC01214DF2C1
:1033F0001B40FEF085FC02214DF21C40FEF080FCDB
:1034000034214DF21D40FEF07BFC02214DF21E40A6
:10341000FEF076FC67214DF21F40FEF071FC0221A8
:103420004DF22040FEF06CFC84214DF22140FEF074
:1034300067FC02214DF22240FEF062FCA4214DF215
:103440002340FEF05DFC02214DF22440FEF058FCCA
:10345000B7214DF22540FEF053FC02214DF22640EB
:10346000FEF04EFCCF214DF22740FEF049FC022138
:103470004DF22840FEF044FCDE214DF22940FEF0E2
:103480003FFC02214DF22A40FEF03AFCF2214DF2BF
:103490002B40FEF035FC02214DF22C40FEF030FCBA
:1034A000FE214DF22D40FEF02BFC03214DF22E406B
:1034B000FEF026FC10214DF22F40FEF021FC0321EE
:1034C0004DF23040FEF01CFC33214DF23140FEF055
:1034D00017FC03214DF23240FEF012FC6D214DF23B
:1034E0003340FEF00DFC00214FF45540FEF008FC87
:1034F00033214DF20150FEF003FC00214DF2025049
:10350000FEF0FEFB34214DF20350FEF0F9FB0021EA
:103510004DF20450FEF0F4FB3A214DF20550FEF05E
:10352000EFFB00214DF20650FEF0EAFB4A214DF27E
:103530000750FEF0E5FB00214DF20850FEF0E0FBE5
:103540005C214DF20950FEF0DBFB00214DF20A50E8
:10355000FEF0D6FB81214DF20B50FEF0D1FB002195
:103560004DF20C50FEF0CCFBA6214DF20D50FEF0BA
:10357000C7FB00214DF20E50FEF0C2FBE5214DF2DB
:103580000F50FEF0BDFB01214DF21050FEF0B8FBD4
:1035900013214DF21150FEF0B3FB01214DF21250F8
:1035A000FEF0AEFB54214DF21350FEF0A9FB0121B9
:1035B0004DF21450FEF0A4FB82214DF21550FEF0A6
:1035C0009FFB01214DF21650FEF09AFBCA214DF2ED
:1035D0001750FEF095FB02214DF21850FEF090FBC3
:1035E00000214DF21950FEF08BFB02214DF21A50D2
:1035F000FEF086FB01214DF21B50FEF081FB022103
:103600004DF21C50FEF07CFB34214DF21D50FEF0BB
:1036100077FB02214DF21E50FEF072FB67214DF246
:103620001F50FEF06DFB02214DF22050FEF068FBB2
:1036300084214DF22150FEF063FB02214DF2225015
:10364000FEF05EFBA4214DF22350FEF059FB022157
:103650004DF22450FEF054FBB7214DF22550FEF000
:103660004FFB02214DF22650FEF04AFBCF214DF2D6
:103670002750FEF045FB02214DF22850FEF040FBA2
:10368000DE214DF22950FEF03BFB02214DF22A5083
:10369000FEF036FBF2214DF22B50FEF031FB022101
:1036A0004DF22C50FEF02CFBFE214DF22D50FEF081
:1036B00027FB03214DF22E50FEF022FB10214DF28C
:1036C0002F50FEF01DFB03214DF23050FEF018FB91
:1036D00033214DF23150FEF013FB03214DF23250F5
:1036E000FEF00EFB6D214DF23350FEF009FB002180
:1036F0004FF45640FEF004FB33214DF20160FEF022
:10370000FFFA00214DF20260FEF0FAFA34214DF288
:103710000360FEF0F5FA00214DF20460FEF0F0FACD
:103720003A214DF20560FEF0EBFA00214DF2066001
:10373000FEF0E6FA4A214DF20760FEF0E1FA0021C0
:103740004DF20860FEF0DCFA5C214DF20960FEF0FB
:10375000D7FA00214DF20A60FEF0D2FA81214DF233
:103760000B60FEF0CDFA00214DF20C60FEF0C8FABD
:10377000A6214DF20D60FEF0C3FA00214DF20E605D
:10378000FEF0BEFAE5214DF20F60FEF0B9FA01211C
:103790004DF21060FEF0B4FA13214DF21160FEF00C
:1037A000AFFA01214DF21260FEF0AAFA54214DF257
:1037B0001360FEF0A5FA01214DF21460FEF0A0FAAC
:1037C00082214DF21560FEF09BFA01214DF2166048
:1037D000FEF096FACA214DF21760FEF091FA02212E
:1037E0004DF21860FEF08CFA00214DF21960FEF0E7
:1037F00087FA02214DF21A60FEF082FA01214DF2A1
:103800001B60FEF07DFA02214DF21C60FEF078FA9A
:1038100034214DF21D60FEF073FA02214DF21E605C
:10382000FEF06EFA67214DF21F60FEF069FA022188
:103830004DF22060FEF064FA84214DF22160FEF02A
:103840005FFA02214DF22260FEF05AFAA4214DF2F5
:103850002360FEF055FA02214DF22460FEF050FA8A
:10386000B7214DF22560FEF04BFA02214DF22660A1
:10387000FEF046FACF214DF22760FEF041FA022118
:103880004DF22860FEF03CFADE214DF22960FEF098
:1038900037FA02214DF22A60FEF032FAF2214DF29F
:1038A0002B60FEF02DFA02214DF22C60FEF028FA7A
:1038B000FE214DF22D60FEF023FA03214DF22E6021
:1038C000FEF01EFA10214DF22F60FEF019FA0321CE
:1038D0004DF23060FEF014FA33214DF23160FEF00B
:1038E0000FFA03214DF23260FEF00AFA6D214DF21B
:1038F0003360FEF005FA55214FF47040FEF000FAF7
:10390000AA214FF20100FEF0FBF952214FF2020012
:10391000FEF0F6F908214FF20300FEF0F1F9002164
:103920004FF20400FEF0ECF9CC214FF43140FEF0F0
:10393000E7F900214BF20110FEF0E2F905214FF406
:103940003640FEF0DDF970214FF43740FEF0D8F933
:1039500070214BF20170FEF0D3F901214FF4384091
:10396000FEF0CEF903214BF60100FEF0C9F9032168
:103970004BF60200FEF0C4F903214BF60300FEF003
:10398000BFF902214FF43C40FEF0BAF900214BF69A
:103990000140FEF0B5F900214BF60240FEF0B0F90F
:1039A000D0214FF44940FEF0ABF902214CF6011052
:1039B000FEF0A6F950214CF60210FEF0A1F95021BC
:1039C0004CF60310FEF09CF950214CF60410FEF06A
:1039D00097F900214FF45450FEF092F955214FF41D
:1039E0006850FEF08DF94FF4885000F049FD7820C2
:1039F000FDF0A6F94FF4245000F042FD10BD10B5C3
:103A0000E22000F03DFD1D20FEF06EF90220FEF0E8
:103A10006BF90420FEF068F96420FDF091F9E020D4
:103A200000F02EFD0120FEF05FF90A20FDF742FABA
:103A3000E02000F025FD0320FEF056F90C20FDF7F4
:103A400039FA012000F01CFD0A20FDF733FAE620C8
:103A500000F016FD2F20FEF047F9FF20FEF044F99C
:103A6000FF20FEF041F9B02000F00AFD2020FEF01A
:103A70003BF90020FEF038F90320FEF035F940F262
:103A80001F30FEF031F90120FEF02EF940F2DF1078
:103A9000FEF02AF90020FEF027F9B42000F0F0FC37
:103AA0000420FEF021F940F21F40FEF01DF9002035
:103AB000FEF01AF92E20FEF017F90020FEF014F99E
:103AC0000020FEF011F90020FEF00EF90020FEF0BB
:103AD0000BF9B62000F0D4FC0220FEF005F94FF4FB
:103AE0000370FEF001F90020FEF0FEF81720FEF052
:103AF000FBF81520FEF0F8F80020FEF0F5F80020A5
:103B0000FEF0F2F8F02000F0BBFC0320FEF0ECF831
:103B1000292000F0B5FCD02000F0B2FC0020FEF01F
:103B2000E3F8BE2000F0ACFC0520FEF0DDF8FE203E
:103B3000FEF0DAF80120FEF0D7F80020FEF0D4F80D
:103B40000020FEF0D1F80020FEF0CEF8B82000F002
:103B500097FC0320FEF0C8F80120FEF0C5F8BA205B
:103B600000F08EFC0120FEF0BFF810BD10B5112052
:103B700000F086FC7820FDF79DF9362000F080FCEF
:103B80004820FEF0B1F83A2000F07AFC5520FEF013
:103B9000ABF8F02000F074FCC320FEF0A5F8F02094
:103BA00000F06EFC9620FEF09FF8B42000F068FC58
:103BB0000120FEF099F8B62000F062FC0A20FEF029
:103BC00093F8A220FEF090F8B72000F059FCC62030
:103BD000FEF08AF8B92000F053FC0220FEF084F8D1
:103BE000E020FEF081F8C02000F04AFC8020FEF0CA
:103BF0007BF81620FEF078F8C12000F041FC192077
:103C0000FEF072F8C22000F03BFCA720FEF06CF83A
:103C1000C52000F035FC1620FEF066F8E82000F024
:103C20002FFC4020FEF060F88A20FEF05DF80020B6
:103C3000FEF05AF80020FEF057F82920FEF054F864
:103C40001920FEF051F8A520FEF04EF83320FEF0CA
:103C50004BF8E02000F014FCF020FEF045F80720BF
:103C6000FEF042F80D20FEF03FF80420FEF03CF894
:103C70000520FEF039F81420FEF036F83620FEF06C
:103C800033F85420FEF030F84C20FEF02DF83820A8
:103C9000FEF02AF81320FEF027F81420FEF024F896
:103CA0002E20FEF021F83420FEF01EF8E12000F076
:103CB000E7FBF020FEF018F81020FEF015F81420B5
:103CC000FEF012F80E20FEF00FF80C20FEF00CF8BB
:103CD0000820FEF009F83520FEF006F84420FEF03A
:103CE00003F84C20FEF000F82620FDF0FDFF102028
:103CF000FDF0FAFF1220FDF0F7FF2C20FDF0F4FF9D
:103D00003220FDF0F1FFF02000F0BAFB3C20FDF086
:103D1000EBFFF02000F0B4FB6920FDF0E5FF782018
:103D2000FDF7C8F8212000F0ABFB292000F0A8FB2C
:103D300010BD2DE9F05F0746884616469A4640F2C8
:103D4000C32070434FF47A71B0FBF1F000F1010928
:103D500006FB06F000EB560B344671040A0CB91B47
:103D600088B253464146FDF72BFC012535E005FBA3
:103D700005F004FB040058451AD94C4517D96B1EB1
:103D80005B041A0C08EB040399B27B1B5B1C98B212
:103D90005346FDF715FC6B1E5B041A0CA8EB0403DD
:103DA00099B27B1B5B1C98B25346FDF709FC641E5D
:103DB00063041A0C08EB050399B23B1B98B25346F7
:103DC000FDF7FEFB63041A0CA8EB050399B23B1B3D
:103DD00098B25346FDF7F4FB6D1C4D45C7D9BDE8BD
:103DE000F09F00001CB500F09BFDFE49888008464E
:103DF000808810B100F09CFB0DE200BFFA4800681B
:103E000040F00800F849086000BF00BF084600689D
:103E100040F00800086000BF00BF0846006840F09E
:103E20000800086000BF00BF0846006840F00800B6
:103E3000086000BF00BF0846006840F0020008604C
:103E400000BF0846006840F018000860E6480C38DB
:103E5000006840F48050E4490C39086001200321D7
:103E600000230222CDE900108021E04801F066F82D
:103E70000120032100230222CDE900102021DB488C
:103E800001F05CF80120032100230222CDE900109B
:103E90001021D64801F052F801200321002302220C
:103EA000CDE900104103D14801F048F80120032179
:103EB00000230246CDE900102021CD4801F03EF854
:103EC0000C228021C94800F0F1FF0C222021C748B4
:103ED00000F0ECFF0C221021C44800F0E7FF0C2298
:103EE0004FF40051C14800F0E1FF012003210023FD
:103EF0000222CDE900104CF20371BC4801F01EF81B
:103F00000120032100230222CDE900104FF6807129
:103F1000B84801F013F80C224CF20371B34800F0DA
:103F2000C5FF0C224FF68071B24800F0BFFF0020A1
:103F3000B14908604860B1490860AF48006840F482
:103F40008050AD4908600846006840F48040086031
:103F50000846006840F01000086008464068486065
:103F60000846406840F00F0048600846406840F44A
:103F70009C404860A1480068C1F804010846D0F898
:103F8000040140F00F00C1F804010846D0F8040114
:103F900040F47060C1F804010846006840F0010078
:103FA00008600846006840F0004008609448FDF052
:103FB00015FCD32000F064FAFDF016FC89498880D6
:103FC000FDF012FC87498880FDF00EFC8549888051
:103FD000084680884FF6FF7101EA002081498880F9
:103FE000FDF002FC7F49898808437E4988800846A5
:103FF000808849F2413188427ED0042000F040FAA6
:10400000FDF0F2FB77498880FDF0EEFB7549888072
:10401000FDF0EAFB73498880084680884FF6FF71FF
:1040200001EA00206F498880FDF0DEFB6D49898838
:1040300008436C4988800846808848F2525188427B
:1040400003D147F28970674988806648808847F2C3
:1040500089718842D0D0D42000F012FAFDF0C4FB60
:1040600060498880FDF0C0FB5E498880FDF0BCFBA4
:104070005C498880084680884FF6FF7101EA00207D
:1040800058498880FDF0B0FB564989880843554956
:1040900088800846808845F210318842ACD0D32011
:1040A00000F0EEF9FDF0A0FB4E498880FDF09CFB8E
:1040B0004C498880FDF098FB4A49888008468088F2
:1040C0004FF6FF7101EA002046498880FDF08CFB25
:1040D000444989880843434988800846808847F2D4
:1040E0009671884288D055214FF47040FDF008FE4B
:1040F000AA214FF2010000E08DE0FDF001FE522107
:104100004FF20200FDF0FCFD08214FF20300FDF02C
:10411000F7FD01214FF20400FDF0F2FD4FF44540A0
:1041200000F0AEF9FDF060FB2E49888008468088DB
:104130004FF6FF7101EA00202A4988804CF20150B5
:1041400000F09EF9FDF050FB264989880843254977
:1041500088800520FCF7AEFE2248808845F2105189
:10416000884258D0D32000F08BF9FDF03DFB1D496B
:104170008880FDF039FB1B498880FDF035FB19492B
:104180008880084680884FF6FF7101EA00201549B3
:104190008880FDF029FB13498988084311498880EC
:1041A0000846808849F60601884234D0A12000F0F4
:1041B00067F9FDF019FB0B498880FDF015FB0949F3
:1041C0008880084680884FF6FF7101EA0020054983
:1041D0008880FDF009FB03498988084301498880EC
:1041E00008460FE030010024E0440258000C025859
:1041F00000040258001002580040005204410052CE
:10420000FFFF0F00808845F26171884203D141F6BB
:104210006310794988807848818878A0FBF002FF94
:104220007548808847F28971884202D1FDF0CAF949
:1042300037E07148808849F24131884202D1FDF768
:1042400031FA2EE06C48808845F21031884202D164
:10425000FDF7DEFC25E06848808847F296718842C9
:1042600002D1FFF783FC1CE06348808845F21051BF
:10427000884202D1FEF745FC13E05F48808849F68A
:104280000601884202D1FDF723FB0AE05A488088E4
:1042900041F66311884204D1FFF7B1FB6420FDF0C1
:1042A000FBFC5548808847F2897188421CD15648EA
:1042B000006820F00F005549C1F804010846D0F805
:1042C000040120F47060C1F804010846D0F804012C
:1042D00040F00500C1F804010846D0F8040140F49C
:1042E000A060C1F8040179E04348808841F6631179
:1042F00088421CD14448006820F00F004349C1F8AF
:1043000004010846D0F8040120F47060C1F80401EB
:104310000846D0F8040140F00700C1F8040108463F
:10432000D0F8040140F4E060C1F8040156E03248DE
:10433000808845F21051884205D02F48808849F680
:10434000060188421CD13048006820F00F002F4938
:10435000C1F804010846D0F8040120F47060C1F8E7
:1043600004010846D0F8040140F00200C1F804013D
:104370000846D0F8040140F40070C1F804012DE0B3
:104380001D48808845F2103188420BD01A48808839
:1043900047F29671884205D01748808849F241312A
:1043A00088421BD11848006820F00F001749C1F857
:1043B00004010846D0F8040120F47060C1F804013B
:1043C0000846D0F8040140F00300C1F80401084693
:1043D000D0F8040140F44070C1F804010020FCF75B
:1043E000BDFF012220210A4800F09CFD4FF6FF701E
:1043F000FDF054F81CBD0000300100244C43442063
:1044000049443A25780D0A00044100520040005208
:10441000000402582DE9FC5F04460D46904699467B
:10442000DDE90D7A0C9E04F0FF0B08EB04001FFA87
:1044300080F809EB05001FFA80F917E0444502DB1C
:104440005C46A81985B24D4500DB15E00020CDE99A
:10445000000A3A78334629462046FDF07DFB304677
:1044600006EBD07104EB61018CB27F1C38787E289A
:1044700002DC38782028E1DA00BFBDE8FC9F0000AC
:1044800001B5BDF800000090BDF8000001490880AA
:1044900008BD0000FEFF076002480089024908804D
:1044A0007047000030010024FEFF07600EB54FF694
:1044B000FF70FCF0F3FF1F2007A11022CDE90021BF
:1044C000029006490988183988B21346C82200218B
:1044D000FFF7A0FF0EBD000052535400300100242E
:1044E00070B5114B5B7D6BB10F4BDB690E4D2D68C9
:1044F00005FB01056B430C4D2D7D0C4E56F82550E8
:10450000EA520FE0084B1D685B681B1A5B1E05FB37
:104510000313054DED696B43034D2D7D034E56F896
:104520002550EA5270BD0000400100241400002410
:104530007FB50024002500F0F3F9054600BFED48E3
:10454000006840F00200EB49086000BF00BF084669
:10455000006840F02000086000BF00BF0846006807
:1045600040F48070086000BF00BF0846006840F457
:104570008070086000BF00BF0846006840F040003F
:10458000086000BF0120032100230246CDE900108E
:104590002021D94800F0D2FC01200321002302226F
:1045A000CDE900108102D54800F0C8FC01200321AC
:1045B00000230222CDE900104102D14800F0BEFCE8
:1045C0000120032100230222CDE900108102CC4802
:1045D00000F0B4FC0120032100230222CDE90010E9
:1045E0008021C84800F0AAFC0E224FF48061C34825
:1045F00000F05CFC0E224FF40071C14800F056FC44
:104600000E224FF48061BE4800F050FC0E22802143
:10461000BC4800F04BFCB748001D006840F00800A3
:10462000B449091D0860081F006840F4E070091FC4
:1046300008600120032100230222CDE900104FF47D
:104640000461B04800F07AFC01200321002302221B
:10465000CDE900104FF47E41AB4800F06FFC012023
:10466000032100230222CDE90010F721A44800F025
:1046700065FC0E224FF40461A24800F017FC0E22E4
:104680004FF47E41A04800F011FC0E22F7219C4817
:1046900000F00CFC44F24230854218D14FF4F07027
:1046A0009A4908604FF48870486001200881488169
:1046B000282088810820C881052008820820488297
:1046C000212219214FF49670FDF066FB7EE047F23F
:1046D0008400854218D14FF448708C4908604FF42B
:1046E000F07048600120088148812E2088811720C1
:1046F000C881D220088216204882092219214FF44D
:104700009670FDF049FB61E047F21600854219D131
:104710004FF480607D4908604FF4167048601420A3
:104720000881032048818C2088811420C881A02022
:1047300008820C204882062219214FF49670FDF061
:104740002BFB43E047F21800854207D14FF4A060ED
:104750006E4908604FF44870486037E044F2843096
:10476000854219D14FF44870684908604FF4F070E1
:104770004860582088812820088230200881202025
:10478000C8810D20488203204881092219214FF455
:104790009670FDF001FB19E041F21800854215D139
:1047A0004FF4A060594908604FF4487048608C206D
:1047B00088810A2008820881C881488203204881B4
:1047C000062219214FF49670FDF0E6FA41F2180026
:1047D000854202D14FF0805400E0002400BF00BFAA
:1047E00000BF4B48846149484089441E47480089BE
:1047F000401E44EA00444648846044484089434996
:10480000C9890844441E41480089404989890844AF
:10481000401E44EA00443E48C4603C4840893B494D
:10482000C9890844394949680844441E3748008901
:10483000364989890844354909880844401E44EAB4
:10484000004433480461314840893049C9890844EB
:104850002E49496808442D49498A0844441E2B487A
:1048600000892A4989890844284909880844274930
:10487000098A0844401E44EA004425484461002057
:104880002349C862012000F0A5F8224822490860A7
:1048900002201E49C861002007210622CDE900023E
:1048A000CDE902101C48FF23022201680020FDF020
:1048B000BDFB1648808880B200901448008883B2FF
:1048C000002211461046FDF013FC104800881349E1
:1048D00008800E4880884880002000F075F801228A
:1048E0002021054800F01EFB4FF0FF30FDF042FA9A
:1048F0007FBD0000E0440258000402580014025832
:104900000020025800180258001C025840010024E0
:1049100000100050000000C01400002430010024EA
:104920001CB500242548006840F4A07023490860A5
:104930000120032100231A46CDE900104021204820
:1049400000F0FCFA0120032100231A46CDE90010F3
:1049500084211C4800F0F2FA0A20FCF0F1F9402111
:10496000174800F0D7FA04460421164800F0D2FA9E
:1049700044EA4000C4B28021124800F0CBFA44EA75
:104980008000C4B20424062C16D2DFE804F003062B
:10499000090C0F1244F242301CBD47F28400FBE7C1
:1049A00047F21600F8E747F21800F5E744F28430C2
:1049B000F2E741F21800EFE70020EDE7E04402588B
:1049C000001802580020025801490875704700007D
:1049D0004001002430B10749896941F00101054ACD
:1049E000916105E00349896921F00101014A916162
:1049F00070470000001000500748006820F4803025
:104A00000549086004487030006820F00100024940
:104A1000703108607047000024ED00E0F0B50446F6
:104A20000D46002600212943C4F104070120B840A7
:104A3000014341EA421141EA43210948016005E08E
:104A4000761CB6F5001F01D30120F0BD04480830E4
:104A5000006800F020000028F2D100BFF5E7000058
:104A60005041005210B500BF4C48006800F40030BF
:104A700000B139E000BF00BF00BFBFF34F8F00BFE0
:104A800000BF00BF00BF00BF00BFBFF36F8F00BFFC
:104A900000BF00BF00204249086000BF00BF00BF48
:104AA000BFF34F8F00BF00BF00BF00BF00BF00BFFC
:104AB000BFF36F8F00BF00BF00BF3848006840F4ED
:104AC00000303649086000BF00BF00BFBFF34F8F02
:104AD00000BF00BF00BF00BF00BF00BFBFF36F8FAC
:104AE00000BF00BF00BF00BF00BF2C4B1B6803F41A
:104AF000803303B148E00023284C7034236000BFAA
:104B000000BF00BFBFF34F8F00BF00BF00BF231F18
:104B10001868C0F34E3100BFC0F3C90200BF43F6AE
:104B2000E07303EA41134FF0404404EA82742343E4
:104B30001B4C1034236000BF00BF131EA2F1010202
:104B4000EDD10B1EA1F10101E6D100BF00BF00BFF6
:104B5000BFF34F8F00BF00BF00BF104B1B6843F473
:104B600080330E4C236000BF00BF00BFBFF34F8FE8
:104B700000BF00BF00BF00BF00BF00BFBFF36F8F0B
:104B800000BF00BF00BF00BF05484C30006840F0C8
:104B9000040003494C31086010BD000014ED00E032
:104BA00050EF00E0F0B504460D460021002000263D
:104BB000BA4F3F6827F00407DFF8E0C2CCF8007076
:104BC000B64F0C373F6847F44047DFF8D0C20CF1CE
:104BD0000C0CCCF8007000BFB04F0C373F6807F4E6
:104BE0000057002FF8D0AE4F3F6847F48037DFF80A
:104BF000B0C2CCF8007000E0491CA94F3F6807F430
:104C000000371FB947F6FF77B942F5D347F6FF776C
:104C1000B94201D1012040E1A14F28373F6847F058
:104C20000207DFF87CC20CF1280CCCF80070674654
:104C30003F6847EA0517CCF80070994F30373F6856
:104C4000A4F1010C47EA0C07DFF854C20CF1300C58
:104C5000CCF800706746D7F800C0571E4CEA4727CB
:104C6000DFF83CC20CF1300CCCF800706746D7F886
:104C700000C05F1E4CEA0747DFF824C20CF1300C7D
:104C8000CCF8007067463F6847F08077CCF800703A
:104C9000ACF104073F6847F00807ACF1040CCCF80E
:104CA000007067463F68CCF8007067463F6847F47D
:104CB0004037CCF800707A4F3F6847F08077DFF8D4
:104CC000E0C1CCF80070002105E0491CB1F5001FDF
:104CD00001D3022005E0724F3F6807F00077002FF4
:104CE000F3D000BF6E4F28373F6847F4C837DFF86E
:104CF000B0C10CF1280CCCF80070694F38373F6810
:104D000040F2B71C47EA0C07DFF894C10CF1380CED
:104D1000CCF8007067463F6847F40077CCF8007025
:104D200067463F6847F08077CCF800705C4F2C37BF
:104D30003F68DFF86CC10CF12C0CCCF800706746B2
:104D40003F68CCF8007067463F6847F40027CCF80E
:104D5000007067463F6847F40017CCF80070504F6A
:104D60004C373F6827F00307DFF834C10CF14C0CD7
:104D7000CCF8007067463F6847F00207CCF8007037
:104D8000474F3F6847F08067DFF814C1CCF80070E8
:104D9000002105E0491CB1F5001F01D3032005E007
:104DA0003F4F3F6807F00067002FF3D000BF3C4F34
:104DB00018373F6847F00807DFF8E4C00CF1180C1B
:104DC000CCF8007067463F68CCF80070344F10375D
:104DD0003F6847F00307DFF8C8C00CF1100CCCF8AF
:104DE000007000210AE02E4F10373F68C7F3C2065B
:104DF000491CB1F5001F01D3042001E0032EF2D1BC
:104E000000BF284F3F6847F00207DFF898C0CCF892
:104E1000007067463F6847F02007CCF80070204FCD
:104E200018373F6847F04007DFF874C00CF1180CE2
:104E3000CCF800700CF104073F6847F040070CF114
:104E4000040CCCF8007067463F6847F48067CCF8E4
:104E500000700CF104073F6847F040070CF1040CA8
:104E6000CCF800700E4F3F6847F08007DFF830C085
:104E7000CCF800700A4FF4373F6847F00207DFF8BC
:104E800020C00CF1F40CCCF80070074F3F6847F0DD
:104E90000107DFF814C0CCF80070F0BD0C480258D0
:104EA000004402580020005220040058F0B5034688
:104EB00000200024002500BF29E0012606FA00F4A6
:104EC00001EA0405A54221D1C70803F1200656F8DE
:104ED000276047074FEAD76C0F2707FA0CF7BE4346
:104EE0004FEAD00C03F1200747F82C60C70803F104
:104EF000200656F827604707FF0E02FA07F73E43E1
:104F00004FEAD00C03F1200747F82C60401C102812
:104F1000D3D3F0BD02461069084008B101207047A4
:104F20000020FCE702F001031BB183690B4383619E
:104F300003E0836943EA0143836170472DE9F04749
:104F40000C46DDE90867002100258C4600BF60E0C3
:104F50004FF0010808FA01F504EA050CAC4557D1F9
:104F6000D0F800804FEA410A4FF0030909FA0AF924
:104F700028EA0908C0F80080D0F800804FEA41090B
:104F800002FA09F948EA0908C0F80080012A01D0AC
:104F9000022A27D1D0F808804FEA410A4FF00309CE
:104FA00009FA0AF928EA0908C0F80880D0F8088048
:104FB0004FEA410906FA09F948EA0908C0F80880E9
:104FC000D0F804904FF0010808FA01F829EA08091E
:104FD000C0F80490D0F8048003FA01F948EA0908FF
:104FE000C0F80480D0F80C804FEA410A4FF0030962
:104FF00009FA0AF928EA0908C0F80C80D0F80C80F0
:105000004FEA410907FA09F948EA0908C0F80C8093
:10501000491C10299CD3BDE8F08700002DE9F04120
:105020000746884614461D46284600F033F8C5F169
:10503000040007FA00F60F20284100EA08000643A2
:1050400006F00F06E21704EBD2625211920002F151
:10505000E022D2F800212146E31704EBD3635B1171
:10506000A4EB431C012303FA0CF31A432046E31775
:1050700004EBD3635B119B0003F1E023C3F8002131
:105080000348005D40EA061001490855BDE8F0817B
:1050900000E400E00146072323EA01021202054B67
:1050A00018684FF6FF031840034B18431043014B99
:1050B000186070470CED00E00000FA050148024955
:1050C000086070470400FA050CED00E0F0B50446F6
:1050D0000D4616461F46012012490860002011495E
:1050E000103108600F4918310860091D0860091D5A
:1050F00008600C4928310860091D086009496031C1
:1051000008600120084908603B463246294620468F
:10511000FFF748FDFFF7A6FC00214FF00060FDF00F
:105120004BFAF0BD00440258088100512DE9F04FC0
:105130002DED048B89B04FF000080020039000BFD4
:105140004FF6FF70FCF0AAF94FF47840DD4909688A
:1051500010226423CDE900210290A02228210846D4
:10516000FFF758F94FF478421421084600F064FA2A
:105170000020D5498886A1E1D348416801208847AD
:10518000D148808E00F44040B0F5804F7ED10020A1
:105190000390CD48808E20F48040CB498886084615
:1051A000808904A921F82800C748008C01EB8801F8
:1051B000488008F1010000F0FF08B8F1060F13D293
:1051C000DFE808F0120313263C514FF6FF7214215A
:1051D000084600F031FABD490988143988B24FF405
:1051E0007842142100F028FA58E1B84909881439A6
:1051F00088B24FF6FF72142100F01EFAB3484088BF
:10520000143881B24FF47842142000F015FA45E1C9
:10521000AE484088143881B24FF6FF72142000F077
:105220000BFAAA4A5288143A91B2A84A1288143A40
:1052300090B24FF4784200F0FFF92FE14FF6FF7083
:10524000FCF02CF9A14AB2F8029009EBD972511086
:105250009E4AB2F800A00AEBDA7250104FF478427E
:1052600000F0EAF91AE1BDF81400BDF81010401A78
:1052700004B2BDF81C00BDF81810401A06B2BDF803
:105280001E10BDF81600081A05B200E007E1BDF8CF
:105290001A00BDF81210401A07B200EE104AB8EE1C
:1052A000C01B00EE106AB8EEC00B81EE002BB0EE12
:1052B000428B00EE105AB8EEC01B00EE107AB8EE2A
:1052C000C00B81EE002BB0EE429BB5EEC08BF1EE31
:1052D00010FA03D2B1EE480BB0EE408BB5EEC09B96
:1052E000F1EE10FA03D2B1EE490BB0EE409B9FED08
:1052F000780BB4EEC08BF1EE10FA60D39FED760B15
:10530000B4EEC08BF1EE10FA59DC9FED710BB4EEE8
:10531000C09BF1EE10FA52D39FED6F0BB4EEC09B21
:10532000F1EE10FA4BDCB4F1000B01DBDE4601E0DC
:10533000CBF1000EBEF5805F41DAB5F1000A01DB6A
:10534000D64601E0CAF1000EBEF5805F37DAB6F14D
:10535000000901DBCE4601E0C9F1000EBEF5805F19
:105360002DDAB7F1000C01DBE64601E0CCF1000ECE
:10537000BEF5805F23DA231E01DB9E4601E0C3F108
:10538000000EBEF1000F1AD02A1E01DB964601E086
:10539000C2F1000EBEF1000F11D0311E01DB8E46AE
:1053A00001E0C1F1000EBEF1000F08D0381E01DB94
:1053B000864601E0C0F1000EBEF1000F1FD14FF094
:1053C0000008424AB2F8029009EBD97251103F4AE4
:1053D000B2F800A00AEBDA7250104FF6FF7200F03C
:1053E0002BF94FF478421421084600F025F9B0EE6D
:1053F000491BB0EE480B04A800F07EF85EE0A0194F
:1054000000EE100AF8EEC00A304800882838400044
:1054100000EE100AB8EEC00A80EE801A2A4880ED2D
:105420000E1AE81900EE100AF8EEC00A2748408864
:105430002838400000EE100AB8EEC00A80EE801A4C
:10544000214880ED0F1ABDF8200000B21E49A1F8D6
:105450004000BDF8220000B2A1F842004FF6FF70F4
:10546000FCF01CF81F201EA11022CDE900210290A3
:105470001648438802886E212320FEF7CBFF4FF4A5
:105480007A70FBF717FD00F0CDF94FF6FF70FCF0D6
:1054900005F809B0BDEC048BBDE8F08F00BF0A2011
:1054A000FBF708FD0398401C80B203900398B0F509
:1054B0007A7F02DDFDF088F801E000BF5CE600BF06
:1054C00000BFE6E7AC58100820000024300100249B
:1054D000666666666666EE3FCDCCCCCCCCCCF03F43
:1054E000546F7563682053637265656E2041646A0A
:1054F000757374204F4B210070B52DED048B88B06F
:105500000546B0EE408BB0EE419B002433E035F809
:105510002430621C3DA103A8FAF738FF4FF478400D
:1055200003A91022CDE9002102903A48438802885D
:1055300004EB8400A02606EB80012820FEF76AFF1A
:1055400005EB84004388621C33A103A8FAF71EFF11
:105550004FF4784003A91022CDE9002102902D4894
:105560004388028804EB840006EB80017820FEF774
:1055700051FF601CC4B2052CC9DB4FF6FF700090D0
:1055800024480088401E82B204EB8400A02303EB71
:10559000800110232820FCF0E9F853EC182B20A1FF
:1055A00003A8FAF7F3FE00208DF813004FF47840BB
:1055B00003A91022CDE900210290164843880288F1
:1055C00004EB8400A02606EB80012820FEF722FFD2
:1055D00053EC192B15A103A8FAF7D8FE00208DF87B
:1055E00013004FF4784003A91022CDE90021029066
:1055F00008484388028804EB840006EB8001782089
:10560000FEF708FF08B0BDEC048B70BD7825643A46
:1056100025640000300100247925643A25640000E7
:1056200070783A25302E32660000000070793A25F5
:10563000302E326600000000F8B504460D461646CE
:1056400004F10D018AB2193988B22B462946009619
:10565000FBF7D2FF05F10D0083B2193881B2224663
:1056600020460096FBF7C8FF6A1C91B2621C90B2FC
:105670003246FBF08DFF6A1C91B2621E90B2324638
:10568000FBF086FF6A1E91B2621C90B23246FBF0BC
:105690007FFF6A1E91B2621E90B23246FBF078FF25
:1056A0003346062229462046FBF01CFFF8BD0000C9
:1056B00070B5064600250024002240212748FFF748
:1056C00031FC002208212648FFF72CFC00224FF471
:1056D00080712348FFF726FC3046FDF0D5F8062000
:1056E000FBF02EFB002240211C48FFF71BFC012091
:1056F000FBF026FB012240211848FFF713FC012094
:10570000FBF01EFB002240211448FFF70BFC00BFFA
:1057100019E04FF6FF7000EA4404002240210F48D0
:10572000FFF700FC0120FBF00BFB012240210B489E
:10573000FFF7F8FB08210B48FFF7ECFB08B1601CF2
:1057400084B2681CC5B2102DE3DB241101221102C2
:105750000348FFF7E7FB204670BD0000001C02581D
:1057600000200258001802582DE9FE438046002709
:10577000002406E04046FFF79BFF2DF81400601C54
:1057800084B2052CF6DB002416E0601C85B20FE025
:105790003DF814003DF81510884207DD3DF814600F
:1057A0003DF815002DF814002DF81560681C85B221
:1057B000052DEDDB601C84B2042CE6DB0027012400
:1057C00005E03DF81400384487B2601C84B2042C14
:1057D000F7DB032097FBF0F086B23046BDE8FE838E
:1057E0002DE9F04106460F460D4890F8440000F0C0
:1057F000010040B19020FFF7B7FF0546D020FFF72A
:10580000B3FF044607E0D020FFF7AEFF0546902027
:10581000FFF7AAFF044635803C80BDE8F081000018
:105820002000002410B5054C0C2221462820FBF74F
:10583000ABFA0A213420FBF7B9FA10BD5800002456
:1058400010B5044680214648FFF764FB002866D166
:105850002CB14449A1F11400FCF0BEFF4EE04149D7
:10586000A1F11400FCF0B8FFF0B33E49203989895A
:105870003C4A203AB2F84020891A09B200EE101AC8
:10588000B8EEC00A3749203991ED0E1AC0EE010A70
:105890003549088800EBD071491000EE101AB8EEB7
:1058A000C00A30EE800ABCEEC00A10EE101A2D4A73
:1058B000203A91811146098CB2F84220891A09B226
:1058C00000EE101AB8EEC00A2649203991ED0F1AE1
:1058D000C0EE010A2449488800EBD071491000EE5F
:1058E000101AB8EEC00A00E008E030EE800ABCEE04
:1058F000C00A10EE101A1B4A203A118419482038A9
:10590000808E00F4004020BB4FF440401549203900
:10591000888608468189C183018C418619E0114837
:105920002038808E00F4004040B10E482038808E30
:1059300020F400400B49203988860AE000210948FC
:105940002038C18341864FF6FF700649203988818F
:1059500008840448203890F83400002010BD00006E
:10596000001C025840000024300100247CB506468B
:105970000C4600BF3248006840F001003049086022
:1059800000BF00BF0846006840F00100086000BF8B
:1059900000BF2B481030006840F01000284910313B
:1059A000086000BF01200090002302224102019004
:1059B0002448FFF7C3FA012000900023022281024D
:1059C00001902048FFF7BAFA07224FF400711D48F2
:1059D000FFF76CFA07224FF480611A48FFF766FA66
:1059E0001948704300EB5400B0FBF4F51748C5604C
:1059F00000201649086008460068086008460068EC
:105A000008600846006808600846006840F0080022
:105A100008600846006840F0040008600846006816
:105A200040F0200008600223252203210846FFF7EA
:105A3000F5FA0648006840F00100044908607CBDA2
:105A4000E04402580000025840420F00001001409C
:105A5000FAF7B3BE00F8E0071F0040BCE0FF1FF8F4
:105A6000FF077C7D07FC3084030009000F00150050
:105A70001B000000945A0008000000246800000089
:105A8000D4020008FC5A00086800002458090000ED
:105A9000F00200080000000000000000000000000C
:105AA00000F80000FFFF0000000000000000000000
:105AB00000050000F1251008415800082D5100088C
:105AC00000000000000000000000000000000000D6
:105AD00000000000000000000000000000000000C6
