:020000040800F2
:1000000050E90624A5030008C7590008AF570008A7
:10001000C3590008F5180008DD6D00080000000055
:10002000000000000000000000000000955C0008D7
:10003000F918000800000000CB590008975C000880
:10004000BF030008BF030008BF030008BF03000888
:10005000BF030008BF030008BF030008BF03000878
:10006000BF030008BF030008BF030008BF03000868
:10007000BF030008BF030008BF030008BF03000858
:10008000BF030008BF030008BF030008BF03000848
:10009000BF030008BF030008BF030008BF03000838
:1000A000BF030008BF030008BF030008BF03000828
:1000B000BF030008BF030008BF030008BF03000818
:1000C000BF030008BF030008BF030008BF03000808
:1000D000BF030008CD6D0008BF030008BF03000880
:1000E000BF030008BF03000800000000BF030008B2
:1000F000BF030008BF030008BF030008BF030008D8
:10010000BF030008BF030008BF030008BF030008C7
:10011000BF030008BF0300089D5D0008BF0300087F
:10012000BF030008BF030008BF030008BF030008A7
:10013000BF030008BF030008BF030008BF03000897
:1001400000000000000000000000000000000000AF
:10015000BF030008BF030008BF030008BF03000877
:10016000BF030008BF030008BF030008BF03000867
:10017000BF030008BF030008BF0300080000000021
:10018000BF030008BF030008BF030008BF03000847
:10019000BF030008BF030008BF030008BF03000837
:1001A000BF030008BF030008BF030008BF03000827
:1001B000BF030008BF030008BF030008BF03000817
:1001C000BF030008BF030008BF030008BF03000807
:1001D000BF030008BF030008BF030008BF030008F7
:1001E000BF030008BF030008BF030008BF030008E7
:1001F000BF030008BF030008BF030008BF030008D7
:10020000BF030008BF030008BF030008BF030008C6
:10021000BF030008BF030008BF030008BF030008B6
:10022000BF030008BF030008BF0300080000000070
:10023000BF030008BF03000800000000BF03000860
:10024000BF030008BF030008BF030008BF03000886
:10025000BF030008BF030008BF030008BF03000876
:10026000BF030008BF030008BF030008BF03000866
:10027000BF030008BF030008BF0300080000000020
:10028000BF030008BF030008BF0300080000000010
:1002900000000000BF03000800F002F800F072F850
:1002A0000AA090E8000C82448344AAF10107DA45D1
:1002B00001D100F067F8AFF2090EBAE80F0013F0B1
:1002C000010F18BFFB1A43F001031847CC3E0A0088
:1002D000EC3E0A000A444FF0000C10F8013B13F00A
:1002E000070408BF10F8014B1D1108BF10F8015B8F
:1002F000641E05D010F8016B641E01F8016BF9D182
:1003000013F0080F1EBF10F8014BAD1C0C1B09D1D8
:100310006D1E58BF01F801CBFAD505E014F8016B4A
:1003200001F8016B6D1EF9D59142D6D370470000DC
:100330000023002400250026103A28BF78C1FBD8EE
:10034000520728BF30C148BF0B60704766293CF098
:10035000E883642900F00881782900F0418173293D
:1003600000F0B785002070471FB53CF0D5FB00F0CA
:10037000C7FD0400002000213CF0B8FBE0601FBD79
:1003800010B510BD00F0C0FE1146FFF7EDFF35F0CF
:100390003DFA00F0DEFE03B4FFF7F2FF03BC09F004
:1003A00083FA00000948804709480047FEE7FEE756
:1003B000FEE7FEE7FEE7FEE7FEE7FEE7FEE7FEE715
:1003C00004480549054A064B70470000A15C000837
:1003D0009902000850DF062450E9062450E1062463
:1003E00050E10624704753EA020C00F069802DE9C1
:1003F000F04B4FF00006002B1FBFB3FA83F503FA52
:1004000005F424FA05F65E4012BF1643B2FA82F5EF
:1004100002FA05F4C5F120051EBF22FA05FC44EAE4
:100420000C04203556EA044C4FEA144418BF641CEF
:100430004FF000084FF00009904271EB030C39D3E4
:10044000002919BFB1FA81F701FA07F6B0FA80F76F
:1004500000FA07F6C7F120071EBF20FA07FC46EA9C
:100460000C062037B6FBF4FCA7EB0507103F07F09E
:100470001F0BCBF120060CFA0BFB2CFA06F644BF3F
:10048000B3460026202FA4BF5E464FF0000B5BEA68
:10049000060C08BF4FF0010B19EB0B09ABFB027CFC
:1004A00048EB0608C01B06FB02CC0BFB03CC71EB30
:1004B0000C01C1E70B46024641464846BDE8F08BB9
:1004C00013B54FF000004FF00001AFF30080BDE81E
:1004D0001C4070470FB4044910B503AA029800F0FD
:1004E000FDFC10BC5DF814FB0C0000240FB41CB51F
:1004F000074B06AA7B4469460090059800F0BFFCB4
:100500000020694600F0CEFC1CBC5DF814FB000026
:10051000AD09000070B50C460546012A05D02878C3
:10052000800600D5EA69002302E0012305E05B1C98
:10053000934202D2E05C0028F9D1A869E618C01AFB
:10054000A861286A184428622846AFF3008004E0B6
:10055000D5E9012114F8010B9047B442F8D328469D
:10056000AFF3008070BD00002DE9F0410646002485
:1005700010687529314616A510D0AFF30080002809
:1005800002DA404213A507E031688A0701D512A5B7
:1005900002E0490704D511A5012401E0AFF3008072
:1005A00000210A2206F1240709E0B0FBF2FCB0FBAF
:1005B000F2F302FB1C00303078541846491C002826
:1005C000F3D123462A463046BDE8F04100F0EAB9AF
:1005D000000000002D0000002B00000020000000A3
:1005E00070B504460D4621461068AFF3008021889F
:1005F000090502D50F4A7A4402E00E4A7A440E32C7
:10060000002104F1240305E000F00F060009965DC7
:100610005E54491C0028F7D120780023000704D538
:10062000702D02D009B1022311322046BDE870407E
:1006300000F0B8B94A340A002DE9F05F8946044653
:100640004FF0000ADFF824B1FB44C0F820A0204698
:10065000E168884700287DD0252806D0D4E901210B
:100660009047206A401C2062F1E700255F46204643
:10067000E16888472028064607DB312E05D2B819E5
:1006800010F8200C08B10543F1E7A80701D525F0C3
:100690000405C4F81CA00027C4F818A02A2E09D00D
:1006A000304606F0F7FB38B304EB8708303EC8F855
:1006B000186019E059F8041B204604EB8702916189
:1006C000E1688847012F064618D1E069002820DA42
:1006D00025F020051DE0D8F8180000EB800006EB9F
:1006E00040003038C8F818002046E16888470646C0
:1006F00006F0D0FB0028EED1012F0AD02E2E08D113
:100700002046E16888477F1C0646022F45F02005F9
:10071000C4DBA069002803DA404245F00105A0616E
:10072000E80701D025F01005A6B1A6F1410019286F
:1007300002D8203645F400654A46314620462560F9
:100740004D46FFF703FE60B1012807D0ED1D25F0EF
:10075000070000E007E000F1080978E705F1040967
:1007600075E730467AE7206ABDE8F09F20340A003A
:1007700040EA0103024630B59B0710D14FF0013427
:1007800000E008C208C91D1B9D4315EAC41FF8D02C
:1007900013F0FF0102F8011B0DD01B0AF8E711F856
:1007A000013B002B02F8013B05D011F8013B002B67
:1007B00002F8013BF3D130BD10B5431C02E010F844
:1007C000011B71B18107FAD14FF0013202C88C1AB6
:1007D0008C4314EAC211F9D0C01A0A0603D0C01E15
:1007E00010BDC01A10BD0A0401D0801E10BD090240
:1007F000FCD0401E10BD032A40F2308010F0030CE4
:1008000000F0158011F8013BBCF1020F624498BF63
:1008100011F801CB00F8013B38BF11F8013BA2F100
:10082000040298BF00F801CB38BF00F8013B11F07B
:10083000030300F02580083AC0F0088051F8043B1B
:10084000083A51F804CBA0E80810F5E7121D5CBF88
:1008500051F8043B40F8043BAFF30080D20724BFBB
:1008600011F8013B11F801CB48BF11F8012B24BF4F
:1008700000F8013B00F801CB48BF00F8012B70479E
:1008800010B5203AC0F00B80B1E81850203AA0E82B
:100890001850B1E81850A0E81850BFF4F5AF5FEA5F
:1008A000027C24BFB1E81850A0E8185044BF18C912
:1008B00018C0BDE810405FEA827C24BF51F8043BB9
:1008C00040F8043B08BF7047D20728BF31F8023B0D
:1008D00048BF11F8012B28BF20F8023B48BF00F8A1
:1008E000012B70474FF0000200B513469446964620
:1008F000203922BFA0E80C50A0E80C50B1F1200133
:10090000BFF4F7AF090728BFA0E80C5048BF0CC0E0
:100910005DF804EB890028BF40F8042B08BF70473E
:1009200048BF20F8022B11F0804F18BF00F8012BB0
:10093000704700004FF0013C50F8042B51F8043B85
:100940009A4215D1A2EB0C03934313EACC130BD1BB
:1009500050F8042B51F8043B9A4209D1A2EB0C0346
:10096000934313EACC13E7D04FF00000704700BF69
:10097000D01A01BAB1FA81F101F0180122FA01F09E
:10098000CB40C1F12001DBB2C0B2C01A2CFA01F396
:10099000D11A914311EAC311E6D1704770477047ED
:1009A000704770472DE9F0470D4699469246044638
:1009B00000F124080168880604D5E06921F01001DF
:1009C000216000E00120A84201DD471B00E0002774
:1009D000A1697A1902EB0900081AA0612078C00603
:1009E00002D42046AFF30080002608E0D4E90121BC
:1009F0001AF806009047206A401C761C20624E457B
:100A0000F4DB2078C0060AD52046AFF3008006E06C
:100A1000D4E9012130209047206A401C2062381E12
:100A2000A7F10107F4DC07E0D4E9012118F805007B
:100A30009047206A401C2062281EA5F10105F3DCC6
:100A40002046AFF300802078000602D50220BDE8E2
:100A5000F0870120FBE770472DE9FF4F0C461E464B
:100A60004FF0FF378BB0D2E90001DDF860800A90CB
:100A70008A46C1F30A5505B93D46002108464FF0A4
:100A80000000BAF1000F00F4400005DA00EB80002E
:100A90004FF4400101EA50004FEA9059B9F1010FBB
:100AA00000DDB9460A9850EA4A000ED044F61050CC
:100AB000A5F2FF3545432F14B8F1000F1ED0754243
:100AC000291E1EDDC9F100021CE0B8F1010F4FF034
:100AD000000001D0302103E0F24305E02154401C26
:100AE000B042FBDB30460022002121540B99C1F8B3
:100AF0000880C1E900200FB0BDE8F08FBD1B6D1C60
:100B0000DEE74A4600DA694206A800F083FA06AB3F
:100B100093E8070003AB83E8070050460A9900F00A
:100B200021FB8DE80700A0F500501F3800900398C6
:100B3000002D0ADD42F21F014A460844002303A9A2
:100B40000390684600F08AFD09E0A0F500504A468F
:100B50001F38002303A90390684600F094FD8DE838
:100B600007000004000C03D04FF0FF30410800E004
:100B70001046B8F1000F03D00022009215461EE087
:100B8000751E05D400F0C0F9303262556D1EF9D5DE
:100B9000B3460122084302D000227F1C04E02078E3
:100BA000302801D100227F1E002A099784D01DE041
:100BB000112D07DA00F0A8F9303262556D1C50EAA9
:100BC0000102F5D1084302D00098C8B10EE000211F
:100BD000681E05E0235C625C63542254401E491C7D
:100BE0008142F7DBAB46A81B401E0990002004F8A9
:100BF0000B000B98099AC0F80880C0E9002B7AE72F
:100C000011264FF0000857E72DE9F04F88460446BB
:100C1000D21D22F0070191B0D1E90001CDE90A010E
:100C200006F0DEF802460B98C00F01D02D2007E039
:100C30002068810701D52B2002E0202101EAC000B5
:100C4000032A099001D0072A05DB034641462046C6
:100C500000F0A0F90BE12078800601D5E06900E002
:100C60000620B8F1650F814606D0B8F1660F18D09E
:100C7000B8F1670F70D131E00020B9F1110F009089
:100C800001DB112301E009F101030AAA01A90CA863
:100C9000FFF7E2FEDDE90C70002609F1010583464D
:100CA00047E001204B4600904FF000470AAA01A9F7
:100CB0000CA8FFF7D1FEDDE90DB00C995D460026CA
:100CC00010B909F101000D18B9EB050003D4C0F10A
:100CD000FF3609F10105A5EB09002BE0B9F1010F81
:100CE00001DA4FF001090020B9F1110F00904846D8
:100CF00001DD112300E003460AAA01A90CA8FFF7B1
:100D0000ABFEDDE90C704D460026834620780007D7
:100D10000AD4AB4500DA5D4601A8012D04DD411976
:100D200011F8011C302907D04F4502DA17F1040FE2
:100D300004DA012082460FE06D1EEEE7002F02DC90
:100D4000ED1B3E4403E0781CA84200DD7D1CB81B6F
:100D500000F1010A4FF000472078000703D4AA45AC
:100D600001DB4FF0FF3A0021B7F1004F0DF14308CE
:100D70008DF8431024D002202B23002F01DA7F426C
:100D80002D230A21021EA0F1010000DC5FB197FBB8
:100D9000F1FC97FBF1F201FB1C7C17460CF1300CC7
:100DA00008F801CDEEE7A8F10100037021880905DC
:100DB00001D5452100E06521A0F1010800F8011CE2
:100DC00009980FA9A1EB0807FF1D00B101204119E7
:100DD00001EBEA70A1693844081A401EA06120782E
:100DE000C00602D42046AFF30080099828B1D4E9A8
:100DF00001219047206A401C20622078C00622D53D
:100E00002046AFF300801EE0002E04DBB34502DD78
:100E100001A8805D00E03020D4E901219047206ADC
:100E2000401C2062761CAAF101005FEA000A0AD188
:100E300000F066F8C0680168405CD4E90121904781
:100E4000206A401C2062281EA5F10105DCDC07E0B9
:100E5000D4E9012118F8010B9047206A401C206258
:100E6000381EA7F10107F3DC2046AFF30080032012
:100E700011B041E601694A1C02610878704700B56B
:100E80008FB0CDE901310021059105497944CDE9C3
:100E9000031011466846FFF7CFFB0FB000BD0000FE
:100EA000E5FFFFFF0A6802F8010B0A60704710B502
:100EB000436913B1AFF3008001E0FFF72BFB012082
:100EC00010BD127800F124010A7000224A7001223C
:100ED000EDE711684FF0FF32E9E70000074B70B50E
:100EE0000D467B44FFF7CBFF0446284600F004F98B
:100EF00010B14FF0FF3070BD204670BDB35C0100F3
:100F00000048704710DF062430B5B0F10A024FEAFE
:100F1000900E71F100034EEA817EB0EB0E0061EBA2
:100F200091014FEA101E4EEA017E10EB0E0041EBDC
:100F300011114FEA102E4EEA016E10EB0E0041EB3C
:100F400011214FEA104E4EEA014E10EB0E0041EB1C
:100F50001141401841F100014FEAD00040EA4170D0
:100F60004FEAD10110EB80054FEA810444EA907406
:100F700044EB01046D1944EB0404521BA3414FF0F0
:100F8000000348BF0A3200D530BD401C41F10001CA
:100F900030BD00002DE9F0411F46044603260168DC
:100FA000072A01F4006004DB08B116A505E016A5C8
:100FB00003E008B115A500E015A521F010002060A0
:100FC000A069C01EA0610FB1401EA0612046AFF312
:100FD00000804FB1D4E9012138469047206A401C77
:100FE0002062C01C206206E0206AFAE7D4E90121F1
:100FF00015F8010B9047761EF8D22046AFF300801B
:10100000BDE8F0814E414E006E616E00494E4600D3
:10101000696E66002DE9F047814616468AB035486C
:1010200078440DC88DE80D0032487844801C03AC2C
:101030000DC884E80D0041F69B300844372190FB31
:10104000F1F290FBF1F5A5F1800501FB12041B3CC8
:1010500002D56442012000E00020DFF898A080461D
:101060000027FA44AAF1BE0A0EE0E0070AD0324691
:10107000684607EB470101230AEB810100F003FBFF
:101080008DE8070064107F1C002CEED1194F7F44BF
:10109000AE3F19E0E80715D007EB04100DF1180A70
:1010A00090E80E008AE80E00C068F04201D198195D
:1010B00008903246012306A903A800F0E4FA03AB26
:1010C00083E807006D10641C002DE3D14FF001038D
:1010D00032466946B8F1000F03A802D000F0BEFA0C
:1010E00001E000F0D0FAC9E90001C9F808200AB00F
:1010F000BDE8F087D82A0A00007B00F08000704726
:1011000000487047F0DE06247546FFF7F9FFAE464B
:1011100005006946534620F00700854618B020B503
:10112000FFF74EF9BDE820404FF000064FF00007F2
:101130004FF000084FF0000B21F00701AC46ACE87F
:10114000C009ACE8C009ACE8C009ACE8C0098D46EC
:10115000704710B50446AFF300802046BDE810404C
:10116000FFF719B95FEA400C08BF91F0000F4FEA92
:101170008C234FEAC12243EA51514FEA1C5018BF59
:1011800000F5F0404FEA300018BF41F000415FEA3F
:101190006C5C00F02980BCF1FF3F08BF40F080404C
:1011A0007047130C06BF12044FF0100C4FF0000CE8
:1011B000130E04BF12020CF1080C130F04BF12012E
:1011C0000CF1040C930F04BF92000CF1020CD30F2E
:1011D00004BF52000CF1010C11464FF00002A0F1C7
:1011E0001F00A0EB0C00704711F0004F08BF7047C4
:1011F00031F000413FF4D5AF0B0C06BF09044FF0AE
:10120000100C4FF0000C0B0E04BF09020CF1080C7F
:101210000B0F04BF09010CF1040C8B0F04BF8900F4
:101220000CF1020CCB0F04BF49000CF1010CCCF106
:101230002003A0EB0C0022FA03F302FA0CF241EABD
:10124000030100F10100704720F07F4C80EA0300A9
:1012500023F07F47ACEB070303F57C5300F000401D
:1012600003F1FF032DE980494FEA154B09B44FEA1A
:10127000144325EA0B4E24EA03480FF2042606EB3A
:10128000132749083E785FEA320203FB0667C7F579
:10129000000707FB06F64FEA54374FEAD64606F139
:1012A000020607FB066CCCF1005C4FEA1C472CEAF7
:1012B000074C07FB06F40CFB06F504EB15464FEA5A
:1012C000961634BF00204FF000404FEAD13706FB9E
:1012D00007FC4FEA1C4C0CFB0BF7D21B03FB0CF773
:1012E00061EB07010CFB0EF7B0EB074072EB174206
:1012F0000CFB08F734BFA2EB0742B2EB074261EBED
:1013000017414FEA0C444FEA910706FB07FC4FEAEE
:101310001C4C0CFB0BF7B0EBC74072EB573203FBD6
:101320000CF734BFA2EBC742B2EBC74261EB5731B7
:101330000CFB0EF7B0EBC70072EB57720CFB08F713
:1013400034BFA2EBC702B2EBC70261EB5771039F38
:101350004FEA816141EA921104EBCC044FEAD137A4
:101360004FEA826206FB07FC42EA90124FEA806075
:101370004FEA1C4C0CFB0BF7D21B03FB0CF761EB89
:1013800007010CFB0EF7B0EB074072EB17420CFBAA
:1013900008F734BFA2EB0742B2EB074261EB1741FB
:1013A0004FEA8C554FEA910704EB9C2406FB07FC9F
:1013B0004FEA1C4C0CFB0BF7B0EBC74072EB5732FB
:1013C00003FB0CF734BFA2EBC742B2EBC74261EBA1
:1013D00057310CFB0EF7B0EBC70072EB57720CFBEA
:1013E00008F734BFA2EBC702B2EBC70261EB57713B
:1013F00015EB4C254FEA816141EA92114FEA826276
:101400004FEAD13742EA901206FB07FC44F1000490
:101410004FEA80604FEA1C4C0CFB0BF7D21B03FB1E
:101420000CF761EB07010CFB0EF7B0EB074072EB1A
:1014300017420CFB08F734BFA2EB0742B2EB07429E
:1014400061EB174115EB1C154FEA813141EA9241DE
:101450004FEA823242EA90424FEA80304FEA0C76FD
:1014600044F1000448EA03434EEA0B484FF0000EF3
:10147000B2EB080C71EB030724BF624639464EEB12
:101480000E0E4FF0000B0018524149414BEB0B0B75
:10149000B2EB080C71EB03077BF1000B24BF624633
:1014A00039464EEB0E0E4FF0000B001852414941E9
:1014B0004BEB0B0BB2EB080C71EB03077BF1000B52
:1014C00024BF624639464EEB0E0E51EA020718BFA2
:1014D00046F0010616EB0E7655F1000254F10001BC
:1014E00003D5BDE88901BDE80088BDE88901BDE8F4
:1014F0000048B619524141EB0101A3F101037047C5
:1015000080807F7E7D7C7B7A797877767675747340
:10151000727171706F6E6E6D6C6C6B6A6A696868FF
:10152000676666656464636362616160605F5F5E95
:101530005E5D5D5C5C5B5B5A5A595958585757560B
:101540005655555554545353525252515150505070
:101550004F4F4F4E4E4D4D4D4C4C4C4B4B4B4A4AC2
:101560004A49494948484847474747464646454506
:10157000454444444443434343424242424141413F
:10158000002B9C4630D477002BD01CB54FEA370790
:1015900003B44FF010004FF01001BAF1000F06D065
:1015A000BCF1000FDCBF40F0080040F008014FF034
:1015B00000000FBCBDE810400BF1010BBBF1010FA7
:1015C00008BF5FEA170722BF12F1010211F1010102
:1015D0004FF0004143F1000300F0004043EA0000F7
:1015E0007047F9D35708D0E746EA064613F1400F93
:1015F0004FEA16461FDD13F1200FDFBF16430A46E0
:10160000002120335B42BED0C3F1200746EA0646E4
:1016100002FA07F74FEA164646EA0706C3F1200723
:1016200022FA03F201FA07F721FA03F14FF000035F
:1016300042EA0702A7E746EA020646EA06464FEAFA
:10164000164646EA0106BCBF46EA0646360C4FF08F
:1016500000034FF000024FF0000194E72DE9804CA9
:101660009A46934670B491E8380007C831EA400CB6
:1016700048BF34EA430C03D5FFF7E6FDFFF780FFD0
:10168000F0BCBDE8008C2DE9804C9A46934670B4BE
:1016900091E8380007C810F0804F08BF13F0804F62
:1016A00003D100F005F8FFF76BFFF0BCBDE8008C3C
:1016B00020F07F4780EA030023F07F4C07EB0C0308
:1016C000A3F57C5300F00040A3F1FE0392F0000F5D
:1016D00000F0B38095F0000F00F077802DE901490C
:1016E0004FEA11404FEA144621EA004800FB06FC8D
:1016F00024EA064708FB06F607FB08F800FB07F795
:1017000018EB06484CEB164C4FEA124B18EB074807
:101710004FEA15464CEB174022EA0B4E0BFB06FC3A
:1017200025EA06470EFB06F607FB0EFE0BFB07F746
:101730001EEB064E4CEB164C4FF000061EEB074E10
:101740004CEB174B18EB0B0840F1000018EB0E0B9D
:1017500058EB000840F100008F1A4FF000013CBF29
:10176000C943661B14BFB5EB040C00213CBFC94341
:10177000F61B4FEA17444EEA8E0E27EA04454FEA5D
:101780001C4704FB07622CEA074C05FB07F70CFB20
:1017900005F604FB0CFC16EB074642EB174216EB72
:1017A0000C4642EB1C421BEB060658EB0202414181
:1017B00046EA9E0601D5BDE80189B619524141EBC2
:1017C0000101A3F10103BDE801894FEA14454FEA85
:1017D000114724EA054621EA074C05FB07F406FBFE
:1017E00007F70CFB06F105FB0CFC11EB074144EB82
:1017F00017444FEA124711EB0C4144EB1C4422EA18
:10180000074C05FB07F206FB07F70CFB06F605FB8A
:101810000CFC16EB074642EB174216EB0C4642EB6C
:101820001C456A1854F1000148BF7047B61952416F
:1018300041EB0101A3F10103704795F0000F37D090
:101840004FEA11424FEA144721EA024624EA074CC4
:1018500002FB07F106FB07F70CFB06F402FB0CFC8E
:1018600014EB074441EB17414FEA154714EB0C44C6
:1018700041EB1C4125EA074C02FB07F506FB07F785
:101880000CFB06F602FB0CFC16EB074645EB174576
:1018900016EB0C4645EB1C42121951F1000148BFF2
:1018A0007047B619524141EB0101A3F101037047A2
:1018B0004FEA14454FEA114724EA054621EA074C4E
:1018C00005FB07F106FB07F70CFB06F24FF00006DD
:1018D00005FB0CFC12EB074241EB174112EB0C42EB
:1018E00051EB1C4148BF7047921841EB0101A3F135
:1018F0000103704700BFFEE77047000070B5044663
:10190000B3F5804F13D1D1E9000540EA05108D6889
:1019100040EA05208D6928438D8940EA054054F846
:101920002250064E3540284344F8220003E06FF071
:10193000704044F82200002070BD00000000F0CF8D
:1019400070B50246086852F8200020F001000E68C9
:1019500042F826008868082801D1402500E00025CB
:10196000486828438E683043CE6830430E69304360
:101970004E6930438E693043CE6930430E6A30433E
:101980004E6A30438E6A3043CE6A40EA0603086BE3
:101990000343486B0343886B0343114C44F48014A6
:1019A00044F4001444F4E024086852F82000A043F2
:1019B00018430E6842F82600086BB0F5801F07D167
:1019C000086828B1106820F480100E6B3043106056
:1019D000086818B110684E6B30431060002070BD6D
:1019E0007FFB080030B50346D1E9000540EA051049
:1019F0008D6840EA05208D8940EA0545088A401E29
:101A000045EA0055087D801E45EA00608D6928433F
:101A1000551C53F8255005F040452843551C43F804
:101A20002500186800F48010B0F5801F0BD15868AD
:101A300020F47004088A401E44EA0054586820F4D8
:101A4000700020435860002030BD02460868B0B9DD
:101A5000D1E901031843CB6818430B6918434B695C
:101A600018438B691843CB6918430B6A18434B6AB8
:101A7000184313686FF30E031843106019E0D1E99F
:101A8000070318434B6A1843136823F4F8431843B9
:101A90001060D1E901031843CB6818430B69184360
:101AA0004B6918438B69184353686FF30E0318434F
:101AB0005060002070470246506943F6FE73984319
:101AC00040EA410050610020704710B50346D1E95B
:101AD000000420438C68641E40EA4410CC6840EA4D
:101AE00044201C696FF3150420431861002010BDC9
:101AF00030B50346FAB90868401E4C68641E40EAD7
:101B000004148868401E44EA0024C868401E44EA61
:101B10000034088A401E44EA0044888A401E44EA91
:101B20000054087E401E44EA00609C6804F0704443
:101B30002043986022E0C868401E0403888A401E43
:101B400044EA00509C680E4D2C4020439860086881
:101B5000401E4C68641E40EA04148868401E44EA33
:101B60000024088A401E44EA0044087E401E44EADD
:101B70000060DC6804F070442043D860002030BD71
:101B8000FF0F0FFF2DE9F041044600F051FD8046A4
:101B900014B90120BDE8F08194F83500022808D07E
:101BA0008020606500BF002084F8340000BF012061
:101BB000F0E7FE492068884249D0FC491831206886
:101BC000884244D0F9493031206888423FD0F749F3
:101BD0004831206888423AD0F44960312068884210
:101BE00035D0F24978312068884230D0EF499031C1
:101BF000206888422BD0ED49A8312068884226D041
:101C0000EB492068884222D0E9491831206888428F
:101C10001DD0E74930312068884218D0E449483166
:101C20002068884213D0E2496031206888420ED093
:101C3000DF4978312068884209D0DD499031206839
:101C4000884204D0DA49A8312068884201D10120B5
:101C500000E0002068B12068006820F01E002168C4
:101C600008602068406920F080002168486125688C
:101C700006E02068006820F00E00216808602568F2
:101C8000CA492068884270D0C84918312068884203
:101C90006BD0C64930312068884266D0C34948318C
:101CA0002068884261D0C1496031206888425CD098
:101CB000BE4978312068884257D0BC4990312068AD
:101CC000884252D0B949A831206888424DD0B849DD
:101CD0002068884249D0B64918312068884244D0EB
:101CE000B3493031206888423FD0B149483120683B
:101CF00088423AD0AE4960312068884235D0AC493C
:101D000078312068884230D0A949903120688842D3
:101D10002BD0A749A8312068884226D0A549206841
:101D2000884222D0A3491431206888421DD0A1499D
:101D300028312068884218D09E493C31206888426A
:101D400013D09C495031206888420ED099496431A3
:101D50002068884209D0974978312068884204D0A9
:101D600094498C312068884201D1012000E0002094
:101D700028B1206E006820F48070216E08608B49C5
:101D80002068884249D0894918312068884244D067
:101D900086493031206888423FD0844948312068E4
:101DA00088423AD0814960312068884235D07F49E5
:101DB00078312068884230D07C4990312068884250
:101DC0002BD07A49A8312068884226D078492068EB
:101DD000884222D076491831206888421DD0744943
:101DE00030312068884218D07149483120688842D3
:101DF00013D06F496031206888420ED06C49783129
:101E00002068884209D06A4990312068884204D00D
:101E10006749A8312068884206D12068006820F010
:101E200001002168086005E02068006820F00100DA
:101E30002168086011E000F0FBFBA0EB080005281A
:101E40000BD920206065032084F8350000BF0020F6
:101E500084F8340000BF01209CE6286800F00100EF
:101E60000028E8D151492068884249D04F491831AB
:101E70002068884244D04D493031206888423FD0A4
:101E80004A494831206888423AD048496031206840
:101E9000884235D0454978312068884230D043495E
:101EA0009031206888422BD04049A8312068884270
:101EB00026D03F492068884222D03D491831206809
:101EC00088421DD03A4930312068884218D03849BC
:101ED00048312068884213D03549603120688842F3
:101EE0000ED0334978312068884209D0304990318A
:101EF0002068884204D02E49A8312068884201D148
:101F0000012000E0002040B1A66D94F85C0000F0D4
:101F10001F013F208840B06007E0A76D94F85C0087
:101F200000F01F0101208840786020492068884225
:101F300076D01E4918312068884271D01B49303153
:101F4000206888426CD0194948312068884267D09F
:101F5000164960312068884262D01449783120687F
:101F600088425DD0114990312068884258D00F498D
:101F7000A8312068884253D00D49206888424FD04C
:101F80000B491831206888424AD00949303120680D
:101F9000884245D0064948312068884240D00449EB
:101FA0006031206888423BD0014905E010000240C2
:101FB00010040240085402587831206888422FD01B
:101FC0002549206888422BD023491831206888424F
:101FD00026D022492068884222D020491431206826
:101FE00088421DD01D4928312068884218D01B49DD
:101FF0003C312068884213D018495031206888420B
:102000000ED0164964312068884209D013497831CE
:102010002068884204D011498C312068884201D15F
:10202000012000E0002068B1D4E919104860E06E9A
:1020300040B1E06E006820F48070E16E0860D4E981
:102040001C104860012084F8350000BF002084F88F
:10205000340000BF00BF9DE5A004024008540258B0
:1020600070B504460CB9012070BD94F83500022803
:1020700003D0802060650120F6E7DC4920688842B3
:1020800049D0DA4918312068884244D0D7493031E4
:10209000206888423FD0D5494831206888423AD0EC
:1020A000D24960312068884235D0D04978312068E3
:1020B000884230D0CD499031206888422BD0CB491E
:1020C000A8312068884226D0C9492068884222D099
:1020D000C7491831206888421DD0C5493031206871
:1020E000884218D0C24948312068884213D0C0497C
:1020F0006031206888420ED0BD497831206888421E
:1021000009D0BB4990312068884204D0B849A83131
:102110002068884201D1012000E00020F0B30420B3
:1021200084F83500B149206888424BD0AF49183156
:102130002068884246D0AD4930312068884241D07D
:10214000AA494831206888423CD0A84960312068BB
:10215000884237D0A54978312068884232D0A349D7
:102160009031206888422DD0A049A831206888424B
:1021700028D09F492068884224D09D491831206882
:1021800088421FD09A493031206888421AD0984935
:1021900048312068884215D0954900E020E0603140
:1021A000206888420ED0924978312068884209D050
:1021B0008F4990312068884204D08D49A831206829
:1021C000884206D12068006820F00100216808607C
:1021D00009E12068006820F001002168086002E140
:1021E0002068006820F00E00216808607F492068A0
:1021F000884249D07D4918312068884244D07B49C3
:102200003031206888423FD0784948312068884280
:102210003AD0764960312068884235D073497831A8
:102220002068884230D071499031206888422BD094
:102230006E49A8312068884226D06D4920688842BE
:1022400022D06B491831206888421DD0684930314E
:102250002068884218D0664948312068884213D0E7
:1022600063496031206888420ED061497831206826
:10227000884209D05E4990312068884204D05C4988
:10228000A8312068884206D12068006820F001004B
:102290002168086005E02068006820F001002168DE
:1022A000086052492068884270D05049183120682F
:1022B00088426BD04D4930312068884266D04B4906
:1022C00048312068884261D048496031206888429E
:1022D0005CD0464978312068884257D043499031D4
:1022E0002068884252D04149A831206888424DD0A8
:1022F0003F492068884249D03D49183120688842CA
:1023000044D03B493031206888423FD03849483179
:10231000206888423AD0364960312068884235D0FA
:10232000334978312068884230D031499031206873
:1023300088422BD02E49A8312068884226D02D49CA
:102340002068884222D02B491431206888421DD051
:10235000284928312068884218D026493C31206815
:10236000884213D023495031206888420ED0214939
:1023700064312068884209D01E497831206888423B
:1023800004D01C498C312068884201D1012000E032
:102390000020D8B1206E006820F48070216E0860A3
:1023A000A56D94F85C0000F01F0101208840686072
:1023B000D4E919104860E06E40B1E06E006820F486
:1023C0008070E16E0860D4E91C104860012084F838
:1023D000350000BF002084F8340000BF206D10B12C
:1023E0002046216D884700203EE600001000024094
:1023F00010040240085402580348006840F00100ED
:10240000014908607047000020040058F8B50246F2
:102410000B4600216F4DD7E001278F401E6806EA6A
:102420000704002C72D01E7906F00306012E04D09A
:102430001E7906F00306022E13D190684F00032682
:10244000BE40B0434F00DE68BE40304390605068ED
:1024500001268E40B0431E79C6F300168E403043ED
:1024600050601E7906F00306032E09D0D0684F0095
:102470000326BE40B0434F009E68BE403043D0604C
:102480001E7906F00306022E13D1CF0802F12006B2
:1024900056F827004E07F70E0F26BE40B0434F07F1
:1024A000FF0E1E69BE403043CF0802F1200646F8F9
:1024B000270010684F000326BE40B0431E7906F087
:1024C00003064F00BE40304310605E6806F440369D
:1024D000002E78D000BF404E366846F002063E4FD0
:1024E0003E603E46366806F00206009600BF00BF1A
:1024F0003A4E8F0856F827008E07370F0F26BE403A
:10250000B043374EB24202D100262EE05BE0354E9A
:10251000B24201D1012628E0334EB24201D1022657
:1025200023E0324EB24201D103261EE0304EB242C9
:1025300001D1042619E02F4EB24201D1052614E044
:102540002D4EB24201D106260FE02C4EB24201D1EF
:1025500007260AE02A4EB24201D1082605E0294E9C
:10256000B24201D1092600E00A268F073F0FBE4084
:1025700030431A4E8F0846F827004FF0B0463068B7
:10258000A0435E6806F4801606B120434FF0B046C3
:1025900030607068A0435E6806F4001606B1204300
:1025A0004FF0B04670606868A0435E6806F400367D
:1025B00006B1204368602868A0435E6806F4803650
:1025C00006B120432860491C1E68CE40002E7FF4CF
:1025D00023AFF8BD80000058F444025808040058A6
:1025E000000002580004025800080258000C02586B
:1025F000001002580014025800180258001C02581B
:102600000020025800240258024613690B400BB107
:10261000012000E0002070470AB1816101E00B0455
:102620008361704701480068000C70470010005C2F
:102630000148006870470000140000240348006847
:1026400003490978084401490860704714000024D0
:102650001C00002410B5032000F002FB01F0ECFC8C
:1026600010490968C1F303210F4A515C01F01F01B1
:1026700020FA01F40B48006800F00F001146085CD6
:1026800000F01F0024FA00F00849086008480460C0
:102690000F2000F00FF808B1012010BD00F08EFAF5
:1026A0000020FAE71844025826CB0308040000244F
:1026B0000000002470B504461148007808B90120D4
:1026C00070BD0F4800784FF47A71B1FBF0F00D49FE
:1026D0000968B1FBF0F5284602F054FB08B101206F
:1026E000EEE7102C07D200222146501E00F07BFAA4
:1026F0000548046001E00120E2E70020E0E7000077
:102700001C000024000000241800002470B50446BA
:102710000E46154600BF94F8A000012801D1022002
:1027200070BD012084F8A00000BF022084F8A10041
:1027300005EB850101EBC50204F1380101EB8200D4
:1027400034223146FEF79CF82A463146204603F0F3
:1027500030F801202168486284F8A10000BF002001
:1027600084F8A00000BF00BFDAE7000070B504469F
:102770000CB9012070BD94F8A10028B9002084F89C
:10278000A000204600F07EF8022084F8A100206816
:10279000806920F0704021688861D4E90101084314
:1027A000E168084321690843216889690843216871
:1027B0008861206880683249084021688860A08A62
:1027C000050420688068A16929430843216888605E
:1027D0002068C0682A4908402168C860A08B0504A9
:1027E0002068C068216A294308432168C8602068BE
:1027F00000692349084021680861A08C050420680D
:102800000069A16A2943084321680861206840697A
:102810001B49084021684861A08D05042068406973
:10282000216B294308432168486194F8350005026B
:1028300094F8360006042068C06A00F07F402168E2
:10284000C86246EA050094F8341008432168C96A52
:1028500008432168C8622068406B40F00600216888
:1028600048632068806940F0010021688861002089
:10287000C4F8A400012084F8A10000207AE7000039
:1028800000F800F010B586B0044600BF5D4800684F
:1028900040F008005B4908600846006800F0080046
:1028A000009000BF00BF00BF56481038006840F0DD
:1028B00010005449103908600846006800F0100004
:1028C000009000BF00BF00BF00BF4E48001F00685F
:1028D00040F002004B49091F08600846006800F0FC
:1028E0000200009000BF00BF00BF00BF00BF08464D
:1028F000006840F0200008600846006800F02000F2
:10290000009000BF00BF00BF00BF00BF08460068C6
:1029100040F4807008600846006800F48070009001
:1029200000BF00BF00BF00BF00BF0846006840F402
:10293000807008600846006800F48070009000BF56
:1029400000BF00BF00BF00BF0846006840F0400065
:1029500008600846006800F04000009000BF00BF1B
:1029600000BF00BF0846006840F0800008600846CD
:10297000006800F08000009000BF00BF20200190A0
:102980000120029003900320049001A91E48FFF744
:102990003DFD4FF4806001900220029000200390E2
:1029A000032004900E20059001A91848FFF72EFD82
:1029B0004FF40070019001A91548FFF727FD4FF46F
:1029C0008060019001A91248FFF720FD802001904E
:1029D00001A91048FFF71AFD4FF40460019001A906
:1029E0000C48FFF713FD4FF47E40019001A90A48FF
:1029F000FFF70CFDF720019001A90548FFF706FD40
:102A000006B010BDE44402580004025800140258F5
:102A10000020025800180258001C02582DE9F0410D
:102A200004460E461746984600BF94F8A0000128B9
:102A300002D10220BDE8F081012084F8A00000BF8F
:102A4000022084F8A10008EB880000EBC80104F123
:102A5000380000EB81052E60A86A30446860AF60E2
:102A6000E86A3844E86042462946204602F0A1FE62
:102A700001202168486284F8A10000BF002084F88A
:102A8000A00000BF00BFD5E72DE9F04104460E4687
:102A90001746984600BF94F8A000012802D10220F2
:102AA000BDE8F081012084F8A00000BF022084F876
:102AB000A10008EB880000EBC80104F1380000EB2E
:102AC0008105286830446860A8683844E860AE62D0
:102AD000EF6242462946204602F06BFE0120216843
:102AE000486284F8A10000BF002084F8A00000BF65
:102AF00000BFD5E74178154A11600178F9B1121D80
:102B000041681160017B0907C27A41EA0261827A59
:102B100041EAC241427B41EA8241827B41EA424131
:102B2000C27B41EA0241427A41EA0221027A41EA49
:102B3000420102781143054A0832116005E0002184
:102B4000024A121D1160121D1160704798ED00E0DD
:102B500000BF00BF00BFBFF35F8F00BF00BF00BF5B
:102B60000548006820F480300349086000200249CD
:102B7000703108607047000024ED00E040F0010172
:102B80000D4A11600C497039096841F480310A4AD4
:102B9000703A116000BF00BF00BFBFF34F8F00BF8E
:102BA00000BF00BF00BF00BF00BFBFF36F8F00BFFB
:102BB00000BF00BF7047000094ED00E07047014681
:102BC000084600280DDB00BF00BF00F01F030122F4
:102BD0009A4043099B0003F1E023C3F8002100BFA2
:102BE00000BF00BF70472DE9F05F80460D461646D6
:102BF00004F00EF9074639462A46334601F007002D
:102C0000C0F1070ABAF1040F02D94FF0040A01E03B
:102C1000C0F1070AD14600F1040ABAF1070F02D247
:102C20004FF0000A01E0A0F1030AD4464FF0010A78
:102C30000AFA09FAAAF1010A0AEA020A0AFA0CFADD
:102C40004FF0010B0BFA0CFBABF1010B0BEA030B82
:102C50004AEA0B042146404604F0E2F8BDE8F09F42
:102C600000BF00F00702064B19684FF6FF0319403A
:102C7000044B0B4343EA0221014B196000BF70472C
:102C80000CED00E00000FA050348006840F0807099
:102C900001490860704700000C48025810B501F067
:102CA00081F905490968C1F30211044A515C01F038
:102CB0001F01C84010BD00002044025826CB030865
:102CC00070B50146844D2D6805F00303824D2D68D3
:102CD000C5F30530804D2D1D2D68C5F300147E4DC4
:102CE00014352D68C5F3CC0515FB04F501EE105A1B
:102CF000B8EE411AF0EE410A00286FD023B1012B43
:102D00004ED0022B6BD16BE0734D283D2D68C5F37F
:102D100040153DB3704D283D2D68C5F3C1066F4D7C
:102D200025FA06F201EE102AF8EE411A01EE100A19
:102D3000B8EE411A81EE812A9FED691AC0EE811A20
:102D4000654D10352D68C5F3080501EE105AB8EE33
:102D5000411A31EE811AF7EE001A31EE211A22EEF5
:102D6000010A1CE001EE100AB8EE411ADFED5D1A0F
:102D700081EE812A9FED5A1AC0EE811A564D103508
:102D80002D68C5F3080501EE105AB8EE411A31EE70
:102D9000811AF7EE001A31EE211A22EE010A5BE0E9
:102DA00001EE100AB8EE411ADFED4F1A81EE812ACA
:102DB0009FED4B1AC0EE811A474D10352D68C5F3B3
:102DC000080501EE105AB8EE411A31EE811AF7EEFD
:102DD000001A31EE211A22EE010A3DE077E01DE0F3
:102DE00001EE100AB8EE411A9FED402AC2EE011A18
:102DF0009FED3B1A80EE812A374D10352D68C5F3C3
:102E0000080501EE105AB8EE411A32EE011AB7EE7B
:102E1000002A31EE021A21EE810A1DE001EE100AAD
:102E2000B8EE411ADFED301A81EE812A9FED2C1A9F
:102E3000C0EE811A284D10352D68C5F3080501EE46
:102E4000105AB8EE411A31EE811AF7EE001A31EE3F
:102E5000211A22EE010A00BF00BF1F4D10352D6858
:102E6000C5F3462501EE105AB8EE411AF7EE001AE6
:102E700031EE211AC0EE011ABCEEE11A81ED001A02
:102E8000154D10352D68C5F3064501EE105AB8EE04
:102E9000411AF7EE001A31EE211AC0EE011ABCEE0B
:102EA000E11A81ED011A0C4D10352D68C5F3066548
:102EB00001EE105AB8EE411AF7EE001A31EE211A5F
:102EC000C0EE011ABCEEE11A81ED021A03E0002502
:102ED0000D604D608D6070BD284402580090D00395
:102EE000000000460024744C0024744A20BCBE4BF1
:102EF00070B50146844D2D6805F00303824D2D68A1
:102F0000C5F30550804D2D1D2D68C5F300247E4D61
:102F10001C352D68C5F3CC0515FB04F501EE105AE0
:102F2000B8EE411AF0EE410A00286FD023B1012B10
:102F30004ED0022B6BD16BE0734D283D2D68C5F34D
:102F400040153DB3704D283D2D68C5F3C1066F4D4A
:102F500025FA06F201EE102AF8EE411A01EE100AE7
:102F6000B8EE411A81EE812A9FED691AC0EE811AEE
:102F7000654D18352D68C5F3080501EE105AB8EEF9
:102F8000411A31EE811AF7EE001A31EE211A22EEC3
:102F9000010A1CE001EE100AB8EE411ADFED5D1ADD
:102FA00081EE812A9FED5A1AC0EE811A564D1835CE
:102FB0002D68C5F3080501EE105AB8EE411A31EE3E
:102FC000811AF7EE001A31EE211A22EE010A5BE0B7
:102FD00001EE100AB8EE411ADFED4F1A81EE812A98
:102FE0009FED4B1AC0EE811A474D18352D68C5F379
:102FF000080501EE105AB8EE411A31EE811AF7EECB
:10300000001A31EE211A22EE010A3DE077E01DE0C0
:1030100001EE100AB8EE411A9FED402AC2EE011AE5
:103020009FED3B1A80EE812A374D18352D68C5F388
:10303000080501EE105AB8EE411A32EE011AB7EE49
:10304000002A31EE021A21EE810A1DE001EE100A7B
:10305000B8EE411ADFED301A81EE812A9FED2C1A6D
:10306000C0EE811A284D18352D68C5F3080501EE0C
:10307000105AB8EE411A31EE811AF7EE001A31EE0D
:10308000211A22EE010A00BF00BF1F4D18352D681E
:10309000C5F3462501EE105AB8EE411AF7EE001AB4
:1030A00031EE211AC0EE011ABCEEE11A81ED001AD0
:1030B000154D18352D68C5F3064501EE105AB8EECA
:1030C000411AF7EE001A31EE211AC0EE011ABCEED9
:1030D000E11A81ED011A0C4D18352D68C5F306650E
:1030E00001EE105AB8EE411AF7EE001A31EE211A2D
:1030F000C0EE011ABCEEE11A81ED021A03E00025D0
:103100000D604D608D6070BD284402580090D00362
:10311000000000460024744C0024744A20BCBE4BBE
:103120002DE9F04104460025A846206800F0006023
:10313000B0F1006F30D1606E48B1B0F5801F0DD096
:10314000B0F5001F10D0B0F5401F15D113E0F948BD
:10315000006840F40030F74908600FE00221201DAC
:1031600002F034FC054609E0022104F1240002F0DB
:10317000DFFC054602E001E0012500BF00BF55B9B4
:10318000EC482430006820F44010616E0843E9499F
:103190002431086000E0A846208800F48070B0F573
:1031A000807F2DD1606D05281AD2DFE800F0030A78
:1031B00010171800DF48006840F40030DD4908604F
:1031C00010E00021201D02F001FC05460AE000216C
:1031D00004F1240002F0ACFC054603E002E001E04B
:1031E000012500BF00BF55B9D2482430006820F047
:1031F0000700616D0843CF492431086000E0A8460C
:10320000208800F40070B0F5007F33D1A06D8028D5
:1032100017D003DC40B140281CD10CE0C02817D0E7
:10322000B0F5807F16D114E0C248006840F4003049
:10323000C049086010E00021201D02F0C7FB0546D0
:103240000AE0002104F1240002F072FC054603E0CC
:1032500002E001E0012500BF00BF55B9B5482430A8
:10326000006820F4E070A16D0843B2492431086081
:1032700000E0A846208800F48060B0F5806F38D167
:10328000D4F8A400B0F5800F19D004DC50B1B0F52B
:10329000001F1DD10DE0B0F5C00F17D0B0F5000F25
:1032A00016D114E0A348006840F40030A14908603A
:1032B00010E00021201D02F089FB05460AE00021F4
:1032C00004F1240002F034FC054603E002E001E0D2
:1032D000012500BF00BF5DB996482C30006820F47E
:1032E0006000D4F8A410084392492C31086000E033
:1032F000A846208800F40060B0F5006F38D1D4F8FB
:10330000A800B0F1007F19D004DC50B1B0F1807F8B
:103310001DD10DE0B0F1407F17D0B0F1806F16D114
:1033200014E08448006840F400308249086010E0EE
:103330000021201D02F04AFB05460AE0002104F1AD
:10334000240002F0F5FB054603E002E001E0012560
:1033500000BF00BF5DB977482C30006820F0E06006
:10336000D4F8A810084373492C31086000E0A8463F
:10337000206800F00070B0F1007F27D1A06CA0B1F0
:10338000102804D0202809D030280FD10CE069483B
:10339000006840F400306749086009E00221201D00
:1033A00002F014FB054603E002E001E0012500BF46
:1033B00000BF55B95F482030006820F03000A16C94
:1033C00008435C492031086000E0A846208800F4EA
:1033D0008050B0F5805F36D1E06DB0F5005F19D058
:1033E00004DC50B1B0F5805F1DD10DE0B0F5405F59
:1033F00017D0B0F5804F16D114E04E48006840F465
:1034000000304C49086010E00021201D02F0DEFA77
:1034100005460AE0002104F1240002F089FB05467C
:1034200003E002E001E0012500BF00BF55B94148BB
:103430002430006820F4E040E16D08433D49243128
:10344000086000E0A846208800F40050B0F5005F56
:1034500034D1206EB0F5403F1DD007DC68B1B0F527
:10346000803F0BD0B0F5003F18D10DE0B0F5802FB4
:1034700012D0B0F5A02F11D10FE011E00121201DD5
:1034800002F0A4FA05460BE0012104F1240002F049
:103490004FFB054604E003E002E001E0012500BF28
:1034A00000BF55B923482430006820F4E020216E85
:1034B000084320492431086000E0A846208800F431
:1034C0008040B0F5804F38D1D4F8AC00B0F1405F07
:1034D0001DD007DC68B1B0F1805F0BD0B0F1005FA8
:1034E00018D10DE0B0F1804F12D0B0F1A04F11D142
:1034F0000FE011E00121201D02F068FA05460BE003
:10350000012104F1240002F013FB054604E003E06E
:1035100002E001E0012500BF00BF6DB905482C3075
:10352000006820F0E040D4F8AC10084301492C3189
:10353000086002E02C440258A846208800F40040AD
:10354000B0F5004F26D1E06E98B1B0F1805F03D0A6
:10355000B0F1005F0ED106E0F948006840F4003099
:10356000F749086008E00121201D02F02FFA054606
:1035700002E001E0012500BF00BF55B9F04824304A
:10358000006820F04050E16E0843ED4924310860A6
:1035900000E0A846206800F08070B0F1807F27D15D
:1035A000606CA0B1012804D0022809D003280FD1F3
:1035B0000CE0E348006840F40030E149086009E0AD
:1035C0000221201D02F002FA054603E002E001E0BC
:1035D000012500BF00BF55B9D9482030006820F050
:1035E0000300616C0843D6492031086000E0A8461A
:1035F000206800F48000B0F5800F7DD1D1480068CC
:1036000040F48070CF490860FFF712F8064606E0E4
:10361000FFF70EF8801B642801D9032505E0C9488F
:10362000006800F480700028F2D000BF85BBC44859
:103630004430006800F44070B4F8B01001F44071F8
:10364000884213D0BE484430006820F44077BC481C
:103650004430006840F48030B9494431086008467D
:10366000006820F48030086008460760D4F8B00095
:10367000B0F5807F15D1FEF7DBFF064609E0FEF7C7
:10368000D7FF801B41F28831884202D9032507E029
:1036900038E0AB4844300068C0F340000028EED06A
:1036A00000BF55BB00BFB4F8B00000F44070B0F5E7
:1036B000407F0ED1A2481C38006820F47C51A24AF9
:1036C000D4F8B000104041EA10109D491C39086040
:1036D00007E09B481C38006820F47C5098491C394E
:1036E0000860974844300068B4F8B010C1F30B018B
:1036F00008439349443101E005E001E0086002E03D
:10370000A84600E0A846207800F0010068B3A06F4A
:10371000182819D005DC48B1082808D0102816D17F
:103720000BE0202811D0282811D10FE011E0012151
:10373000201D02F04BF905460BE0012104F12400A5
:1037400002F0F6F9054604E003E002E001E001259D
:1037500000BF00BF55B97A482830006820F0380013
:10376000A16F084376492831086000E0A846207818
:1037700000F00200022828D1606F062815D2DFE889
:1037800000F003040A11121311E00121201D02F0C0
:103790001DF905460BE0012104F1240002F0C8F9EF
:1037A000054604E003E002E001E0012500BF00BFA0
:1037B00055B963482830006820F00700616F08435E
:1037C0005F492831086000E0A846207800F0040036
:1037D00004282AD1D4F89000062815D2DFE800F09A
:1037E00003040A11121311E00121201D02F0EEF86A
:1037F00005460BE0012104F1240002F099F9054689
:1038000004E003E002E001E0012500BF00BF5DB974
:103810004B482C30006820F00700D4F89010084383
:1038200047492C31086000E0A846207800F02000CD
:10383000202836D1D4F88C00B0F1405F1DD007DCD1
:1038400068B1B0F1805F0BD0B0F1005F18D10DE02E
:10385000B0F1804F12D0B0F1A04F11D10FE011E0C4
:103860000021201D02F0B2F805460BE0022104F110
:10387000240002F05DF9054604E003E002E001E007
:10388000012500BF00BF5DB92D482830006820F039
:10389000E040D4F88C10084329492831086000E042
:1038A000A846207800F04000402836D1D4F898008F
:1038B000B0F5406F1DD007DC68B1B0F5806F0BD05C
:1038C000B0F5006F18D10DE0B0F5805F12D0B0F503
:1038D000A05F11D10FE011E00021201D02F076F869
:1038E00005460BE0022104F1240002F021F905460F
:1038F00004E003E002E001E0012500BF00BF5DB984
:103900000F482C30006820F4E050D4F89810084399
:103910000B492C31086000E0A846207800F08000B8
:1039200080283AD1D4F89C00B0F5C04F23D00DDCEC
:1039300098B1B0F5005F11D0B0F5804F1ED113E003
:103940002C44025800480258FFFCFF0FB0F5004F0E
:1039500012D0B0F5204F11D10FE011E00021201D51
:1039600002F034F805460BE0022104F1240002F0D5
:10397000DFF8054604E003E002E001E0012500BFB6
:1039800000BF4DB9BE48006820F46040D4F89C10D8
:103990000843BB49086000E0A846207800F0080012
:1039A000082817D1D4F88000B0F5805F07D1022134
:1039B00004F1240002F0BCF808B14FF00108B0484F
:1039C000001F006820F44050D4F880100843AC4930
:1039D000091F0860207800F01000102815D1D4F8D5
:1039E0009400B0F5807F07D1022104F1240002F099
:1039F0009FF808B14FF00108A148006820F440701A
:103A0000D4F8941008439E490860206800F4002010
:103A1000B0F5002F26D1D4F8A00030B1B0F5803F2A
:103A200009D0B0F5003F0ED10CE00021201D01F0BF
:103A3000CDFF054609E0022104F1240002F078F8E8
:103A4000054602E001E0012500BF00BF4DB98C48EA
:103A5000006820F44030D4F8A0100843884908607A
:103A600000E0A846206800F48020B0F5802F2DD11A
:103A7000D4F88400B0F5801F06D0B0F5001F0CD03C
:103A8000B0F5401F11D10FE07D482C38006840F49C
:103A900000307B492C39086009E0012104F1240041
:103AA00002F046F8054602E001E0012500BF00BF34
:103AB0005DB97348001F006820F44010D4F88410EA
:103AC00008436F49091F086000E0A846206800F419
:103AD0008030B0F5803F24D1E06C18B1B0F5803F64
:103AE0000FD108E066482C38006840F40030644983
:103AF0002C39086007E00221201D01F067FF054610
:103B000001E0012500BF00BF55B95D480C380068D1
:103B100020F48030E16C084359490C39086000E01A
:103B2000A846206800F00050B0F1005F07D10221E4
:103B300004F1240001F0FCFF08B14FF001082068F7
:103B400000F40030B0F5003F27D1E06FA0B1B0F530
:103B5000807F06D0B0F5007F0CD0B0F5407F0CD14F
:103B600009E047482C38006840F4003044492C39BB
:103B7000086004E003E002E001E0012500BF00BFAF
:103B800055B93F48001F006820F44070E16F0843BA
:103B90003B49091F086000E0A846206800F4801037
:103BA000B0F5801F09D136480838006820F0004081
:103BB000216F0843324908390860206800F08050BE
:103BC000B0F1805F0AD12E484838006820F4804068
:103BD000D4F8B41008432A4948390860206800F432
:103BE0000010B0F5001F09D125480838006820F002
:103BF0008070A16E0843224908390860206800F0EF
:103C00008040B0F1804F11D100BF1D484838006896
:103C100020F400401A494839086008460068D4F882
:103C2000B810084316494839086000BF206800F002
:103C30000040B0F1004F09D111480C38006820F065
:103C40004050216D08430E490C390860206800F48B
:103C50000000B0F5000F0AD10948001F006820F4E9
:103C60004000D4F8881008430549091F0860B8F1DE
:103C7000000F02D10020BDE8F0810120FBE7000029
:103C8000584402582DE9F04104460D4614B901206C
:103C9000BDE8F081BD48006800F00F00A8420ED2D8
:103CA000BA48006820F00F002843B8490860084669
:103CB000006800F00F00A84201D00120E8E720785A
:103CC00000F0040004280ED1B1492069096801F010
:103CD0007001884207D9AE48006820F07000216961
:103CE0000843AB490860207800F00800082811D18B
:103CF000A749091D6069096801F07001884209D966
:103D0000A348001D006820F0700061690843A049C5
:103D1000091D0860207800F01000102811D19C497E
:103D2000091DA069096801F4E061884209D9984831
:103D3000001D006820F4E060A16908439449091D52
:103D40000860207800F02000202811D19049083127
:103D5000E069096801F07001884209D98C4808308F
:103D6000006820F07000E169084389490831086063
:103D7000207800F0020002280ED18549E068096829
:103D800001F00F01884207D98148006820F00F0038
:103D9000E16808437E490860207800F001000028AF
:103DA00050D07B48006820F47060A16808437849CF
:103DB00008606068022807D1754818380068C0F3A9
:103DC0004040F8B9012063E76068032807D17048D4
:103DD00018380068C0F34060A0B9012058E7606857
:103DE000012807D16A4818380068C0F3002048B994
:103DF00001204DE7664818380068C0F3800008B914
:103E0000012045E762480838006820F00700616833
:103E100008435F4908390860FEF70AFC064608E0D7
:103E2000FEF706FC801B41F28831884201D903204D
:103E30002EE757480838006800F038006168B0EB9A
:103E4000C10FEDD1207800F0020002280ED15049B8
:103E5000E068096801F00F01884207D24C48006809
:103E600020F00F00E16808434949086047480068AE
:103E700000F00F00A8420ED94448006820F00F005F
:103E80002843424908600846006800F00F00A84235
:103E900001D00120FCE6207800F0040004280ED1B7
:103EA0003B492069096801F07001884207D238480F
:103EB000006820F0700021690843354908602078C7
:103EC00000F00800082811D13149091D606909680E
:103ED00001F07001884209D22D48001D006820F0D1
:103EE0007000616908432A49091D0860207800F0C4
:103EF0001000102811D12649091DA069096801F494
:103F0000E061884209D22248001D006820F4E06088
:103F1000A16908431E49091D0860207800F02000AF
:103F2000202811D11A490831E069096801F07001AF
:103F3000884209D216480830006820F07000E16914
:103F4000084313490831086000F076F81049096801
:103F5000C1F303210F4A515C01F01F0120FA01F760
:103F60000B48006800F00F001146085C00F01F00CD
:103F700027FA00F008490860084807600848006808
:103F8000FEF798FB8046404682E600000020005283
:103F90001844025826CB0308040000240000002423
:103FA0001800002410B500F047F80D490968C1F366
:103FB00003210C4A515C01F01F0120FA01F408486A
:103FC000006800F00F001146085C00F01F0024FAA2
:103FD00000F005490860054804600846006810BD07
:103FE0001844025826CB03080400002400000024D3
:103FF00000B5FFF7D7FF05490968C1F30211044A6C
:10400000515C01F01F01C84000BD00001C44025873
:1040100026CB030800B5FFF7C5FF05490968C1F3C2
:104020000221044A515C01F01F01C84000BD00009C
:104030001C44025826CB0308F0B5824E366806F0C1
:10404000380636B1082E15D0102E15D0182E7DD179
:1040500014E07C4E103E3668C6F3401646B1794EE9
:10406000103E3668C6F3C107774E26FA07F000E027
:104070007548E5E07548E3E07548E1E0714E1836B3
:10408000366806F003046F4E18363668C6F305111D
:104090006C4E1C36366806F001056A4E24363668CA
:1040A000C6F3CC0616FB05F601EE106AB8EE410A1F
:1040B000002971D024B1012C50D0022C6DD16DE0BB
:1040C000604E103E3668C6F340163EB35D4E103E5D
:1040D0003668C6F3C1075C4E26FA07F301EE103AC4
:1040E000F8EE411A01EE101AB8EE411A81EE812A5B
:1040F0009FED581AC0EE011A524E20363668C6F3AC
:10410000080601EE106AB8EE411A31EE811AF7EE98
:10411000001A31EE211A62EE010A1EE001EE101AB9
:10412000B8EE411ADFED4C1A81EE812A9FED491A53
:10413000C0EE011A434E20363668C6F3080601EE7B
:10414000106AB8EE411A31EE811A00E076E0F7EE1F
:10415000001A31EE211A62EE010A5BE001EE101A3C
:10416000B8EE411A9FED3D2AC2EE011A9FED391AB1
:1041700080EE012A334E20363668C6F3080601EE7B
:10418000106AB8EE411A32EE011AB7EE002A31EE8B
:10419000021A61EE810A3DE04EE01DE001EE101AC8
:1041A000B8EE411ADFED2E1A81EE812A9FED291A11
:1041B000C0EE011A234E20363668C6F3080601EE1B
:1041C000106AB8EE411A31EE811AF7EE001A31EE9C
:1041D000211A62EE010A1DE001EE101AB8EE411A32
:1041E0009FED1E2AC2EE011A9FED1A1A80EE012AD7
:1041F000144E20363668C6F3080601EE106AB8EE93
:10420000411A32EE011AB7EE002A31EE021A61EEBF
:10421000810A00BF00BF0B4E20363668C6F3462623
:10422000721C01EE102AB8EE411AC0EE811ABCEEE3
:10423000E11A11EE100A00E0002001E0034800BF7F
:1042400000BFF0BD104402580090D00300093D00AB
:1042500040787D01000000460024744C0024744A1C
:1042600020BCBE4B2DE9F047044614B90120BDE83F
:10427000F087207800F00100002870D0FA4800682C
:1042800000F03808F8481830D0F80090B8F1100F56
:1042900006D0B8F1180F0FD109F0030002280BD196
:1042A000F14810380068C0F3404000286AD06068C8
:1042B000002867D10120DAE700BF6068B0F5803FD1
:1042C00008D1E9481038006840F48030E6491039D8
:1042D00008602EE0606868B9E3481038006820F490
:1042E0008030E149103908600846006820F48020D9
:1042F00008601EE06068B0F5A02F0DD1DA481038D4
:10430000006840F48020D8491039086008460068E9
:1043100040F4803008600CE0D3481038006820F486
:104320008030D149103908600846006820F48020A8
:10433000086000BF606898B1FEF77AF9054606E0AC
:10434000FEF776F9401B642801D903208FE7C648A1
:1043500010380068C0F340400028F1D012E012E0AD
:10436000FEF766F9054606E0FEF762F9401B642891
:1043700001D903207BE7BC4810380068C0F34040F7
:104380000028F1D100BF207800F00200022874D18B
:10439000B548006800F03808B3481830D0F80090ED
:1043A000B8F1000F05D0B8F1180F56D109F003008D
:1043B000D0BBAD4810380068C0F3800018B1E06889
:1043C00008B9012053E7A8481038006820F0190008
:1043D000E1680843A44910390860FEF729F9054649
:1043E00006E0FEF725F9401B022801D903203EE72D
:1043F0009D4810380068C0F380000028F1D000BF4D
:10440000FEF710F941F2030188421AD820694028CA
:104410000BD195480C38006820F47C3040F4003013
:1044200091490C39086017E017E08F480C38006894
:1044300020F47C30216940EA01308B490C39086056
:104440000AE089480C38006820F0FE40217C40EAF0
:10445000016085490C39086066E0E06888B38248ED
:104460001038006820F01900E16808437E491039CF
:104470000860FEF7DDF8054607E056E0FEF7D8F8DD
:10448000401B022801D90320F1E677481038006864
:10449000C0F380000028F1D000BFFEF7C3F841F25E
:1044A000030188421AD8206940280BD16E480C3885
:1044B000006820F47C3040F400306B490C3908600F
:1044C00017E017E068480C38006820F47C30216958
:1044D00040EA013064490C3908600AE062480C384F
:1044E000006820F0FE40217C40EA01605E490C3902
:1044F000086019E05C481038006820F001005A4953
:1045000010390860FEF794F8054606E0FEF790F8CB
:10451000401B022801D90320A9E65348103800683F
:10452000C0F380000028F1D100BF207800F0100017
:1045300010287CD14C48006800F038084A481830F0
:10454000D0F80090B8F1080F06D0B8F1180F3DD19F
:1045500009F00300012839D1434810380068C0F33E
:10456000002020B1E069802801D001207FE600BF53
:10457000FEF758F841F2030188421AD8206A202831
:104580000AD139480C38006820F0F84040F08040EB
:1045900035490C39086018E033480C38006820F0C1
:1045A000F84094F8201040EA81602F490C390860E7
:1045B0000BE02D48001F006820F07C5094F820107C
:1045C00040EA01602849091F086066E0E06978B3A5
:1045D00025481038006840F08000234910390860F1
:1045E000FEF726F8054606E0FEF722F8401B0228F3
:1045F00001D903203BE61C4810380068C0F30020B6
:104600000028F1D000BFFEF70DF841F20301884207
:104610001CD8206A20280CD113480C38006820F0E0
:10462000F84040F0804010490C3908601AE035E04D
:104630001CE00D480C38006820F0F84094F8201079
:1046400040EA816008490C3908600BE00648001F09
:10465000006820F07C5094F8201040EA0160024984
:10466000091F086019E0000010440258FA48006869
:1046700020F08000F8490860FDF7DAFF054606E003
:10468000FDF7D6FF401B022801D90320EFE5F248D1
:104690000068C0F300200028F2D100BF207800F0AD
:1046A0000800082836D16069D0B1EB487430006842
:1046B00040F00100E84974310860FDF7B9FF054694
:1046C00006E0FDF7B5FF401B022801D90320CEE527
:1046D000E14874300068C0F340000028F1D019E0D0
:1046E000DD487430006820F00100DB497431086057
:1046F000FDF79EFF054606E0FDF79AFF401B0228E6
:1047000001D90320B3E5D44874300068C0F34000F9
:104710000028F1D1207800F02000202830D1A069B5
:10472000B8B1CD48006840F48050CB490860FDF72F
:104730007FFF054606E0FDF77BFF401B022801D9FD
:10474000032094E5C4480068C0F340300028F2D04C
:1047500016E0C148006820F48050BF490860FDF7AA
:1047600067FF054606E0FDF763FF401B022801D9FD
:1047700003207CE5B8480068C0F340300028F2D13F
:10478000207800F0040004287DD1B448006840F48B
:104790008070B2490860FDF74BFF054606E0FDF763
:1047A00047FF401B642801D9032060E5AB4800683F
:1047B00000F480700028F2D000BFA068012808D162
:1047C000A5487030006840F00100A34970310860CE
:1047D0002DE0A06868B9A0487030006820F00100A2
:1047E0009D49703108600846006820F004000860A8
:1047F0001DE0A06805280DD197487030006840F092
:1048000004009549703108600846006840F00100D6
:1048100008600CE090487030006820F001008E497C
:10482000703108600846006820F00400086000BF8E
:10483000A068A0B1FDF7FCFE054608E0FDF7F8FE14
:10484000401B41F28831884201D903200FE582489C
:1048500070300068C0F340000028EFD013E0FDF78F
:10486000E7FE054608E0FDF7E3FE401B41F2883114
:10487000884201D90320FAE4774870300068C0F319
:1048800040000028EFD1606A00287DD072481030C7
:10489000006800F03800182877D0606A022875D1C7
:1048A0006D48006820F080706B490860FDF7C0FE1D
:1048B000054606E0FDF7BCFE401B022801D9032097
:1048C000D5E465480068C0F340600028F2D100BF1D
:1048D000D4E90A1041EA00105F492831096840F222
:1048E000F332914308435C4928310860208E401E12
:1048F000C0F30800616B491E4FF47E4202EA412179
:104900000843218F491ED20102EA014108433C219C
:10491000095D491E120202EA016108434E49303125
:10492000086000BF081F006820F00100091F086030
:104930004948343000684FF6F8718843A16C40EA6A
:10494000C10045493431086043482C30006820F0EC
:104950000C00216C084340492C310860084600686F
:1049600020F00200616C08433B492C310860084686
:10497000006840F4803008600846006840F4003069
:1049800008600846006802E06AE038E01FE040F492
:10499000802008600846006840F0010008602E484A
:1049A000006840F080702C490860FDF741FE054624
:1049B00006E0FDF73DFE401B022801D9032056E426
:1049C00025480068C0F340600028F2D048E0224843
:1049D000006820F0807020490860FDF729FE054638
:1049E00006E0FDF725FE401B022801D903203EE426
:1049F00019480068C0F340600028F2D130E0164842
:104A000028300768144830300668606A012821D0D1
:104A100007F00301A06A81421CD1C7F30511E06AC7
:104A2000884217D1C6F30801206B401E814211D184
:104A3000606B401EC6F3462188420BD1A06B401E1E
:104A4000C6F30641884205D1E06B401EC6F30661FD
:104A5000884205D001200AE4004402580048025868
:104A6000002004E470B504460D460CB9012070BD69
:104A700094F82C0028B9002084F82D00204600F07E
:104A800019F8022084F82C00211D2068FCF7DDFFB6
:104A90002946D4E90002FDF72BF80548006840F0EC
:104AA000004003490860012084F82C000020DEE764
:104AB0000040005210B586B0044600BF3E48006872
:104AC00040F480503C4908600846006800F480507B
:104AD000009000BF00BF00BF37480C30006840F0B6
:104AE000040035490C3108600846006800F00400F5
:104AF000009000BF00BF00BF0846006840F00800FB
:104B000008600846006800F00800009000BF00BF81
:104B100000BF0846006840F01000086008460068C2
:104B200000F01000009000BF00BF00BF0846006802
:104B300040F0200008600846006800F02000009067
:104B400000BF00BF00BF0846006840F0400008609A
:104B50000846006800F04000009000BF00BF0D2034
:104B600001900220029001200390032004900C2069
:104B7000059001A91148FDF749FC4CF20370019022
:104B800001A90F48FDF742FC4FF68370019001A97F
:104B90000C48FDF73BFC4FF63F00019001A90A4885
:104BA000FDF734FC48F23710019001A90748FDF7E2
:104BB0002DFC06B010BD0000D44402580008025875
:104BC000000C025800100258001402580018025835
:104BD00070B504460D4694F82C00022800D170BD33
:104BE00094F82C0001280AD1022084F82C002946D0
:104BF0002068FCF760FF012084F82C0001E0012010
:104C0000EDE70020EBE72DE9F04104460E4617469C
:104C100094F82C50022D02D10220BDE8F081012D24
:104C200001D0052D12D1022084F82C003A463146DD
:104C30002068FCF74AFF3068022803D1052084F879
:104C40002C0005E0012084F82C0001E00120E4E7BD
:104C50000020E2E770B504460E4615460CB9012067
:104C600070BD94F8450028B9002084F8440020461F
:104C700000F028F804F108012068FCF761FE3146D5
:104C8000A2682068FCF7AEFE2946E36AD4E9010277
:104C9000FCF734FEA168206850F8210040F00100C4
:104CA000A268216841F822000548006840F00040F1
:104CB00003490860012084F845000020D0E7000087
:104CC0000040005210B586B0044600BF204800687E
:104CD00040F480501E4908600846006800F4805087
:104CE000009000BF00BF00BF19480C30006840F0C2
:104CF000080017490C3108600846006800F00800F9
:104D0000009000BF00BF00BF0846006840F01000E0
:104D100008600846006800F01000009000BF00BF67
:104D20004EF2B37001900220029001200390022005
:104D300004900C20059001A90648FDF767FB4FF68B
:104D40008070019001A90448FDF760FB06B010BD1A
:104D5000D4440258000C025800100258042808D10C
:104D60004FF0E021096941F004014FF0E0221161A8
:104D700007E04FF0E021096921F004014FF0E02243
:104D80001161704770B504462546681EB0F1807FFA
:104D900001D301200FE0681E4FF0E02148610F2190
:104DA0004FF0FF3002F03CF800204FF0E021886126
:104DB00007200861002070BD70477047704710B52C
:104DC00004460CB9012010BD94F83D0028B900201C
:104DD00084F83C00204600F029F8022084F83D00C9
:104DE000211D206800F0E2FF012084F8480000BF88
:104DF00084F83E0001213F2001554020015541200B
:104E00000155422001554320015500BF00BF01203C
:104E100084F844004520015546200155472001559E
:104E200000BF012084F83D000020CCE738B50446DF
:104E30000E492068884217D100BF00BF0C480068A7
:104E400040F010000A4908600846006800F01000B1
:104E5000009000BF00BF00BF032201213620FDF7F4
:104E6000C2FE3620FDF7ABFE38BD0000001000404A
:104E7000E8440258014691F83D00012801D0012084
:104E80007047022081F83D000868C06840F00100CA
:104E90000B68D8601C4B086898421BD00868B0F1BA
:104EA000804F17D0194B0868984213D0184B0868E8
:104EB00098420FD0174B086898420BD0164B0868E1
:104EC000984207D0154B0868984203D0144B0868E5
:104ED000984210D108688068124B00EA0302062A43
:104EE0000FD0B2F5803F0CD00868006840F0010098
:104EF0000B68186005E00868006840F001000B6866
:104F000018600020BCE700000000014000040040E1
:104F100000080040000C0040000401400018004060
:104F20000040014007000100704710B504462068AA
:104F30000069C0F34000D8B12068C068C0F34000E9
:104F4000B0B16FF00200216808610120207720686D
:104F5000806900F0030018B12046FFF7E5FF05E087
:104F6000204600F0BEF8204600F0BCF80020207774
:104F700020680069C0F38000D8B12068C068C0F321
:104F80008000B0B16FF00400216808610220207732
:104F90002068806900F4407018B12046FFF7C4FF14
:104FA00005E0204600F09DF8204600F09BF8002028
:104FB000207720680069C0F3C000D8B12068C068BD
:104FC000C0F3C000B0B16FF0080021680861042090
:104FD00020772068C06900F0030018B12046FFF771
:104FE000A3FF05E0204600F07CF8204600F07AF8A8
:104FF0000020207720680069C0F30010D8B1206835
:10500000C068C0F30010B0B16FF0100021680861F3
:10501000082020772068C06900F4407018B120464D
:10502000FFF782FF05E0204600F05BF8204600F025
:1050300059F8002020772068006900F0010058B17D
:105040002068C06800F0010030B16FF001002168F5
:105050000861204600F048F820680069C0F3C010DD
:1050600058B12068C068C0F3C01030B16FF0800044
:10507000216808612046FFF7A0FE20680069C0F3A0
:10508000002058B12068C068C0F3C01030B16FF480
:105090008070216808612046FFF78EFE2068006955
:1050A000C0F3801058B12068C068C0F3801030B1E0
:1050B0006FF0400021680861204600F021F8206868
:1050C0000069C0F3401058B12068C068C0F34010B8
:1050D00030B16FF02000216808612046FFF76EFEB6
:1050E00010BD70477047000010B5044603492068A2
:1050F000884202D101202FF0DBFC10BD00100040DF
:105100007047704770477047704770472DE9F04708
:1051100004462068C569206806682068876840F6EC
:105120000F0005EA0009B9F1000F0FD105F02000CA
:1051300060B106F0200010B907F0805030B1206F48
:1051400010B12046216F8847BDE8F087B9F1000F04
:105150007ED0F948384018B9F84830400028F7D0D8
:1051600005F0010058B106F4807040B101202168BB
:105170000862D4F88C0040F00100C4F88C0005F0FF
:10518000020058B107F0010040B102202168086216
:10519000D4F88C0040F00400C4F88C0005F0040042
:1051A00058B107F0010040B1042021680862D4F82A
:1051B0008C0040F00200C4F88C0005F0080070B1CB
:1051C00006F0200010B9DC48384040B108202168C2
:1051D0000862D4F88C0040F00800C4F88C0005F494
:1051E000006060B106F0806048B14FF40060216853
:1051F0000862D4F88C0040F02000C4F88C00D4F889
:105200008C0000284ED005F0200050B106F02000A0
:1052100010B907F0805020B1206F10B12046216FE7
:105220008847D4F88CA02068806800F040004028AF
:1052300002D00AF0280070B3204600F0E1FE20689A
:10524000806800F04000402821D100BF00BF00E08E
:1052500029E02168083151E8001F21F04000216851
:10526000083141E80002002AF1D100BFE06F50B1DF
:10527000B348E16F0865E06FFCF7F2FE90B1E06FB4
:10528000016D88470EE02046FFF73FFF0AE0204609
:10529000FFF73BFF06E0FFE72046FFF736FF002061
:1052A000C4F88C0050E7E06E012872D105F01000C0
:1052B00000286ED006F010000028FAD010202168D7
:1052C00008622068806800F0400040287ED1E06FCE
:1052D00000689C49884258D0E06F006899491831AD
:1052E000884252D0E06F00689649303188424CD0F5
:1052F000E06F006893494831884246D0E06F00680B
:1053000090496031884240D0E06F00688D49783123
:1053100088423AD0E06F00688A499031884234D0A0
:10532000E06F00688749A83188422ED0E06F00689E
:105330008549884229D0E06F006883491831884246
:1053400023D0E06F00688049303188421DD0E06F83
:1053500000687D494831884217D0E06F00687A497B
:105360006031884211D0E06F006877497831884217
:105370000BD0E06F006874499031884205D0E06F2F
:1053800000687149A831884204D1E06F0068406824
:1053900003E0A0E0E06F006840681FFA80F8B8F111
:1053A000000F55D0B4F85C00404551DDA4F85E8094
:1053B000E06FC069B0F5807F41D000BF00BF2168B9
:1053C00051E8001F21F48070226800E041E042E8CB
:1053D00000010029F3D100BF00BF00BF21680831E0
:1053E00051E8001F21F001002168083141E8000266
:1053F000002AF3D100BF00BF00BF2168083151E887
:10540000001F21F040002168083141E80002002A15
:10541000F3D100BF2020C4F888000020E06600BF60
:1054200000BF216851E8001F21F01000226842E807
:1054300000010029F5D100BFE06FFCF7A3FBB4F831
:105440005C00B4F85E20801A81B22046FFF759FE56
:105450007AE634F85C0F6188401A1FFA80F8608899
:105460005C3CB8B3B8F1000F34D000BF00BF216876
:1054700051E8001F21F49070226842E800010029E1
:10548000F5D100BF00BF00BF2168083151E8001FFF
:10549000294AD24301EA02002168083141E80002AA
:1054A000002AF1D100BF2020C4F888000020E06667
:1054B000206700BF00BF216851E8001F21F01000E5
:1054C000226842E800010029F5D100BF414620468C
:1054D000FFF717FE38E605F4801050B107F480009E
:1054E00038B14FF48010216808622046FFF70CFEA7
:1054F0002AE605F0800058B106F0800010B907F4E4
:10550000000028B1606F10B12046616F88471BE62C
:1055100005F0400030B106F0400018B1204600F020
:10552000A5FD11E605F4000080B106F0804068B1E9
:105530002046FFF7E8FD07E6010000102001000407
:10554000E75F0008100002401004024005F0807080
:1055500030B106F0004018B12046FFF7D3FDF3E567
:1055600000BFF1E510B504460CB9012010BDA069DB
:1055700000B100E000BFD4F8840028B9002084F80E
:105580008000204600F02AF82420C4F88400206817
:10559000006820F0010021680860204601F018F83A
:1055A000012800D1E2E7A06A10B1204600F064FCB7
:1055B0002068406820F49040216848602068806836
:1055C00020F02A00216888602068006840F001000F
:1055D00021680860204600F0CBFCC7E710B586B014
:1055E00004462B492068884250D100BF00BF29489B
:1055F000006840F01000274908600846006800F085
:105600001000009000BF00BF00BF00BF00BF2148D6
:105610001038006840F001001E4910390860084643
:10562000006800F00100009000BF00BF00BF00BF95
:1056300000BF0846006840F00100086008460068A6
:1056400000F00100009000BF00BF00BF4FF40070E9
:105650000190022002900120039002200490072074
:10566000059001A90C48FCF7D1FE4FF48060019031
:105670000720059001A90848FCF7C8FE2520FDF782
:105680009EFA032211462520FDF7ADFA06B010BDA3
:1056900000100140F04402580000025870B5044662
:1056A0000D461646D4F8880020282CD105B10EB935
:1056B000012070BD00BF94F88000012801D10220B4
:1056C000F7E7012084F8800000BF0020E0660F4962
:1056D0002068884211D02068406800F4000060B162
:1056E00000BF00BF216851E8001F41F080602268C0
:1056F00042E800010029F5D100BF32462946204684
:1057000001F02CFAD5E70220D3E70000000C005886
:1057100010B504462049206888423BD11F480088C4
:1057200000F4004088BB1D48008800F4804070B140
:105730001B4800780A2803D000201849088024E07C
:105740001648008840F40040144908801DE01448C1
:1057500000780D2806D11148008840F480400F4998
:10576000088012E00E4800780C490988C1F30D0149
:105770000C4A505409480088401C084908800846D3
:105780000088C72801DD002008800122044906485E
:10579000FFF784FF10BD000000100140100000243E
:1057A00012000024EC040024B4050024704700BF5C
:1057B000FEE7F0B58E880768FF68C7F30B473E44E5
:1057C000330406688436802707FB0266766806F491
:1057D0007047066884364FF0800C0CFB02667760D9
:1057E0000E680768FF68C7F30B473E44761C1E43EC
:1057F000076884370CFB02777E608E890768FF6834
:10580000C7F30A073E44330406688436802707FB43
:105810000266B66806F47047066884360CFB0266BA
:10582000B7608E680768FF68C7F30A073E44761CB6
:1058300046EA0307066884360CFB0266B760066812
:105840008436802707FB0266366926F0070706685C
:1058500084360CFB026637610F69066884360CFBE0
:10586000026637613126765C33023226765C340478
:105870000E7E350606688436802707FB0266B66909
:105880000027066884360CFB0266B76191F8306029
:105890001E43264346EA0507066884360CFB02666B
:1058A000B76106688436802707FB0266766926F0B2
:1058B000FF07066884360CFB026677614F6906684D
:1058C00084360CFB0266776106688436802707FB06
:1058D0000266F66940F20777BE43076884370CFB1F
:1058E0000277FE61D1E907763743066884360CFB00
:1058F0000266F76106688436802707FB0266B66A8F
:105900000027066884360CFB0266B7624F6A066899
:1059100084360CFB0266B7620E690EB9042313E0ED
:105920000E69012E01D103230EE00E69042E08D06A
:105930000E69022E05D00E69032E02D00E69072EC5
:1059400001D1022300E0012306688436802707FB8B
:105950000266F66A06F0E027066884364FF0800C8F
:105960000CFB0266F762D1E90076F61B5E43F61D7A
:105970000F8D5F4346EA0747066884360CFB0266D4
:10598000F76206688436802707FB0266366BF70AE3
:10599000FF02066884360CFB02663763CF6A06682E
:1059A00084360CFB0266376306688436D701F659E5
:1059B00046F00107066884364FEAC21C46F80C70B0
:1059C000F0BD00BFFEE700BFFEE770472DE9F041E4
:1059D00004460E4600275548006800F003000328DF
:1059E00002D10120BDE8F08150482838006820F03D
:1059F00080604E4928390860FCF71AFE054606E02B
:105A0000FCF716FE401B022801D90320EAE74748AD
:105A100028380068C0F3C0600028F1D100BF4348B7
:105A2000006820F47C30216840EA01303F4908607A
:105A3000A088401EC0F30800A168491E4FF47E42B2
:105A400002EA41210843A189491ED20102EA01412B
:105A50000843217C491E120202EA016108433349CE
:105A60001031086000BF3148001D006820F0C00000
:105A7000616908432D49091D08600846006820F047
:105A80002000A16908432949091D086008460068EB
:105A900020F0100008602548143000684FF6F871B7
:105AA0008843E16940EAC1002049143108601F4879
:105AB000001D006840F010001C49091D08602EB947
:105AC0000846006840F40020086012E0012E08D16A
:105AD0001648001D006840F480101449091D086034
