:020000040800F2
:10000000900900242D0010086D191008A122000885
:10001000390010087D0600080B660008000000008B
:10002000000000000000000000000000A1590008CE
:1000300005021008000000006F1910089D5A000802
:100040004700100847001008470010084700100834
:100050004700100847001008470010084700100824
:100060004700100847001008470010084700100814
:100070004700100847001008470010084700100804
:1000800047001008470010084700100847001008F4
:1000900047001008470010084700100847001008E4
:1000A00047001008470010084700100847001008D4
:1000B00047001008470010084700100847001008C4
:1000C00047001008470010084700100847001008B4
:1000D00047001008F51C10084700100847001008DA
:1000E00047001008470010080000000047001008F3
:1000F0004700100847001008470010084700100884
:100100004700100847001008470010084700100873
:100110004700100847001008470010084700100863
:100120004700100847001008470010084700100853
:100130004700100847001008470010084700100843
:1001400000000000000000000000000000000000AF
:100150004700100847001008470010084700100823
:100160004700100847001008470010084700100813
:100170004700100847001008470010080000000062
:1001800047001008470010084700100847001008F3
:1001900047001008470010084700100847001008E3
:1001A00047001008470010084700100847001008D3
:1001B00047001008470010084700100847001008C3
:1001C00047001008470010084700100847001008B3
:1001D00047001008470010084700100847001008A3
:1001E0004700100847001008470010084700100893
:1001F0004700100847001008470010084700100883
:100200004700100847001008470010084700100872
:100210004700100847001008470010084700100862
:1002200047001008470010084700100800000000B1
:1002300047001008470010080000000047001008A1
:100240004700100847001008470010084700100832
:100250004700100847001008470010084700100822
:100260004700100847001008470010084700100812
:100270004700100847001008470010080000000061
:1002800047001008000000004700100800000000B0
:10029000000000004700100800F002F8FFF0B7FE71
:1002A0000AA090E8000C82448344AAF10107DA45D1
:1002B00001D1FFF0ACFEAFF2090EBAE80F0013F067
:1002C000010F18BFFB1A43F00103184760640000D8
:1002D00080640000103A24BF78C878C1FAD8520769
:1002E00024BF30C830C144BF04680C6070470000B0
:1002F0000023002400250026103A28BF78C1FBD82F
:10030000520728BF30C148BF0B6070471FB501F1CD
:10031000EBFD1FBD53EA020C00F069802DE9F04BA4
:100320004FF00006002B1FBFB3FA83F503FA05F464
:1003300024FA05F65E4012BF1643B2FA82F502FABD
:1003400005F4C5F120051EBF22FA05FC44EA0C04A1
:10035000203556EA044C4FEA144418BF641C4FF091
:1003600000084FF00009904271EB030C39D30029CB
:1003700019BFB1FA81F701FA07F6B0FA80F700FA6F
:1003800007F6C7F120071EBF20FA07FC46EA0C0655
:100390002037B6FBF4FCA7EB0507103F07F01F0B57
:1003A000CBF120060CFA0BFB2CFA06F644BFB34641
:1003B0000026202FA4BF5E464FF0000B5BEA060C20
:1003C00008BF4FF0010B19EB0B09ABFB027C48EBAC
:1003D0000608C01B06FB02CC0BFB03CC71EB0C0127
:1003E000C1E70B46024641464846BDE8F08B13B5CF
:1003F0004FF000004FF00001AFF30080BDE81C405B
:10040000704700000FB41CB5074B06AA7B44694631
:1004100000900598FFF0D7FE0020694600F0E8F84C
:100420001CBC5DF814FB0000E101000070B504463F
:1004300085690068C10601D5302600E02026C00786
:1004400007D070BDD4E9012130469047206A401C96
:1004500020626D1EF6D570BD70B5044685690078C2
:10046000C00707D170BDD4E9012120209047206A40
:10047000401C20626D1EF6D570BD000070B50446AC
:100480000D4621461068AFF300802188090502D58A
:100490000F4A7A4402E00E4A7A440E32002104F1F7
:1004A000240305E000F00F060009965D5E54491C28
:1004B0000028F7D120780023000704D5702D02D042
:1004C00009B1022311322046BDE8704000F037B870
:1004D000FC61100010B5203AC0F00B80B1E8185054
:1004E000203AA0E81850B1E81850A0E81850BFF41E
:1004F000F5AF5FEA027C24BFB1E81850A0E81850BD
:1005000044BF18C918C0BDE810405FEA827C24BF10
:1005100051F8043B40F8043B08BF7047D20728BF9E
:1005200031F8023B48BF11F8012B28BF20F8023BED
:1005300048BF00F8012B70477047704770472DE99E
:10054000F0470D4699469246044600F1240801689A
:10055000880604D5E06921F01001216000E0012047
:10056000A84201DD471B00E00027A1697A1902EBD0
:100570000900081AA0612078C00602D42046FFF7BF
:1005800055FF002608E0D4E901211AF8060090473B
:10059000206A401C761C20624E45F4DB2078C006A1
:1005A0000AD52046FFF742FF06E0D4E901213020BA
:1005B0009047206A401C2062381EA7F10107F4DC36
:1005C00007E0D4E9012118F805009047206A401C93
:1005D0002062281EA5F10105F3DC2046FFF73CFF51
:1005E0002078000602D50220BDE8F0870120FBE755
:1005F0000A6802F8010B0A6070470000074B70B5EB
:100600000D467B44FFF0DFFD0446284600F008F865
:1006100010B14FF0FF3070BD204670BDB7600000D4
:10062000007B00F080007047754600F023F8AE466E
:1006300005006946534620F00700854618B020B5EE
:10064000FFF002FDBDE820404FF000064FF000072C
:100650004FF000084FF0000B21F00701AC46ACE86A
:10066000C009ACE8C009ACE8C009ACE8C0098D46D7
:1006700070470000004870473003002400BFFEE7C9
:1006800010B505F0F7F805F0A7F80348006840F04A
:1006900004000149086010BD9CEF00E030B502463F
:1006A000002300240868012816D013686FF30E0396
:1006B000D1E901052843CD6828430D6928434D69D8
:1006C00028438D692843CD6928430D6A28434D6A24
:1006D00028430343136019E0136823F4F843D1E976
:1006E000070528434D6A2843034354686FF30E04FB
:1006F000D1E901052843CD6828430D6928434D6998
:1007000028438D692843044313605460002030BDA2
:1007100018B5034600200090D1E9000420438C68FE
:10072000641E40EA4410CC6840EA442000900098DF
:100730001861002018BD0000F8B502460B460021E4
:10074000002600240020824D00BFFCE0012707FAAC
:1007500001F61F6807EA0604B4427CD15F68022FE5
:1007600002D05F68122F1AD14FEAD10C02F1200794
:1007700057F82C004F074FEAD76C0F2707FA0CF7F2
:10078000B8434FEA417C4FEADC6C1F6907FA0CF76B
:1007900038434FEAD10C02F1200747F82C001068CB
:1007A0004FEA410C032707FA0CF7B8431F7907F00B
:1007B00003074FEA410C07FA0CF7384310605F68F3
:1007C000012F08D05F68022F05D05F68112F02D07B
:1007D0005F68122F17D190684FEA410C032707FA80
:1007E0000CF7B8434FEA410CDF6807FA0CF73843BF
:1007F0009060506801278F40B8431F79C7F30017F6
:100800008F4038435060D0684FEA410C032707FA05
:100810000CF7B8434FEA410C9F6807FA0CF73843CE
:10082000D0605F6807F08057B7F1805F95D100BF57
:10083000484F3F6847F00207DFF818C1CCF8007056
:1008400067463F6807F00207009700BF00BF424FAE
:100850004FEA910C00E075E057F82C008F074FEA43
:10086000177C0F2707FA0CF7B8433C4FBA4201D167
:1008700000272DE03A4FBA4201D1012728E0394F35
:10088000BA4201D1022723E0374FBA4201D10327F0
:100890001EE0364FBA4201D1042719E0344FBA4264
:1008A00001D1052714E0334FBA4201D106270FE0EA
:1008B000314FBA4201D107270AE0304FBA4201D185
:1008C000082705E02E4FBA4201D1092700E00A2788
:1008D0004FEA817C4FEA1C7C07FA0CF738431E4F25
:1008E0004FEA910C47F82C002868A0435F6807F492
:1008F0008037B7F5803F00D1204328606868A04367
:100900005F6807F40037B7F5003F00D12043686007
:100910004FF0B0473868A0435F6807F48017B7F519
:10092000801F00D120434FF0B04738607868A04363
:100930005F6807F40017B7F5001F00D120434FF0A0
:10094000B0477860491C1029FFF400AFF8BD0000E3
:1009500080000058F444025808040058000002586F
:100960000004025800080258000C025800100258F7
:100970000014025800180258001C025800200258A7
:100980000024025842694A404261704770B50446EB
:100990000E46154600BF94F8A000012801D10220A0
:1009A00070BD012084F8A00000BF022084F8A100DF
:1009B00005EB850101EBC50204F1380101EB820072
:1009C00034223146FFF786FD2A463146204604F0A0
:1009D00061FD01202168486284F8A10000BF002069
:1009E00084F8A00000BF00BFDAE72DE9F04104461B
:1009F0000E461746984600BF94F8A000012802D181
:100A00000220BDE8F081012084F8A00000BF022090
:100A100084F8A10008EB880000EBC80104F138005D
:100A200000EB8105286830446860A8683844E860B5
:100A3000AE62EF6242462946204604F02BFD0120BB
:100A40002168486284F8A10000BF002084F8A0005B
:100A500000BF00BFD5E7000000BF00BF00BFBFF36D
:100A60005F8F00BF00BF00BF0548006820F48030E2
:100A70000349086000200249703108607047000097
:100A800024ED00E040F001010D4A11600C4970397D
:100A9000096841F480310A4A703A116000BF00BF12
:100AA00000BFBFF34F8F00BF00BF00BF00BF00BF3C
:100AB00000BFBFF36F8F00BF00BF00BF70470000D3
:100AC00094ED00E070B501460022012000230024CF
:100AD0009FED811AB0EE410A9FED7F1AF0EE410AB8
:100AE0007E4D2D6805F003027C4D2D68C5F3053061
:100AF0007A4D2D1D2D6805F01003784D14352D68A5
:100B0000C5F3CC0515FB03F501EE105AB8EE411AFA
:100B1000B0EE410A22B1012A4DD0022A7DD169E00E
:100B20006E4D283D2D68C5F340152DB36B4D283D06
:100B30002D68C5F3C1066A4D25FA06F4B4FBF0F53D
:100B400001EE105AF8EE411A9FED661A80EE012A66
:100B5000624D10352D68C5F3080501EE105AB8EE48
:100B6000411A32EE011AB7EE002A31EE021A21EED6
:100B7000811AF0EE410A1DE0594DB5FBF0F501EE8A
:100B8000105AF8EE411A9FED571A80EE012A534D84
:100B900010352D68C5F3080501EE105AB8EE411A5C
:100BA00032EE011AB7EE002A31EE021A21EE811A56
:100BB000F0EE410A5EE04C4DB5FBF0F501EE105A47
:100BC000B8EE412A9FED471AC0EE011A434D103589
:100BD0002D68C5F3080501EE105AB8EE411A31EE42
:100BE000811AF7EE001A31EE211A22EE011AF0EE08
:100BF000410A3FE03D4DB5FBF0F501EE105AF8EE2D
:100C0000411A9FED381A80EE012A344D10352D68B7
:100C1000C5F3080501EE105A00E00CE0B8EE411AE9
:100C200032EE011AB7EE002A31EE021A21EE811AD5
:100C3000F0EE410A1EE02C4DB5FBF0F501EE105A26
:100C4000B8EE412A9FED271AC0EE011A234D103548
:100C50002D68C5F3080501EE105AB8EE411A31EEC1
:100C6000811AF7EE001A31EE211A22EE011AF0EE87
:100C7000410A00BF00BF194D10352D68C5F3462548
:100C80006D1C01EE105AB8EE411AC0EE811ABCEE8E
:100C9000E11A81ED001A114D10352D68C5F3064596
:100CA0006D1C01EE105AB8EE411AC0EE811ABCEE6E
:100CB000E11A81ED011A094D10352D68C5F306655D
:100CC0006D1C01EE105AB8EE411AC0EE811ABCEE4E
:100CD000E11A81ED021A70BD00000000284402589C
:100CE0000090D0030000004600093D0040787D01DF
:100CF0002DE9F041044600250026206800F0006040
:100D0000B0F1006F30D1606E48B1B0F5801F0DD0EA
:100D1000B0F5001F10D0B0F5401F15D113E0F94811
:100D2000006840F40030F74908600FE00221201D00
:100D300004F0BAFC054609E0022104F1240000F1A8
:100D400017FE054602E001E0012500BF00BF55B9CE
:100D5000EC482430006820F44010616E0843E949F3
:100D60002431086000E02E43208800F48070B0F544
:100D7000807F2DD1606D05281AD2DFE800F0030ACC
:100D800010171800DF48006840F40030DD490860A3
:100D900010E00021201D04F087FC05460AE0002138
:100DA00004F1240000F1E4FD054603E002E001E067
:100DB000012500BF00BF55B9D2482430006820F09B
:100DC0000700616D0843CF492431086000E02E43DD
:100DD000208800F40070B0F5007F33D1A06D80282A
:100DE00017D003DC40B140281CD10CE0C02817D03C
:100DF000B0F5807F16D114E0C248006840F400309E
:100E0000C049086010E00021201D04F04DFC05469B
:100E10000AE0002104F1240000F1AAFD054603E0E8
:100E200002E001E0012500BF00BF55B9B5482430FC
:100E3000006820F4E070A16D0843B24924310860D5
:100E400000E02E43208800F48060B0F5806F38D138
:100E5000D4F8A400B0F5800F19D004DC50B1B0F57F
:100E6000001F1DD10DE0B0F5C00F17D0B0F5000F79
:100E700016D114E0A348006840F40030A14908608E
:100E800010E00021201D04F00FFC05460AE00021BF
:100E900004F1240000F16CFD054603E002E001E0EE
:100EA000012500BF00BF5DB996482C30006820F4D2
:100EB0006000D4F8A410084392492C31086000E087
:100EC0002E43208800F40060B0F5006F38D1D4F8CC
:100ED000A800B0F1007F19D004DC50B1B0F1807FE0
:100EE0001DD10DE0B0F1407F17D0B0F1806F16D169
:100EF00014E08448006840F400308249086010E043
:100F00000021201D04F0D0FB05460AE0002104F179
:100F1000240000F12DFD054603E002E001E001257B
:100F200000BF00BF5DB977482C30006820F0E0605A
:100F3000D4F8A810084373492C31086000E02E4310
:100F4000206800F00070B0F1007F27D1A06CA0B144
:100F5000102804D0202809D030280FD10CE069488F
:100F6000006840F400306749086009E00221201D54
:100F700004F09AFB054603E002E001E0012500BF12
:100F800000BF55B95F482030006820F03000A16CE8
:100F900008435C492031086000E02E43208800F4BB
:100FA0008050B0F5805F36D1E06DB0F5005F19D0AC
:100FB00004DC50B1B0F5805F1DD10DE0B0F5405FAD
:100FC00017D0B0F5804F16D114E04E48006840F4B9
:100FD00000304C49086010E00021201D04F064FB43
:100FE00005460AE0002104F1240000F1C1FC054699
:100FF00003E002E001E0012500BF00BF55B9414810
:101000002430006820F4E040E16D08433D4924317C
:10101000086000E02E43208800F40050B0F5005F27
:1010200034D1206EB0F5403F1DD007DC68B1B0F57B
:10103000803F0BD0B0F5003F18D10DE0B0F5802F08
:1010400012D0B0F5A02F11D10FE011E00121201D29
:1010500004F02AFB05460BE0012104F1240000F115
:1010600087FC054604E003E002E001E0012500BF43
:1010700000BF55B923482430006820F4E020216ED9
:10108000084320492431086000E02E43208800F402
:101090008040B0F5804F38D1D4F8AC00B0F1405F5B
:1010A0001DD007DC68B1B0F1805F0BD0B0F1005FFC
:1010B00018D10DE0B0F1804F12D0B0F1A04F11D196
:1010C0000FE011E00121201D04F0EEFA05460BE0CF
:1010D000012104F1240000F14BFC054604E003E08B
:1010E00002E001E0012500BF00BF6DB905482C30CA
:1010F000006820F0E040D4F8AC10084301492C31DE
:10110000086002E02C4402582E43208800F400407E
:10111000B0F5004F26D1E06E98B1B0F1805F03D0FA
:10112000B0F1005F0ED106E0FA48006840F40030EC
:10113000F849086008E00121201D04F0B5FA0546D1
:1011400002E001E0012500BF00BF55B9F14824309D
:10115000006820F04050E16E0843EE4924310860F9
:1011600000E02E43206800F08070B0F1807F27D12E
:10117000606CA0B1012804D0022809D003280FD147
:101180000CE0E448006840F40030E249086009E0FF
:101190000221201D04F088FA054603E002E001E088
:1011A000012500BF00BF55B9DA482030006820F0A3
:1011B0000300616C0843D7492031086000E02E43EA
:1011C000206800F48000B0F5800F7DD1D24800681F
:1011D00040F48070D0490860FFF092F9074606E0BD
:1011E000FFF08EF9C01B642801D9032505E0CA4829
:1011F000006800F480700028F2D000BF8DBBC548A5
:101200004430006800F44070B4F8B01001F440714C
:10121000884214D0BF484430006820F44078BD486C
:101220004430006840F48030BA49443108600846D0
:10123000006820F4803008600846C0F80080D4F8C8
:10124000B000B0F5807F15D1FFF05AF9074609E0EC
:10125000FFF056F9C01B41F28831884202D90325BC
:1012600007E038E0AB4844300068C0F34000002895
:10127000EED000BF4DBB00BFB4F8B00000F440702A
:10128000B0F5407F0ED1A3481C38006820F47C5193
:10129000A24AD4F8B000104041EA10109D491C3910
:1012A000086007E09B481C38006820F47C5099498E
:1012B0001C390860974844300068B4F8B010C1F396
:1012C0000B010843934901E006E002E04431086065
:1012D00002E02E4300E02E43207800F0010068B3C6
:1012E000A06F182819D005DC48B1082808D01028AC
:1012F00016D10BE0202811D0282811D10FE011E0E1
:101300000121201D04F0D0F905460BE0012104F174
:10131000240000F12DFB054604E003E002E001E0BB
:10132000012500BF00BF55B97A482830006820F079
:101330003800A16F084377492831086000E02E4348
:10134000207800F00200022828D1606F062815D20C
:10135000DFE800F003040A11121311E00121201D3F
:1013600004F0A2F905460BE0012104F1240000F18C
:10137000FFFA054604E003E002E001E0012500BFBA
:1013800000BF55B963482830006820F00700616F3E
:10139000084360492831086000E02E43207800F0BF
:1013A000040004282AD1D4F89000062815D2DFE8DA
:1013B00000F003040A11121311E00121201D04F0B2
:1013C00073F905460BE0012104F1240000F1D0FA85
:1013D000054604E003E002E001E0012500BF00BF94
:1013E0005DB94C482C30006820F00700D4F890100C
:1013F000084348492C31086000E02E43207800F073
:101400002000202836D1D4F88C00B0F1405F1DD0E8
:1014100007DC68B1B0F1805F0BD0B0F1005F18D18C
:101420000DE0B0F1804F12D0B0F1A04F11D10FE01C
:1014300011E00021201D04F037F905460BE00221E0
:1014400004F1240000F194FA054604E003E002E010
:1014500001E0012500BF00BF5DB92E4828300068BB
:1014600020F0E040D4F88C1008432A492831086065
:1014700000E02E43207800F04000402836D1D4F818
:101480009800B0F5406F1DD007DC68B1B0F5806FF3
:101490000BD0B0F5006F18D10DE0B0F5805F12D021
:1014A000B0F5A05F11D10FE011E00021201D04F084
:1014B000FBF805460BE0022104F1240000F158FA84
:1014C000054604E003E002E001E0012500BF00BFA3
:1014D0005DB910482C30006820F4E050D4F8981022
:1014E00008430C492C31086000E02E43207800F0BE
:1014F000800080283BD1D4F89C00B0F5C04F24D0A8
:101500000EDCA0B1B0F5005F12D0B0F5804F1FD156
:1015100014E000002C44025800480258FFFCFF0F62
:10152000B0F5004F12D0B0F5204F11D10FE011E00F
:101530000021201D04F0B8F805460BE0022104F15B
:10154000240000F115FA054604E003E002E001E0A2
:10155000012500BF00BF4DB9B248006820F46040CB
:10156000D4F89C100843AF49086000E02E4320786F
:1015700000F00800082816D1D4F88000B0F5805F8C
:1015800006D1022104F1240000F1F2F906430AE039
:10159000A448001F006820F44050D4F8801008438D
:1015A000A049091F0860207800F01000102814D10D
:1015B000D4F89400B0F5807F06D1022104F1240014
:1015C00000F1D6F9064308E09648006820F4407020
:1015D000D4F89410084393490860206800F4002070
:1015E000B0F5002F26D1D4F8A00030B1B0F5803F7F
:1015F00009D0B0F5003F0ED10CE00021201D04F011
:1016000053F8054609E0022104F1240000F1B0F985
:10161000054602E001E0012500BF00BF4DB9814849
:10162000006820F44030D4F8A01008437D490860D9
:1016300000E02E43206800F48020B0F5802F2DD1EB
:10164000D4F88400B0F5801F06D0B0F5001F0CD090
:10165000B0F5401F11D10FE072482C38006840F4FB
:10166000003070492C39086009E0012104F12400A0
:1016700000F17EF9054602E001E0012500BF00BF50
:101680005DB96848001F006820F44010D4F8841049
:1016900008436449091F086000E02E43206800F4F5
:1016A0008030B0F5803F24D1E06C18B1B0F5803FB8
:1016B0000FD108E05B482C38006840F400305949ED
:1016C0002C39086007E00221201D03F0EDFF0546DC
:1016D00001E0012500BF00BF55B952480C38006831
:1016E00020F48030E16C08434E490C39086000E07A
:1016F0002E43206800F00050B0F1005F05D10221B8
:1017000004F1240000F134F90643206800F40030AD
:10171000B0F5003F27D1E06FA0B1B0F5807F06D0D3
:10172000B0F5007F0CD0B0F5407F0CD109E03D480A
:101730002C38006840F400303A492C39086004E045
:1017400003E002E001E0012500BF00BF55B93548C4
:10175000001F006820F44070E16F08433149091F01
:10176000086000E02E43206800F48010B0F5801F70
:1017700009D12C480838006820F00040216F084348
:10178000284908390860206800F08050B0F1805F77
:101790000AD124484838006820F48040D4F8B410B6
:1017A0000843204948390860206800F40010B0F56B
:1017B000001F09D11B480838006820F08070A16E16
:1017C0000843184908390860206800F08040B0F1EB
:1017D000804F11D100BF13484838006820F4004002
:1017E00010494839086008460068D4F8B810084322
:1017F0000C494839086000BF206800F00040B0F193
:10180000004F09D107480C38006820F04050216D86
:10181000084304490C39086016B90020BDE8F0817E
:101820000120FBE75844025810B5FFF0A5F809491C
:10183000096801F00F01012292FAA2F2B2FA82F2D3
:10184000D140054A515CC840044908600846006818
:1018500010BD000018440258086700080400002466
:1018600010B5FFF7E1FF0749096801F4E0614FF4A3
:10187000807292FAA2F2B2FA82F2D140024A515C2C
:10188000C84010BD1C4402580867000870B50446E3
:101890000025207800F00100002872D0F948006887
:1018A00000F0380010280CD0F648006800F038002E
:1018B000182812D1F3481830006800F003000228FD
:1018C0000BD1F04810380068C0F3404000286DD0BC
:1018D000606800286AD1012070BD00BF6068B0F563
:1018E000803F08D1E7481038006840F48030E5496F
:1018F000103908602EE0606868B9E2481038006866
:1019000020F48030DF49103908600846006820F470
:10191000802008601EE06068B0F5A02F0DD1D94886
:101920001038006840F48020D64910390860084615
:10193000006840F4803008600CE0D248103800683D
:1019400020F48030CF49103908600846006820F440
:101950008020086000BF6068A0B1FEF0D1FD0546A0
:1019600008E0FEF0CDFD401B41F28831884201D9EC
:101970000320B1E7C34810380068C0F34040002896
:10198000EFD013E0FEF0BCFD054608E0FEF0B8FD28
:10199000401B41F28831884201D903209CE7B948B5
:1019A00010380068C0F340400028EFD1207800F0E4
:1019B0000200022847D1B348006800F0380058B14F
:1019C000B048006800F0380018283ED1AD48183003
:1019D000006800F00300B8BBAA4810380068C0F3E4
:1019E000800018B1E06808B9012075E7A5481038F3
:1019F000006820F01900E1680843A2491039086026
:101A0000FEF07EFD054606E0FEF07AFD401B022852
:101A100001D9032060E79B4810380068C0F38000BC
:101A20000028F1D097480C38006820F47C304FF43F
:101A30007C3292FAA2F2B2FA82F221699140084312
:101A400090490C3908604AE0FFE7E06868B38D48C8
:101A50001038006820F01900E168084389491039FE
:101A60000860FEF04DFD054606E0FEF049FD401B16
:101A7000022801D903202FE7824810380068C0F3FC
:101A800080000028F1D07F480C38006820F47C30BA
:101A90004FF47C3292FAA2F2B2FA82F221699140BA
:101AA000084378490C39086019E076481038006816
:101AB00020F00100734910390860FEF021FD054651
:101AC00006E0FEF01DFD401B022801D9032003E7BC
:101AD0006C4810380068C0F380000028F1D12078ED
:101AE00000F01000102877D16648006800F0380038
:101AF00008280CD06348006800F03800182823D16B
:101B000060481830006800F0030001281CD15D48CF
:101B100010380068C0F3002020B1E069802801D0AF
:101B20000120D9E657480C38006820F0F8404FF003
:101B3000F84292FAA2F2B2FA82F2216A9140084384
:101B400050490C39086047E0E06958B34D481038F7
:101B5000006840F080004B4910390860FEF0D0FC6E
:101B6000054606E0FEF0CCFC401B022801D903200C
:101B7000B2E6444810380068C0F300200028F1D0D5
:101B800040480C38006820F0F8404FF0F84292FAD4
:101B9000A2F2B2FA82F2216A9140084339490C3923
:101BA000086019E037481038006820F08000354997
:101BB00010390860FEF0A4FC054606E0FEF0A0FC2B
:101BC000401B022801D9032086E62E481038006801
:101BD000C0F300200028F1D1207800F00800082888
:101BE00036D16069D0B127486430006840F0010008
:101BF000244964310860FEF083FC054606E0FEF0EF
:101C00007FFC401B022801D9032065E61D48643093
:101C10000068C0F340000028F1D019E01948643092
:101C2000006820F00100174964310860FEF068FC8C
:101C3000054606E0FEF064FC401B022801D90320A3
:101C40004AE6104864300068C0F340000028F1D133
:101C5000207800F02000202834D1A069D8B10948AC
:101C60001038006840F48050064910390860FEF0D2
:101C700047FC054608E0FEF043FC401B022803D960
:101C8000032029E610440258AF480068C0F34030F2
:101C90000028F0D016E0AC48006820F48050AA4933
:101CA0000860FEF02DFC054606E0FEF029FC401B16
:101CB000022801D903200FE6A3480068C0F3403092
:101CC0000028F2D1207800F0040004287DD19F483C
:101CD000006840F480709D490860FEF011FC0546E4
:101CE00006E0FEF00DFC401B642801D90320F3E55B
:101CF0009648006800F480700028F2D000BFA06809
:101D0000012808D190487030006840F001008E49E9
:101D1000703108602DE0A06868B98B4870300068A9
:101D200020F001008849703108600846006820F002
:101D3000040008601DE0A06805280DD182487030BD
:101D4000006840F00400804970310860084600686F
:101D500040F0010008600CE07B487030006820F023
:101D600001007949703108600846006820F00400DD
:101D7000086000BFA068A0B1FEF0C2FB054608E005
:101D8000FEF0BEFB401B41F28831884201D903209E
:101D9000A2E56D4870300068C0F340000028EFD025
:101DA00013E0FEF0ADFB054608E0FEF0A9FB401B8A
:101DB00041F28831884201D903208DE562487030B4
:101DC0000068C0F340000028EFD1606A00287CD092
:101DD0005D481030006800F03800182876D0606A3E
:101DE000022874D15848006820F080705649086075
:101DF000FEF086FB054606E0FEF082FB401B022853
:101E000001D9032068E550480068C0F3406000280D
:101E1000F2D100BFD4E90A1041EA00104A49283142
:101E2000096840F2F332914308434749283108607A
:101E3000208E401EC0F30800616B491E4FF47E42A5
:101E400002EA41210843218F491ED20102EA0141E1
:101E500008433C21095D491E120202EA0161084360
:101E600039493031086000BF081D00684FF6F8712D
:101E700088434FF6F87292FAA2F2B2FA82F2A16C9B
:101E8000914008433049343108602F482C300068B5
:101E900020F00C00216C08432B492C3108600846C7
:101EA000006820F00200616C084327492C3108606B
:101EB0000846006840F4803008600846006840F436
:101EC000003008600846006802E03BE038E01FE0B0
:101ED00040F4802008600846006840F00100086077
:101EE0001948006840F0807017490860FEF008FB50
:101EF000054606E0FEF004FB401B022801D9032042
:101F0000EAE411480068C0F340600028F2D019E00C
:101F10000D48006820F080700B490860FEF0F0FA70
:101F2000054606E0FEF0ECFA401B022801D903202A
:101F3000D2E405480068C0F340600028F2D101E017
:101F40000120C9E40020C7E40044025800480258B8
:101F500070B504460D460CB9012070BD94F82C00F4
:101F600028B9002084F82D00204600F019F802203E
:101F700084F82C00211D2068FEF790FB2946D4E947
:101F80000002FEF0DBF90548006840F0004003491C
:101F90000860012084F82C000020DEE70040005299
:101FA00010B586B0044600BF4648006840F0020005
:101FB000444908600846006800F00200009000BF35
:101FC00000BF00BF3F482038006840F480503D49C2
:101FD000203908600846006800F48050009000BF77
:101FE00000BF00BF37481438006840F0040035498E
:101FF000143908600846006800F00400009000BF33
:1020000000BF00BF0846006840F0080008600846AE
:10201000006800F00800009000BF00BF00BF084645
:10202000006840F0100008600846006800F01000EA
:10203000009000BF00BF00BF0846006840F02000CD
:1020400008600846006800F02000009000BF00BF54
:1020500000BF0846006840F040000860084600687D
:1020600000F04000009000BF00BF0D200190022052
:10207000029001200390032004900C20059001A9F8
:102080001148FEF759FB4CF20370019001A90F486B
:10209000FEF752FB4FF68370019001A90C48FEF742
:1020A0004BFB4FF63F00019001A90A48FEF744FBA5
:1020B00048F23710019001A90748FEF73DFB06B032
:1020C00010BD0000F444025800080258000C0258E9
:1020D00000100258001402580018025870B5044647
:1020E0002546681EB0F1807F01D301200FE0681EF5
:1020F0004FF0E02148610F214FF0FF3004F088FAE3
:1021000000204FF0E021886107200861002070BDA9
:102110007047704701460022002391F8792091F81A
:102120007A3042EA0300704710B586B00446214970
:10213000206888423BD100BF1F48006840F0010082
:102140001D4908600846006800F00100009000BFCB
:1021500000BF00BF18481030006840F0100016495A
:10216000103108600846006800F01000009000BFC1
:1021700000BF4FF4007001900220029001200390F4
:10218000022004900720059001A90C48FEF7D4FA1C
:102190004FF48060019001A90848FEF7CDFA252090
:1021A000FEF089FB032211462520FEF094FB06B0C9
:1021B00010BD000000100140E04402580000025829
:1021C00010B5034693F87A00202867D101B10AB907
:1021D000012010BD00BF93F87800012801D1022032
:1021E000F7E7012083F8780000BF5966A3F868205C
:1021F000A3F86A2000BF9868B0F5805F0AD118691B
:1022000020B940F2FF10A3F86C001CE0FF20A3F8F7
:102210006C0018E0986848B9186918B9FF20A3F84D
:102220006C0010E07F20A3F86C000CE09868B0F11F
:10223000805F08D1186918B97F20A3F86C0002E00C
:102240003F20A3F86C0000BF0020D867222083F84D
:102250007A0000BF002083F8780000BF186880680B
:1022600040F001001C68A0601868006800F0005091
:1022700060B11868006840F480701C6820601868BD
:10228000806840F080501C68A06005E01868006815
:1022900040F490701C68206000209AE7022098E7C4
:1022A00000BFFEE710B504465C4884715C480068D6
:1022B00050B1204602F0DAFD5948C08A57490880DB
:1022C0005748008B488010BD002C51D1F020534955
:1022D00008804FF4A07048800846808849F2413158
:1022E000884205D04D48808845F21031884214D18B
:1022F0002C204A4908812A2048812B2088810846C1
:10230000808845F21031884206D14FF4A0704349CD
:1023100008804FF4F07048807BE04048808845F2A8
:102320001051884210D14FF430503C4908814FF48D
:10233000285048814FF42C5088814FF4F070088069
:102340004FF44870488064E03448808841F6631157
:1023500088425ED12C20314908812B2048812A20D7
:1023600088814FF4F07008804FF44870488050E046
:102370004FF4A07029490880F020488008468088E2
:1023800049F24131884205D02448808845F2103115
:10239000884207D12C20214908812A2048812B20FE
:1023A000888129E01D48808845F21051884210D16B
:1023B0004FF43050194908814FF4285048814FF4A8
:1023C0002C5088814FF4487008804FF4F07048809A
:1023D00012E01248808841F6631188420CD12C200B
:1023E0000E4908812A2048812B2088814FF44870AB
:1023F00008804FF4F07048800848808845F210311A
:10240000884206D14FF4F070044908804FF4A07060
:102410004880002002F0F2FA00BF54E7F8010024DF
:102420001003002470B504460D4616464348006864
:1024300028B1324629462046FFF006FA70BD4048D2
:10244000808849F24131884205D03D48808845F274
:102450001031884214D13A49488902F0A5FC201273
:10246000FFF0D4F9E0B2FFF0D1F93549888902F0E4
:102470009BFC2812FFF0CAF9E8B2FFF0C7F954E05C
:102480002F48808845F21051884220D12C49488934
:1024900002F08AFC2012FFF0B9F929494989491C48
:1024A00088B202F081FCE0B2FFF0B0F924498889DB
:1024B00002F07AFC2812FFF0A9F921498989491C08
:1024C00088B202F071FCE8B2FFF0A0F92DE01C48E0
:1024D000808841F66311884227D11948807920B954
:1024E00017480088401E001B84B21549488902F035
:1024F0005BFC2012FFF08AF9E0B2FFF087F92012AE
:10250000FFF084F9E0B2FFF081F90D49888902F00B
:102510004BFC2812FFF07AF9E8B2FFF077F92812A5
:10252000FFF074F9E8B2FFF071F905480089054938
:102530000880891C0E8000BF80E700001003002483
:10254000F8010024FEFF076000B595B0FFF0A4F984
:10255000FE4988800846808818B102F041FD02F0EB
:10256000E4B900BFFA48006840F00200F84908608A
:102570000846006800F00200019000BF00BF202064
:1025800010900120119012900320139010A9F1488F
:10259000FEF7D2F8FFF036F8EF48F0490860F0484F
:1025A0004860002088600021EC48C1600161102172
:1025B000416100218161C16101624FF4805141623A
:1025C000002181624FF48041C162002101634163B7
:1025D0004FF4801181631120099000200A9055204A
:1025E0000B9000200F9015200290002003901520E2
:1025F00004900020089002AA09A9D848FEF096FD90
:10260000322004F02BF8D32002F0CEFBFFF022F8AA
:10261000CE498880FFF01EF8CC498880FFF01AF878
:10262000CA498880084680884FF6FF7101EA002079
:10263000C6498880FFF00EF8C44989880843C34919
:1026400088800846808849F24131884278D0D42079
:1026500002F0AAFBFEF0FEFFBC498880FEF0FAFF04
:10266000BA498880FEF0F6FFB8498880084680881D
:102670004FF6FF7101EA0020B4498880FEF0EAFFBE
:10268000B24989880843B14988800846808845F264
:102690001031884254D04FF45A4002F085FBFEF0CE
:1026A000D9FFAA4988804FF45B4002F07DFBFEF021
:1026B000D1FFA6498880084680884FF6FF7101EA5D
:1026C0000020A24988804FF45C4002F06DFBFEF0D0
:1026D000C1FF9E49898808439C49888008468088B4
:1026E000B0F5004F02D145F210508880974880889D
:1026F00045F21051884223D0A12002F055FBFEF094
:10270000A9FF92498880FEF0A5FF9049888008467D
:1027100080884FF6FF7101EA00208C498880FEF026
:1027200099FF8A49898808438849888008468088B3
:1027300045F26171884203D141F663108349888074
:102740008248808849F2413188427CD1CF2002F012
:102750002BFB0020FFF05AF8C120FFF057F8302083
:10276000FFF054F8ED2002F01FFB6420FFF04EF85C
:102770000320FFF04BF81220FFF048F88120FFF013
:1027800045F8E82002F010FB8520FFF03FF810200C
:10279000FFF03CF87A20FFF039F8CB2002F004FB80
:1027A0003920FFF033F82C20FFF030F80020FFF044
:1027B0002DF83420FFF02AF80220FFF027F8F72048
:1027C00002F0F2FA2020FFF021F8EA2002F0ECFA01
:1027D0000020FFF01BF80020FFF018F8C02002F0E6
:1027E000E3FA1B20FFF012F8C12002F0DDFA01200D
:1027F000FFF00CF8C52002F0D7FA3020FFF006F801
:102800003020FFF003F8C72002F0CEFAB720FEF028
:10281000FDFF362002F0C8FA4820FEF0F7FF3A200C
:1028200002F0C2FA5520FEF0F1FFB12002F0BCFA2E
:102830000020FEF0EBFF1A20FEF0E8FFB62002F0C9
:10284000B3FA0A2000E0A5E0FEF0E0FFA220FEF0CF
:10285000DDFFF22002F0A8FA0020FEF0D7FF2620CC
:1028600002F0A2FA0120FEF0D1FFE02002F09CFA73
:102870000F20FEF0CBFF2A20FEF0C8FF2820FEF03C
:10288000C5FF0820FEF0C2FF0E20FEF0BFFF0820AB
:10289000FEF0BCFF5420FEF0B9FFA920FEF0B6FF09
:1028A0004320FEF0B3FF0A20FEF0B0FF0F20FEF041
:1028B000ADFF0020FEF0AAFF0020FEF0A7FF0020E1
:1028C000FEF0A4FF0020FEF0A1FFE12002F06CFA70
:1028D0000020FEF09BFF1520FEF098FF1720FEF071
:1028E00095FF0720FEF092FF1120FEF08FFF0620DB
:1028F000FEF08CFF2B20FEF089FF5620FEF086FFB5
:102900003C20FEF083FF0520FEF080FF1020FEF04B
:102910007DFF0F20FEF07AFF3F20FEF077FF3F2083
:10292000FEF074FF0F20FEF071FF2B2002F03CFA46
:102930000020FEF06BFF0020FEF068FF0120FEF09B
:1029400065FF3F20FEF062FF2A200BE0F801002423
:10295000E04402580004025800400052AC01002438
:102960000441005202F020FA0020FEF04FFF002048
:10297000FEF04CFF0020FEF049FFEF20FEF046FF86
:10298000112002F011FA782003F068FE292002F0ED
:102990000BFAE4E5FE48808845F21031884240F0A9
:1029A0007C87ED2002F000FA0120FEF02FFFFE20D0
:1029B000FEF02CFFEE2002F0F7F9DE20FEF026FFFD
:1029C0002120FEF023FFF12002F0EEF90120FEF0BD
:1029D0001DFFDF2002F0E8F91020FEF017FFC420F1
:1029E00002F0E2F98F20FEF011FFC62002F0DCF9C0
:1029F0000020FEF00BFFE220FEF008FFE220FEF0D8
:102A000005FFE220FEF002FFBF2002F0CDF9AA2070
:102A1000FEF0FCFEB02002F0C7F90D20FEF0F6FE3D
:102A20000020FEF0F3FE0D20FEF0F0FE0020FEF090
:102A3000EDFE1120FEF0EAFE0020FEF0E7FE192078
:102A4000FEF0E4FE0020FEF0E1FE2120FEF0DEFEBE
:102A50000020FEF0DBFE2D20FEF0D8FE0020FEF070
:102A6000D5FE3D20FEF0D2FE0020FEF0CFFE5D2020
:102A7000FEF0CCFE0020FEF0C9FE5D20FEF0C6FE9A
:102A80000020FEF0C3FEB12002F08EF98020FEF09F
:102A9000BDFE0020FEF0BAFE8B20FEF0B7FE002047
:102AA000FEF0B4FE9620FEF0B1FE0020FEF0AEFE79
:102AB000B22002F079F90020FEF0A8FE0020FEF01E
:102AC000A5FE0220FEF0A2FE0020FEF09FFE0320E5
:102AD000FEF09CFE0020FEF099FEB32002F064F9A7
:102AE0000020FEF093FE0020FEF090FE0020FEF09D
:102AF0008DFE0020FEF08AFE0020FEF087FE002002
:102B0000FEF084FE0020FEF081FE0020FEF07EFE3E
:102B10000020FEF07BFE0020FEF078FE0020FEF09C
:102B200075FE0020FEF072FE0020FEF06FFE002019
:102B3000FEF06CFE0020FEF069FE0020FEF066FE56
:102B40000020FEF063FE0020FEF060FE0020FEF09C
:102B50005DFE0020FEF05AFE0020FEF057FE002031
:102B6000FEF054FE0020FEF051FE0020FEF04EFE6E
:102B7000B42002F019F98B20FEF048FE0020FEF090
:102B800045FE9620FEF042FE0020FEF03FFEA12012
:102B9000FEF03CFE0020FEF039FEB52002F004F904
:102BA0000220FEF033FE0020FEF030FE0320FEF097
:102BB0002DFE0020FEF02AFE0420FEF027FE00205D
:102BC000FEF024FEB62002F0EFF80020FEF01EFE1C
:102BD0000020FEF01BFEB72002F0E6F80020FEF019
:102BE00015FE0020FEF012FE3F20FEF00FFE00203A
:102BF000FEF00CFE5E20FEF009FE0020FEF006FE58
:102C00006420FEF003FE0020FEF000FE8C20FEF0AB
:102C1000FDFD0020FEF0FAFDAC20FEF0F7FD0020E7
:102C2000FEF0F4FDDC20FEF0F1FD0020FEF0EEFDF4
:102C30007020FEF0EBFD0020FEF0E8FD9020FEF09D
:102C4000E5FD0020FEF0E2FDEB20FEF0DFFD0020C0
:102C5000FEF0DCFDDC20FEF0D9FD0020FEF0D6FD0C
:102C6000B82002F0A1F80020FEF0D0FD0020FEF018
:102C7000CDFD0020FEF0CAFD0020FEF0C7FD0020C3
:102C8000FEF0C4FD0020FEF0C1FD0020FEF0BEFD00
:102C90000020FEF0BBFDBA2002F086F82420FEF0F2
:102CA000B5FD0020FEF0B2FD0020FEF0AFFD0020DB
:102CB000FEF0ACFDC12002F077F82020FEF0A6FD6A
:102CC0000020FEF0A3FD5420FEF0A0FD0020FEF049
:102CD0009DFDFF20FEF09AFD0020FEF097FDC22032
:102CE00002F062F80A20FEF091FD0020FEF08EFD59
:102CF0000420FEF08BFD0020FEF088FDC32002F0D2
:102D000053F83C20FEF082FD0020FEF07FFD3A20CB
:102D1000FEF07CFD0020FEF079FD3920FEF076FD0E
:102D20000020FEF073FD3720FEF070FD0020FEF065
:102D30006DFD3C20FEF06AFD0020FEF067FD3620B0
:102D4000FEF064FD0020FEF061FD3220FEF05EFD2D
:102D50000020FEF05BFD2F20FEF058FD0020FEF06D
:102D600055FD2C20FEF052FD0020FEF04FFD2920E5
:102D7000FEF04CFD0020FEF049FD2620FEF046FD51
:102D80000020FEF043FD2420FEF040FD002001E085
:102D9000F8010024FEF03AFD2420FEF037FD00206B
:102DA000FEF034FD2320FEF031FD0020FEF02EFD6C
:102DB0003C20FEF02BFD0020FEF028FD3620FEF02A
:102DC00025FD0020FEF022FD3220FEF01FFD002038
:102DD000FEF01CFD2F20FEF019FD0020FEF016FD78
:102DE0002C20FEF013FD0020FEF010FD2920FEF047
:102DF0000DFD0020FEF00AFD2620FEF007FD00205C
:102E0000FEF004FD2420FEF001FD0020FEF0FEFC9B
:102E10002420FEF0FBFC0020FEF0F8FC2320FEF056
:102E2000F5FC0020FEF0F2FCC42001F0BDFF6220A2
:102E3000FEF0ECFC0020FEF0E9FC0520FEF0E6FCD4
:102E40000020FEF0E3FC8420FEF0E0FC0020FEF019
:102E5000DDFCF020FEF0DAFC0020FEF0D7FC1820AC
:102E6000FEF0D4FC0020FEF0D1FCA420FEF0CEFC4D
:102E70000020FEF0CBFC1820FEF0C8FC0020FEF085
:102E8000C5FC5020FEF0C2FC0020FEF0BFFC0C2070
:102E9000FEF0BCFC0020FEF0B9FC1720FEF0B6FCF2
:102EA0000020FEF0B3FC9520FEF0B0FC0020FEF008
:102EB000ADFCF320FEF0AAFC0020FEF0A7FCE6200B
:102EC000FEF0A4FC0020FEF0A1FCC52001F06CFF88
:102ED0003220FEF09BFC0020FEF098FC4420FEF027
:102EE00095FC0020FEF092FC6520FEF08FFC002097
:102EF000FEF08CFC7620FEF089FC0020FEF086FCC3
:102F00008820FEF083FC0020FEF080FCC62001F04B
:102F10004BFF2020FEF07AFC0020FEF077FC17200B
:102F2000FEF074FC0020FEF071FC0120FEF06EFC4F
:102F30000020FEF06BFCC72001F036FF0020FEF001
:102F400065FC0020FEF062FC0020FEF05FFC00202B
:102F5000FEF05CFCC82001F027FF0020FEF056FCCC
:102F60000020FEF053FC0020FEF050FC0020FEF09C
:102F70004DFCC92001F018FF0020FEF047FC0020A6
:102F8000FEF044FC0020FEF041FC0020FEF03EFC80
:102F90000020FEF03BFC0020FEF038FC0020FEF09C
:102FA00035FC0020FEF032FC0020FEF02FFC00205B
:102FB000FEF02CFC0020FEF029FC0020FEF026FC98
:102FC0000020FEF023FC0020FEF020FC0020FEF09C
:102FD0001DFC0020FEF01AFCE02001F0E5FE1620AA
:102FE000FEF014FC0020FEF011FC1C20FEF00EFC94
:102FF0000020FEF00BFC2120FEF008FC0020FEF07B
:1030000005FC3620FEF002FC0020FEF0FFFB46200F
:10301000FEF0FCFB0020FEF0F9FB5220FEF0F6FB78
:103020000020FEF0F3FB6420FEF0F0FB0020FEF039
:10303000EDFB7A20FEF0EAFB0020FEF0E7FB8B20A0
:10304000FEF0E4FB0020FEF0E1FB9920FEF0DEFB49
:103050000020FEF0DBFBA820FEF0D8FB0020FEF0F5
:10306000D5FBB920FEF0D2FB0020FEF0CFFBC42040
:10307000FEF0CCFB0020FEF0C9FBCA20FEF0C6FB30
:103080000020FEF0C3FBD220FEF0C0FB0020FEF0CB
:10309000BDFBD920FEF0BAFB0020FEF0B7FBE0201C
:1030A000FEF0B4FB0020FEF0B1FBF320FEF0AEFB1F
:1030B0000020FEF0ABFBE12001F076FE1620FEF0D2
:1030C000A5FB0020FEF0A2FB1C20FEF09FFB0020D1
:1030D000FEF09CFB2220FEF099FB0020FEF096FB08
:1030E0003620FEF093FB0020FEF090FB4520FEF022
:1030F0008DFB0020FEF08AFB5220FEF087FB0020B3
:10310000FEF084FB6420FEF081FB0020FEF07EFBDD
:103110007A20FEF07BFB0020FEF078FB8B20FEF097
:1031200075FB0020FEF072FB9920FEF06FFB002083
:10313000FEF06CFBA820FEF069FB0020FEF066FBB1
:10314000B920FEF063FB0020FEF060FBC420FEF01F
:103150005DFB0020FEF05AFBCA20FEF057FB00206A
:10316000FEF054FBD220FEF051FB0020FEF04EFB9F
:10317000D820FEF04BFB0020FEF048FBE020FEF0E4
:1031800045FB0020FEF042FBF320FEF03FFB002059
:10319000FEF03CFBE22001F007FE0520FEF036FBCE
:1031A0000020FEF033FB0B20FEF030FB0020FEF091
:1031B0002DFB1B20FEF02AFB0020FEF027FB342015
:1031C000FEF024FB0020FEF021FB4420FEF01EFB5D
:1031D0000020FEF01BFB4F20FEF018FB0020FEF04D
:1031E00015FB6120FEF012FB0020FEF00FFB7920A2
:1031F000FEF00CFB0020FEF009FB8820FEF006FB31
:103200000020FEF003FB9720FEF000FB0020FEF004
:10321000FDFAA620FEF0FAFA0020FEF0F7FAB72039
:10322000FEF0F4FA0020FEF0F1FAC220FEF0EEFA11
:103230000020FEF0EBFAC720FEF0E8FA0020FEF0D6
:10324000E5FAD120FEF0E2FA0020FEF0DFFAD62007
:10325000FEF0DCFA0020FEF0D9FADD20FEF0D6FA0E
:103260000020FEF0D3FAF320FEF0D0FA0020FEF0AA
:10327000CDFAE32001F098FD0520FEF0C7FA00200A
:10328000FEF0C4FA0A20FEF0C1FA0020FEF0BEFAF9
:103290001C20FEF0BBFA0020FEF0B8FA3320FEF04E
:1032A000B5FA0020FEF0B2FA4420FEF0AFFA00209A
:1032B000FEF0ACFA5020FEF0A9FA0020FEF0A6FACB
:1032C0006220FEF0A3FA0020FEF0A0FA7820FEF0C3
:1032D0009DFA0020FEF09AFA8820FEF097FA00206E
:1032E000FEF094FA9720FEF091FA0020FEF08EFA9C
:1032F000A620FEF08BFA0020FEF088FAB720FEF040
:1033000085FA0020FEF082FAC220FEF07FFA00204B
:10331000FEF07CFAC720FEF079FA0020FEF076FA83
:10332000D120FEF073FA0020FEF070FAD520FEF0F6
:103330006DFA0020FEF06AFADD20FEF067FA002048
:10334000FEF064FAF320FEF061FA0020FEF05EFA6F
:10335000E42001F029FD0120FEF058FA0020FEF0E3
:1033600055FA0120FEF052FA0020FEF04FFA02203A
:10337000FEF04CFA0020FEF049FA2A20FEF046FA50
:103380000020FEF043FA3C20FEF040FA0020FEF060
:103390003DFA4B20FEF03AFA0020FEF037FA5D20AD
:1033A000FEF034FA0020FEF031FA7420FEF02EFA1E
:1033B0000020FEF02BFA8420FEF028FA0020FEF018
:1033C00025FA9320FEF022FA0020FEF01FFAA22038
:1033D000FEF01CFA0020FEF019FAB320FEF016FAF7
:1033E0000020FEF013FABE20FEF010FA0020FEF0DE
:1033F0000DFAC420FEF00AFA0020FEF007FACD20F4
:10340000FEF004FA0020FEF001FAD320FEF0FEF9EF
:103410000020FEF0FBF9DD20FEF0F8F90020FEF0C0
:10342000F5F9F320FEF0F2F90020FEF0EFF9E520C7
:1034300001F0BAFC0020FEF0E9F90020FEF0E6F908
:103440000020FEF0E3F90020FEF0E0F90220FEF09B
:10345000DDF90020FEF0DAF92920FEF0D7F900208E
:10346000FEF0D4F93C20FEF0D1F90020FEF0CEF9B8
:103470004B20FEF0CBF90020FEF0C8F95D20FEF0F5
:10348000C5F90020FEF0C2F97420FEF0BFF900205B
:10349000FEF0BCF98420FEF0B9F90020FEF0B6F988
:1034A0009320FEF0B3F90020FEF0B0F9A220FEF068
:1034B000ADF90020FEF0AAF9B320FEF0A7F9002034
:1034C000FEF0A4F9BE20FEF0A1F90020FEF09EF966
:1034D000C420FEF09BF90020FEF098F9CD20FEF00C
:1034E00095F90020FEF092F9D320FEF08FF900202C
:1034F000FEF08CF9DC20FEF089F90020FEF086F960
:10350000F320FEF083F90020FEF080F9E62001F0C0
:103510004BFC1120FEF07AF90020FEF077F9342000
:10352000FEF074F90020FEF071F95620FEF06EF9FD
:103530000020FEF06BF97620FEF068F90020FEF026
:1035400065F97720FEF062F90020FEF05FF9662051
:10355000FEF05CF90020FEF059F98820FEF056F9E3
:103560000020FEF053F99920FEF050F90020FEF003
:103570004DF9BB20FEF04AF90020FEF047F99920F2
:10358000FEF044F90020FEF041F96620FEF03EF91D
:103590000020FEF03BF95520FEF038F90020FEF047
:1035A00035F95520FEF032F90020FEF02FF94520C4
:1035B000FEF02CF90020FEF029F94320FEF026F958
:1035C0000020FEF023F94420FEF020F90020FEF058
:1035D0001DF9E72001F0E8FB3220FEF017F900208A
:1035E000FEF014F95520FEF011F90020FEF00EF95E
:1035F0007620FEF00BF90020FEF008F96620FEF0C0
:1036000005F90020FEF002F96720FEF0FFF8002027
:10361000FEF0FCF86720FEF0F9F80020FEF0F6F866
:103620008720FEF0F3F80020FEF0F0F89920FEF07D
:10363000EDF80020FEF0EAF8BB20FEF0E7F80020ED
:10364000FEF0E4F89920FEF0E1F80020FEF0DEF84C
:103650007720FEF0DBF80020FEF0D8F84420FEF0E2
:10366000D5F80020FEF0D2F85620FEF0CFF800206A
:10367000FEF0CCF82320FEF0C9F80020FEF0C6F8DA
:103680003320FEF0C3F80020FEF0C0F84520FEF025
:10369000BDF80020FEF0BAF8E82001F085FB00201C
:1036A000FEF0B4F80020FEF0B1F89920FEF0AEF87C
:1036B0000020FEF0ABF88720FEF0A8F80020FEF016
:1036C000A5F88820FEF0A2F80020FEF09FF87720F1
:1036D000FEF09CF80020FEF099F86620FEF096F8C7
:1036E0000020FEF093F88820FEF090F80020FEF015
:1036F0008DF8AA20FEF08AF80020FEF087F8BB20A3
:10370000FEF084F80020FEF081F89920FEF07EF8AB
:103710000020FEF07BF86620FEF078F80020FEF036
:1037200075F85520FEF072F80020FEF06FF8552075
:10373000FEF06CF80020FEF069F84420FEF066F818
:103740000020FEF063F84420FEF060F80020FEF058
:103750005DF85520FEF05AF80020FEF057F8E920F9
:1037600001F022FBAA20FEF051F80020FEF04EF8F6
:103770000020FEF04BF80020FEF048F8002001F099
:1037800013FBAA20FEF042F8CF2001F00DFB002031
:10379000FEF03CF80020FEF039F80020FEF036F88C
:1037A0000020FEF033F80020FEF030F80020FEF09C
:1037B0002DF80020FEF02AF80020FEF027F8002067
:1037C000FEF024F80020FEF021F80020FEF01EF8A4
:1037D0000020FEF01BF80020FEF018F80020FEF09C
:1037E00015F80020FEF012F80020FEF00FF800207F
:1037F000FEF00CF8F02001F0D7FA0020FEF006F8F9
:103800005020FEF003F80020FEF000F80020FDF04C
:10381000FDFF0020FDF0FAFFF32001F0C5FA0020C3
:10382000FDF0F4FFF92001F0BFFA0620FDF0EEFFF5
:103830001020FDF0EBFF2920FDF0E8FF0020FDF057
:10384000E5FF3A2001F0B0FA5520FDF0DFFF11202E
:1038500001F0AAFA642002F001FF292001F0A4FA85
:10386000352001F0A1FA0020FDF0D0FF512001F039
:103870009BFAFF20FDF0CAFF532001F095FA2C209F
:10388000FDF0C4FF552001F08FFA8220FDF0BEFF4D
:103890002C2001F089FA01F048B8FE48808845F2F2
:1038A000105188427ED155214FF4704001F092FAB8
:1038B000AA214FF2010001F08DFA52214FF20200CD
:1038C00001F088FA08214FF2030001F083FA012188
:1038D0004FF2040001F07EFA0D214FF4304001F068
:1038E00079FA0D214BF2010001F074FA0D214BF22F
:1038F000020001F06FFA34214FF4364001F06AFA09
:1039000034214BF2016001F065FA34214BF2026080
:1039100001F060FA0D214FF4314001F05BFA0D2106
:103920004BF2011001F056FA0D214BF2021001F09A
:1039300051FA34214FF4374001F04CFA34214BF264
:10394000017001F047FA34214BF2027001F042FAA3
:1039500000214FF4324001F03DFA00214BF20120EA
:1039600001F038FA00214BF2022001F033FA242151
:103970004FF4384001F02EFA24214BF6010001F0FB
:1039800029FA24214BF6020001F024FA01214FF418
:103990003F4001F01FFA0F214FF4334001F01AFAB3
:1039A0000F2100E0FEE34BF2013001F013FA0F218A
:1039B0004BF2023001F00EFA34214FF4394001F09D
:1039C00009FA34214BF6011001F004FA34214BF6C8
:1039D000021001F0FFF908214FF4354001F0FAF927
:1039E00008214BF2015001F0F5F908214BF2025089
:1039F00001F0F0F903214FF4424001F0EBF92421EA
:103A00004FF43A4001F0E6F924214BF6012001F091
:103A1000E1F924214BF6022001F0DCF900214FF4FA
:103A20003C4001F0D7F978214BF6014001F0D2F982
:103A300000214BF6024001F0CDF900214FF43D404A
:103A400001F0C8F978214BF6015001F0C3F90021CB
:103A50004BF6025001F0BEF900214FF43E4001F058
:103A6000B9F964214BF6016001F0B4F900214FF47B
:103A7000514001F0AFF933214DF2011001F0AAF9E4
:103A800000214DF2021001F0A5F934214DF203108E
:103A900001F0A0F900214DF2041001F09BF93A2148
:103AA0004DF2051001F096F900214DF2061001F0DB
:103AB00091F94A214DF2071001F08CF900214DF2E5
:103AC000081001F087F95C214DF2091001F082F92C
:103AD00000214DF20A1001F07DF981214DF20B1009
:103AE00001F078F900214DF20C1001F073F9A621D4
:103AF0004DF20D1001F06EF900214DF20E1001F0A3
:103B000069F9E5214DF20F1001F064F901214DF240
:103B1000101001F05FF913214DF2111001F05AF964
:103B200001214DF2121001F055F954214DF21310FC
:103B300001F050F901214DF2141001F04BF98221EE
:103B40004DF2151001F046F901214DF2161001F069
:103B500041F9CA214DF2171001F03CF902214DF252
:103B6000181001F037F900214DF2191001F032F967
:103B700002214DF21A1001F02DF901214DF21B1016
:103B800001F028F902214DF21C1001F023F9342133
:103B90004DF21D1001F01EF902214DF21E1001F030
:103BA00019F967214DF21F1001F014F902214DF2AD
:103BB000201001F00FF984214DF2211001F00AF9D3
:103BC00002214DF2221001F005F9A4214DF223103B
:103BD00001F000F902214DF2241001F0FBF8B721A9
:103BE0004DF2251001F0F6F802214DF2261001F0F9
:103BF000F1F8CF214DF2271001F0ECF802214DF23F
:103C0000281001F0E7F8DE214DF2291001F0E2F86A
:103C100002214DF22A1001F0DDF8F2214DF22B10B5
:103C200001F0D8F802214DF22C1001F0D3F8FE215A
:103C30004DF22D1001F0CEF803214DF22E1001F0BF
:103C4000C9F810214DF22F1001F0C4F803214DF2F4
:103C5000301001F0BFF833214DF2311001F0BAF805
:103C600003214DF2321001F0B5F86D214DF2331001
:103C700001F0B0F800214FF4524001F0ABF83321CD
:103C80004DF2012001F0A6F800214DF2022001F0D2
:103C9000A1F801E0F801002434214DF2032001F0E5
:103CA00099F800214DF2042001F094F83A214DF2E8
:103CB000052001F08FF800214DF2062001F08AF86E
:103CC0004A214DF2072001F085F800214DF208202D
:103CD00001F080F85C214DF2092001F07BF8002111
:103CE0004DF20A2001F076F881214DF20B2001F00F
:103CF00071F800214DF20C2001F06CF8A6214DF274
:103D00000D2001F067F800214DF20E2001F062F85D
:103D1000E5214DF20F2001F05DF801214DF2102058
:103D200001F058F813214DF2112001F053F8012150
:103D30004DF2122001F04EF854214DF2132001F003
:103D400049F801214DF2142001F044F882214DF28E
:103D5000152001F03FF801214DF2162001F03AF84C
:103D6000CA214DF2172001F035F802214DF218203A
:103D700001F030F800214DF2192001F02BF802215A
:103D80004DF21A2001F026F801214DF21B2001F01E
:103D900021F802214DF21C2001F01CF834214DF2D3
:103DA0001D2001F017F802214DF21E2001F012F83B
:103DB00067214DF21F2001F00DF802214DF2202065
:103DC00001F008F884214DF2212001F003F80221CE
:103DD0004DF2222000F0FEFFA4214DF2232000F03E
:103DE000F9FF02214DF2242000F0F4FFB7214DF23B
:103DF000252000F0EFFF02214DF2262000F0EAFF1F
:103E0000CF214DF2272000F0E5FF02214DF22820BE
:103E100000F0E0FFDE214DF2292000F0DBFF02215F
:103E20004DF22A2000F0D6FFF2214DF22B2000F0B7
:103E3000D1FF02214DF22C2000F0CCFFFE214DF2EB
:103E40002D2000F0C7FF03214DF22E2000F0C2FF0D
:103E500010214DF22F2000F0BDFF03214DF2302044
:103E600000F0B8FF33214DF2312000F0B3FF032101
:103E70004DF2322000F0AEFF6D214DF2332000F004
:103E8000A9FF00214FF4534000F0A4FF33214DF26D
:103E9000013000F09FFF00214DF2023000F09AFF48
:103EA00034214DF2033000F095FF00214DF2043033
:103EB00000F090FF3A214DF2053000F08BFF002119
:103EC0004DF2063000F086FF4A214DF2073000F037
:103ED00081FF00214DF2083000F07CFF5C214DF2A3
:103EE000093000F077FF00214DF20A3000F072FF38
:103EF00081214DF20B3000F06DFF00214DF20C30AE
:103F000000F068FFA6214DF20D3000F063FF0021A4
:103F10004DF20E3000F05EFFE5214DF20F3000F063
:103F200059FF01214DF2103000F054FF13214DF2E2
:103F3000113000F04FFF01214DF2123000F04AFF26
:103F400054214DF2133000F045FF01214DF21430A1
:103F500000F040FF82214DF2153000F03BFF0121BF
:103F60004DF2163000F036FFCA214DF2173000F046
:103F700031FF02214DF2183000F02CFF00214DF2EC
:103F8000193000F027FF02214DF21A3000F022FF15
:103F900001214DF21B3000F01DFF02214DF21C30BB
:103FA00000F018FF34214DF21D3000F013FF022104
:103FB0004DF21E3000F00EFF67214DF21F3000F071
:103FC00009FF02214DF2203000F004FF84214DF260
:103FD000213000F0FFFE02214DF2223000F0FAFE07
:103FE000A4214DF2233000F0F5FE02214DF22430E1
:103FF00000F0F0FEB7214DF2253000F0EBFE02217B
:104000004DF2263000F0E6FECF214DF2273000F0D1
:10401000E1FE02214DF2283000F0DCFEDE214DF2FF
:10402000293000F0D7FE02214DF22A3000F0D2FEF6
:10403000F2214DF22B3000F0CDFE02214DF22C305A
:1040400000F0C8FEFE214DF22D3000F0C3FE03212A
:104050004DF22E3000F0BEFE10214DF22F3000F058
:10406000B9FE03214DF2303000F0B4FE33214DF2A1
:10407000313000F0AFFE03214DF2323000F0AAFEE5
:104080006D214DF2333000F0A5FE00214FF4544075
:1040900000F0A0FE33214DF2014000F09BFE002114
:1040A0004DF2024000F096FE34214DF2034000F044
:1040B00091FE00214DF2044000F08CFE3A214DF2B9
:1040C000054000F087FE00214DF2064000F082FE20
:1040D0004A214DF2074000F07DFE00214DF20840DC
:1040E00000F078FE5C214DF2094000F073FE0021E3
:1040F0004DF20A4000F06EFE81214DF20B4000F0BF
:1041000069FE00214DF20C4000F064FEA6214DF244
:104110000D4000F05FFE00214DF20E4000F05AFE0F
:10412000E5214DF20F4000F055FE01214DF2104007
:1041300000F050FE13214DF2114000F04BFE012122
:104140004DF2124000F046FE54214DF2134000F0B3
:1041500041FE01214DF2144000F03CFE82214DF25F
:10416000154000F037FE01214DF2164000F032FEFE
:10417000CA214DF2174000F02DFE02214DF21840E9
:1041800000F028FE00214DF2194000F023FE02212C
:104190004DF21A4000F01EFE01214DF21B4000F0CE
:1041A00019FE00E003E302214DF21C4000F012FE74
:1041B00034214DF21D4000F00DFE02214DF21E4053
:1041C00000F008FE67214DF21F4000F003FE0221BF
:1041D0004DF2204000F0FEFD84214DF2214000F020
:1041E000F9FD02214DF2224000F0F4FDA4214DF230
:1041F000234000F0EFFD02214DF2244000F0EAFDE3
:10420000B7214DF2254000F0E5FD02214DF2264098
:1042100000F0E0FDCF214DF2274000F0DBFD022150
:104220004DF2284000F0D6FDDE214DF2294000F08D
:10423000D1FD02214DF22A4000F0CCFDF2214DF2D9
:104240002B4000F0C7FD02214DF22C4000F0C2FDD2
:10425000FE214DF22D4000F0BDFD03214DF22E4018
:1042600000F0B8FD10214DF22F4000F0B3FD032106
:104270004DF2304000F0AEFD33214DF2314000F000
:10428000A9FD03214DF2324000F0A4FD6D214DF255
:10429000334000F09FFD00214FF4554000F09AFD9F
:1042A00033214DF2015000F095FD00214DF20250F6
:1042B00000F090FD34214DF2035000F08BFD002101
:1042C0004DF2045000F086FD3A214DF2055000F009
:1042D00081FD00214DF2065000F07CFD4A214DF297
:1042E000075000F077FD00214DF2085000F072FDFC
:1042F0005C214DF2095000F06DFD00214DF20A5095
:1043000000F068FD81214DF20B5000F063FD0021AB
:104310004DF20C5000F05EFDA6214DF20D5000F064
:1043200059FD00214DF20E5000F054FDE5214DF2F3
:104330000F5000F04FFD01214DF2105000F04AFDEA
:1043400013214DF2115000F045FD01214DF21250A4
:1043500000F040FD54214DF2135000F03BFD0121CF
:104360004DF2145000F036FD82214DF2155000F050
:1043700031FD01214DF2165000F02CFDCA214DF205
:10438000175000F027FD02214DF2185000F022FDD9
:1043900000214DF2195000F01DFD02214DF21A507E
:1043A00000F018FD01214DF21B5000F013FD022119
:1043B0004DF21C5000F00EFD34214DF21D5000F066
:1043C00009FD02214DF21E5000F004FD67214DF25F
:1043D0001F5000F0FFFC02214DF2205000F0FAFCCB
:1043E00084214DF2215000F0F5FC02214DF22250C3
:1043F00000F0F0FCA4214DF2235000F0EBFC022170
:104400004DF2245000F0E6FCB7214DF2255000F0AB
:10441000E1FC02214DF2265000F0DCFCCF214DF2F0
:10442000275000F0D7FC02214DF2285000F0D2FCBA
:10443000DE214DF2295000F0CDFC02214DF22A5030
:1044400000F0C8FCF2214DF22B5000F0C3FC022119
:104450004DF22C5000F0BEFCFE214DF22D5000F02C
:10446000B9FC03214DF22E5000F0B4FC10214DF2A6
:104470002F5000F0AFFC03214DF2305000F0AAFCA9
:1044800033214DF2315000F0A5FC03214DF23250A2
:1044900000F0A0FC6D214DF2335000F09BFC002198
:1044A0004FF4564000F096FC33214DF2016000F0CD
:1044B00091FC00214DF2026000F08CFC34214DF2A1
:1044C000036000F087FC00214DF2046000F082FCE4
:1044D0003A214DF2056000F07DFC00214DF20660AE
:1044E00000F078FC4A214DF2076000F073FC0021D7
:1044F0004DF2086000F06EFC5C214DF2096000F0A6
:1045000069FC00214DF20A6000F064FC81214DF24B
:104510000B6000F05FFC00214DF20C6000F05AFCD3
:10452000A6214DF20D6000F055FC00214DF20E6009
:1045300000F050FCE5214DF20F6000F04BFC012132
:104540004DF2106000F046FC13214DF2116000F0B6
:1045500041FC01214DF2126000F03CFC54214DF26F
:10456000136000F037FC01214DF2146000F032FCC2
:1045700082214DF2156000F02DFC01214DF21660F4
:1045800000F028FCCA214DF2176000F023FC022144
:104590004DF2186000F01EFC00214DF2196000F091
:1045A00019FC02214DF21A6000F014FC01214DF2B9
:1045B0001B6000F00FFC02214DF21C6000F00AFCB1
:1045C00034214DF21D6000F005FC02214DF21E6009
:1045D00000F000FC67214DF21F6000F0FBFB0221A0
:1045E0004DF2206000F0F6FB84214DF2216000F0D6
:1045F000F1FB02214DF2226000F0ECFBA4214DF210
:10460000236000F0E7FB02214DF2246000F0E2FBA2
:10461000B7214DF2256000F0DDFB02214DF226604E
:1046200000F0D8FBCF214DF2276000F0D3FB022130
:104630004DF2286000F0CEFBDE214DF2296000F043
:10464000C9FB02214DF22A6000F0C4FBF2214DF2B9
:104650002B6000F0BFFB02214DF22C6000F0BAFB92
:10466000FE214DF22D6000F0B5FB03214DF22E60CE
:1046700000F0B0FB10214DF22F6000F0ABFB0321E6
:104680004DF2306000F0A6FB33214DF2316000F0B6
:10469000A1FB03214DF2326000F09CFB6D214DF235
:1046A000336000F097FB55214FF4704000F092FB0F
:1046B000AA214FF2010000F08DFB52214FF20200BF
:1046C00000F088FB08214FF2030000F083FB00217B
:1046D0004FF2040000F07EFBCC214FF4314000F09B
:1046E00079FB00214BF2011000F074FB05214FF41F
:1046F000364000F06FFB70214FF4374000F06AFB4A
:1047000070214BF2017000F065FB01214FF438403D
:1047100000F060FB03214BF6010000F05BFB03217E
:104720004BF6020000F056FB03214BF6030000F0AD
:1047300051FB02214FF43C4000F04CFB00214BF6B2
:10474000014000F047FB00214BF6024000F042FB25
:10475000D0214FF4494000F03DFB02214CF60110FE
:1047600000F038FB50214CF6021000F033FB5021D2
:104770004CF6031000F02EFB50214CF6041000F014
:1047800029FB00214FF4545000F024FB55214FF435
:10479000685000F01FFB4FF4885000F005FB7820B4
:1047A00001F068FF4FF4245000F0FEFABDE07948B4
:1047B000808841F663118842F8D1E22000F0F4FAD3
:1047C0001D20FDF023F80220FDF020F80420FDF06C
:1047D0001DF8642001F04EFFE02000F0E5FA012012
:1047E000FDF014F80A2001F039FFE02000F0DCFAB7
:1047F0000320FDF00BF80C2001F030FF012000F049
:10480000D3FA0A2001F02AFFE62000F0CDFA2F208B
:10481000FCF0FCFFFF20FCF0F9FFFF20FCF0F6FFAE
:10482000B02000F0C1FA2020FCF0F0FF0020FCF0E6
:10483000EDFF0320FCF0EAFF40F21F30FCF0E6FF42
:104840000120FCF0E3FF40F2DF10FCF0DFFF00206E
:10485000FCF0DCFFB42000F0A7FA0420FCF0D6FF47
:1048600040F21F40FCF0D2FF0020FCF0CFFF2E20D2
:10487000FCF0CCFF0020FCF0C9FF0020FCF0C6FFDC
:104880000020FCF0C3FF0020FCF0C0FFB62000F0C9
:104890008BFA0220FCF0BAFF4FF40370FCF0B6FF75
:1048A0000020FCF0B3FF1720FCF0B0FF1520FCF057
:1048B000ADFF0020FCF0AAFF0020FCF0A7FFF020D5
:1048C00000F072FA0320FCF0A1FF292000F06CFA3E
:1048D000D02000F069FA0020FCF098FFBE2000F024
:1048E00063FA0520FCF092FFFE20FCF08FFF012010
:1048F000FCF08CFF0020FCF089FF0020FCF086FF1C
:104900000020FCF083FFB82000F04EFA0320FCF0FA
:104910007DFF0120FCF07AFFBA2000F045FA01206B
:10492000FCF074FF642000F041F81A48808849F2D6
:104930004131884211D01748808845F210318842B1
:104940000BD01448808845F21051884205D0114898
:10495000808841F66311884209D1052002900490B5
:104960000D49CB6A8A68486802A9FBF04DFC0948EA
:1049700081880AA0FBF07AFB0020FDF793FC01225E
:1049800020210948FBF0B6FD4FF6FF70FCF016FE43
:1049900015B000BDF8010024AC0100244C434420B4
:1049A00049443A25780D0A000004025800B5024631
:1049B000BE2000F0F9F90520FCF028FF00EE102AD7
:1049C000B8EE400B9FED0B1B20EE010BBCEEC00BB5
:1049D00010EE101A88B2FCF019FF0120FCF016FF4F
:1049E000FF20FCF013FF0020FCF010FF0020FCF083
:1049F0000DFF00BD6666666666660440F0B5054656
:104A00000024002799488079012805D1974880889B
:104A100041F66311884208D194488079F0B99348EF
:104A2000808841F66311884218D1082D15D2DFE83D
:104A300005F00406080A0C0E101206250DE00725E5
:104A40000BE0042509E0052507E0012505E0002528
:104A500003E0032501E0022500BF00BF83488088F2
:104A600049F24131884211D08048808845F21031A6
:104A700088420BD07D48808845F21051884205D08D
:104A80007A48808841F6631188427DD1082D1CD276
:104A9000DFE805F00406090C0F12151800BF14E03A
:104AA00044F0800411E044F040040EE044F0C004FF
:104AB0000BE044F0200408E044F0600405E044F01A
:104AC000A00402E044F0E00400BF00BF6748808813
:104AD00045F21051884202D14FF4585700E0362772
:104AE0006248808845F2103188420DD05F48808846
:104AF00045F21051884207D05C48808841F6631126
:104B0000884201D044F008042146384600F062F99A
:104B10005648808841F6631188421DD004F0200079
:104B200068B15248008851494988884214DA4F4890
:104B3000068840884D490880084646800CE04B486E
:104B400000884A494988884206DD484806884088E6
:104B500046490880084646804448808845F21051FE
:104B6000884254D14149488900F01EF90020FCF0E8
:104B70004DFE3E494989491C88B200F015F90020D4
:104B8000FCF044FE394900E06FE04989891C88B295
:104B900000F00AF935490988491EC1F30F20FCF0DD
:104BA00035FE32494989C91C88B200F0FDF82F4909
:104BB0000978491EC8B2FCF029FE2C49888900F00A
:104BC000F3F80020FCF022FE28498989491C88B2AC
:104BD00000F0EAF80020FCF019FE24498989891CBC
:104BE00088B200F0E1F821494988491EC1F30F203D
:104BF000FCF00CFE1D498989C91C88B200F0D4F86C
:104C00001A498978491EC8B2FCF000FE2DE0174908
:104C1000488900F0C9F80020FCF0F8FD0020FCF005
:104C2000F5FD12490988491EC1F30F20FCF0EEFD85
:104C30000E490978491EC8B2FCF0E8FD0B49888985
:104C400000F0B2F80020FCF0E1FD0020FCF0DEFDF9
:104C500006494988491EC1F30F20FCF0D7FD0349DE
:104C60008978491EC8B2FCF0D1FDF0BDF8010024DE
:104C700010B502460C464B48808849F241318842C3
:104C800005D04848808845F21031884214D1454902
:104C9000488900F089F81012FCF0B8FDD0B2FCF0A1
:104CA000B5FD4049888900F07FF82012FCF0AEFD88
:104CB000E0B2FCF0ABFD73E03A48808841F6631146
:104CC000884247D137488079A8B936480088401EC5
:104CD000801A82B23349488900F066F80020FCF05F
:104CE00095FD0020FCF092FD1012FCF08FFDD0B27B
:104CF000FCF08CFD16E02B49488900F055F81012A5
:104D0000FCF084FDD0B2FCF081FD26490988491EE3
:104D1000C1F30F20FCF07AFD22490978491EC8B280
:104D2000FCF074FD1F49888900F03EF82012FCF069
:104D30006DFDE0B2FCF06AFD1A494988491EC1F3D5
:104D40000F20FCF063FD17498978491EC8B2FCF0BA
:104D50005DFD25E01348808845F2105188421FD13F
:104D60001049488900F020F81012FCF04FFD0D4961
:104D70004989491C88B200F017F8D0B2FCF046FD12
:104D80000849888900F010F82012FCF03FFD054921
:104D90008989491C88B200F007F8E0B2FCF036FDC2
:104DA00010BD0000F801002401B5BDF8000000901E
:104DB000BDF800000149088008BD0000FEFF076043
:104DC000024800890249088070470000F801002469
:104DD000FEFF0760024A1080921C1180704700009D
:104DE000FEFF076000B587B000BF1248006840F0C2
:104DF0000200104908600846006800F002000190B7
:104E000000BF00BF03200290012003900490032004
:104E1000059002A90848FBF78FFC012211460648BD
:104E2000FBF068FB012202210348FBF063FB07B0A3
:104E300000BD0000E04402580004025870B5B0B054
:104E400004460E4615464FF0005001900A940B960A
:104E500002210C910D910E9501A8FBF749FF10B9A5
:104E6000002030B070BD0120FBE700000949487503
:104E700030B98988074AD18211460988118308E030
:104E8000012806D103490988024AD182114689883E
:104E900011837047100300242DE9F04F04460D469E
:104EA00016464FF0000CDFF8289199F81590B9F1EB
:104EB000000F04D02046294632461F4611E02846FE
:104EC000DFF80C91D9F80490A9EB0609A9F10101CA
:104ED0001A46DFF8FC90D9F80490A9EB0409A9F16F
:104EE0000107DFF8EC90B9F80090A2EB000A0AF194
:104EF000010AA9EB0A091FFA89F8DFF8D49099F89A
:104F00001490DFF8D0A05AF82990DFF8C4A0DAF89E
:104F10001CA0DFF8BCB0DBF800B00BFB010B0AFBF8
:104F20000B9EDFF8B490D9F8009049F40009DFF83F
:104F3000A8A0CAF800904FF44039DFF8A0A0CAF842
:104F400000904FF00209CAF83490D146C9F8408069
:104F5000D9F8009029F00109CAF80090D146C9F8A3
:104F60003CE0A7EB010909F10109A2EB000A0AF1F3
:104F7000010A49EA0A49DFF864A0CAF84490DDF85A
:104F80002490CAF83890D146D9F8009049F0010928
:104F9000CAF8009005E00CF1010CBCF5001F00D32D
:104FA00008E0DFF83890D9F8049009F00209B9F167
:104FB000000FF0D000BFDFF82490D9F8089049F036
:104FC0000209DFF818A0CAF80890BDE8F08F0000C9
:104FD0001003002428000024D84402580010005276
:104FE0001FB50024FCF058FC044644F242308442D1
:104FF00017D14FF4F070F24908604FF488704860A0
:10500000012008814881282088810820C881052046
:105010000882082048825822A0210520FFF70EFFB1
:105020002FE147F28400844217D14FF44870E449DD
:1050300008604FF4F07048600120088148812E20FC
:1050400088811720C881D220088216204882182221
:10505000A0210520FFF7F2FE13E147F2160084427B
:1050600018D14FF48060D64908604FF4167048603C
:1050700014200881032048818C2088811420C88155
:10508000A02008820C2048821222A0210520FFF7D0
:10509000D5FEF6E047F21800844207D14FF4A06035
:1050A000C74908604FF448704860EAE048F21600CB
:1050B000844206D14011C24908604FF4167048601E
:1050C000DFE041F21800844215D14FF4A060BC49E2
:1050D00008604FF4487048608C2088810A2008825C
:1050E0000881C8814882032048811022A021052020
:1050F000FFF7A4FEC5E04AF20100844218D140F255
:105100005650AF4908604FF4407048608F200881C6
:1051100046200882D5208881032048811820C88134
:10512000032048821C22A0210520FFF787FEA8E06B
:105130004AF20200844217D14011A14908604FF49D
:1051400048704860202008813020088250208881E3
:10515000062048810E20C881032048821622A02103
:105160000520FFF76BFE8CE04AF20300844217D162
:105170004011934908604FF4407048602020088136
:105180005020888130200882072048810C20C88167
:10519000032048821722A0210520FFF74FFE70E070
:1051A0004AF20400844218D14FF4806084490860B8
:1051B0004FF4407048608820088118200882A020A1
:1051C0008881062048811D20C88103204882122240
:1051D000A0210520FFF732FE53E04AF20500844289
:1051E00017D14FF45470764908604FF4F07048605E
:1051F00070200881888110200882082048811720AB
:10520000C881062048822F22A0210520FFF716FE24
:1052100037E04AF20600844218D14FF448706849DA
:1052200008604FF4167048608020088158208881FB
:1052300028200882042048811720C8810120488244
:105240002822A0210520FFF7F9FD1AE04AF2070005
:10525000844216D180115A4908604FF4F0704860BA
:105260006020088108200882382088810220488137
:105270002920C881022048823E22A0210520FFF774
:10528000DDFD4F4800884F4908804D4880884880A0
:1052900002204B49C8614C484C4908604C484D4974
:1052A00008600020486000214A488160C1600161B7
:1052B00041F21800844203D14FF08051454801610A
:1052C0003F480089401E434948613D484089401E8F
:1052D00088613B4800893A4989890844401E3D4914
:1052E000C861374840893649C9890844401E394950
:1052F000086233480089324989890844304909687D
:105300000844401E334948622D4840892C49C989C8
:1053100008442B4949680844401E2E4988622848A1
:10532000008927498989084425490968084424498E
:10533000098A0844401E2749C862214840892049FB
:10534000C98908441E49496808441D49498A0844D6
:10535000401E2049086300211E4880F8361080F85E
:10536000351080F83410FBF011F9002007210622D7
:10537000CDE90002CDE902101448FF2302220168A2
:10538000002000F02BF80E48808880B200900C4876
:10539000008883B200221146104600F05DF800201C
:1053A000FFF764FD002000F06FF8012220210A4879
:1053B000FBF0A0F84FF0FF30FCF034FA1FBD000006
:1053C00010030024F8010024000000C0280000247D
:1053D0000010005008020024000402582DE9F04F8C
:1053E0008DB005460E4617469846DDE917ABDDF849
:1053F0005890199C00200090029015480068019078
:105400001348406803900497CDF81480CDF81890A5
:105410004FEA0A2007904FEA0B20089009960C48A3
:1054200000680A900A4840680B90002001148DF82B
:10543000321001128DF83110E0B28DF830002A469A
:1054400069460448FBF7A2FA0DB0BDE8F08F0000F2
:1054500010030024080200242DE9F04104460E4602
:1054600017461D46DDF8188023463A463146054862
:10547000FBF0BCF92346424629460248FBF7B5FA41
:10548000BDE8F0810802002401490875704700005A
:1054900010030024F0B50023002400258E8807683F
:1054A000FF68C7F30B473E44330406688436802701
:1054B00007FB0266766806F47047066884364FF08C
:1054C000800C0CFB026677600E680768FF68C7F304
:1054D0000B473E44761C1E43076884370CFB02775B
:1054E0007E608E890768FF68C7F30A073E4433046D
:1054F00006688436802707FB0266B66806F47047A4
:10550000066884360CFB0266B7608E680768FF6821
:10551000C7F30A073E44761C1E43076884370CFB1A
:105520000277BE6006688436802707FB026636690C
:1055300026F00707066884360CFB026637610F69A0
:10554000066884360CFB026637613126765C3302CE
:105550003226765C34040E7E350606688436802753
:1055600007FB0266B6690027066884360CFB0266F4
:10557000B76191F830601E4326432E430768843795
:105580000CFB0277BE6106688436802707FB026643
:10559000766926F0FF07066884360CFB02667761A1
:1055A0004F69066884360CFB0266776106688436AC
:1055B000802707FB0266F76940F20776B743066863
:1055C00084360CFB0266F761D1E907673E43076842
:1055D00084370CFB0277FE6106688436802707FB60
:1055E0000266B66A0027066884360CFB0266B7625C
:1055F0004F6A066884360CFB0266B7620E690EB904
:10560000042313E00E69012E01D103230EE00E697D
:10561000042E08D00E69022E05D00E69032E02D08A
:105620000E69072E01D1022300E0012306688436AB
:10563000802707FB0266F66A06F0E02706688436D4
:105640004FF0800C0CFB0266F762D1E90076F61B86
:105650005E43F71D0E8D5E4347EA064706688436B3
:105660000CFB0266F76206688436802707FB026639
:10567000366BF70AFF02066884360CFB0266376356
:10568000CF6A066884360CFB026637630668843688
:10569000D701F65946F00107066884364FEAC21C66
:1056A00046F80C70F0BD00002DE9F04104460E46AE
:1056B00000274848006800F00300032802D10120B9
:1056C000BDE8F08143482838006820F080604149F7
:1056D00028390860FAF014FF054606E0FAF010FFDA
:1056E000401B022801D90320EAE73A48283800681D
:1056F000C0F3C0600028F1D100BF3648006820F434
:105700007C30216840EA013032490860A088401EA0
:10571000C0F30800A168491E4FF47E4202EA41210D
:105720000843A189491ED20102EA01410843217CB4
:10573000491E120202EA016108432649103108603D
:1057400000BF2448001D006820F0C00061690843C4
:105750002049091D08600846006820F02000A16962
:1057600008431C49091D08602EB90846006840F42A
:105770000020086012E0012E08D11648001D0068C4
:1057800040F480101349091D086007E01148001D0E
:10579000006840F400100F49091D08600D482838C2
:1057A000006840F080600B4928390860FAF0A8FED4
:1057B000054606E0FAF0A4FE401B022801D90320AA
:1057C0007EE7044828380068C0F3C0600028F1D0A4
:1057D000384675E72844025810B50023234C23604F
:1057E00000BF00BF00BFBFF34F8F00BF00BF00BFAF
:1057F000231F1868C0F34E3100BFC0F3C90200BFB9
:1058000043F6E07303EA41134FF0404404EA827424
:105810002343174C236000BF00BF131EA2F10102F7
:10582000EED10B1EA1F10101E7D100BF00BF00BF07
:10583000BFF34F8F00BF00BF00BF0C4B703B1B6816
:1058400043F48033094C703C236000BF00BF00BFAD
:10585000BFF34F8F00BF00BF00BF00BF00BF00BF3E
:10586000BFF36F8F00BF00BF00BF10BD84ED00E02D
:1058700060EF00E000BF00BF00BFBFF34F8F00BF6D
:1058800000BF00BF00BF00BF00BFBFF36F8F00BFEE
:1058900000BF00BF00201449086000BF00BF00BF68
:1058A000BFF34F8F00BF00BF00BF00BF00BF00BFEE
:1058B000BFF36F8F00BF00BF00BF0C48006840F40B
:1058C00000300A49086000BF00BF00BFBFF34F8F20
:1058D00000BF00BF00BF00BF00BF00BFBFF36F8F9E
:1058E00000BF00BF00BF704750EF00E014ED00E0C4
:1058F00000B587B0164817490860002048600121AC
:10590000144881600821C16010210161402141617A
:10591000890081610021C1614FF400610162490089
:10592000416200218162022000900820019006203F
:105930000290039002200490059006906946054865
:10594000FCF706FB0348FCF0ABF807B000BD000015
:1059500040410052780100242DE9FF4104460D46E4
:1059600016461F464FF0000814B94FF0100803E028
:10597000012C01D14FF008080095CDF80480029663
:1059800003974FF6FF7269460448FBF0B1FB18B964
:10599000002004B0BDE8F0810120FAE7780100247E
:1059A000704700002DE9F0419CB080460C4615463A
:1059B0001E4600273748006820F00400354908607B
:1059C00000BF0020009033480C30006840F4404095
:1059D00030490C3108600846006800F440400090EF
:1059E00000BF00BF00BF2B480C30006800F400501F
:1059F000B0F5005FF7D10120019000040290002073
:105A00000490089002200A9002210B91CDF8348076
:105A10000C940E950F96002112910821119101A866
:105A2000FBF734FF07460FB100BFFEE73F2014909D
:105A30000320159000201690082017904020199000
:105A400000011A904020189050201B90022114A8A9
:105A5000FBF0DAF807460FB100BFFEE70E4800681A
:105A600040F080000C49086000BF0B48F43000682B
:105A700040F002000849F43108600846006800F070
:105A80000200009000BF00BFFAF022FD1CB0BDE88C
:105A9000F08100000C4802580044025810B5FAF09A
:105AA00035FD10BD2048006840F470001E490860B4
:105AB0001E48006840F001001C49086000201B4996
:105AC00010310860194800681949084017490860F2
:105AD0000020164918310860091D0860091D08607A
