:020000040800F2
:100000007806002029020008171700080F170008BB
:10001000131700085D050008851B0008000000009C
:100020000000000000000000000000001B17000896
:100030006105000800000000191700081D170008DE
:100040004D0200084D0200084D0200084D02000854
:100050004D0200084D0200084D0200084D02000844
:100060004D0200084D0200084D0200084D02000834
:100070004D0200084D0200084D0200084D02000824
:100080004D0200084D0200084D0200084D02000814
:100090004D0200084D0200084D0200084D02000804
:1000A0004D0200084D0200084D0200084D020008F4
:1000B0004D0200084D0200084D0200084D020008E4
:1000C0004D0200084D0200084D0200084D020008D4
:1000D0004D020008351B00084D0200084D020008C3
:1000E0004D0200084D0200084D0200084D020008B4
:1000F0004D0200084D0200084D0200084D020008A4
:100100004D0200084D0200084D0200084D02000893
:100110004D0200084D0200084D0200084D02000883
:100120004D0200084D0200084D0200084D02000873
:100130004D0200084D0200084D0200084D02000863
:100140004D0200084D0200084D0200084D02000853
:100150004D0200084D0200084D0200084D02000843
:100160004D0200084D0200084D0200084D02000833
:100170004D0200084D0200084D020008000000007A
:100180004D0200084D02000800F002F800F03CF8B3
:100190000AA090E8000C82448344AAF10107DA45E2
:1001A00001D100F031F8AFF2090EBAE80F0013F0F8
:1001B000010F18BFFB1A43F001031847089700000E
:1001C00028970000103A24BF78C878C1FAD852079F
:1001D00024BF30C830C144BF04680C6070470000C1
:1001E0000023002400250026103A28BF78C1FBD840
:1001F000520728BF30C148BF0B6070471FB506F0DB
:10020000B8FA1FBD10B510BD00F066F91146FFF732
:10021000F5FF05F055FC00F098F903B4FFF7F2FF85
:1002200003BC02F0C1F900000C48016841F4700100
:1002300001600B4880470B480047FEE7FEE7FEE7FA
:10024000FEE7FEE7FEE7FEE7FEE7FEE7FEE700006B
:1002500005480649044A064B7047000088ED00E057
:100260002517000889010008780200207806002080
:1002700078020020704753EA020C00F069802DE9F3
:10028000F04B4FF00006002B1FBFB3FA83F503FAC3
:1002900005F424FA05F65E4012BF1643B2FA82F561
:1002A00002FA05F4C5F120051EBF22FA05FC44EA56
:1002B0000C04203556EA044C4FEA144418BF641C61
:1002C0004FF000084FF00009904271EB030C39D356
:1002D000002919BFB1FA81F701FA07F6B0FA80F7E1
:1002E00000FA07F6C7F120071EBF20FA07FC46EA0E
:1002F0000C062037B6FBF4FCA7EB0507103F07F010
:100300001F0BCBF120060CFA0BFB2CFA06F644BFB0
:10031000B3460026202FA4BF5E464FF0000B5BEAD9
:10032000060C08BF4FF0010B19EB0B09ABFB027C6D
:1003300048EB0608C01B06FB02CC0BFB03CC71EBA1
:100340000C01C1E70B46024641464846BDE8F08B2A
:1003500013B54FF000004FF00001AFF30080BDE88F
:100360001C4070470FB4044910B503AA029800F06E
:100370007DF810BC5DF814FB8C0000204FF00002EB
:1003800000B5134694469646203922BFA0E80C508B
:10039000A0E80C50B1F12001BFF4F7AF090728BF66
:1003A000A0E80C5048BF0CC05DF804EB890028BFE2
:1003B00040F8042B08BF704748BF20F8022B11F00B
:1003C000804F18BF00F8012B704700004FF0013C30
:1003D00050F8042B51F8043B9A4221D1A2EB0C03B4
:1003E000934313EACC1317D150F8042B51F8043B74
:1003F0009A4215D1A2EB0C03934313EACC130BD111
:1004000050F8042B51F8043B9A4209D1A2EB0C039B
:10041000934313EACC13DBD04FF00000704700BFCA
:10042000D01A01BAB1FA81F101F0180122FA01F0F3
:10043000CB40C1F12001DBB2C0B2C01A2CFA01F3EB
:10044000D11A914311EAC311E6D170477047704742
:100450007047704710B500F01BF8006810BD10B56C
:10046000044600F015F8046010BD0000074B70B59D
:100470000D467B4400F015F80446284600F024F8A9
:1004800010B14FF0FF3070BD204670BDDB5400004E
:10049000004870471402002001694A1C0261087874
:1004A000704700B58FB0CDE90131002105910549B4
:1004B0007944CDE903101146684600F032F80FB0D8
:1004C00000BD0000E5FFFFFF007B00F080007047EB
:1004D00000487047140200207546FFF7F9FFAE464A
:1004E00005006946534620F00700854618B020B540
:1004F000FFF7AEFEBDE820404FF000064FF00007CA
:100500004FF000084FF0000B21F00701AC46ACE8BB
:10051000C009ACE8C009ACE8C009ACE8C0098D4628
:1005200070472DE9F04106460024D6E90170F568D0
:100530008046304603E04146B847641C3046A84731
:100540000028F8D12046BDE8F08110B50446AFF38D
:1005500000802046BDE81040FFF75FBE00BFFEE709
:100560007047000070B504461D460023B5F5804F66
:1005700013D154F822300C480340D1E9000640EA78
:1005800006108E6840EA06208E8940EA06408E6991
:100590003043034344F8223003E06FF0704044F8E6
:1005A0002200002070BD00000000F0CF10B503460F
:1005B0000022086853F8202012480240D1E90104C3
:1005C0002043CC6820430C6920434C6920438C694C
:1005D0002043CC6920430C6A20434C6A20438C6A38
:1005E0002043CC6A2043CC6B20430C6B2043024356
:1005F0008868082801D142F04002086843F82020AA
:10060000002010BD8000F0FF30B503460024501CD0
:1006100053F8204004F04044D1E9000540EA0510B9
:100620008D6840EA05208D8940EA0545088A401E0C
:1006300045EA0055087D801E45EA00608D69284323
:100640000443501C43F82040002030BD70B50446E0
:10065000A56D00F085F9064694F83500022808D00B
:100660008020606500BF002084F8340000BF0120B6
:1006700070BD2068006820F01600216808602068BE
:10068000406920F0800021684861206C08B9A06CA6
:1006900028B12068006820F0080021680860206800
:1006A000006820F00100216808600FE000F058F9B0
:1006B000801B05280AD92020606500BF002084F82F
:1006C000340000BF032084F83500D1E720680068BB
:1006D00000F001000028E9D194F85C103F20884028
:1006E000A86000BF002084F8340000BF012084F817
:1006F00035000020BCE7014691F83500022803D000
:100700008020486501207047052081F83500086881
:10071000006820F001000A6810600020F3E7000084
:10072000F8B502460B460025002400200021DEE03B
:10073000012606FA01F51E6806EA0504AC4275D1E9
:100740001E7906F00306012E04D01E7906F003067A
:10075000022E13D190684F000326BE40B0434F00D5
:10076000DE68BE4030439060506801268E40B04342
:100770001E79C6F300168E40304350601E7906F095
:100780000306032E09D0D0684F000326BE40B043B5
:100790004F009E68BE403043D0601E7906F00306CD
:1007A000022E13D1CF0802F1200656F827004E077B
:1007B000F70E0F26BE40B0434F07FF0E1E69BE4026
:1007C0003043CF0802F1200646F8270010684F009A
:1007D0000326BE40B0431E7906F003064F00BE401C
:1007E000304310605E6806F08056B6F1805F7DD1C0
:1007F00000BF00260096404E366846F480463E4FC5
:100800003E603E46366806F48046009600BF00BF54
:100810003A4E8F0856F827008E07370F0F26BE4036
:10082000B043374EB24202D1002624E05EE0354E9E
:10083000B24201D101261EE0334EB24201D102265E
:1008400019E0324EB24201D1032614E0304EB242DA
:1008500001D104260FE02F4EB24201D105260AE055
:100860002D4EB24201D1062605E02C4EB24201D1F6
:10087000072600E008268F073F0FBE4030431F4E7B
:100880008F0846F82700264E3068A0435E6806F4BD
:100890008036B6F5803F00D12043214E3060361DB2
:1008A0003068A0435E6806F40036B6F5003F00D11C
:1008B00020431B4E361D3060361D3068A0435E68F5
:1008C00006F48016B6F5801F00D12043144E08367A
:1008D0003060361D3068A0435E6806F40016B6F539
:1008E000001F00D120430E4E0C363060491C1029E9
:1008F000FFF41EAFF8BD0000443802400838014044
:10090000000002400004024000080240000C0240C7
:10091000001002400014024000180240001C024077
:10092000003C0140024613690B400BB1012000E07E
:100930000020704710B5426921EA020302EA01046F
:1009400043EA0443836110BD0AB1816101E00B04F5
:100950008361704701480068000C7047002004E084
:1009600001480068704700009400002003480068B8
:100970000349097808440149086070479400002041
:100980009C00002010B50A48006840F40070084937
:1009900008600846006840F480600860032000F0AA
:1009A0007FF80F2000F006F800F02AF8002010BDB4
:1009B000003C024070B504460E4800784FF47A714E
:1009C000B1FBF0F00C490968B1FBF0F5284600F0E6
:1009D0004AFC08B1012070BD102C07D2002221462C
:1009E000501E00F01EF80548046001E00120F2E707
:1009F0000020F0E79C00002000000020980000206C
:100A0000704701460846002809DB00F01F03012259
:100A10009A4043099B0003F1E023C3F8002100BF83
:100A200070472DE9F05F80460D461646002701F01D
:100A3000C3F8074639462A46334601F00700C0F19D
:100A4000070ABAF1040F02D94FF0040A01E0C0F11D
:100A5000070AD14600F1040ABAF1070F02D24FF09B
:100A6000000A01E0A0F1030AD4464FF0010A0AFA95
:100A700009FAAAF1010A0AEA020A0AFA0CFA4FF084
:100A8000010B0BFA0CFBABF1010B0BEA030B4AEA6F
:100A90000B042146404601F097F8BDE8F09F0000A6
:100AA00000BF00F00702064B19684FF6FF0319401C
:100AB000044B0B4343EA0221014B196000BF70470E
:100AC0000CED00E00000FA0570B504460D460CB9C7
:100AD000012070BD5848006800F00700A84209D204
:100AE00055490D700846006800F00700A84201D083
:100AF0000120EEE7207800F0020002281DD12078C6
:100B000000F00400042805D14C48006840F4E0508F
:100B10004A490860207800F00800082805D14748B5
:100B2000006840F46040454908604448006820F08F
:100B3000F000A168084341490860207800F00100F6
:100B4000A8B36068012807D13C4808380068C0F3A2
:100B50004040B8B90120BCE76068022802D0606854
:100B6000032807D1354808380068C0F3406048B909
:100B70000120AEE7314808380068C0F3400008B9EA
:100B80000120A6E72D48006820F0030061680843B3
:100B90002A490860FFF7E4FE064609E0FFF7E0FE99
:100BA000801B41F28831884202D9032091E707E097
:100BB0002248006800F00C006168B0EB810FEDD1B5
:100BC0001D48006800F00700A84209D91A490D70B5
:100BD0000846006800F00700A84201D0012078E72D
:100BE000207800F00400042807D11448006820F49D
:100BF000E050E168084311490860207800F00800DF
:100C0000082808D10D48006820F46040216940EAB6
:100C1000C1000A49086000F03FF808490968C1F3BB
:100C20000311074A515CC84006490860064800683D
:100C3000FFF7C0FE00204CE7003C024008380240AD
:100C40008667000800000020980000200148006826
:100C5000704700000000002000B5FFF7F7FF0449CF
:100C60000968C1F38221034A515CC84000BD0000FD
:100C7000083802409667000800B5FFF7E7FF04490F
:100C80000968C1F34231034A515CC84000BD00000D
:100C900008380240966700082DE9F0470024002537
:100CA0000026A1462548006800F00C0020B1042869
:100CB00005D008283AD105E0DFF8849039E0DFF864
:100CC000849036E01D48001F006800F03F041B4878
:100CD000001F006800F4800078B11A481749091F06
:100CE0000968C1F38811A0FB017001462246002368
:100CF0003846FFF7C0FA05460EE011480F49091FB4
:100D00000968C1F38811A0FB017001462246002347
:100D10003846FFF7B0FA05460848001F0068C0F3E0
:100D20000140401C4600B5FBF6F902E0DFF81090E8
:100D300000BF00BF4846BDE8F08700000838024009
:100D40000024F40000127A00F8B504460CB9012022
:100D5000F8BD207800F00100002874D0F948006840
:100D600000F00C0004280DD0F648006800F00C00DC
:100D7000082813D1F348001F006800F48000B0F584
:100D8000800F0BD1EF4808380068C0F340400028BE
:100D900059D06068002856D10120D9E700BF6068AB
:100DA000B0F5803F08D1E7480838006840F480304B
:100DB000E449083908601EE06068B0F5A02F0DD145
:100DC000E0480838006840F48020DE4908390860AF
:100DD0000846006840F4803008600CE0D9480838C4
:100DE000006820F48030D749083908600846006858
:100DF00020F48020086000BF606890B1FFF7B0FD6C
:100E0000054606E0FFF7ACFD401B642801D903202E
:100E10009EE7CC4808380068C0F340400028F1D075
:100E200011E0FFF79DFD054606E0FFF799FD401B29
:100E3000642801D903208BE7C24808380068C0F352
:100E400040400028F1D1207800F0020002285FD154
:100E5000BC48006800F00C0058B1BA48006800F0C7
:100E60000C0008281CD1B748001F006800F480005F
:100E7000B0B9B44808380068C0F3400020B1E06859
:100E8000012801D0012063E7AE480838006820F04F
:100E9000F800216940EAC100AA490839086037E032
:100EA000E06800B30120A8490860FFF759FD054636
:100EB00006E0FFF755FD401B022801D9032047E754
:100EC000A04808380068C0F340000028F1D09D48D1
:100ED0000838006820F0F800216940EAC10099490B
:100EE0000839086014E0002097490860FFF738FDD2
:100EF000054606E0FFF734FD401B022801D9032018
:100F000026E7904808380068C0F340000028F1D177
:100F1000207800F0080008282CD16069A8B10120D1
:100F20008A490860FFF71CFD054606E0FFF718FD3B
:100F3000401B022801D903200AE782486C30006870
:100F4000C0F340000028F1D014E000207F49086081
:100F5000FFF706FD054606E0FFF702FD401B0228ED
:100F600001D90320F4E677486C300068C0F34000F4
:100F70000028F1D1207800F00400042870D1002767
:100F800070483830006800F0805090B900BF0020F1
:100F900000906C483830006840F080506949383122
:100FA00008600846006800F08050009000BF00BF55
:100FB00001276748006800F48070B0B96448006891
:100FC00040F4807062490860FFF7CAFC054606E0FD
:100FD000FFF7C6FC401B022801D90320B8E65C4895
:100FE000006800F480700028F2D000BFA0680128DB
:100FF00008D154486830006840F001005149683118
:1010000008601DE0A06805280DD14E4868300068D2
:1010100040F004004B49683108600846006840F021
:10102000010008600CE047486830006820F00100CB
:101030004449683108600846006820F004000860F0
:1010400000BFA068A8B1FFF78BFC054609E0FFF7D9
:1010500087FC401B41F28831884202D9032077E6A1
:1010600026E0384868300068C0F340000028EED021
:1010700013E0FFF775FC054608E0FFF771FC401B25
:1010800041F28831884201D9032061E62D48683059
:101090000068C0F340000028EFD1012F07D1294894
:1010A0003830006820F0805026493831086000BF91
:1010B000A069002845D02348006800F00C000828EB
:1010C0005DD0A069022845D100201F490866FFF7BE
:1010D00047FC054606E0FFF743FC401B022801D908
:1010E000032035E6174808380068C0F34060002840
:1010F000F1D1D4E907010843616A40EA8111012274
:10110000A06AC2EB500041EA00412C20005D41EA98
:1011100000600C49091F086001200B490866FFF7B1
:101120001FFC054606E0FFF71BFC401B022801D907
:1011300003200DE6034808380068C0F3406000282B
:10114000F1D049E00838024000004742800E474293
:1011500000700040002021490866FFF701FC0546A9
:1011600006E0FFF7FDFB401B022801D90320EFE555
:101170001B480068C0F340600028F2D12CE0A06951
:10118000012800D1E4E51648001D0668A069012881
:1011900020D006F48001E06981421BD106F03F01B6
:1011A000206A814216D147F6C0703040616AB0EBC8
:1011B000811F0FD106F440310122A06AC2EB50001A
:1011C000B1EB004F06D106F070612C20005DB1EB51
:1011D000006F01D00120BBE50020B9E500004742C7
:1011E0000038024070B504460E4615460CB9012081
:1011F00070BD94F8490028B9002084F848002046C2
:1012000000F01CF804F108012068FFF7CFF931461F
:10121000A2682068FFF7F8F92946236BD4E9010298
:10122000FFF7A0F9A168206850F8210040F0010004
:10123000A268216841F822000020D9E770470428FD
:1012400008D14FF0E021096941F004014FF0E0229C
:10125000116107E04FF0E021096921F004014FF02E
:10126000E0221161704770B504462546681EB0F152
:10127000807F01D301200FE0681E4FF0E02148611C
:101280000F214FF0FF3000F09FFC00204FF0E021D5
:10129000886107200861002070BD704770470146D3
:1012A0000022002391F83D2091F83E3042EA0300ED
:1012B000704700002DE9F84F044620680568206853
:1012C000C668206847694FF00009CA4605F00F0953
:1012D000B9F1000F0AD105F0200038B106F0200066
:1012E00020B1204600F05DFABDE8F88FB9F1000F9B
:1012F00072D007F0010018B906F4907000286BD086
:1013000005F0010030B106F4807018B1206C40F097
:101310000100206405F0040030B107F0010018B1AD
:10132000206C40F00200206405F0020030B107F0AC
:10133000010018B1206C40F00400206405F00800A2
:1013400048B106F0200010B907F0010018B1206C78
:1013500040F008002064206C70B305F0200028B134
:1013600006F0200010B1204600F01BFA206840690A
:10137000C0F3801A206C00F0080010B9BAF1000F19
:1013800023D0204600F0E2F92068406900F04000D8
:10139000402816D12068406920F04000216848614B
:1013A000A06B50B15648A16B0865A06BFFF7A3F97D
:1013B00010B1A06B016D88470CE02046FFF76EFF6F
:1013C00008E02046FFF76AFF04E02046FFF766FFCB
:1013D0000020206488E7FFE7206B012879D105F021
:1013E0001000002875D006F01000002871D000BF52
:1013F00000200090206800680090206840680090FD
:1014000000BF00BF2068406900F04000402839D18B
:10141000A06B006840681FFA80F8B8F1000F30D068
:10142000A08D40452DDDA4F82E80A06BC069B0F5DD
:10143000807F1FD02068C06820F480702168C86059
:101440002068406920F001002168486120684069F7
:1014500020F0400021684861202084F83E000020F0
:1014600020632068C06820F010002168C860A06B6D
:10147000FFF7ECF8A08DE28D801A81B22046FFF7CD
:101480000CFF31E7A08DE18D401A1FFA80F8E08D46
:10149000E8B1B8F1000F1AD02068C06820F490704D
:1014A0002168C8602068406920F001002168486117
:1014B000202084F83E00002020632068C06820F0CF
:1014C00010002168C86041462046FFF7E6FE0BE7A2
:1014D000FFE705F0800030B106F0800018B120462B
:1014E00000F0F7FA00E705F0400030B106F04000E8
:1014F00018B1204600F045F9F6E600BFF4E600001A
:101500003917000810B504460CB9012010BDA069B8
:1015100000B100E000BF94F83D0028B9002084F835
:101520003C00204600F028F8242084F83D00206884
:10153000C06820F400502168C860204600F090F98F
:101540002068006920F490402168086120684069A3
:1015500020F02A00216848612068C06840F40050EB
:101560002168C86000202064202084F83D0084F8B1
:101570003E000020CAE7000010B586B004462D49A1
:101580002068884254D100BF00BF002000902A4844
:10159000006840F01000284908600846006800F024
:1015A0001000009000BF00BF00BF00BF00BF0020C0
:1015B000009021481438006840F002001E49143998
:1015C00008600846006800F00200009000BF00BFFD
:1015D00000BF00BF00BF002000900846006840F038
:1015E000020008600846006800F00200009000BF9A
:1015F00000BF00BF40200190022002900120039014
:10160000022004900720059001A90C48FFF788F8F4
:10161000802001900720059001A90848FFF780F875
:101620002520FFF7EEF9032211462520FFF7F9F9EF
:1016300006B010BD001001404438024000040240D2
:1016400070B504460D46164694F83E00202816D183
:1016500005B10EB9012070BD00BF94F83C0001280F
:1016600001D10220F7E7012084F83C0000BF0020F0
:10167000206332462946204600F008FAEBE70220B4
:10168000E9E700001D4A0168914236D11C490988EA
:1016900001F4004189BB1A49098801F4804171B104
:1016A000184909780A2903D00021154A118024E03D
:1016B0001349098841F40041114A11801DE0114984
:1016C00009780D2906D10E49098841F480410C4A58
:1016D000118012E00B490978094A1288C2F30D0201
:1016E000094B995406490988491C054A118011463D
:1016F0000988C72901DD00211180704700100140D1
:101700009000002092000020AC000020704700BF35
:10171000FEE700BFFEE770477047704710B5FFF760
:1017200025F910BD0348006840F4700001490860C5
:101730007047000088ED00E070B50546AC6B0020F6
:10174000E085E0842046FFF7A9FD70BD0168C96807
:1017500021F490710268D1600168496921F00101AA
:1017600002685161016B012905D10168C96821F046
:1017700010010268D160202180F83E100021016331
:10178000704710B504462068C06820F0400021680A
:10179000C860202084F83D002046FFF7B7FF0020F6
:1017A00010BD70B5044694F83E00222856D1A068BA
:1017B000B0F5805F0CD1206950B90025A66A206879
:1017C0004068C0F308003080A06A801CA06215E069
:1017D000A56A0026A068B0F5805F03D0A06828B98C
:1017E000206918B920684068287004E020684068C3
:1017F00000F07F002870A06A401CA062E08D401EAF
:1018000080B2E08540BB2068C06820F020002168DD
:10181000C8602068C06820F480702168C8602068B3
:10182000406920F0010021684861202084F83E00D2
:10183000206B01280AD12068C06820F010002168C0
:10184000C860A18D2046FFF728FD02E02046FFF783
:1018500019FF0020206370BD0020FCE70220FAE79A
:101860002DE9F84F04462068006920F44050E168F3
:101870000843216808612169A06808436169084339
:10188000E169084300902068C06849F20C61884310
:10189000009908432168C8602068406920F44070BE
:1018A000A16908432168486176492068884203D0CD
:1018B00075492068884203D1FFF7DEF9814602E0CE
:1018C000FFF7CAF98146E069B0F5004F6CD10220FC
:1018D0006168A0FB015003461920A9FB0070014676
:1018E0002A463846FEF7C7FC6421B0FBF1F04FEA08
:1018F000001A02206168A0FB01510B461920A9FBC8
:1019000000712A463846FEF7B6FC8346022061681D
:10191000A0FB015003461920A9FB00712A46384656
:10192000FEF7A9FC6421B0FBF1F000EBC00101EB74
:101930000010ABEB8000322101EBC0006421B0FB52
:10194000F1F000F0F8000AEB400A02206168A0FB09
:10195000015003461920A9FB007001462A4638466B
:10196000FEF789FC834602206168A0FB0150034614
:101970001920A9FB00712A463846FEF77CFC642139
:10198000B0FBF1F000EBC00101EB0010ABEB80000D
:10199000322101EBC0006421B0FBF1F000F0070040
:1019A0005044216888606AE004206168A0FB01500F
:1019B00003461920A9FB007001462A463846FEF767
:1019C0005AFC824604206168A0FB0150034619209E
:1019D000A9FB007001462A463846FEF74CFC6421FC
:1019E000B0FBF1F000EBC00101EB0010AAEB8000AE
:1019F000322101EB00106421B0FBF1F000F0F00A9D
:101A000004206168A0FB017003461920A9FB005166
:101A10003A462846FEF72FFC6421B0FBF1F00AEBB2
:101A2000001A04206168A0FB01510B461920A9FB94
:101A300000712A463846FEF71EFC83460420616882
:101A4000A0FB015003461920A9FB007001462A465D
:101A50003846FEF710FC6421B0FBF1F000EBC0014A
:101A600001EB0010ABEB8000322101EB0010642190
:101A7000B0FBF1F000F00F00504421688860BDE831
:101A8000F88F0000001001400014014010B503461B
:101A900099629A85DA8500201864222083F83E0036
:101AA00000BF002083F83C0000BF1868C06840F405
:101AB00080701C68E0601868406940F001001C6894
:101AC00060611868C06840F020001C68E060002079
:101AD00010BD014691F83D00212828D18868B0F555
:101AE000805F0BD1086948B90A6A1088C0F3080002
:101AF0000B685860086A801C086205E00B6A581C75
:101B0000086218780B685860C88C401E80B2C88480
:101B100058B90868C06820F080000B68D860086871
:101B2000C06840F040000B68D86000207047022079
:101B3000FCE7000070B500240F4D1048FFF7BAFB1A
:101B400000BF03E0641CAC4200D904E00B48FFF77F
:101B5000A6FB2028F6D100BF002403E0641CAC42A1
:101B600000D906E0012206490448FFF769FD002874
:101B7000F4D100BF70BD0000FFFF01007401002020
:101B80009200002000BFFEE703B4019841000098D6
:101B900050EAC12018BF04204A0D18BF40F00100D0
:101BA00040F2FF72B2EB515F08BF40F00200012823
:101BB00008BF052002B0704702480068C0F3022049
:101BC000704700000CED00E010B5002804DB0A07A8
:101BD000130E054A135406E00A07140E034A00F0D8
:101BE0000F031B1FD45410BD00E400E018ED00E00B
:101BF00010B52F499FED2C1B2DED020B84B00598DD
:101C000020F000408842D8BF9DED040B2DDD29490E
:101C1000884209D1049840B94FF00100FEF71FFC3B
:101C200000F0A2FC06B010BD05DB9DED040B00F03A
:101C30008FFC06B010BD68469DED040B00F0A0F8C7
:101C400010F0030004BF9DED021B9DED000B0CD0B6
:101C500001280ED09DED021B9DED000B022817D030
:101C6000012000F0DDFB06B010BD00F0A5FA06B0C3
:101C700010BD9DED021B9DED000B012000F0D0FB7F
:101C800051EC100B03F0FAFF06B041EC100B10BD45
:101C900000F092FA51EC100B03F0F0FF06B041ECAB
:101CA000100B10BD0000000000000000000000004C
:101CB000FB21E93F0000F07F10B52F499FED2C1B61
:101CC0002DED020B84B0059820F000408842DCBF67
:101CD00000209DED040B32DD2849884209D104988B
:101CE00040B94FF00100FEF7BAFB00F03DFC06B032
:101CF00010BD05DB9DED040B00F02AFC06B010BD05
:101D000068469DED040B00F03BF810F0030011D085
:101D1000012818D09DED021B9DED000B02281AD062
:101D200000F04AFA51EC100B03F0A8FF06B041ECAA
:101D3000100B10BD9DED021B9DED000B012000F06E
:101D40006FFB06B010BD9DED021B9DED000B00F07A
:101D500033FA06B010BD012000F062FB51EC100B0D
:101D600003F08CFF06B041EC100B10BD000000002A
:101D70000000000000000000FB21E93F0000F07FB0
:101D80002DE9F14F04462DED020B2DED088B8AB0A5
:101D90009FEDE70B80ED020B139EE74826F0004510
:101DA00085420ADC9DED120B002084ED000B0AB089
:101DB000BDEC088B03B0BDE8F08FE0489FEDE0ABD1
:101DC0009FEDE1BBA84247DDE14F9FEDE39B9FED17
:101DD000E48B9DED120B53EC1A2B51EC100B002EE3
:101DE0001CDD04F06BFB41EC100BBD4208D053EC42
:101DF0001B2B51EC100B04F061FBC4E900010BE05C
:101E000053EC192B51EC100B04F058FB53EC182B2E
:101E100004F054FBC4E900010120C8E703F06CFFA3
:101E200041EC100BBD4208D053EC1B2B51EC100BB6
:101E300003F062FFC4E900010BE053EC192B51ECF5
:101E4000100B03F059FF53EC182B03F055FFC4E9B6
:101E500000014FF0FF30AAE7C348A84279DB9DEDAF
:101E6000120B51EC100B03F067FD41EC180B9FEDCA
:101E7000C00B53EC102B04F0E1F99FEDBF1B53ECAA
:101E8000112B03F039FF04F043F9074604F06FF912
:101E900041EC190B53EC1A2B04F0D0F953EC182B2E
:101EA00004F000FB41EC180B53EC1B2B51EC190B0D
:101EB00004F0C4F9DFF8C8A241EC100B4FEA155842
:101EC0000125FA4453EC102B51EC180B04F0F6FAF0
:101ED000032DC4E900013DD0C1F30A5005EB4511C3
:101EE000A8EB00001139814234DA0AEB051BB0EE91
:101EF00048AA9BED000BF0EE68AA53EC102B51ECB6
:101F0000190B04F09BF941EC1B0B51EC1A0B53EC31
:101F10001B2B04F0D3FA41EC180B51EC1A0B53ECC9
:101F2000182B04F0CBFA53EC1B2B04F0C7FA9BEDF3
:101F3000020B41EC1A0B53EC102B51EC190B04F073
:101F40007DF953EC1A2B04F0B9FA41EC100B6D1C1F
:101F5000B8E70EE0002EA8BF3846BFF628AF94EDD4
:101F6000000B51EC100B03F089FEC4E9000178422C
:101F70001DE7C6F3130040F4801EC6F30A50A0F21A
:101F8000F530471100F01F05C5F12000DDF848B01D
:101F900008900020069007900520EC467949002D16
:101FA00007EB0002794408BF51F8221009D051F81C
:101FB000223001EB8201AB404A68089922FA01F114
:101FC0001943A1FB0E26A1FB0B131A449A4234BFFE
:101FD0000123002303EB06080CEB8003D3E901A6E1
:101FE0000E448E4234BF0121002192448A4411B133
:101FF000924502D903E0924501D2012100E000217F
:10200000C3E901A641444CF82010011EA0F10100D3
:10201000C4DC029800F10050850F0298DDE90367E7
:102020008000DDF8148004F0A2F841EC1A0B304671
:1020300004F0B4F89FED541B53EC112B04F0FEF8A0
:1020400041EC1B0B384604F0A9F89FED511B53ECF3
:10205000112B04F0F3F841EC180B404604F09EF805
:102060009FED4D1B53EC112B04F0E8F841EC190BDC
:1020700051EC180B53EC192B03F03EFE53EC1B2BC9
:1020800003F03AFE53EC1A2B03F036FECDE90801BB
:10209000002008909DED080B53EC1A2B51EC100B0F
:1020A00004F00CFA53EC1B2B04F008FA53EC182B39
:1020B00004F004FA53EC192B04F0F4F99FED381BEB
:1020C00053EC112B04F0BAF89FED370B41EC180BD1
:1020D00053EC102B9DED080B51EC100B04F0AEF8F7
:1020E00053EC182B03F008FE9FED310B41EC180B5D
:1020F00053EC102B9DED080B51EC100B04F09EF8E7
:1021000053EC182B03F0F8FD41EC100B139810F072
:10211000004F06D06D4251EC100B03F0AFFD41ECC7
:10212000100B284684ED000B41E600000000000083
:102130000000000000000000FB21E93F7CD90240C4
:1021400000004054FB21F93F3163621A61B4D03D75
:10215000FB21F93F000000000000601A61B4D03D8F
:102160007370032E8A19A33BFB2139410000000044
:1021700083C8C96D305FE43F000000000000E03F0D
:1021800092780000E0770000000000000000103EA0
:10219000000000000000103C000000000000103AA9
:1021A000182D4454FB21F93D3326A611460B113C52
:1021B00000000054FB21F93D10B52DED040B2DED71
:1021C000088B82B0B0EE419AF0EE619A0B9820F045
:1021D00000449FED4BABB4F1795F11DA9DED0A0B32
:1021E00051EC100B03F094FF002801BFB0EE4A0A37
:1021F000F0EE6A0A02B0BDEC088B04BF04B010BD5B
:102200009DED0A0B53EC102B51EC100B04F016F85B
:1022100041EC180B3C480621B0EE480AF0EE680A83
:10222000784400F081F853EC182B51EC100B04F0BB
:1022300005F89DED0A0B41EC1B0B53EC192B51ECEF
:10224000100B03F0FBFF41EC190B53EC1B2B51EC73
:10225000180B03F0F3FF53EC192B04F02FF99FED4B
:102260002C0B41EC190B53EC102B51EC180B03F019
:10227000E5FF41EC100B2848844210DA53EC192B8F
:1022800051EC100B04F01AF953EC1A2B04F00AF974
:1022900041EC100B02B0BDEC088B04B010BD1F4820
:1022A000A042BCBF9FED1E1B8DED001B06DBA4F5FD
:1022B00000100190002000909DED001B51EC100BD0
:1022C00053EC112B04F0FAF89DED000B41EC180BC8
:1022D00053EC102B51EC1A0B04F0F0F841EC1A0BF4
:1022E00053EC192B51EC180B04F0E8F853EC1A2BB3
:1022F00004F0D8F841EC100BCCE70000000000001F
:10230000000000000000F03F047500000000000025
:10231000000000000000E03F3333D33F0000E93FFE
:10232000000000000000D23F70B504462DED028B86
:102330004D1E00EBC500B0EE408AF0EE608A90EDD5
:10234000000B35F0060017D053EC182B51EC100B96
:1023500003F074FF41EC100B6D1E04EBC50090ED13
:10236000001B51EC100B53EC112B03F0C5FC41EC9E
:10237000100B35F00600E7D1022D36D0042D1CD00D
:10238000062D1CBFBDEC028B70BD53EC182B51EC1D
:10239000100B03F053FF94ED0A1B53EC112B03F0C9
:1023A000ABFC53EC182B03F049FF94ED081B53ECE6
:1023B000112B03F0A1FC41EC100B53EC182B51EC4A
:1023C000100B03F03BFF94ED061B53EC112B03F0B5
:1023D00093FC53EC182B03F031FF94ED040B53ECFA
:1023E000102B03F089FC41EC100B53EC182B51EC33
:1023F000100B03F023FF94ED021B53EC112B03F0A1
:102400007BFC53EC182B03F019FF94ED001B53ECED
:10241000112B03F071FCBDEC028B41EC100B70BD75
:1024200031B504462DED040B2DED0A8BB0EE41BA0B
:10243000F0EE61BA0B989DED0A0B20F00040B0F170
:10244000795F0DDA51EC100BFFF79EFB042808BFF3
:1024500000F09AF89DED0A0BBDEC0A8B05B030BD7B
:1024600053EC102B51EC100B03F0E8FE41EC180B71
:102470009DED0A0B53EC182B51EC100B03F0DEFE14
:1024800041EC190B2C48B0EE480AF0EE680A052121
:102490007844FFF749FF9FED2ACBB0EE40AAF0EE5B
:1024A00060AA9CB353EC1C2B51EC190B03F0C6FE35
:1024B00041EC1C0B53EC1A2B51EC190B03F0BEFE34
:1024C0009FED210B41EC190B53EC102B51EC1B0B26
:1024D00003F0B4FE53EC192B03F0F0FF53EC182B70
:1024E00003F0ACFE53EC1B2B03F0E8FF53EC1C2B6A
:1024F00003F0E4FF9DED0A1B53EC112B03F0D2FF18
:10250000BDEC0A8B05B041EC100B30BDFFE753EC7E
:102510001A2B51EC180B03F091FE53EC1C2B03F01B
:10252000EBFB53EC192B03F089FE9DED0A1B53ECDA
:10253000112B03F0E1FBE3E78C73000000000000C7
:10254000495555555555C5BF000000000000E03FF6
:1025500010B553EC102B51EC100B03F0CDFB41ECFC
:10256000100B10BD000000009FED050B10B553ECE3
:10257000102B51EC100B03F073FC41EC100B10BD51
:1025800000000000000000009FED050B10B553ECAB
:10259000102B51EC100B03F051FE41EC100B10BD51
:1025A000000000000000001000BF704710B500BF21
:1025B000012251020248FEF7C7F900BF10BD00001A
:1025C000001C024038B5044640F2DF1340F23F12CF
:1025D00000210846009400F0B4F938BD00B587B07A
:1025E000142102A8FDF7CAFE00BF00BF0020019021
:1025F0001B48006840F080001949086008460068E0
:1026000000F08000019000BF00BF00BF00BF00BF0E
:10261000002001900846006840F04000086008462D
:10262000006800F04000019000BF00BF00BF8020A4
:1026300002900020039004900220059002A909480E
:10264000FEF76EF802200290012003900490022011
:10265000059002A90448FEF763F807B000BD00002A
:1026600030380240001C0240001802402DE9F041C1
:1026700086B005460E460EB1052E03DD002006B0DD
:10268000BDE8F081002408E004EB440005EB4000C5
:1026900008B90020F3E7601CC4B2B442F4DB0122A5
:1026A00005A948F24E1002F05FFB9DF8140000F0FF
:1026B000800080287ED19DF8140000F00F07BE42F4
:1026C00001DA304600E03846074600247EE04749FC
:1026D00031F81400062203A902F046FB9DF80C0015
:1026E0009DF80D1040EA0120ADF804009DF80E00A1
:1026F0009DF80F1040EA0120ADF806009DF810008B
:102700009DF8111040EA0120ADF8080000F02AFC05
:102710008046B8F1000F09D0B8F1010F14D0B8F11C
:10272000020F22D0B8F1030F46D132E0BDF8040009
:1027300004EB440125F81100BDF8060004EB440148
:1027400005EB4101488037E0BDF8060004EB440189
:1027500025F8110000F00CFCBDF80410401A04EB41
:10276000440105EB4101488026E000F007FCBDF87C
:102770000410401A04EB440125F8110000F0F8FBA6
:10278000BDF80610401A04EB440105EB41014880F6
:1027900012E000F0F3FBBDF80610401A04EB440110
:1027A00025F81100BDF8040004EB440105EB4101DC
:1027B000488000E017E000BF00BFBDF8080004EB50
:1027C000440105EB41018880601CC4B2BC42FFF6A5
:1027D0007EAF00200590012205A948F24E1002F0BC
:1027E000E1FB38464BE7002049E700001E97000850
:1027F00010B5292000F078FB10BD2DE9F05F0646EA
:102800000F4691469B46C9F1000400254FEA490056
:10281000C0F1020800BF7A1991B2321B90B25A4639
:1028200000F07DF87A1991B2321990B25A4600F050
:1028300076F87A1B91B2321990B25A4600F06FF8CE
:102840007A1B91B2321B90B25A4600F068F8C24629
:10285000AA450ADC6D1C012000EB45008044EC42D7
:1028600003D1A24501DC4FF0000AA24504DD641C3F
:10287000012000EB44008044002CCCDDBDE8F09F3B
:102880002DE9FC5F04460D4616461F46B44201DAA8
:10289000301B00E0A01B1FFA80F8BD4201DA781B54
:1028A00000E0E81B1FFA80F9B44201DA012001E0E0
:1028B0004FF0FF300190BD4201DA012001E04FF0FE
:1028C000FF300090A8EB09000FFA80FA3946304635
:1028D0000C9A00F024F81CE0294620460C9A00F0DF
:1028E0001EF84FEA4A000FFA80FBC9F10000834549
:1028F00006DDAAEB09000FFA80FA0198204484B2A1
:10290000C34506DA0AEB08000FFA80FA009828445B
:1029100085B2B442E0D1BD42DED1BDE8FC9F70B5C6
:1029200004460D4616462146204601F0A5FC2946E0
:10293000284601F0EBFC01F080FE304600F0DCFAA6
:1029400070BD2DE9F04707460C4615461E46DDF8DA
:1029500020A02946384601F08FFC3146204601F080
:10296000D5FC01F06AFEA1460EE0B84606E05046EE
:1029700000F0C2FA08F101001FFA80F8A845F6DD60
:1029800009F101001FFA80F9B145EEDDBDE8F087DD
:1029900000B595B0142110A8FDF7F0FC1C2109A882
:1029A000FDF7ECFC1C2102A8FDF7E8FC00BF00BF0E
:1029B00000200190FE48006840F00100FC490860DA
:1029C0000846006800F00100019000BF00BF00BF92
:1029D00000BF00BF00200190F5480838006840F0B3
:1029E0004000F349083908600846006800F04000DC
:1029F000019000BF00BF00BF00BF00BF00200190DA
:102A00000846006840F0400008600846006800F092
:102A10004000019000BF00BF00BF00BF00BF00200A
:102A200001900846006840F0080008600846006809
:102A300000F00800019000BF00BF00BF00BF00BF52
:102A4000002001900846006840F008000860084631
:102A5000006800F00800019000BF00BF00BF00BF89
:102A600000BF002001900846006840F008000860A0
:102A70000846006800F00800019000BF00BF00BFDA
:102A800000BF00BF002001900846006840F0080029
:102A900008600846006800F00800019000BF00BF11
:102AA00000BF00BF00BF002001900846006840F052
:102AB000080008600846006800F00800019000BFA8
:102AC00000BF00BF00BF00BF0020019008460068A3
:102AD00040F0080008600846006800F00800019017
:102AE00000BF00BF00BF00BF00BF0020019008462C
:102AF000006840F0100008600846006800F0100010
:102B0000019000BF00BF00BF00BF00BF00200190C8
:102B10000846006840F0100008600846006800F0B1
:102B20001000019000BF00BF00BF00BF00BF002029
:102B300001900846006840F01000086008460068F0
:102B400000F01000019000BF00BF00BF00BF00BF39
:102B5000002001900846006840F010000860084618
:102B6000006800F01000019000BF00BF00BF00BF70
:102B700000BF002001900846006840F01000086087
:102B80000846006800F01000019000BF00BF00BFC1
:102B900000BF00BF002001900846006840F0100010
:102BA00008600846006800F01000019000BF00BFF8
:102BB00000BF00BF00BF002001900846006840F041
:102BC000100008600846006800F01000019000BF87
:102BD00000BF00BF00BF00BF002001900846006892
:102BE00040F0100008600846006800F010000190F6
:102BF00000BF00BF00BF00BF00BF0020019008461B
:102C0000006840F0100008600846006800F01000FE
:102C1000019000BF00BF00BF00BF00BF00200190B7
:102C20000846006840F0080008600846006800F0A8
:102C30000800019000BF00BF00BF00BF00BF002020
:102C400001900846006840F00800086008460068E7
:102C500000F00800019000BF00BF00BF00BF00BF30
:102C6000002001900846006840F00800086008460F
:102C7000006800F00800019000BF00BF00BF012005
:102C800010900220119013900C20149010A9494824
:102C9000FDF746FD4FF480501090022011901390E4
:102CA0000C20149010A94348FDF73AFD1020109015
:102CB0000220119013900C20149010A93E48FDF7AB
:102CC0002FFD202010900220119013900C201490C2
:102CD00010A93948FDF724FD4FF4804010900220E0
:102CE000119013900C20149010A93348FDF718FD93
:102CF0004FF4004010900220119013900C2014907B
:102D000010A92D48FDF70CFD012010900220119014
:102D100013900C20149010A92748FDF701FD022004
:102D20001090119013900C20149010A92248FDF7D8
:102D3000F7FC802010900220119013900C2014902A
:102D400010A91E48FDF7ECFC4FF480701090022093
:102D5000119013900C20149010A91848FDF7E0FC76
:102D60004FF4007010900220119013900C201490DA
:102D700010A91248FDF7D4FC4FF480601090022097
:102D8000119013900C20149010A90C48FDF7C8FC6A
:102D90004FF4006010900220119013900C201490BA
:102DA00010A90648FDF7BCFC4FF48050109007E0D6
:102DB0003838024000180240000C02400010024067
:102DC0000220119013900C20149010A93E48FDF79A
:102DD000A7FC4FF4005010900220119013900C208B
:102DE000149010A93848FDF79BFC4FF480401090D8
:102DF0000220119013900C20149010A93248FDF776
:102E00008FFC4FF4004010900220119013900C2082
:102E1000149010A92C48FDF783FC4FF4807010909B
:102E20000220119013900C20149010A92748FDF750
:102E300077FC4FF4007010900220119013900C203A
:102E4000149010A92148FDF76BFC4FF4806010909E
:102E50000220119013900C20149010A91B48FDF72C
:102E60005FFC4FF020401A4908601A48486006206D
:102E7000886000211648C160016110214161002174
:102E80008161C161016241624FF480518162002120
:102E9000C1624FF480410163002141638163416459
:102EA0000F2009903C200B9000200C900F900220E6
:102EB0000290049000200590089002AA09A90448F5
:102EC000FEF790F915B000BD00100240000C024062
:102ED000B8010020040100A000BF00BF014908881C
:102EE000704700000008006C01B5BDF80000014902
:102EF000088008BDFE07006C01B5BDF8000001495F
:102F0000088008BD0008006C10B5D420FFF7ECFF66
:102F1000FFF7E2FF0446FFF7DFFF0446FFF7DCFFA1
:102F20004FF6FF7101EA0024FFF7D6FFC0B2044359
:102F300045F21030844212D0D320FFF7D5FFFFF7BF
:102F4000CBFF0446FFF7C8FF0446FFF7C5FF4FF667
:102F5000FF7101EA0024FFF7BFFFC0B2044320461F
:102F600010BD00000148C07970470000A00000209B
:102F70000148808870470000A00000200148408878
:102F800070470000A000002000B587B0142102A8FF
:102F9000FDF7F4F900BF00BF002001901148006860
:102FA00040F080000F4908600846006800F080008B
:102FB000019000BF00BF00BF4815029001200390A0
:102FC00004900220059002A90748FDF7A9FB00BF65
:102FD00000224FF400710448FDF7B6FC00BF07B0B3
:102FE00000BD000030380240001C024010B5FFF761
:102FF000CBFFFFF7CDFCFFF787FF044645F210300B
:10300000844205D047F29670844201D0012010BD61
:103010000D4804804FF4A0700B4948804FF4F070C5
:10302000888000F015F8002001F03AF94FF6FF70A3
:10303000FFF7C8FAFFF7DCFBFFF7B8FA01F0E6FF8D
:10304000024908700020E2E7A00000209E00002056
:1030500010B5FE48008845F21031884240F07B8769
:10306000ED20FFF741FF0120FFF746FFFE20FFF7AD
:1030700043FFEE20FFF738FFDE20FFF73DFF212062
:10308000FFF73AFFF120FFF72FFF0120FFF734FF92
:10309000DF20FFF729FF1020FFF72EFFC420FFF7E6
:1030A00023FF8F20FFF728FFC620FFF71DFF00201A
:1030B000FFF722FFE220FFF71FFFE220FFF71CFFD0
:1030C000E220FFF719FFBF20FFF70EFFAA20FFF74E
:1030D00013FFB020FFF708FF0D20FFF70DFF0020C2
:1030E000FFF70AFF0D20FFF707FF0020FFF704FF9F
:1030F0001120FFF701FF0020FFF7FEFE1920FFF768
:10310000FBFE0020FFF7F8FE2120FFF7F5FE002070
:10311000FFF7F2FE2D20FFF7EFFE0020FFF7ECFE99
:103120003D20FFF7E9FE0020FFF7E6FE5D20FFF7F8
:10313000E3FE0020FFF7E0FE5D20FFF7DDFE00204C
:10314000FFF7DAFEB120FFF7CFFE8020FFF7D4FEB5
:103150000020FFF7D1FE8B20FFF7CEFE0020FFF707
:10316000CBFE9620FFF7C8FE0020FFF7C5FEB22079
:10317000FFF7BAFE0020FFF7BFFE0020FFF7BCFEFE
:103180000220FFF7B9FE0020FFF7B6FE0320FFF78D
:10319000B3FE0020FFF7B0FEB320FFF7A5FE00202E
:1031A000FFF7AAFE0020FFF7A7FE0020FFF7A4FE0E
:1031B0000020FFF7A1FE0020FFF79EFE0020FFF792
:1031C0009BFE0020FFF798FE0020FFF795FE0020F1
:1031D000FFF792FE0020FFF78FFE0020FFF78CFE26
:1031E0000020FFF789FE0020FFF786FE0020FFF792
:1031F00083FE0020FFF780FE0020FFF77DFE002009
:10320000FFF77AFE0020FFF777FE0020FFF774FE3D
:103210000020FFF771FE0020FFF76EFE0020FFF791
:103220006BFE0020FFF768FE0020FFF765FEB4206C
:10323000FFF75AFE8B20FFF75FFE0020FFF75CFED2
:103240009620FFF759FE0020FFF756FEA120FFF75A
:1032500053FE0020FFF750FEB520FFF745FE022089
:10326000FFF74AFE0020FFF747FE0320FFF744FE6A
:103270000020FFF741FE0420FFF73EFE0020FFF78D
:103280003BFEB620FFF730FE0020FFF735FE0020A2
:10329000FFF732FEB720FFF727FE0020FFF72CFED6
:1032A0000020FFF729FE3F20FFF726FE0020FFF752
:1032B00023FE5E20FFF720FE0020FFF71DFE6420A6
:1032C000FFF71AFE0020FFF717FE8C20FFF714FE11
:1032D0000020FFF711FEAC20FFF70EFE0020FFF7E5
:1032E0000BFEDC20FFF708FE0020FFF705FE702034
:1032F000FFF702FE0020FFF7FFFD9020FFF7FCFD27
:103300000020FFF7F9FDEB20FFF7F6FD0020FFF7A7
:10331000F3FDDC20FFF7F0FD0020FFF7EDFDB82006
:10332000FFF7E2FD0020FFF7E7FD0020FFF7E4FDD7
:103330000020FFF7E1FD0020FFF7DEFD0020FFF792
:10334000DBFD0020FFF7D8FD0020FFF7D5FD0020B2
:10335000FFF7D2FDBA20FFF7C7FD2420FFF7CCFD11
:103360000020FFF7C9FD0020FFF7C6FD0020FFF792
:10337000C3FDC120FFF7B8FD2020FFF7BDFD0020F1
:10338000FFF7BAFD5420FFF7B7FD0020FFF7B4FDAB
:10339000FF20FFF7B1FD0020FFF7AEFDC220FFF7D1
:1033A000A3FD0A20FFF7A8FD0020FFF7A5FD0420DC
:1033B000FFF7A2FD0020FFF79FFDC320FFF794FD5C
:1033C0003C20FFF799FD0020FFF796FD3A20FFF71C
:1033D00093FD0020FFF790FD3920FFF78DFD0020C1
:1033E000FFF78AFD3720FFF787FD0020FFF784FDF8
:1033F0003C20FFF781FD0020FFF77EFD3620FFF720
:103400007BFD0020FFF778FD3220FFF775FD0020DF
:10341000FFF772FD2F20FFF76FFD0020FFF76CFD17
:103420002C20FFF769FD0020FFF766FD2920FFF73C
:1034300063FD0020FFF760FD2620FFF75DFD002003
:10344000FFF75AFD2420FFF757FD01E0A000002000
:103450000020FFF751FD2420FFF74EFD0020FFF76D
:103460004BFD2320FFF748FD0020FFF745FD3C20E2
:10347000FFF742FD0020FFF73FFD3620FFF73CFD40
:103480000020FFF739FD3220FFF736FD0020FFF75F
:1034900033FD2F20FFF730FD0020FFF72DFD2C20FE
:1034A000FFF72AFD0020FFF727FD2920FFF724FD65
:1034B0000020FFF721FD2620FFF71EFD0020FFF76B
:1034C0001BFD2420FFF718FD0020FFF715FD242029
:1034D000FFF712FD0020FFF70FFD2320FFF70CFD83
:1034E0000020FFF709FDC420FFF7FEFC6220FFF774
:1034F00003FD0020FFF700FD0520FFF7FDFC002085
:10350000FFF7FAFC8420FFF7F7FC0020FFF7F4FC3C
:10351000F020FFF7F1FC0020FFF7EEFC1820FFF78A
:10352000EBFC0020FFF7E8FCA420FFF7E5FC0020FF
:10353000FFF7E2FC1820FFF7DFFC0020FFF7DCFCC0
:103540005020FFF7D9FC0020FFF7D6FC0C20FFF736
:10355000D3FC0020FFF7D0FC1720FFF7CDFC0020A4
:10356000FFF7CAFC9520FFF7C7FC0020FFF7C4FC5B
:10357000F320FFF7C1FC0020FFF7BEFCE620FFF7B9
:10358000BBFC0020FFF7B8FCC520FFF7ADFC3220E4
:10359000FFF7B2FC0020FFF7AFFC4420FFF7ACFCC4
:1035A0000020FFF7A9FC6520FFF7A6FC0020FFF72D
:1035B000A3FC7620FFF7A0FC0020FFF79DFC8820ED
:1035C000FFF79AFC0020FFF797FCC620FFF78CFC62
:1035D0002020FFF791FC0020FFF78EFC1720FFF75B
:1035E0008BFC0020FFF788FC0120FFF785FC002002
:1035F000FFF782FCC720FFF777FC0020FFF77CFC79
:103600000020FFF779FC0020FFF776FC0020FFF791
:1036100073FCC820FFF768FC0020FFF76DFC00205A
:10362000FFF76AFC0020FFF767FC0020FFF764FC4F
:10363000C920FFF759FC0020FFF75EFC0020FFF7D0
:103640005BFC0020FFF758FC0020FFF755FC002032
:10365000FFF752FC0020FFF74FFC0020FFF74CFC67
:103660000020FFF749FC0020FFF746FC0020FFF791
:1036700043FC0020FFF740FC0020FFF73DFC00204A
:10368000FFF73AFC0020FFF737FC0020FFF734FC7F
:103690000020FFF731FCE020FFF726FC1620FFF7A3
:1036A0002BFC0020FFF728FC1C20FFF725FC002046
:1036B000FFF722FC2120FFF71FFC0020FFF71CFC76
:1036C0003620FFF719FC0020FFF716FC4620FFF715
:1036D00013FC0020FFF710FC5220FFF70DFC002028
:1036E000FFF70AFC6420FFF707FC0020FFF704FC4B
:1036F0007A20FFF701FC0020FFF7FEFB8B20FFF78D
:10370000FBFB0020FFF7F8FB9920FFF7F5FB0020FB
:10371000FFF7F2FBA820FFF7EFFB0020FFF7ECFB21
:10372000B920FFF7E9FB0020FFF7E6FBC420FFF715
:10373000E3FB0020FFF7E0FBCA20FFF7DDFB0020E2
:10374000FFF7DAFBD220FFF7D7FB0020FFF7D4FB0F
:10375000D920FFF7D1FB0020FFF7CEFBE020FFF7D9
:10376000CBFB0020FFF7C8FBF320FFF7C5FB0020D1
:10377000FFF7C2FBE120FFF7B7FB1620FFF7BCFB0A
:103780000020FFF7B9FB1C20FFF7B6FB0020FFF776
:10379000B3FB2220FFF7B0FB0020FFF7ADFB362084
:1037A000FFF7AAFB0020FFF7A7FB4520FFF7A4FBCC
:1037B0000020FFF7A1FB5220FFF79EFB0020FFF740
:1037C0009BFB6420FFF798FB0020FFF795FB7A2016
:1037D000FFF792FB0020FFF78FFB8B20FFF78CFB9E
:1037E0000020FFF789FB9920FFF786FB0020FFF7F9
:1037F00083FBA820FFF780FB0020FFF77DFBB920AB
:10380000FFF77AFB0020FFF777FBC420FFF774FB7C
:103810000020FFF771FBCA20FFF76EFB0020FFF7C7
:103820006BFBD220FFF768FB0020FFF765FBD82079
:10383000FFF762FB0020FFF75FFBE020FFF75CFB78
:103840000020FFF759FBF320FFF756FB0020FFF79E
:1038500053FBE220FFF748FB0520FFF74DFB00205C
:10386000FFF74AFB0B20FFF747FB0020FFF744FB65
:103870001B20FFF741FB0020FFF73EFB3420FFF742
:103880003BFB0020FFF738FB4420FFF735FB00200F
:10389000FFF732FB4F20FFF72FFB0020FFF72CFB39
:1038A0006120FFF729FB0020FFF726FB7920FFF7B7
:1038B00023FB0020FFF720FB8820FFF71DFB0020E3
:1038C000FFF71AFB9720FFF717FB0020FFF714FB09
:1038D000A620FFF711FB0020FFF70EFBB720FFF734
:1038E0000BFB0020FFF708FBC220FFF705FB0020C1
:1038F000FFF702FBC720FFF7FFFA0020FFF7FCFAF3
:10390000D120FFF7F9FA0020FFF7F6FAD620FFF7EB
:10391000F3FA0020FFF7F0FADD20FFF7EDFA0020C0
:10392000FFF7EAFAF320FFF7E7FA0020FFF7E4FADF
:10393000E320FFF7D9FA0520FFF7DEFA0020FFF7B2
:10394000DBFA0A20FFF7D8FA0020FFF7D5FA1C208F
:10395000FFF7D2FA0020FFF7CFFA3320FFF7CCFAB7
:103960000020FFF7C9FA4420FFF7C6FA0020FFF74E
:10397000C3FA5020FFF7C0FA0020FFF7BDFA62201B
:10398000FFF7BAFA0020FFF7B7FA7820FFF7B4FA8A
:103990000020FFF7B1FA8820FFF7AEFA0020FFF70A
:1039A000ABFA9720FFF7A8FA0020FFF7A5FAA620A8
:1039B000FFF7A2FA0020FFF79FFAB720FFF79CFA63
:1039C0000020FFF799FAC220FFF796FA0020FFF7D0
:1039D00093FAC720FFF790FA0020FFF78DFAD12065
:1039E000FFF78AFA0020FFF787FAD520FFF784FA5D
:1039F0000020FFF781FADD20FFF77EFA0020FFF7B5
:103A00007BFAF320FFF778FA0020FFF775FAE4203D
:103A1000FFF76AFA0120FFF76FFA0020FFF76CFA50
:103A20000120FFF769FA0020FFF766FA0220FFF78E
:103A300063FA0020FFF760FA2A20FFF75DFA002002
:103A4000FFF75AFA3C20FFF757FA0020FFF754FA25
:103A50004B20FFF751FA0020FFF74EFA5D20FFF7E9
:103A60004BFA0020FFF748FA7420FFF745FA0020D0
:103A7000FFF742FA8420FFF73FFA0020FFF73CFAF5
:103A80009320FFF739FA0020FFF736FAA220FFF75C
:103A900033FA0020FFF730FAB320FFF72DFA0020A9
:103AA000FFF72AFABE20FFF727FA0020FFF724FAD3
:103AB000C420FFF721FA0020FFF71EFACD20FFF700
:103AC0001BFA0020FFF718FAD320FFF715FA0020A1
:103AD000FFF712FADD20FFF70FFA0020FFF70CFACC
:103AE000F320FFF709FA0020FFF706FAE520FFF7B9
:103AF000FBF90020FFF700FA0020FFF7FDF9002096
:103B0000FFF7FAF90020FFF7F7F90220FFF7F4F9C1
:103B10000020FFF7F1F92920FFF7EEF90020FFF769
:103B2000EBF93C20FFF7E8F90020FFF7E5F94B201F
:103B3000FFF7E2F90020FFF7DFF95D20FFF7DCF97E
:103B40000020FFF7D9F97420FFF7D6F90020FFF71E
:103B5000D3F98420FFF7D0F90020FFF7CDF99320A7
:103B6000FFF7CAF90020FFF7C7F9A220FFF7C4F951
:103B70000020FFF7C1F9B320FFF7BEF90020FFF7DF
:103B8000BBF9BE20FFF7B8F90020FFF7B5F9C42054
:103B9000FFF7B2F90020FFF7AFF9CD20FFF7ACF93E
:103BA0000020FFF7A9F9D320FFF7A6F90020FFF7BF
:103BB000A3F9DC20FFF7A0F90020FFF79DF9F3201F
:103BC000FFF79AF90020FFF797F9E620FFF78CF945
:103BD0001120FFF791F90020FFF78EF93420FFF74D
:103BE0008BF90020FFF788F95620FFF785F90020B0
:103BF000FFF782F97620FFF77FF90020FFF77CF9C5
:103C00007720FFF779F90020FFF776F96620FFF7B4
:103C100073F90020FFF770F98820FFF76DF9002095
:103C2000FFF76AF99920FFF767F90020FFF764F9B9
:103C3000BB20FFF761F90020FFF75EF99920FFF73D
:103C40005BF90020FFF758F96620FFF755F90020CF
:103C5000FFF752F95520FFF74FF90020FFF74CF915
:103C60005520FFF749F90020FFF746F94520FFF7F7
:103C700043F90020FFF740F94320FFF73DF900200A
:103C8000FFF73AF94420FFF737F90020FFF734F93E
:103C9000E720FFF729F93220FFF72EF90020FFF780
:103CA0002BF95520FFF728F90020FFF725F976209A
:103CB000FFF722F90020FFF71FF96620FFF71CF934
:103CC0000020FFF719F96720FFF716F90020FFF72A
:103CD00013F96720FFF710F90020FFF70DF987208F
:103CE000FFF70AF90020FFF707F99920FFF704F919
:103CF0000020FFF701F9BB20FFF7FEF80020FFF7D7
:103D0000FBF89920FFF7F8F80020FFF7F5F8772087
:103D1000FFF7F2F80020FFF7EFF84420FFF7ECF888
:103D20000020FFF7E9F85620FFF7E6F80020FFF73C
:103D3000E3F82320FFF7E0F80020FFF7DDF8332059
:103D4000FFF7DAF80020FFF7D7F84520FFF7D4F89F
:103D50000020FFF7D1F8E820FFF7C6F80020FFF7B2
:103D6000CBF80020FFF7C8F89920FFF7C5F800202E
:103D7000FFF7C2F88720FFF7BFF80020FFF7BCF875
:103D80008820FFF7B9F80020FFF7B6F87720FFF793
:103D9000B3F80020FFF7B0F86620FFF7ADF8002079
:103DA000FFF7AAF88820FFF7A7F80020FFF7A4F88C
:103DB000AA20FFF7A1F80020FFF79EF8BB20FFF72D
:103DC0009BF80020FFF798F89920FFF795F800205E
:103DD000FFF792F86620FFF78FF80020FFF78CF8C6
:103DE0005520FFF789F80020FFF786F85520FFF7E8
:103DF00083F80020FFF780F84420FFF77DF80020CB
:103E0000FFF77AF84420FFF777F80020FFF774F8FF
:103E10005520FFF771F80020FFF76EF8E920FFF753
:103E200063F8AA20FFF768F80020FFF765F8002084
:103E3000FFF762F80020FFF75FF80020FFF754F863
:103E4000AA20FFF759F8CF20FFF74EF80020FFF720
:103E500053F80020FFF750F80020FFF74DF800203E
:103E6000FFF74AF80020FFF747F80020FFF744F873
:103E70000020FFF741F80020FFF73EF80020FFF791
:103E80003BF80020FFF738F80020FFF735F8002056
:103E9000FFF732F80020FFF72FF80020FFF72CF88B
:103EA0000020FFF729F80020FFF726F80020FFF791
:103EB00023F8F020FFF718F80020FFF71DF8502036
:103EC000FFF71AF80020FFF717F80020FFF714F8A3
:103ED0000020FFF711F8F320FFF706F80020FFF7A6
:103EE0000BF8F920FFF700F80620FFF705F810207F
:103EF000FFF702F82920FEF7FFFF0020FEF7FCFF86
:103F00003A20FEF7F1FF5520FEF7F6FF1120FEF7ED
:103F1000EBFF642001F0E0F92920FEF7E5FF3520F2
:103F2000FEF7E2FF0020FEF7E7FF5120FEF7DCFF7F
:103F3000FF20FEF7E1FF5320FEF7D6FF2C20FEF70F
:103F4000DBFF5520FEF7D0FF8220FEF7D5FF2C20A7
:103F5000FEF7CAFFE6E07448008847F2967188428F
:103F6000F8D11120FEF7C0FF782001F0B5F9362016
:103F7000FEF7BAFF4820FEF7BFFF3A20FEF7B4FF76
:103F80005520FEF7B9FFF020FEF7AEFFC320FEF785
:103F9000B3FFF020FEF7A8FF9620FEF7ADFFB42098
:103FA000FEF7A2FF0120FEF7A7FFB620FEF79CFF59
:103FB0000A20FEF7A1FFA220FEF79EFFB720FEF722
:103FC00093FFC620FEF798FFB920FEF78DFF022071
:103FD000FEF792FFE020FEF78FFFC020FEF784FF80
:103FE0008020FEF789FF1620FEF786FFC120FEF72E
:103FF0007BFF1920FEF780FFC220FEF775FFA72088
:10400000FEF77AFFC520FEF76FFF1620FEF774FF5C
:10401000E820FEF769FF4020FEF76EFF8A20FEF7DA
:104020006BFF0020FEF768FF0020FEF765FF2920E8
:10403000FEF762FF1920FEF75FFFA520FEF75CFF89
:104040003320FEF759FFE020FEF74EFFF020FEF789
:1040500053FF0720FEF750FF0D20FEF74DFF042011
:10406000FEF74AFF0520FEF747FF1420FEF744FF46
:104070003620FEF741FF5420FEF73EFF4C20FEF7AE
:104080003BFF3820FEF738FF1320FEF735FF1420E2
:10409000FEF732FF2E20FEF72FFF3420FEF72CFF15
:1040A000E120FEF721FFF020FEF726FF1020FEF7AB
:1040B00023FF1420FEF720FF0E20FEF71DFF0C202B
:1040C000FEF71AFF0820FEF717FF3520FEF714FF52
:1040D0004420FEF711FF4C20FEF70EFF2620FEF7CE
:1040E0000BFF1020FEF708FF1220FEF705FF2C2023
:1040F000FEF702FF3220FEF7FFFEF020FEF7F4FE8F
:104100003C20FEF7F9FEF020FEF7EEFE6920FEF7F8
:10411000F3FE782001F0E0F82120FEF7E5FE2920EB
:10412000FEF7E2FE10BD0000A000002000B587B041
:10413000142102A8FCF722F900BF00BF0020019063
:104140000D48006840F080000B4908600846006890
:1041500000F08000019000BF00BF00BF80200290EF
:1041600000200390012004900220059002A903483A
:10417000FCF7D6FA07B000BD30380240001C024000
:104180002DE9F04706460F4680213748FCF7CAFB69
:10419000002866D1D02000F0BEFC8246902000F0BE
:1041A000BAFC804631480089AAEB000000B200EE5C
:1041B000100AF8EEC00A2D4890ED001A80EE810A30
:1041C000DFED2B0A30EE200ABCEEC00A10EE100A1A
:1041D00084B226484089A8EB000000B200EE100A25
:1041E000F8EEC00A214890ED011A80EE810ADFED59
:1041F000210A30EE200ABCEEC00A10EE100A85B289
:10420000B4F5A07F02DAB5F5F07F02DB0120BDE84E
:10421000F087FEF7A7FE8146B9F1000006D001281D
:1042200007D002280BD0032818D111E034803D803C
:1042300014E03580FEF79CFE001B38800EE0FEF790
:104240009DFE001B3080FEF793FE401B388005E08A
:10425000FEF794FE401B30803C8000BF00BF002072
:10426000D5E70220D3E70000001C0240080200202E
:10427000000020430000704370B504460D462A201C
:10428000FEF732FE200AFEF737FEE0B2FEF734FEFC
:10429000280AFEF731FEE8B2FEF72EFE70BD0000E0
:1042A00010B5044634B1012C0CD0022C12D0032CD2
:1042B00020D117E04FF4A070134948804FF4F070FC
:1042C000888019E04FF4F0700F4948804FF4A070D7
:1042D000888011E04FF4A0700B4948804FF4F070D3
:1042E000888009E04FF4F070074948804FF4A070CF
:1042F000888001E0022010BD00BF0348C471002087
:1043000000F018F80020F6E7A000002070B5044681
:104310000D462B20FEF7E8FD200AFEF7EDFDE0B28A
:10432000FEF7EAFD280AFEF7E7FDE8B2FEF7E4FD36
:1043300070BD00007CB505464A48C07930B10128FF
:1043400006D0022824D0032862D141E02C4661E047
:1043500005F01F00C0B96811082815D2DFE800F089
:10436000040C080E06100A1260240FE020240DE051
:10437000E0240BE0A02409E0402407E0C02405E08D
:10438000002403E0802401E002207CBD00BF41E066
:1043900005F01F00C0B96811082815D2DFE800F049
:1043A000040C080E06100A12C0240FE040240DE091
:1043B00080240BE0002409E0E02407E0A02405E0CD
:1043C000602403E0202401E00220DEE700BF21E0BA
:1043D00005F01F00C0B96811082815D2DFE800F009
:1043E000040C080E06100A12A0240FE0E0240DE0D1
:1043F00020240BE0602409E0802407E0002405E08D
:10440000C02403E0402401E00220BEE700BF01E039
:104410000120BAE700BF13498C710846008847F2B3
:104420009671884201D144F008043620009001942E
:10443000BDF800000C490880BDF80400891C088004
:1044400000BF08484088401E81B20020FFF714FFDB
:1044500004488088401E81B20020FFF757FF0020EB
:1044600093E70000A0000020FE07006C2DE9FF4F3D
:1044700085B082468B460020029001900798203834
:1044800000F0FF08089830B101280DD0022812D0A2
:10449000032820D118E008EB4800324901EB8005E1
:1044A00006260C240C2719E02F4800EB08150826D7
:1044B0001024102712E008EBC8002C4901EB8005FE
:1044C0000C261824242709E0294800EB881510261B
:1044D0002024402702E009B0BDE8F08F00BF0AEBBE
:1044E0000600B0F5A07F04DC0BEB0400B0F5F07F14
:1044F00000DDF0E74FF0000930E015F80900049006
:104500000020039022E0049800F0800040B1019A5E
:104510005A4491B2029A524490B2129AFEF7FFF9AD
:104520000198401CC0B201900198A04206D1002021
:1045300001900298401CC0B202900AE00498400624
:10454000000E04900398401CC0B203900398082802
:10455000D9DB00BF09F1010000F0FF09B945CCDB50
:1045600000BFB8E79E670008126C000802720008DE
:104570005E7F00082DE9FF5F04460D4692469B468C
:10458000DDF838800F9830B1012807D0022808D014
:1045900003280CD108E006260C270AE0082610277D
:1045A00007E00C26182704E01026202701E0BDE8CC
:1045B000FF9F00BFA146039504EB0A00401CB0F525
:1045C000A07F02DD4FF4A07002E004EB0A00401C63
:1045D00080B2029005EB0B00401CB0F5F07F02DDCD
:1045E0004FF4F07002E005EB0B00401C80B201902C
:1045F00019E0A1190298814202DB4C46E81985B204
:10460000E9190198814201DB4D46039C1098009006
:1046100098F80020294620460F9BFFF727FFA01996
:1046200084B208F1010898F80000202803DB98F80C
:1046300000007E28DDDD00BFB9E710B52C20FEF7B5
:1046400053FC10BD2DE9F04F2DED088B8BB04FF6CC
:10465000FF70FDF7B7FF4FF478400121E44A4FF4B3
:10466000C873CDE900210290F02228210846FFF707
:1046700081FFBCE14FF00008B5E1B8F1060F18D298
:10468000DFE808F003182A415D7CFEF771FC4FEA71
:104690006009FEF773FC4FEA600A4FF6FF72494665
:1046A000504600F0C3F94FF478421421084600F058
:1046B000BDF975E14FF6FF721421084600F0B6F916
:1046C000FEF75CFC14381FFA80F94FF4784214218D
:1046D000484600F0ABF963E1FEF750FC14381FFACE
:1046E00080F94FF6FF721421484600F09FF9FEF75B
:1046F0003FFC14381FFA80F94FF4784249461420E1
:1047000000F094F94CE1FEF733FC14381FFA80F9FD
:104710004FF6FF724946142000F088F9FEF728FC96
:1047200014381FFA80F9FEF729FC14381FFA80FAB2
:104730004FF478424946504600F078F930E1FEF7F0
:1047400017FC14381FFA80F9FEF718FC14381FFA0A
:1047500080FA4FF6FF724946504600F067F9FEF7BF
:1047600007FC4FEA6009FEF709FC4FEA600A4FF4C4
:1047700078424946504600F059F911E1BDF81C0055
:10478000BDF81810401A04B2BDF82400BDF820107E
:10479000401A06B2BDF82610BDF81E00081A05B270
:1047A000BDF82200BDF81A10401A07B2304601F0D9
:1047B000DEFC41EC1A0B204601F0D9FC41EC1B0B4E
:1047C00053EC1A2B01F04CFB41EC180B384601F06E
:1047D000CEFC41EC1A0B284601F0C9FC41EC1B0B46
:1047E00053EC1A2B01F03CFB41EC190B9FED810BB4
:1047F00053EC102B51EC180B01F0E4FC05D251ECFA
:10480000180B01F03BFA41EC180B9FED7A0B53ECBF
:10481000102B51EC190B01F0D5FC05D251EC190B02
:1048200001F02CFA41EC190B9FED740B53EC102B9B
:1048300051EC180B01F0C6FC62D39FED720B53ECE8
:10484000102B51EC180B01F0F7FD59D39FED6B0BBA
:1048500053EC102B51EC190B01F0B4FC50D39FED2D
:10486000690B53EC102B51EC190B01F0E5FD47D30C
:104870000194002C01DB019801E001984042B0F561
:10488000805F3DDA0295002D01DB029801E002987D
:104890004042B0F5805F33DA0396002E01DB0398C7
:1048A00001E003984042B0F5805F29DA0497002FB9
:1048B00001DB049801E004984042B0F5805F1FDA04
:1048C0000594002C01DB059801E005984042B8B141
:1048D000B5F1000B01DB584601E0CBF1000078B1E7
:1048E000B6F1000A01DB504601E0CAF1000038B120
:1048F000B7F1000901DB484601E0C9F1000000B949
:104900004EE0FEF73BFB2838400000EE100AF8EEC0
:10491000C00AA01900EE100AB8EEC00A80EE201AF4
:104920003A4880ED001AFEF723FB2838400000EEDD
:10493000100AF8EEC00AE81900EE100AB8EEC00A34
:1049400080EE201A314880ED011ABDF828002F4969
:104950000881BDF82A102D4841814FF6FF70FDF700
:1049600031FEFEF705FB8146FEF708FB82461F205D
:10497000012127A24B46CDE9002102905246642135
:104980004420FFF7F7FD4FF47A7000F0A5FC4FF6D6
:10499000FF70FDF717FE0BB0BDEC088BBDE8F08F84
:1049A00000BFC82000F098FC00BF80211E48FBF724
:1049B000B9FF0028F9D1D02000F0ADF806A921F800
:1049C0002800902000F0A7F806A901EB8801488094
:1049D00000BF80211448FBF7A5FF0028F9D008F19B
:1049E000010000F0FF08B8F1060FFFF646AE41E601
:1049F0004898000800000000000000006666666637
:104A00006666EE3FCDCCCCCCCCCCF03F080200208B
:104A1000546F7563682053637265656E2041646AE4
:104A2000757374204F4B2100001C0240F8B50446FA
:104A30000D46164604F10D018AB2193988B22B468B
:104A400029460096FDF71CFF05F10D0083B21938C9
:104A500081B2224620460096FDF712FF6A1C91B2F1
:104A6000621C90B23246FDF75AFF6A1C91B2621E78
:104A700090B23246FDF753FF6A1E91B2621C90B2AB
:104A80003246FDF74CFF6A1E91B2621E90B232466A
:104A9000FDF745FF3346062229462046FDF7ADFEC9
:104AA000F8BD2DE9FE4380460027002406E040467D
:104AB00000F054FB2DF81400601CC4B2052CF6DB8A
:104AC000002416E0601CC5B20FE03DF814003DF86C
:104AD0001510884207DD3DF814603DF815002DF8EB
:104AE00014002DF81560681CC5B2052DEDDB601CA7
:104AF000C4B2042CE6DB012405E03DF81400384480
:104B000087B2601CC4B2042CF7DB032097FBF0F0E3
:104B100080B2BDE8FE832DE9F041064600BF304675
:104B2000FFF7BFFF05463046FFF7BBFF0446A5422F
:104B300002DD281B87B201E0601B87B2322FEEDC5A
:104B400028194010BDE8F08110B504460422214622
:104B500048F2401000F008F90020207110BD00005C
:104B600010B586B00446142101A8FBF707FC80208D
:104B700001900120029003900220049001A92B488B
:104B8000FBF7CEFD142C02D05D2C3FD122E000BFFC
:104B9000002202212648FBF7D7FE00BF00BF0022FB
:104BA00080212248FBF7D0FE00BF00BF01228021F8
:104BB0001E48FBF7C9FE00BF012000F08DFB00BFBF
:104BC000012202211A48FBF7BFFE00BF0A2000F0B5
:104BD00083FB1CE000BF002202211548FBF7B4FE56
:104BE00000BF00BF002280211048FBF7ADFE00BFD0
:104BF000012000F071FB00BF012202210C48FBF7ED
:104C0000A3FE00BF0A2000F067FB00E000BF00BF6A
:104C1000802001900020029003900220049001A9BE
:104C20000248FBF77DFD06B010BD0000001C0240ED
:104C30000018024010B500BF00224FF480711148E7
:104C4000FBF782FE00BF00F01FF800BF01224021E9
:104C50000C48FBF779FE00BF00F016F800BF0022F9
:104C600040210848FBF770FE00BF00F00DF800BFC0
:104C7000012211020348FBF767FE00BF00F004F8B1
:104C800010BD0000001C024010B5022000F03EFBE9
:104C900010BD000010B586B00446142101A8FBF732
:104CA0006DFB00BF00BF002000901C48006840F072
:104CB00080001A4908600846006800F080000090F3
:104CC00000BF00BF00BF00BF00BF0020009008462B
:104CD000006840F0800008600846006800F080002E
:104CE000009000BF00BF00BF402001900120029053
:104CF00003900220049001A90948FBF711FD4FF42D
:104D0000807001901120029001A90548FBF708FD71
:104D100000F0F4F80348047006B010BD30380240CB
:104D2000001C0240A800002010B500BF01221102A3
:104D30000C48FBF709FE00BFFFF7A6FF00BF0122EA
:104D400040210848FBF700FE00BFFFF79DFF00BFB2
:104D5000002240210348FBF7F7FD00BFFFF794FF57
:104D600010BD0000001C02402DE9F04105460E4632
:104D7000174600F09BF819490978002242EA4101E0
:104D8000C8B200F05DF800F0D9F8280A00F058F831
:104D900000F0D4F8E8B200F053F800F0CFF800F0DB
:104DA00085F80E490978012202EB4101C8B200F0F2
:104DB00047F800F0C3F8002405E0012000F010F8E7
:104DC0003055601CC4B2781EA042F6DC002000F012
:104DD00007F8305500F092F8BDE8F081A8000020F7
:104DE00070B50546002400261DE06006040E00BFD5
:104DF000012240211148FBF7A7FD00BFFFF744FF48
:104E00004FF480710D48FBF78DFD08B1601CC4B2F2
:104E100000BF002240210948FBF796FD00BFFFF7C5
:104E200033FF701CC6B2082EDFDB15B9FFF77CFF1D
:104E300001E0FFF7FFFE204670BD0000001C0240AD
:104E400070B50446002525E000BFE00928B1012225
:104E500011021548FBF778FD05E000224FF4807140
:104E60001148FBF771FD00BFFFF70EFF00BF0122E5
:104E700040210D48FBF768FD00BFFFF705FF00BFAD
:104E8000002240210848FBF75FFD00BF6006040ECA
:104E9000681CC5B2082DD7DB00BF012211020248F1
:104EA000FBF752FD00BF70BD001C024010B500BFF3
:104EB000012211021048FBF747FD00BF00BF01228D
:104EC00040210D48FBF740FD00BFFFF7DDFE00BFAE
:104ED00000224FF480710848FBF736FD00BFFFF752
:104EE000D3FE00BF002240210348FBF72DFD00BF89
:104EF000FFF7CAFE10BD0000001C024010B500BF45
:104F000000224FF480710C48FBF71EFD00BFFFF735
:104F1000BBFE00BF012240210748FBF715FD00BF83
:104F2000FFF7B2FE00BF012211020348FBF70CFDA0
:104F300000BFFFF7A9FE10BD001C024070B50024A1
:104F4000002500BF012211021548FBF7FDFC00BF40
:104F5000FFF79AFE00BF012240211148FBF7F4FC45
:104F600000BFFFF791FE07E0601CC4B2FA2C03DD1E
:104F7000FFF7C4FF012506E04FF480710848FBF7F6
:104F8000D1FC0028F0D100BF00BF0022402104481E
:104F9000FBF7DAFC00BFFFF777FE284670BD000084
:104FA000001C02402DE9F04105460F469046FFF7F0
:104FB0007DFF15490978002242EA4101C8B2FFF796
:104FC0003FFFFFF7BBFF280AFFF73AFFFFF7B6FFE7
:104FD000E8B2FFF735FFFFF7B1FF002609E0B85D43
:104FE000FFF72EFFFFF7AAFF044604B103E0701C91
:104FF000C6B24645F3DB00BFFFF780FF14B10120C6
:10500000BDE8F0810020FBE7A80000201CB5FDF7FB
:10501000E5FA1420FFF7A4FD1420FFF73BFE6420FF
:1050200000F05AF96846FFF78FFD08A16846FBF7C4
:10503000CDF938B1FFF77AF800F00CF8FFF702FB72
:1050400000201CBD00F028F90120FAE73131353885
:105050000000000000B587B0142102A8FBF78EF90C
:1050600000BF00BF002001903848006840F00800F1
:10507000364908600846006800F00800019000BF4B
:1050800000BF00BF00BF00BF0020019008460068BD
:1050900040F0800008600846006800F08000019041
:1050A00000BF00BF00BF00BF00BF00200190084646
:1050B000006840F0400008600846006800F04000CA
:1050C000019000BF00BF00BF00BF00BF00200190E3
:1050D0000846006840F0800008600846006800F05C
:1050E0008000019000BF00BF00BFC81402900020E4
:1050F0000390012004900220059002A91448FBF7B8
:105100000FFB4FF480700290012003900490022066
:10511000059002A90F48FBF703FB02200290012033
:10512000039004900220059002A90B48FBF7F8FABF
:10513000402002900120039004900220059002A9D3
:105140000448FBF7EDFA07B000BD0000303802401C
:10515000000C0240001C02400018024070B50646D8
:10516000002400BF002240213048FBF7EDFB00BFC8
:1051700000BF00224FF480712C48FBF7E5FB00BF15
:1051800000BF002202212A48FBF7DEFB00BF3046A9
:1051900000F052F8062000F0B9F800BF00224021CC
:1051A0002248FBF7D1FB00BF012000F0AFF800BFA1
:1051B000012240211D48FBF7C7FB00BF012000F082
:1051C000A5F800BF002240211848FBF7BDFB00BF37
:1051D00000251EE04FF6FF7000EA440400BF0022E5
:1051E00040211248FBF7B0FB00BF012000F08EF811
:1051F00000BF012240210D48FBF7A6FB00BF4FF482
:1052000000610C48FBF78EFB08B1601C84B2681C7F
:10521000C5B2102DDEDB241100BF0122022104489B
:10522000FBF792FB00BF204670BD0000001C02404F
:1052300000180240000C024070B50446002526E02C
:1052400004F0800030B100BF012211021148FBF7C9
:105250007BFB07E000BF00224FF480710D48FBF795
:1052600073FB00BF6006040E00BF00224021094806
:10527000FBF76AFB00BF012000F048F800BF0122E5
:1052800040210448FBF760FB00BF681CC5B2082D35
:10529000D6DB70BD001C024008B502200090012240
:1052A000694648F24000FFF77DFE0A2000F014F83E
:1052B000002000900122694648F24000FFF772FE8C
:1052C00008BD000010B504460420FBF7B8FF0148F4
:1052D000046010BD8800002070B504461E2094FBB9
:1052E000F0F594FBF0F100FB114604E047F230507A
:1052F00000F00CF86D1E002DF8D12EB14FF47A712C
:1053000006FB01F000F002F870BD000070B5034626
:1053100000224FF0E02675690D4E366803FB06F457
:105320004FF0E026B16910E04FF0E026B069884206
:105330000BD0884202D20E1A324402E02E1A0E44DA
:1053400032440146A24200D300E0EDE700BF70BD49
:10535000880000201EB50B46002124E001EB41042B
:1053600003EB840494ED000AD0ED000A20EE200A3D
:1053700001EB410403EB8404D4ED010A90ED011A22
:1053800000EE810A01EB410403EB8404D4ED020A30
:1053900090ED021A00EE810A6C4604EB810484ED64
:1053A000000A4C1CE1B20329D8DB00220AE06C465B
:1053B00004EB820494ED000A00EB820484ED000A01
:1053C000541CE2B2032AF2DB1EBD000070B52DEDC5
:1053D0000A8B9CB00446B0EE408AF0EE608AB0EED4
:1053E000419A9FEDB30AC8EE000AB0EE608A9FEDC5
:1053F000B00AC8EE800AF0EE608A9FEDAD0AC9EEF1
:10540000000AB0EE609A18EE100A01F041F941EC82
:105410001B0BB0EE4B0AF0EE6B0AFCF7E9FBB0EEAB
:1054200040AAF0EE60AA51EC1A0B00F033FC139086
:105430009FEDA00A8DED140A18EE100A01F028F96C
:1054400041EC1B0BB0EE4B0AF0EE6B0AFCF734FCA0
:10545000B0EE40AAF0EE60AA51EC1A0B00F01AFC74
:1054600015909FED940A8DED160AB7EE000A8DEDAA
:10547000170A9FED900A8DED180A18EE100A01F038
:1054800007F941EC1C0BB0EE4C0AF0EE6C0AFCF78D
:1054900013FCB0EE40BAF0EE60BA51EC1B0B00F01A
:1054A000EDFB41EC1A0B00F0F5FB19909FED810A22
:1054B0008DED1A0A18EE100A01F0EAF841EC1B0B08
:1054C000B0EE4B0AF0EE6B0AFCF792FBB0EE40AA8E
:1054D000F0EE60AA51EC1A0B00F0DCFB1B90B7EE6B
:1054E000000A8DED0A0A9FED730A8DED0B0A9FED00
:1054F000710A8DED0C0A9FED6F0A8DED0D0A18EE05
:10550000900A01F0C5F841EC1B0BB0EE4B0AF0EE2F
:105510006B0AFCF76DFBB0EE40AAF0EE60AA51EC0E
:105520001A0B00F0B7FB0E9018EE900A01F0B0F8DD
:1055300041EC1C0BB0EE4C0AF0EE6C0AFCF7BCFB25
:10554000B0EE40BAF0EE60BA51EC1B0B00F096FBE7
:1055500041EC1A0B00F09EFB0F909FED560A8DED6B
:10556000100A18EE900A01F093F841EC1B0BB0EE14
:105570004B0AF0EE6B0AFCF79FFBB0EE40AAF0EE90
:1055800060AA51EC1A0B00F085FB119018EE900AFE
:1055900001F07EF841EC1B0BB0EE4B0AF0EE6B0A0B
:1055A000FCF726FBB0EE40AAF0EE60AA51EC1A0B15
:1055B00000F070FB129019EE100A01F069F841EC4E
:1055C0001B0BB0EE4B0AF0EE6B0AFCF711FBB0EED2
:1055D00040AAF0EE60AA51EC1A0B00F05BFB0190C0
:1055E00019EE100A01F054F841EC1C0BB0EE4C0A15
:1055F000F0EE6C0AFCF760FBB0EE40BAF0EE60BA79
:1056000051EC1B0B00F03AFB41EC1A0B00F042FB93
:1056100002909FED280A8DED030A19EE100A01F0A1
:1056200037F841EC1B0BB0EE4B0AF0EE6B0AFCF7BF
:1056300043FBB0EE40AAF0EE60AA51EC1A0B00F06A
:1056400029FB049019EE100A01F022F841EC1B0B23
:10565000B0EE4B0AF0EE6B0AFCF7CAFAB0EE40AAC5
:10566000F0EE60AA51EC1A0B00F014FB05909FEDD0
:10567000110A8DED060A9FED0F0A8DED070A9FEDC9
:105680000D0A8DED080AB7EE000A8DED090A01A991
:105690002046FFF75FFE06460AA9FFF75BFE0546B8
:1056A00013A9FFF757FE1CB0BDEC0A8B70BD0000BC
:1056B000DA0F4940000000000EB5FDF797FC0446E4
:1056C0006CB120A0FAF74EFE08E000BF012124488B
:1056D000FBF730F900BFC820FFF7FEFDF5E74FF6F6
:1056E000FF70FCF76FFF4FF4784003211DA22023C9
:1056F000CDE9002102904FF4A0720A210846FEF77E
:1057000039FF4FF47840022118A21823CDE9002177
:1057100002904FF4A0722A210A20FEF72BFF4FF4CB
:105720007840012114A21023CDE9002102904FF40A
:10573000A07242210A20FEF71DFF01E000F024F8CC
:10574000FCE7000041544B2D4D4430333530206987
:105750006E6974206661696C6564210D0A00000041
:105760000010024053544D333200000041544B2D81
:105770004D4430333530000041544F4D40414C4989
:10578000454E54454B000000F8B56348007840B1E1
:1057900001216248FCF76AFF012800D10AE00020DD
:1057A00008E05E49891C881EFEF7EAFC08B9012062
:1057B00000E00020E8B1594800881C2819DDFDF7F9
:1057C000DDFB1C3855490988884212DD5348408862
:1057D0006E280EDDFDF7CCFB1C3850494988884205
:1057E00007DD4E4800884E4908804C4840884D49A6
:1057F000088000250EE005EB45014B4A02EB8100D5
:105800009FED4A1ADFED4A0AB6EE000AFFF7DEFD09
:10581000681CC5B2082DEEDB002461E01F20454F57
:10582000661C0090BE5D761E06EB46063E4F07EBFB
:105830008606D6ED010A3B4E368800EE106AB8EEB9
:10584000400A30EE800ABCEEC00A10EE106AB3B215
:10585000384F661CBE5D761E06EB4606324F07EBE0
:105860008606D6ED000A2E4E368800EE106AB8EE97
:10587000400A30EE800ABCEEC00A10EE106AB2B2E6
:105880002C4E365D761E06EB460607EB8606D6EDF9
:10589000010A244E368800EE106AB8EE400A30EE57
:1058A000800ABCEEC00A10EE106AB1B2214E365D1D
:1058B000761E06EB460607EB8606D6ED000A184E66
:1058C000368800EE106AB8EE400A30EE800ABCEE70
:1058D000C00A10EE106AB0B2FCF7D2FFA01CC4B22E
:1058E000182C9BDB6420FFF7F7FC4FF6FF700D4E82
:1058F000009036881C36B3B2094E36881C36B2B2D8
:10590000084E36881C3EB1B2054E36881C3EB0B2F9
:10591000FDF717F8F8BD00009E0000208000002071
:105920007C0000207E00002004000020CDCC4C3EF6
:105930009A99993E6400002082B0CDE9000121F0DF
:10594000004001909DED000B02B051EC100B704730
:1059500000BF054A126802F04002002AF9D0C2B224
:10596000014B5A60704700000010014000B587B03D
:1059700000BF00BF002001902A48006840F01000DE
:10598000284908600846006800F01000019000BF38
:1059900000BF00BF00BF00BF0020019008460068A4
:1059A00040F0100008600846006800F01000019008
:1059B00000BF00BF00BF00BF00BF0020019008462D
:1059C000006840F0100008600846006800F0100011
:1059D000019000BF00BF00BF042002900020039090
:1059E000012004900220059002A90F48FAF798FEC2
:1059F00008200290002003900120049002200590CE
:105A000002A90948FAF78CFE1020029000200390AA
:105A1000012004900220059002A90348FAF780FEB5
:105A200007B000BD303802400010024000B587B01A
:105A300000BF00BF002001901F48006840F0100028
:105A40001D4908600846006800F01000019000BF82
:105A500000BF00BF00BF00BF0020019008460068E3
:105A600040F0100008600846006800F01000019047
:105A700000BF00BF00BF01200290039004900220ED
:105A8000059002A90D48FAF74BFE0220029002A9E8
:105A90000A48FAF745FE00BF012211460748FAF707
:105AA00053FF00BF00BF012202210448FAF74CFF58
:105AB00000BF07B000BD00003038024000100240B7
:105AC00010B5FAF75FFF0723022208214FF4A870F0
:105AD00000F052F8A820FFF7F5FB4FF4E13000F09A
