:020000040800F2
:10000000A8EA06247D030008610E1008FD0D100803
:10001000010E10087D091008DD1100080000000025
:10002000000000000000000000000000650E100845
:10003000010F000800000000D3110008D5110008CE
:10004000A3030008A3030008A3030008A3030008F8
:10005000A3030008A3030008A3030008A3030008E8
:10006000A3030008A3030008A3030008A3030008D8
:10007000A3030008A3030008A3030008A3030008C8
:10008000A3030008A3030008A3030008A3030008B8
:10009000A3030008A3030008A3030008A3030008A8
:1000A000A3030008A3030008A3030008A303000898
:1000B000A3030008A3030008A3030008A303000888
:1000C000A3030008A3030008A3030008A303000878
:1000D000A3030008450F1008A3030008A3030008AA
:1000E000A3030008A303000800000000A303000806
:1000F000A3030008A3030008A3030008A303000848
:10010000A3030008A3030008A3030008A303000837
:10011000A3030008A3030008690E1008A303000846
:10012000A3030008A3030008A3030008A303000817
:10013000A3030008A3030008A3030008A303000807
:1001400000000000000000000000000000000000AF
:10015000A3030008A3030008A3030008A3030008E7
:10016000A3030008A3030008A3030008A3030008D7
:10017000A3030008A3030008A30300080000000075
:10018000A3030008A3030008A3030008A3030008B7
:10019000A3030008A3030008A3030008A3030008A7
:1001A000A3030008A3030008A3030008A303000897
:1001B000A3030008A3030008A3030008A303000887
:1001C000A3030008A3030008A3030008A303000877
:1001D000A3030008A3030008A3030008A303000867
:1001E000A3030008A3030008A3030008A303000857
:1001F000A3030008A3030008A3030008A303000847
:10020000A3030008A3030008A3030008A303000836
:10021000A3030008A3030008A3030008A303000826
:10022000A3030008A3030008A303000800000000C4
:10023000A3030008A303000800000000A3030008B4
:10024000A3030008A3030008A3030008A3030008F6
:10025000A3030008A3030008A3030008A3030008E6
:10026000A3030008A3030008A3030008A3030008D6
:10027000A3030008A3030008A30300080000000074
:10028000A3030008A3030008A30300080000000064
:1002900000000000A303000800F002F800F064F87A
:1002A0000AA090E8000C82448344AAF10107DA45D1
:1002B00001D100F059F8AFF2090EBAE80F0013F0BF
:1002C000010F18BFFB1A43F0010318470424020072
:1002D000242402000A444FF0000C10F8013B13F0F4
:1002E000070408BF10F8014B1D1108BF10F8015B8F
:1002F000641E05D010F8016B641E01F8016BF9D182
:1003000013F0080F1EBF10F8014BAD1C0C1B09D1D8
:100310006D1E58BF01F801CBFAD505E014F8016B4A
:1003200001F8016B6D1EF9D59142D6D370470000DC
:100330000023002400250026103A28BF78C1FBD8EE
:10034000520728BF30C148BF0B607047662900F0D4
:10035000D385642900F0D285782900F0CB807329F9
:1003600000F003820020704700F136FA1146FFF0DA
:1003700047FE17F169FD00F154FA0000DFF8300084
:10038000016841F470010160BFF34F8F09480047D5
:10039000FEE7FEE7FEE7FEE7FEE7FEE7FEE7FEE735
:1003A000FEE7FEE704480549034A054B7047000095
:1003B00088ED00E099020008A8E20624A8EA0624D5
:1003C000A8E2062453EA020C00F069802DE9F04B04
:1003D0004FF00006002B1FBFB3FA83F503FA05F4B4
:1003E00024FA05F65E4012BF1643B2FA82F502FA0D
:1003F00005F4C5F120051EBF22FA05FC44EA0C04F1
:10040000203556EA044C4FEA144418BF641C4FF0E0
:1004100000084FF00009904271EB030C39D300291A
:1004200019BFB1FA81F701FA07F6B0FA80F700FABE
:1004300007F6C7F120071EBF20FA07FC46EA0C06A4
:100440002037B6FBF4FCA7EB0507103F07F01F0BA6
:10045000CBF120060CFA0BFB2CFA06F644BFB34690
:100460000026202FA4BF5E464FF0000B5BEA060C6F
:1004700008BF4FF0010B19EB0B09ABFB027C48EBFB
:100480000608C01B06FB02CC0BFB03CC71EB0C0176
:10049000C1E70B46024641464846BDE8F08B13B51E
:1004A0004FF000004FF00001AFF30080BDE81C40AA
:1004B000704700000FB4044910B503AA029800F079
:1004C00059F910BC5DF814FB280000240FB41CB5CA
:1004D000074B06AA7B4469460090059800F1EFF8A7
:1004E0000020694600F02AF91CBC5DF814FB0000EE
:1004F0006502000070B504460D4621461068AFF352
:1005000000802188090502D50F4A7A4402E00E4A8C
:100510007A440E32002104F1240305E000F00F06B6
:100520000009965D5E54491C0028F7D1207800230D
:10053000000704D5702D02D009B1022311322046E4
:10054000BDE8704000F0A1B8661F120040EA010348
:10055000024630B59B0710D14FF0013400E008C2CD
:1005600008C91D1B9D4315EAC41FF8D013F0FF01F5
:1005700002F8011B0DD01B0AF8E711F8013B002B14
:1005800002F8013B05D011F8013B002B02F8013BBA
:10059000F3D130BD10B5431C02E010F8011B71B15E
:1005A0008107FAD14FF0013202C88C1A8C4314EA49
:1005B000C211F9D0C01A0A0603D0C01E10BDC01A5D
:1005C00010BD0A0401D0801E10BD0902FCD0401EDF
:1005D00010BD4FF0000200B51346944696462039F0
:1005E00022BFA0E80C50A0E80C50B1F12001BFF4EC
:1005F000F7AF090728BFA0E80C5048BF0CC05DF852
:1006000004EB890028BF40F8042B08BF704748BF9F
:1006100020F8022B11F0804F18BF00F8012B704713
:100620004FF0013C50F8042B51F8043B9A4215D18D
:10063000A2EB0C03934313EACC130BD150F8042B19
:1006400051F8043B9A4209D1A2EB0C03934313EAFD
:10065000CC13E7D04FF00000704700BFD01A01BAAA
:10066000B1FA81F101F0180122FA01F0CB40C1F199
:100670002001DBB2C0B2C01A2CFA01F3D11A9143A7
:1006800011EAC311E6D1704770472DE9F0470D46D6
:1006900099469246044600F124080168880604D56C
:1006A000E06921F01001216000E00120A84201DD95
:1006B000471B00E00027A1697A1902EB0900081A1C
:1006C000A0612078C00602D42046AFF30080002647
:1006D00008E0D4E901211AF806009047206A401C7E
:1006E000761C20624E45F4DB2078C0060AD52046F1
:1006F000AFF3008006E0D4E9012130209047206A62
:10070000401C2062381EA7F10107F4DC07E0D4E9A1
:10071000012118F805009047206A401C2062281E1D
:10072000A5F10105F3DC2046AFF300802078000638
:1007300002D50220BDE8F0870120FBE70A6802F835
:10074000010B0A60704710B5436913B1AFF3008025
:1007500001E0FFF06AFC012010BD127800F12401D5
:100760000A7000224A700122EDE711684FF0FF3253
:10077000E9E70000074B70B50D467B44FFF09FFF93
:100780000446284600F124F810B14FF0FF3070BD48
:10079000204670BD537F000030B5B0F10A024FEA29
:1007A000900E71F100034EEA817EB0EB0E0061EB1A
:1007B00091014FEA101E4EEA017E10EB0E0041EB54
:1007C00011114FEA102E4EEA016E10EB0E0041EBB4
:1007D00011214FEA104E4EEA014E10EB0E0041EB94
:1007E0001141401841F100014FEAD00040EA417048
:1007F0004FEAD10110EB80054FEA810444EA90747E
:1008000044EB01046D1944EB0404521BA3414FF067
:10081000000348BF0A3200D530BD401C41F1000141
:1008200030BD00002DE9F0411F4604460326016853
:10083000072A01F4006004DB08B116A505E016A53F
:1008400003E008B115A500E015A521F01000206017
:10085000A069C01EA0610FB1401EA0612046AFF389
:1008600000804FB1D4E9012138469047206A401CEE
:100870002062C01C206206E0206AFAE7D4E9012168
:1008800015F8010B9047761EF8D22046AFF3008092
:10089000BDE8F0814E414E006E616E00494E46004B
:1008A000696E66000048704748E20624130C06BFD4
:1008B00012044FF0100C4FF0000C130E04BF120284
:1008C0000CF1080C130F04BF12010CF1040C930F70
:1008D00004BF92000CF1020CD30F04BF52000CF1C4
:1008E000010C11464FF00002A0F11F00A0EB0C001C
:1008F000704711F0004F08BF704731F000413FF4DE
:10090000D5AF0B0C06BF09044FF0100C4FF0000CD4
:100910000B0E04BF09020CF1080C0B0F04BF0901F8
:100920000CF1040C8B0F04BF89000CF1020CCB0FEF
:1009300004BF49000CF1010CCCF12003A0EB0C002A
:1009400022FA03F302FA0CF241EA030100F101007A
:10095000704720F07F4C80EA030023F07F47ACEB28
:10096000070303F57C5300F0004003F1FF032DE97A
:1009700080494FEA154B09B44FEA144325EA0B4E60
:1009800024EA03480FF2042606EB132749083E78B1
:100990005FEA320203FB0667C7F5000707FB06F6AE
:1009A0004FEA54374FEAD64606F1020607FB066CBB
:1009B000CCF1005C4FEA1C472CEA074C07FB06F41D
:1009C0000CFB06F504EB15464FEA961634BF0020E3
:1009D0004FF000404FEAD13706FB07FC4FEA1C4CB2
:1009E0000CFB0BF7D21B03FB0CF761EB07010CFBB5
:1009F0000EF7B0EB074072EB17420CFB08F734BF61
:100A0000A2EB0742B2EB074261EB17414FEA0C44FD
:100A10004FEA910706FB07FC4FEA1C4C0CFB0BF757
:100A2000B0EBC74072EB573203FB0CF734BFA2EBBD
:100A3000C742B2EBC74261EB57310CFB0EF7B0EB8C
:100A4000C70072EB57720CFB08F734BFA2EBC7026A
:100A5000B2EBC70261EB5771039F4FEA816141EA34
:100A6000921104EBCC044FEAD1374FEA826206FBC5
:100A700007FC42EA90124FEA80604FEA1C4C0CFBE4
:100A80000BF7D21B03FB0CF761EB07010CFB0EF716
:100A9000B0EB074072EB17420CFB08F734BFA2EB38
:100AA0000742B2EB074261EB17414FEA8C554FEA20
:100AB000910704EB9C2406FB07FC4FEA1C4C0CFB43
:100AC0000BF7B0EBC74072EB573203FB0CF734BFA8
:100AD000A2EBC742B2EBC74261EB57310CFB0EF7FA
:100AE000B0EBC70072EB57720CFB08F734BFA2EBF8
:100AF000C702B2EBC70261EB577115EB4C254FEA09
:100B0000816141EA92114FEA82624FEAD13742EAAB
:100B1000901206FB07FC44F100044FEA80604FEAA4
:100B20001C4C0CFB0BF7D21B03FB0CF761EB070112
:100B30000CFB0EF7B0EB074072EB17420CFB08F70B
:100B400034BFA2EB0742B2EB074261EB174115EB52
:100B50001C154FEA813141EA92414FEA823242EA62
:100B600090424FEA80304FEA0C7644F1000448EAA4
:100B700003434EEA0B484FF0000EB2EB080C71EB4A
:100B8000030724BF624639464EEB0E0E4FF0000BB2
:100B90000018524149414BEB0B0BB2EB080C71EBC7
:100BA00003077BF1000B24BF624639464EEB0E0E65
:100BB0004FF0000B0018524149414BEB0B0BB2EBCD
:100BC000080C71EB03077BF1000B24BF624639462A
:100BD0004EEB0E0E51EA020718BF46F0010616EB67
:100BE0000E7655F1000254F1000103D5BDE88901EC
:100BF000BDE80088BDE88901BDE80048B61952414A
:100C000041EB0101A3F10103704780807F7E7D7C71
:100C10007B7A7978777676757473727171706F6E8E
:100C20006E6D6C6C6B6A6A69686867666665646439
:100C3000636362616160605F5F5E5E5D5D5C5C5BC3
:100C40005B5A5A5959585857575656555555545432
:100C5000535352525251515050504F4F4F4E4E4D90
:100C60004D4D4C4C4C4B4B4B4A4A4A4949494848DC
:100C7000484747474746464645454544444444431C
:100C8000434343424242424141412DE9804C9A460E
:100C9000934670B491E8380007C831EA400C48BF69
:100CA00034EA430C03D5FFF754FEFFF0E2FDF0BC3D
:100CB000BDE8008C20F07F4780EA030023F07F4CE2
:100CC00007EB0C03A3F57C5300F00040A3F1FE03F7
:100CD00092F0000F00F0B38095F0000F00F07780E5
:100CE0002DE901494FEA11404FEA144621EA004834
:100CF00000FB06FC24EA064708FB06F607FB08F89B
:100D000000FB07F718EB06484CEB164C4FEA124B6A
:100D100018EB07484FEA15464CEB174022EA0B4EFA
:100D20000BFB06FC25EA06470EFB06F607FB0EFE4C
:100D30000BFB07F71EEB064E4CEB164C4FF0000674
:100D40001EEB074E4CEB174B18EB0B0840F1000065
:100D500018EB0E0B58EB000840F100008F1A4FF013
:100D600000013CBFC943661B14BFB5EB040C002156
:100D70003CBFC943F61B4FEA17444EEA8E0E27EAE2
:100D800004454FEA1C4704FB07622CEA074C05FBAD
:100D900007F70CFB05F604FB0CFC16EB074642EBD1
:100DA000174216EB0C4642EB1C421BEB060658EBB7
:100DB0000202414146EA9E0601D5BDE80189B61905
:100DC000524141EB0101A3F10103BDE801894FEA62
:100DD00014454FEA114724EA054621EA074C05FB72
:100DE00007F406FB07F70CFB06F105FB0CFC11EB07
:100DF000074144EB17444FEA124711EB0C4144EB17
:100E00001C4422EA074C05FB07F206FB07F70CFB24
:100E100006F605FB0CFC16EB074642EB174216EBF9
:100E20000C4642EB1C456A1854F1000148BF70475C
:100E3000B619524141EB0101A3F10103704795F04E
:100E4000000F37D04FEA11424FEA144721EA024619
:100E500024EA074C02FB07F106FB07F70CFB06F43C
:100E600002FB0CFC14EB074441EB17414FEA15471A
:100E700014EB0C4441EB1C4125EA074C02FB07F53F
:100E800006FB07F70CFB06F602FB0CFC16EB07460D
:100E900045EB174516EB0C4645EB1C42121951F178
:100EA000000148BF7047B619524141EB0101A3F15F
:100EB000010370474FEA14454FEA114724EA0546FB
:100EC00021EA074C05FB07F106FB07F70CFB06F2CE
:100ED0004FF0000605FB0CFC12EB074241EB1741FB
:100EE00012EB0C4251EB1C4148BF7047921841EB8A
:100EF0000101A3F1010370471BF14EBBFFF0BEB827
:100F00007047000003480068034909780844014914
:100F1000086070478C0000249400002470B50446DB
:100F20001148007808B9012070BD0F4800784FF4CF
:100F30007A71B1FBF0F00D490968B1FBF0F5284674
:100F4000FFF0A0FD08B10120EEE7102C07D200222F
:100F50002146501EFFF044FD0548046001E00120D9
:100F6000E2E70020E0E70000940000241C000024D9
:100F70009000002470470146084600280DDB00BFA2
:100F800000BF00F01F0301229A4043099B0003F1B8
:100F9000E023C3F8002100BF00BF00BF704700007E
:100FA000F0B5824E366806F0380636B1082E15D0F8
:100FB000102E15D0182E7DD114E07C4E103E3668D0
:100FC000C6F3401646B1794E103E3668C6F3C107E7
:100FD000774E26FA07F000E07548E5E07548E3E053
:100FE0007548E1E0714E1836366806F003046F4E1E
:100FF00018363668C6F305116C4E1C36366806F096
:1010000001056A4E24363668C6F3CC0616FB05F693
:1010100001EE106AB8EE410A002971D024B1012C0A
:1010200050D0022C6DD16DE0604E103E3668C6F394
:1010300040163EB35D4E103E3668C6F3C1075C4EA7
:1010400026FA07F301EE103AF8EE411A01EE101AF3
:10105000B8EE411A81EE812A9FED581AC0EE011AAE
:10106000524E20363668C6F3080601EE106AB8EE16
:10107000411A31EE811AF7EE001A31EE211A62EEB2
:10108000010A1EE001EE101AB8EE411ADFED4C1A0B
:1010900081EE812A9FED491AC0EE011A434E203697
:1010A0003668C6F3080601EE106AB8EE411A31EE52
:1010B000811A00E076E0F7EE001A31EE211A62EEB6
:1010C000010A5BE001EE101AB8EE411A9FED3D2ACD
:1010D000C2EE011A9FED391A80EE012A334E2036F6
:1010E0003668C6F3080601EE106AB8EE411A32EE11
:1010F000011AB7EE002A31EE021A61EE810A3DE0D4
:101100004EE01DE001EE101AB8EE411ADFED2E1A86
:1011100081EE812A9FED291AC0EE011A234E203656
:101120003668C6F3080601EE106AB8EE411A31EED1
:10113000811AF7EE001A31EE211A62EE010A1DE063
:1011400001EE101AB8EE411A9FED1E2AC2EE011AE6
:101150009FED1A1A80EE012A144E20363668C6F327
:10116000080601EE106AB8EE411A32EE011AB7EE27
:10117000002A31EE021A61EE810A00BF00BF0B4E59
:1011800020363668C6F34626721C01EE102AB8EEE9
:10119000411AC0EE811ABCEEE11A11EE100A00E00D
:1011A000002001E0034800BF00BFF0BD104402581A
:1011B0000090D00300093D0040787D01000000460A
:1011C0000024744C0024744A20BCBE4B7047704706
:1011D0007047704710B5FFF795FE10BD00BFFEE7E2
:1011E00003B401984100009850EAC12018BF0420C0
:1011F0004A0D18BF40F0010040F2FF72B2EB515FA0
:1012000008BF40F00200012808BF052002B0704767
:1012100002480068C0F30220704700000CED00E0B7
:1012200010B5002804DB0A07130E054A135406E024
:101230000A07140E034A00F00F031B1FD45410BDFD
:1012400000E400E018ED00E070B50446002508E079
:101250002168481C20600878303805EB850100EBD8
:1012600041052168087800F004F80028F0D12846EC
:1012700070BD0146302903DB392901DC01207047AC
:101280000020FCE710B54421074800F0C4FB002211
:101290001E21064816F008FC0549086000F19EFE74
:1012A00000200449087010BD7C200624392B00085A
:1012B0001C0200241802002430B50346B1F9004096
:1012C000B2F90050AC4202DDB1F9004001E0B2F9E0
:1012D00000401C80B1F90240B2F90250AC4202DD7C
:1012E000B1F9024001E0B2F902405C80B1F904407A
:1012F000B2F90450AC4202DAB1F9044001E0B2F9AB
:1013000004409C80B1F90640B2F90650AC4202DAC2
:10131000B1F9064001E0B2F90640DC800120B3F9E2
:101320000040B3F90450AC4205DCB3F90240B3F914
:101330000650AC4200DD002030BD0246B2F900008C
:10134000B1F90430984213DCB2F90400B1F900306D
:1013500098420DDBB2F90200B1F90630984207DC81
:10136000B2F90600B1F90230984201DB0120704762
:101370000020FCE72DE9FC5F05460E4614464FF0C1
:10138000000AB6F90000B5F90010884213DBB6F97F
:101390000000B5F9041088420DDCB6F90200B5F979
:1013A0000210884207DBB6F90200B5F90610884240
:1013B00001DC4FF0010ABAF1000F02D10020BDE8B4
:1013C000FC9F002C01DC0120F9E728460CF02DFBE6
:1013D000834600EBDB70471028460BF1BBFE8346CB
:1013E00000EBDB704FEA6008474501DA384600E061
:1013F000404681464C4500DD4C462888ADF800004B
:101400002888204400B2ADF804006888ADF80200D6
:101410006888204400B2ADF80600002231466846D4
:10142000FFF7A8FF80B1BDF80400204400B2ADF87A
:101430000400BDF80600204400B2ADF806003146B5
:10144000684614F005FCBAE7E888001B00B2ADF866
:101450000200E888ADF80600002231466846FFF732
:1014600089FF80B1BDF80400204400B2ADF804004B
:10147000BDF80200001B00B2ADF80200314668461C
:1014800014F0E6FB9BE7A888001B00B2ADF8000053
:10149000A888ADF80400002231466846FFF76AFFCD
:1014A00080B1BDF80000001B00B2ADF80000BDF82F
:1014B0000200001B00B2ADF802003146684614F08D
:1014C000C7FB7CE76888ADF802006888204400B25A
:1014D000ADF80600002231466846FFF74BFF80B1A9
:1014E000BDF80000001B00B2ADF80000BDF806001A
:1014F000204400B2ADF806003146684614F0A8FB5F
:101500005DE701205BE710B5B1F90030B2F90040AA
:10151000A34202DAB1F9003001E0B2F900300380F1
:10152000B1F90230B2F90240A34202DAB1F9023055
:1015300001E0B2F902304380B1F90430B2F904405D
:10154000A34202DDB1F9043001E0B2F90430838036
:10155000B1F90630B2F90640A34202DDB1F9063016
:1015600001E0B2F90630C38010BD704710B52021EC
:10157000014800F050FA10BD882006242DE9FF47ED
:1015800004460D4616461F46DDE90C896FB9B8F5CD
:10159000807F0AD1002020806080681E00B2A08079
:1015A000701E00B2E080BDE8FF870020009001902F
:1015B00002900390ADF80450ADF80A60ADF80C50FD
:1015C000ADF80E604B4642463946684614F076FA4E
:1015D0004B464246394601A814F070FA4B46424643
:1015E000394602A814F06AFA4B464246394603A827
:1015F00014F064FABDF90000BDF90410884202DA63
:10160000BDF9000001E0BDF90400BDF90810BDF905
:101610000C20914202DABDF9081001E0BDF90C106E
:1016200088420BDABDF90000BDF90410884202DAE5
:10163000BDF900000DE0BDF904000AE0BDF90800A5
:10164000BDF90C10884202DABDF9080001E0BDF9CD
:101650000C00801E00B22080BDF90000BDF904100E
:10166000884202DDBDF9000001E0BDF90400BDF9CA
:101670000810BDF90C20914202DDBDF9081001E00F
:10168000BDF90C1088420BDDBDF90000BDF9041056
:10169000884202DDBDF900000DE0BDF904000AE05A
:1016A000BDF90800BDF90C10884202DDBDF9080043
:1016B00001E0BDF90C00801C00B2A080BDF9021051
:1016C000BDF90600814202DABDF9020001E0BDF970
:1016D0000600BDF90A20BDF90E108A4202DABDF9F2
:1016E0000A1001E0BDF90E1088420BDABDF90210B4
:1016F000BDF90600814202DABDF902000DE0BDF934
:1017000006000AE0BDF90A10BDF90E00814202DAB6
:10171000BDF90A0001E0BDF90E00801E00B2608034
:10172000BDF90210BDF90600814202DDBDF90200DB
:1017300001E0BDF90600BDF90A20BDF90E108A428C
:1017400002DDBDF90A1001E0BDF90E1088420BDD83
:10175000BDF90210BDF90600814202DDBDF90200AB
:101760000DE0BDF906000AE0BDF90A10BDF90E0052
:10177000814202DDBDF90A0001E0BDF90E00801CC6
:1017800000B2E08000BF0EE72DE9F84F0446D4F820
:101790002CB0BBF1000F01D1BDE8F88F94F84000E8
:1017A00000F00F0000B9F7E70FF072FE0646306850
:1017B000477E4021584613F156FD10B90021E183C0
:1017C000A183584612F00CF88046584613F186F86B
:1017D000054694F8400000F00F000C2843D100218A
:1017E000A1831DBBB4F91E00C7F164014843642105
:1017F00090FBF1F001B2E183584612F173FF81468C
:10180000584611F0F7FF82460C200090B4F91E10E4
:101810004B465246584606F1E1FAE083B4F91E20E1
:1018200000231946584614F1E1F969E0204617F003
:101830003DFC00900021E1836A46204617F0DFFB63
:10184000BDF9003041F6FF725142584606F0DAFC0D
:101850008146BDF80000484402B2012300215846E9
:1018600014F1C4F94CE094F8400000F00F00032894
:1018700046D10021E183B8F1000F23D1B4F91C0057
:10188000C7F164014843642190FBF1F001B2A183E8
:10189000584611F02DFF8146584612F1B1FF82469D
:1018A00003200090B4F91C1053464A46584606F1EE
:1018B00095FAA083B4F91C1000231A46584614F177
:1018C00095F91DE0204617F0D6FB00900021A1837A
:1018D00000226946204617F092FBBDF9003041F620
:1018E000FF725142584606F173FD8146BDF8000073
:1018F000484401B201230022584614F177F900BF91
:10190000A08B002860D1E08B00285DD11DBB58461C
:1019100011F070FF8146584612F1E4FE8246B9F19B
:10192000000F02DCBAF1000F14DDB9F1000F06DA86
:1019300001234A460021584614F158F90AE0BAF149
:10194000000F07DA0123CAF1000002B20021584655
:1019500014F14CF900BFB8F1000F23D1584611F033
:10196000C7FE8146584612F14BFF8246B9F1000F7F
:1019700002DCBAF1000F14DDB9F1000F06DA012321
:1019800000224946584614F131F90AE0BAF1000F35
:1019900007DA01230022CAF1000001B2584614F10F
:1019A00025F900BF32460A2158460EF0F5FC607852
:1019B000C0F3400000B1EFE694F8400020F00F01C2
:1019C00084F840100021E16200BFE5E6014609B954
:1019D000002070474868FCE770B506460024304692
:1019E000FFF7F4FF054605E0641C2946304600F089
:1019F00005F80546002DF7D1204670BD02460B467E
:101A00001068001D034418687047014609B900209A
:101A100070478868FCE7002242608260CA1C22F09E
:101A200003010160704770B50446216801F10800A8
:101A300011F13AFE0546A5B100222946204616F0CE
:101A400003FE29462046A26816F00CFEA06820B1CD
:101A50002A462046A16816F0F7FDA560606800B927
:101A60006560284670BD014609B901207047486885
:101A700018B9886808B90120F8E70020F6E72DE9D1
:101A8000F04104460D460CB9BDE8F0812046FFF751
:101A90009DFFA8420FD129462046FFF7AFFF6060A7
:101AA000606810B90020A0602FE000222046616825
:101AB00016F0D8FD29E02046FFF7A7FFA8420FD176
:101AC00029462046FFF0EAFEA060A06810B9002079
:101AD00060601AE000222046A16816F0B5FD14E00F
:101AE00029462046FFF0DAFE064629462046FFF743
:101AF00085FF07463A463146204616F0A5FD324698
:101B00003946204616F0AEFD00BF00BFBCE70146D7
:101B1000886818B18868807E800970470020FCE7DB
:101B20002DE9F04104460D4616461DB916B90120AF
:101B3000BDE8F081204612F145F9A068008A2844EA
:101B400000B2A1680882A068408A304401B2A0684F
:101B50004182012332462946204613F1D3FE00225A
:101B60000B2120460EF018FC0746012F01D0384605
:101B7000DEE7204612F03FFF0120D9E7F7B582B03B
:101B800004460E4614B9049805B0F0BD00BF6222A9
:101B90003146204613F103F90190019D00BFBDB10C
:101BA0002868A8B100BF63223146204613F1F7F838
:101BB00001900198C0B207464FB13A462B682846BB
:101BC000049998470190BDF80400ADF8100000BFDB
:101BD0000498D9E72DE9FE4F04460F4690464FF092
:101BE000000900254CE1E06800EBC5004068C0F347
:101BF000406000B143E1E16801EBC501496821F0B3
:101C00007F4013F0F5FE064626EA070008B90120DA
:101C100000E00020029026EA080008B9012000E058
:101C200000200190DDE90101814270D0E06850F8A8
:101C300035A04FF0000B6A461021504615F00AF807
:101C400010B14FF0010B98E06A461121504615F093
:101C500001F810B14FF0010B8FE06A461221504697
:101C600014F0F8FF10B14FF0010B86E06A46132123
:101C7000504614F0EFFF10B14FF0010B7DE06A46C3
:101C80001521504614F0E6FF10B14FF0010B74E03F
:101C90006A461421504614F0DDFF10B14FF0010BDD
:101CA0006BE06A460A21504614F0D4FF10B14FF0A1
:101CB000010B62E06A466B21504614F0CBFF10B175
:101CC0004FF0010B59E06A466C21504614F0C2FFF8
:101CD00010B14FF0010B50E06A460121504614F05C
:101CE000B9FF10B14FF0010B47E06A46042150469E
:101CF00014F0B0FF10B14FF0010B3EE06A46022134
:101D0000504614F0A7FF18B14FF0010B35E0B5E0D5
:101D10006A460321504614F09DFF10B14FF0010BAD
:101D20002BE06A460521504614F094FF10B14FF0A5
:101D3000010B22E06A460621504614F08BFF10B1D9
:101D40004FF0010B19E06A463221504614F082FF31
:101D500010B14FF0010B10E06A466E21504614F0AE
:101D600079FF10B14FF0010B07E06A466D21504634
:101D700014F070FF08B14FF0010BBBF1000F02D05F
:101D80000320BDE8FE8F6A466921504614F062FFC9
:101D900010B14FF0020970E06A466A21504614F013
:101DA00059FF10B14FF0020967E06A466E215046B4
:101DB00014F050FF10B14FF002095EE06A466D2149
:101DC000504614F047FF10B14FF0020955E06A4643
:101DD0003721504614F03EFF10B14FF002094CE09D
:101DE0006A463821504614F035FF10B14FF0020911
:101DF00043E06A463521504614F02CFF10B14FF0F5
:101E000002093AE06A464021504614F023FF10B11F
:101E10004FF0020931E06A464521504614F01AFF9E
:101E200010B14FF0020928E06A464121504614F0F3
:101E300011FF10B14FF002091FE06A4642215046DF
:101E400014F008FF10B14FF0020916E06A46432172
:101E5000504614F0FFFE10B14FF002090DE06A4643
:101E60004921504614F0F6FE10B14FF0020904E08B
:101E7000B9F1000F01D14FF0010900BF00BF6D1C87
:101E8000608CC0F30510A8423FF6ADAE484678E737
:101E90007047000010B518210348FFF7BCFD012072
:101EA00015F19AFD10BD00004C2006242DE9F041EB
:101EB00006460C4617461D4629463046084A126813
:101EC00090472060206830B1296888190021044AB1
:101ED0001268904700E000203860BDE8F081000003
:101EE0007C0200242DE9F04706468846174606B1D5
:101EF0000FB9BDE8F0873046FEF74CFB8146384607
:101F0000FEF748FB044604B9F3E704EB090A41462F
:101F100030460B4A126890478046554603E0281B1E
:101F2000305C70556D1E08EB0400A842F7D906EB33
:101F300008002246394611F1ADFC00BFD9E7000088
:101F4000840200242DE9F04781460E4614461F46C0
:101F5000DDF820A035461BE0600800FB0755294648
:101F60004846D047B0F1000809DD04F0010080F0D8
:101F70000100C0EB5404E8190546064608E0B8F134
:101F8000000F02DA6408354602E02846BDE8F08713
:101F9000002CE1D10020F9E72DE9FF4F85B0834601
:101FA000DDE9158ADDE91349DDE91775129E05F0B3
:101FB0000200F8B94FB105F0010030B1B9F1000FDE
:101FC00002D105F00C0000B17F1E03E03022204654
:101FD000641C3254544501D2202CF7D303E0302244
:101FE0002046641C325405F0010018B1BC4201D2F5
:101FF000202CF4D305F01000B0B305F4806050B984
:102000004CB1544501D0BC4205D1641E1CB1B8F19D
:10201000100F00D1641EB8F1100F09D105F0200097
:1020200030B9202C04D278222046641C325415E0AA
:10203000B8F1100F09D105F0200030B1202C04D2E6
:1020400058222046641C325408E0B8F1020F05D132
:10205000202C03D262222046641C3254202C03D24E
:1020600030222046641C3254202C16D2B9F1000FC5
:1020700004D02D222046641C32540EE005F00400EA
:1020800020B12B222046641C325406E005F00800E3
:1020900018B120222046641C3254CDE90275CDE9E6
:1020A0000064584606A90EC9FFF0E3FE09B0BDE87A
:1020B000F08F2DE9FF4F8FB08046DDE91FABDDE9E2
:1020C0001D96219D1C9C00270CB925F0100505F4D8
:1020D000806000B1E4B100BFB4FBF6F106FB114132
:1020E000C8B20A2802DA00F1300107E005F0200149
:1020F00009B1412100E0612101440A39CBB23946DE
:102100007F1C07AA5354B4FBF6F40CB1202FE3D381
:1021100007A8CDE904AB8DE88102039606954046F9
:1021200010A90EC9FFF738FF13B0BDE8F08F9A422F
:1021300000D28854704700002DE9FF4F8BB007464E
:1021400000250C9800B9FA4FEAE20E98007825288D
:102150000AD02A466D1C0E990878DDE90C13B847A1
:102160000E98401C0E90DBE20E98401C0E9000244E
:1021700000BF0E9800782B2819D004DC20281ED030
:1021800023282CD123E02D2809D0302827D144F052
:1021900001040E98401C0E9001200A9022E044F0A9
:1021A00002040E98401C0E9001200A901AE044F0A0
:1021B00004040E98401C0E9001200A9012E044F096
:1021C00008040E98401C0E9001200A900AE044F08A
:1021D00010040E98401C0E9001200A9002E000208E
:1021E0000A9000BF00BF0A980028C2D180460E990D
:1021F0000878FFF73EF820B10EA8FFF725F88046D3
:1022000012E00E9800782A280ED1189901C9189169
:10221000002804DA44F00204C0F1000800E080461F
:102220000E99491C0E9100BF4FF000090E980078DE
:102230002E281FD144F480640E98401C0E900E99F5
:102240000878FFF716F820B10EA8FEF7FDFF8146CB
:1022500010E00E9800782A280CD1189901C918911D
:10226000002801DD014600E0002189460E99491C45
:102270000E9100BF0E9800786C280AD004DC682804
:1022800016D06A2835D128E0742820D07A2830D199
:1022900029E044F480740E98401C0E900E9800784B
:1022A0006C2804D144F400740E98401C0E9021E078
:1022B00044F080040E98401C0E900E980078682818
:1022C00004D144F040040E98401C0E9012E044F4F7
:1022D00080740E98401C0E900CE044F400740E982C
:1022E000401C0E9006E044F480740E98401C0E9042
:1022F00000E000BF00BF0E98007869281DD00EDCFA
:10230000622821D006DC25287ED050281AD05828F3
:102310007BD115E0632879D06428F9D10CE07328CB
:1023200075D004DC6F280ED07028F1D109E0752833
:1023300004D07828ECD102E000BF00BF00BF00BF8E
:1023400000BF00BF00BF00BF0E980078782803D000
:102350000E980078582801D1102623E00E980078B6
:10236000702803D00E98007850280CD1102644F025
:10237000100444F480740E984078562812D10E98B8
:10238000401C0E900EE00E9800786F2801D10826B0
:1023900008E00E980078622801D1022602E00A26A1
:1023A00024F010040E980078582803D00E98007876
:1023B000502801D144F020040E980078692805D0F7
:1023C0000E980078642801D024F00C0404F4806096
:1023D00008B124F001040E980078692803D00E9803
:1023E000007864287CD104F40070B8B31898C01D3C
:1023F00020F007001890D0E900AB189A0832189224
:102400000020CDE9069803E073E17CE1F2E01CE1F5
:10241000CDE904600894BAEB00017BEB000001DA1F
:10242000012000E00020002102900846B1EB0A01E3
:1024300070EB0B0002DA5046594605E000200146D9
:10244000B0EB0A0061EB0B01CDE900012A463846EA
:10245000DDE90C13FFF0B0FC0546C7E0FFE704F42C
:102460008070D0B1189850F804AB18904FEADA7029
:10247000CDE9039802960594BAF1000F01DD5146AB
:1024800001E0CAF10001CDE900102A463846DDE935
:102490000C13FFF70EFE0546A8E004F0400028B13B
:1024A000189810F8041B1890C8B20DE004F08000D2
:1024B00028B1189830F8041B189008B204E0189856
:1024C00000681899091D189182464FEADA70CDE923
:1024D000039802960594BAF1000F02DD514602E01E
:1024E0000BE0CAF10001CDE900102A463846DDE9CB
:1024F0000C13FFF7DEFD054678E00E9800785628AD
:1025000018D1189850F804AB1890DAF80400006855
:10251000099009980090DAF800300D98421B0C9849
:1025200041193846FFF708FE0544002009905DE098
:10253000711E100804F40070D0B11898C01D20F06E
:102540000700CDE90698089418900020CDE90460B2
:102550000290189903C9189A08321892CDE900011F
:102560002A463846DDE90C13FFF026FC05463DE01F
:1025700004F4807098B10022CDE903980296059486
:10258000189800681899091DCDE9000218912A468B
:102590003846DDE90C13FFF78CFD054626E004F014
:1025A000400028B1189810F8041B1890C8B20DE02C
:1025B00004F0800028B1189830F8041B189088B2F5
:1025C00004E0189800681899091D189182460020A7
:1025D000CDE900A0CDE90398029605942A46384635
:1025E000DDE90C13FFF765FD054600BF0E98401CA2
:1025F0000E9093E0012604F0020050B905E02A464F
:102600006D1C2020DDE90C13B8473046761C404590
:10261000F5D3189911F8043BD8B22A466D1C1891CD
:10262000DDE90C13B84704F0020050B105E02A467A
:102630006D1C2020DDE90C13B8473046761C404560
:10264000F5D30E98401C0E9068E0189850F804AB33
:1026500018905046B9F1000F01D0494601E04FF003
:10266000FF310A46014600E0491C0B781BB1131EDE
:10267000A2F10102F8D10E1A04F4806028B14E458F
:1026800001D2304600E04846064604F0020050B948
:1026900005E02A466D1C2020DDE90C13B8473046C2
:1026A000761C4045F5D306E01AF8010B2A466D1C4E
:1026B000DDE90C13B8479AF8000040B104F48060DB
:1026C0000028F1D0B9F10000A9F10109ECD104F022
:1026D000020050B105E02A466D1C2020DDE90C13F4
:1026E000B8473046761C4045F5D30E98401C0E90F6
:1026F00014E02A466D1C2520DDE90C13B8470E981E
:10270000401C0E900AE02A466D1C0E990878DDE9FF
:102710000C13B8470E98401C0E9000BF00BF00BFBE
:102720000E98007800287FF410AD0D98854201D2F4
:10273000284601E00D98401E02460020DDE90C13FA
:10274000B84728460FB0BDE8F08F2DE9F0410446A8
:102750000E46002774B13146204600F00EF80546BB
:10276000B5F5803F05D20C2D01D9284600E00C209C
:10277000074600BF3846BDE8F081024600BF481E4C
:10278000084018B100BF00BF00BFFEE700BF481EF1
:1027900010444B1E984370472DE9F84F81460E4672
:1027A000924699F8090000F00700022801D130464E
:1027B00000E050468346564501DD304600E0504675
:1027C0000746032000EB470020F0030000F110054E
:1027D0003948006839490968A0EB0108002405EB75
:1027E000080037490968884206D23348046860689F
:1027F00020F0004060603AE031480068854221D80E
:1028000013E04FF0FF300090002269462D4808F099
:1028100015F8002269462C4808F010F82648006890
:1028200026490968A0EB010800BF08EB0500244910
:1028300009688842E5D820480468606820F00040B4
:10284000606014E0284610F12FFF044600BF1CB959
:1028500000BF00BF00BFFEE700BF14B90020BDE805
:10286000F88F606820F0004000F100406060324660
:102870005946484601F0DDFC2060606800F04040A9
:10288000401C6060606820F080406060A781A4F810
:102890000EB06068C00F20B1204600F11001A160A9
:1028A00008E0054800681030A0600348006828442C
:1028B000014908602046D2E7D40000243C020024ED
:1028C000D0000024038110089DA80008F0B585B051
:1028D00006460D4634460020049003900290654859
:1028E0000088A84202D0FF20634908706148058033
:1028F00094F83C0000F0030020B1012838D00228F1
:1029000066D000BF94F83C0000F003005A490978F3
:1029100088421BD02620005D00EB001000EB400039
:10292000142190FBF1F0554908702720005D00EB61
:10293000001000EB4000142190FBF1F050490870AA
:1029400094F83C0000F003004B49087002A803A96A
:10295000CDE9001005EB45014FF6FF7202EA410098
:1029600004AB47490A784549097805F026F95FE044
:1029700094F83C0000F003003F49097888421AD0DF
:10298000A08C00EB400040024FF4B471B0FBF1F0BA
:102990003C4908802720005D00EB001000EB400060
:1029A000142190FBF1F03649087094F83C0000F0D7
:1029B00003003149087002A803A9CDE90010E9B26B
:1029C00004AB2F4802782F48008805F0F6F82FE076
:1029D00094F83C0000F003002749097888421AD097
:1029E000A08C00EB400040024FF4B471B0FBF1F05A
:1029F000244908802620005D00EB001000EB400019
:102A0000142190FBF1F01D49087094F83C0000F08F
:102A100003001949087002A803A9EAB204ABCDE982
:102A20000010164801781748008805F0C6F800BF66
:102A300000BF9DF810009DF80C109DF80820D708E5
:102A4000BDF8003067F304038F080093BDF8003031
:102A500067F34A13C7080093BDF8003067F3CF232C
:102A60000093BDF800703B460193BDF80410084682
:102A700005B0F0BD840100248201002480010024FF
:102A8000810100247E01002410B5044694F8420020
:102A9000C0F3400070B9B4F8400000280ADDB4F873
:102AA00040004FF6FF71884204D0B4F84000401E49
:102AB000A4F84000B4F84000D0B9A06B20B194F85D
:102AC0004200C0F3400098B121461A48FEF7D7FFF4
:102AD000FFF084FAE06810B12046E1688847206979
:102AE00010B120462169884720460FF083FB1FE084
:102AF000E06B40422063A06BD0B194F84210C1F368
:102B0000400111B9616B4942216394F842104908B0
:102B1000C94394F8422061F3410284F84220206ABC
:102B2000A16A2162A062E06AA16BE162A06300BFBA
:102B300010BD00007C2006242DE9F041804642486B
:102B4000006814F12DFF06464048007880F001002F
:102B50003E4908703E48FEF739FF04466BE000200E
:102B60003C49087094F84200C0F380003749097866
:102B7000884253D0354801783034A07C61F382001C
:102B8000A07420688719A07C303CC0F3C00010BB43
:102B9000206B00281FDC002F1DDB94F8420000F0A2
:102BA000010060B9606950B12046616988470546F7
:102BB000206A28442062A06A2844A06200BFA0685E
:102BC00010B12046A168884794F8420020F0080020
:102BD000083084F84200206B30442063206B0028CA
:102BE0001BDBD4E90B10884201DDE06A206320463C
:102BF000E16988470546606AA84206D06562606858
:102C000018B12946D4E900029047D4E90B10884254
:102C100002DB2046FFF738FF00BF00BF0D480078F9
:102C200020B10B48FEF7D2FE044604E021460848D6
:102C3000FEF7E4FE0446002C91D114F0CBFE0249CD
:102C40000860BDE8F081000014020024190200248D
:102C50007C2006241802002470B505460C46A1B25B
:102C600028460AF0FFFD70BD2DE9FF4F8FB01F46CB
:102C7000DDF888801C980E901D980D9000200B9018
:102C80002398042806D0052809D006280CD014283B
:102C90001AD114E000200C904FF0020917E0012037
:102CA0000C904FF0030912E001200C904FF0020944
:102CB000FEF046FF05462868008F0B9007E00120D4
:102CC0000C904FF0020902E013B0BDE8F08F00BF96
:102CD000002489E11E9860430E9901EB20201C908E
:102CE0001F9860430D9901EB20201D901C98051240
:102CF0001D980612002D07DB1098854204DA002E7D
:102D000002DB1198864203DB002008F8040069E129
:102D10001C98C0B20A901D9800F0FF0A0A988028FB
:102D200007DA4FF0FF3B0A98C0F17F0040000A909D
:102D300005E04FF0010B0A98803840000A90BAF184
:102D4000800F07DA4FF0FF300990CAF17F004FEA99
:102D5000400A05E001200990AAF180004FEA400AEC
:102D60000F98089006FB07F000FB09F005FB09012E
:102D700008980844089005EB0B0000287EDB05EB63
:102D80000B011098401E814278DC099830440028DD
:102D9000F4DB099831181198401E8142F4DC089840
:102DA000079008980BFB09000690099800FB07F1B3
:102DB000089801FB090005900C9800287FD0239B00
:102DC000052B06D1079B9878059B9978069B9A78E6
:102DD0003BE0239B142B18D1DDF844C007FB0CFC0F
:102DE000DDF83CE00EEB4C0306FB073C1CF805004D
:102DF00006FB073CAC441CF80B20DDF824C0B444AF
:102E00000CFB073C1CF805101FE0239B062B19D177
:102E1000079B1B88BDF82CC063450BD0059B1B8806
:102E2000BDF82CC0634505D0069B1B88BDF82CC09F
:102E3000634503D1002308F80430D3E0FF20FF21CD
:102E4000FF2202E0FF20FF21FF22814207D001FB89
:102E50000AF3CAF5807C00FB0C33C3F307218242DE
:102E600009D00A9B5343DDF828C0CCF5807C00FBD9
:102E70000C33C3F307228B185B1000E059E008F80D
:102E8000043018F8043003B9ACE0079B93F800C095
:102E90005B780CEB03239BB20493059B93F800C073
:102EA0005B780CEB03239BB20393069B93F800C063
:102EB0005B780CEB03239BB202930CE0FFE70798CF
:102EC0000088049006980088029005980088039076
:102ED000FF2008F80400BDF81000BDF80C1088426F
:102EE0000CD1BDF81000BDF80810884206D1219819
:102EF00000EB4400BDF81010018019E00AF0FF0259
:102F0000DDE903010BF0EAFC03900A98C2B20499D0
:102F100002980BF0E3FC02907F22DDE902010BF046
:102F2000DDFC0190219800EB4400BDF80410018005
:102F300057E008990A78497802EB01218AB2219971
:102F400021F814202399052904D0062905D0142935
:102F500019D10EE00899887817E0219931F81410FA
:102F6000BDF82C20914201D1002100E0FF2108464C
:102F70000BE0119A07FB02F10F9A02EB410106FBED
:102F80000711485D01E0FF2000BF00BF15B9BBF18C
:102F9000000F06DB1099491EA9420BD1BBF1000FAF
:102FA00008DD0A99C1F1FF014143C1F3072108F887
:102FB000041015E016B90999002906DB1199491E7C
:102FC000B1420AD10999002907DDCAF1FF01414345
:102FD000C1F3072108F8041002E0002108F80410EA
:102FE00000BF00BF601C04B220988442FFF672AE9E
:102FF00000BF69E610B506F03BFB10BD70B5044696
:10300000002606F05FFB2112A02202EB4101C8B2AC
:1030100006F14CFD06F170FD2546E11704EB116148
:103020000912A4EB0121C8B206F140FD06F164FDCE
:1030300006F048FBA12006F139FD06F15DFD0020F8
:1030400006F10AFD064606F05BFB304670BD70B522
:1030500005460C46164606E021782846FFF045F85E
:10306000681C85B2641C301EA6F101018EB2F3D13A
:1030700070BD70B505460C462846FFF084F904F192
:103080001001884201D3012070BD0020FCE710B57B
:1030900004462046FFF077F908B9012010BD002052
:1030A000FCE70146087900F00200704770B504465D
:1030B0002046FFF034F905462846FFF05FF9204628
:1030C00000F03BF870BD2DE9F04106460C46154670
:1030D000002794B100BF1DB900BF00BF00BFFEE7CD
:1030E00000BF2A462146304600F030F82046FFF760
:1030F000DDFF204600F026F807463846BDE8F0819F
:103100007CB505460C462046FFF03DF906466A466A
:1031100001A915F1B9F921462846DDE9003216F179
:103120008FF87CBD416841F0020141607047426800
:1031300002F003030B4343607047416821F0010133
:1031400041607047014601F1080070472DE9F041E8
:1031500006460C46154600BF2046FFF04CF818B94D
:1031600000BF00BF00BFFEE700BF29462046FFF7B3
:1031700080FF78B129462046FFF00AF9074620462D
:10318000FFF03EF83846FFF7CDFF39463046FFF0F6
:1031900020F800BFBDE8F0812DE9F04106460C465D
:1031A000154600BF2046FFF026F818B100BF00BF4B
:1031B00000BFFEE700BF29462046FFF75AFF88B14F
:1031C00029462046FFF0E4F807463846FFF0D6F8D7
:1031D00039463046FFF054F8074639463046FEF08F
:1031E000F8FF00BFBDE8F08170B505460C46074802
:1031F000074908600846446000218160C560FDF011
:103200005DFC0348FDF0B6FC70BD000000100040FE
:10321000A803002470B5044620460EF1D9F90546EE
:10322000072D28D114A0FDF745F91848007880F043
:103230000100164908700846007870B1002202218A
:10324000134818F1BFFD134800680EF086FF12A165
:10325000134800680EF086FE0DE0012202210C48A2
:1032600018F1B0FD0B48006810F1FAF80DA10C48F8
:1032700000680EF077FE70BD427574746F6E206347
:103280006C69636B6564210D0A000000180000245E
:10329000000402580C0000244C4544204F4E00000E
:1032A000080000244C4544204F4646002DE9F843D1
:1032B000064634460EF0ECF8804640460FF1D3F84F
:1032C00078BB30460CF057FF38B330460DF171FF34
:1032D000208FE18E884212D0E08E2087E08E009011
:1032E0006A461C2130460DF057F80746012F02D0E0
:1032F0003846BDE8F883304611F07DFB00BF4046FC
:103300000FF1C1F80546042D06D1304610F088F9BA
:10331000074600210DF0B3FC09E030460DF1C8FF6F
:1033200005E0FFE7208FE086304611F064FB0120C6
:10333000DFE72DE9F041044620460EF151F905463C
:10334000284610F0BEF9064628460AF017FD074643
:1033500000223946304614F03CF8BDE8F0810146C1
:10336000C1F3C01070470146C1F3402070470146C9
:10337000C1F3801070470146C1F3C02070470000C0
:103380002DE9F04F89B004460D460021204611F189
:1033900008F930B91C2128460FF0C6F809B0BDE87D
:1033A000F08F2946204600F01DF929462046FFF0FF
:1033B0004DF80021204611F1EAFB0890002120463B
:1033C00011F0A6F807900021204611F1D8FA012843
:1033D00000D100E0002081460021204611F1E5FDEA
:1033E00007460021204610F021FF064642F2D17028
:1033F000874205D1608CC0F3C02008B9012000E0ED
:1034000000208246204611F10DF9069000BF4FF0D2
:103410000008244802884146204611F1C0FC039070
:103420000398C0B200BF8346AA6829692868CDE91D
:103430000209CDE900125A465146089B069805F14B
:1034400077FF288342F2D170864205D1608CC0F3A9
:10345000802008B9012000E000200590204610F0EF
:10346000AAF8049000BF4FF000080F4802884146B8
:10347000204611F194FC03900398C0B200BF83462C
:103480000023EA6869686869CDE90213CDE90002A2
:103490005A46079BDDE9040105F14AFF688300BF36
:1034A0007CE70000F4000024F80000242DE9FC5F14
:1034B000054600221146284612F18AFC00212846C2
:1034C00011F18DFA81460021284611F12CFC484467
:1034D00007B20021284610F02BFF48440FFA80FA6B
:1034E000284611F119FA384450440FFA80FB3B4E3C
:1034F000284610F020F801904FF000085CE0A86822
:10350000006850F828403649204611F1B7FE00B156
:1035100050E0204612F1B0F9002839D100212046B0
:1035200011F10AFA0090009830B1012807D0022862
:1035300004D0032815D100E000BF00BF00BFB4F9DC
:103540001A10B5F91600081A401CB04201DA3046CC
:1035500005E0B4F91A10B5F91600081A401C06B2B5
:1035600014E00021204611F013F970B904F11400A1
:103570000AF004FA3844B04201DA304604E004F1BB
:1035800014000AF0FBF9384406B200BF00BF10E097
:10359000B4F91A10B5F91600081A401CB04201DA45
:1035A000304605E0B4F91A10B5F91600081A401CA7
:1035B00006B200BF08F10108019880459FD3074873
:1035C000864209D006EB0A0006B25E4502DD3046AF
:1035D000BDE8FC9F5846FBE75846F9E701E0FFFFCE
:1035E000010004002DE9F34F87B00C46079805F160
:1035F00051FD80464046FFF0BCF9606161694800BA
:1036000010F19CF860606169480010F197F8E06083
:10361000002547E05948029038F9150041F69A71A3
:1036200088423ED14FF0000A29E05146079810F138
:10363000B8FF01905249019811F120FE00B11CE041
:10364000019805F1D9FD8346BBF1010F00D014E0CC
:10365000019805F06BFE00900098A84200D00CE0A5
:10366000019811F135F80299884201DA029802E0D6
:10367000019811F12DF8029000BF0AF1010A079894
:103680000FF059FF5045D0D80298002804DB02986B
:10369000E16821F8150003E00020E16821F8150039
:1036A00000BF6D1C6069A842B4D80026B146002551
:1036B0001BE038F9150041F69B71884202DB411A84
:1036C0000E4411E041F69A71884206D1E16831F862
:1036D000151049440FFA81F906E0E16821F8150058
:1036E00009EB00010FFA81F96D1C6069A842E0D86E
:1036F0000021079810F00CFF069007980FF05BFF71
:1037000001466269521E069800FB121000B2059035
:103710000598A0EB090007B2002F00DA00274FF050
:10372000FF30049000200390002513E038F91500C5
:1037300041F69B7188420CDB421A11B207FB01F281
:10374000B2FBF6F212B2E36823F815200495039158
:1037500000BF6D1C6069A842E8D8049800280ADB05
:103760000398301A7843B0FBF6F0381A01B2E268D9
:10377000049822F8101009B0BDE8F08F01E0FFFFB7
:10378000010006007CB504460D46164628882189AE
:10379000084400B2ADF8000068886189084400B2AE
:1037A000ADF80200A8882189084400B2ADF80400F1
:1037B000E8886189084400B2ADF8060032466946DF
:1037C0002046636998477CBDF8B505460E462C46F1
:1037D000A06B58B1284613F191FF074611490968BB
:1037E0008847A16B884201D30020F8BD606B10B1FF
:1037F000606B007808B90120F7E7002000900AE02C
:103800006946094A606B126890470746B74201D182
:103810000120EAE700BF606B0099405C0028EFD10F
:1038200000BFE2E78C0200247C0200242DE9FF4F58
:103830008FB00F46209DF87800F0010008B1F948DC
:1038400000E0F9480E90F87800F0010008B1F74860
:1038500000E0F7480D90F87800F0010008B9F3484F
:1038600000E0F3480C9001200B90BEE000210B918A
:1038700000206988B5F804C0A1EB0C010AB200264B
:103880001AE006EB860CE96801EB8C01097C01F07B
:10389000010141B906EB860CE96801EB8C018989CD
:1038A000014408B207E006EB860CE96801EB8C01E5
:1038B0000989511A0AB2761C2969B142E1D8002659
:1038C0008EE006EB860CE96801EB8C01097C01F0C7
:1038D000010100297DD100BF18B900BF00BF00BFA2
:1038E000FEE700BF92FBF0F80FFA88F306EB8609BB
:1038F000D5F80C8008EB8908B8F80C8008FB03F8B1
:103900000FFA88F106EB8609D5F80C8008EB8908D8
:10391000B8F9049006EB860AD5F80C8008EB8A0803
:10392000B8F90680884501DD884607E006EB860A7F
:10393000D5F80C8008EB8A08B8F90680C14508DD87
:1039400006EB8609D5F80C8008EB8908B8F90480E5
:1039500013E006EB8609D5F80C8008EB8908B8F966
:103960000680884501DD884607E006EB8609D5F824
:103970000C8008EB8908B8F90680C4468C450BD04A
:103980004FF0010806EB860AD5F80C9009EB8A097E
:10399000C9F81080CDF82C8006EB8609D5F80C808C
:1039A00008EB8908A8F808C006EB8609D5F80C8052
:1039B00008EB8908B8F80C80A0EB08080FFA88F02B
:1039C00006EB8609D5F80C8008EB8908B8F8088062
:1039D00000E004E0A2EB08080FFA88F200BF761CB2
:1039E0002969B1423FF66DAF00BF0B9800287FF404
:1039F0003DAF00210F9810F091FB012800D100E0AD
:103A000000200A9000200990089008A809A9CDE993
:103A1000001029890BB2B5F9022038781E9914F1EB
:103A2000D7FDF87800F0010048B10A9838B10F9836
:103A300010F1F8FDBDF82410084400B20990119966
:103A40000F9810F1AEFD04468FE17A49204611F13E
:103A500015FC40B1F878C0F3800111AA0F9805F168
:103A6000F8F9044681E10021204610F0C3FB0790DD
:103A70000798002860D000200390002610E006EB95
:103A80008601E86850F82100A04208D106EB8600C4
:103A9000E96801EB8000B0F90800039003E0761CB0
:103AA0002869B042EBD800BFF87800F0010050B1AF
:103AB000608C20F4006000F500606084608C20F46D
:103AC0008060608409E0608C20F4806000F5806094
:103AD0006084608C20F40060608404F114000D990F
:103AE00088470399884226D0204610F084FF00BF03
:103AF000A08AADF80400E08AADF80600208BADF88E
:103B00000800608BADF80A0000BF04F114000E9AA3
:103B10000399904701AA292120460CF03DFC20463C
:103B20000FF0CFFD2246222100900CF035FC2046FC
:103B300010F061FF00BF07E0608C20F4006060843B
:103B4000608C20F4806060840020069078780128E2
:103B500012D0022819D104F114000C998847B5F944
:103B60000010491C21F00101081A039000EBD070ED
:103B7000401000B2069009E004F114000C99884747
:103B80002988081A00B2069000E000BF00BFF8784C
:103B900000F0010050B10A9840B104F114000D99F1
:103BA0008847BDF82410081A00B20990002003903D
:103BB0006B222046039911F1F2F8029002980FFA55
:103BC00080F800BF002003906C222046039911F179
:103BD000E6F8029002980FFA80F900BF204610F034
:103BE000E3FD0590204610F173FD049008F4C040F9
:103BF000B0F5005F01D1012000E0002030B128F4D1
:103C0000C040B0F5FA6F01DC012000E00020E0B117
:103C100028F4C040B0F57A7F0EDD28F4C040C0F52E
:103C20007A700BE085DA00083BD21008EFD110085B
:103C3000A7D900080100060028F4C04005994843B0
:103C4000642190FBF1F00FFA80F809F4C040B0F560
:103C5000005F01D1012000E0002030B129F4C04014
:103C6000B0F5FA6F01DC012000E0002090B129F4EA
:103C7000C040B0F57A7F04DD29F4C040C0F57A7009
:103C800001E029F4C04004994843642190FBF1F01D
:103C90000FFA80F9A18A1C98401A40440FFA80FA62
:103CA000E18A1D98401A48440FFA80FBF87800F02A
:103CB000010010B1BDF9240000E0069850440FFA4D
:103CC00080FAF87800F0010008B1069801E0BDF92B
:103CD000240058440FFA80FBBAF1000F02D1BBF167
:103CE000000F1BD0204610F086FEA08A504400B280
:103CF000A082208B504401B22183E08A584401B253
:103D0000E182608B584401B26183204610F073FE5B
:103D100000235A465146204611F1F4FDF87800F090
:103D2000010008B10A9870B904F114000D99884790
:103D30001F990844BDF820100844BDF82410084419
:103D400000B2099008E0BDF820101F980844BDF8A3
:103D50002410081A00B20990F878C0F3800111AA63
:103D60000F9805F176F8044600BF24B1DDE9111083
:103D700081427FF46AAE13B0BDE8F08F2DE9F04FB9
:103D80008DB005468946B9F1000F02D10DB0BDE8EE
:103D9000F08FA5F81890286810B128680EF02AFA5C
:103DA00009EB4901062202EB41000FF17DFC28607E
:103DB00000BF286818B900BF00BF00BFFEE700BF02
:103DC000286868600221286801FB0900801CE860FF
:103DD0000421286801FB0900001DA860B9F1010F4A
:103DE0000CD1B420696808700020E96808800120BF
:103DF000E96848800020A9680880C7E709F1010147
:103E0000C8000FF19BFC074609F1010007EB800891
:103E10004FF0000A4FEA890002B20BA90CA800F08B
:103E200067F90024BDF9300080100790002003904E
:103E3000CCE0002616E00BA90CA8FEF02BFD0CA888
:103E400000F04BF900B90FE0BDF93000801007A970
:103E500041F82600BDF8300000F0030003A941F846
:103E60002600761C042EE6DB00BF042E00D0B3E053
:103E70000A990798884219D1079800B227F81400C8
:103E80000FFA8AF028F81400DDE9030108440599C7
:103E9000084406990844696808556868005D000789
:103EA000000E69680855601C04B28DE0DDE9070169
:103EB00088422CD0079800B227F814000FFA8AF035
:103EC00028F814000398696808556868005D0007C1
:103ED000000E69680855601C04B20798401E00B2C5
:103EE00027F814000FFA8AF028F814000498001D2F
:103EF0000599084406990844696808556868005D92
:103F00000007000E69680855601C04B25CE009995E
:103F1000079888422CD0079800B227F814000FFAAF
:103F20008AF028F81400DDE903010844696808559F
:103F30006868005D0007000E69680855601C04B2DF
:103F40000798401E00B227F814000FFA8AF028F8EC
:103F5000140005980830069908446968085568688F
:103F6000005D0007000E69680855601C04B22BE074
:103F7000079800B227F814000FFA8AF028F8140006
:103F8000DDE9030108440599084469680855686833
:103F9000005D0007000E69680855601C04B20798B0
:103FA000401E00B227F814000FFA8AF028F8140017
:103FB00006980C30696808556868005D0007000EB7
:103FC00069680855601C04B20AF1010A0CA800F0E7
:103FD00084F800287FF42DAF00BF40F2D32109FB05
:103FE00001F00290029880120190601E37F91010C3
:103FF0000198814205D1601E38F910100198814264
:1040000026D0DDE90121A1EB8220B0F5007F04DCA0
:1040100000FB00F14800001407E0C0F5806000FBE1
:1040200000F148000014C0F10F00019909B227F80F
:104030001410019909B228F814106A6810556968BB
:10404000095D0907090E6A681155611C0CB200BFB1
:10405000A61E0EE038F8160027F8140037F81600F0
:1040600028F814006868805D69680855761E601C31
:1040700004B2002EEEDA4FF0000B00260020E968B3
:10408000088023E0E96821F81B6037F81600A9686A
:1040900021F81B0010E0A86830F81B0037F9161053
:1040A000884203DAA86830F81B0001E037F91600EF
:1040B000A96821F81B00761C38F91600584501D173
:1040C000A642E8DB0BF101000FFA80FBA642D9DB28
:1040D00038460EF077F800BF58E60146B1F9020005
:1040E000B1F90020904201DC012070470020FCE77C
:1040F000028000234380C2F101031BB20B80704792
:1041000017B581B01446022C04DCBDF8081008462F
:1041100004B010BDBDF80400C00ABDF80810C90AFB
:1041200010FB01F04109BDF8040061F3CF200190BC
:10413000BDF8040000F01F00BDF8081001F01F01D9
:1041400010FB01F04109BDF8040061F30400019087
:10415000BDF80400C0F34510BDF80810C1F34511C7
:1041600010FB01F08109BDF8040061F34A100190D1
:10417000FF2C03D1BDF804100846C9E72246DDE94B
:1041800001010AF159FA0090BDF800100846BFE796
:1041900037B582B01546022D04DCBDF80C10084678
:1041A00005B030BDBDF80C00C00ABDF80810A0EB8A
:1041B000D124002C01DD204600E00020BDF80810CD
:1041C00060F3CF210291BDF80C00C0F34510BDF89B
:1041D0000810C1F34511441A002C01DD204600E00F
:1041E0000020BDF8081060F34A110291BDF80C00E0
:1041F00000F01F00BDF8081001F01F01441A002C48
:1042000001DD204600E00020BDF8081060F3040145
:104210000291FF2D03D1BDF808100846C0E72A46D9
:10422000DDE902010AF108FA0190BDF80410084620
:10423000B6E770B503460C46197A5E7A06F00706B3
:1042400041EA06215E7AC6F3C20641EA064001252C
:10425000002109E033F82160704003EB8106B67855
:10426000761C75434E1CF1B21E7A8E42F2DC684019
:10427000604080EA520070BD2DE9FC5F82465046E6
:104280000DF1AEF9019050460DF1A2F906460198E4
:104290000FF017FA0746BB462B2E09D1384613F10B
:1042A00072F8044600222146384613F092F85FE087
:1042B0000A2E5DD10DF0ECF88046B8F1000F05D064
:1042C00098F80400012801D1BDE8FC9F69460198D7
:1042D00010F172FA9BF82C0000F00C00F8B1019874
:1042E00010F1A0F905460021384610F154FB0128D1
:1042F0000AD1284605EBD071BDF90020C2EB61015F
:1043000091FBF5F10CB209E0284605EBD071BDF93F
:10431000002002EB610191FBF5F10CB20EE0019877
:104320000FF049F90546284605EBD071BDF902208A
:1043300002EB610191FBF5F10CB200BF002C00DA39
:1043400000244FF00009384613F11DF8A04201D0B7
:104350004FF0010901222146384613F03AF8B9F12D
:10436000000F04D000221C2138460CF015F800BFC5
:1043700000BFA9E710B58060C06000230361002181
:1043800010E0002400F1140343F82140002206E06D
:1043900000F13C0303EBC11343F82200521C202A16
:1043A000F6DB491C0A29ECDB10BD2DE9FF4F87B075
:1043B0000546DDE9178ADDF85890149F089CB9F18D
:1043C000040F02D0B9F1060F58D1284609F0F9FAC6
:1043D0008346594650460EF0DEF8B5F902007843A0
:1043E0004100B5F9000001EB40000444284609F003
:1043F00007FB0590059840000490780000B20390F8
:10440000CDF80880B5F902600DE02146049A0298C3
:104410000DF014FF039804440599029800EB410045
:104420000290701C06B2B5F90600B042EDDAB9F19F
:10443000060F22D14FF47F414FF0000C01F47C4E67
:104440004CEA5E1CC1F3C40E4CEA0E0CCDF800C061
:10445000BDF800E0F446CDF804C04246BDF8043093
:10446000002007E032F81010994202D100210AF82A
:104470000010401C5845F5D300BF88E0B9F1050F86
:1044800041D1B5F90200784300EB4000B5F90010C6
:1044900001EB410108440444284609F0B1FA381AF6
:1044A00000B20590059800EB400000B20490284649
:1044B00008F142FE0390284609F0A2FA834600263E
:1044C0001DE00020069010E0A17806980AF8001080
:1044D0002078617800EB012081B2069828F810104E
:1044E000E41C0698401C00B2069006985845EBDB89
:1044F00008EB4B08DA4404980444701C06B2039895
:104500008642DEDB43E0B9F1140F40D1B5F9020079
:1045100078434100B5F9000001EB40000444780005
:1045200000B20590284608F107FE0490284609F0DD
:1045300067FA834600260BE04FEA4B0221464046CD
:104540000DF07CFE08EB4B0805980444701C06B285
:1045500004988642F0DB089C099841000A9801FB08
:104560000044B5F90000B5F9021007FB010004444E
:10457000002608E05A46214650460DF05FFEDA4418
:104580003C44701C06B204988642F3DB00BF0BB0BB
:10459000BDE8F08F1CB500BF1148006840F08000F6
:1045A0000F49086000BF00BF0846006840F48070F3
:1045B000086000BF012000900346024640210190A0
:1045C000084817F10BFC0120009003460246082121
:1045D0000190054817F102FC00F050F81CBD0000E6
:1045E000E0440258001C02580020025870B50446EE
:1045F000002516E0E20908210E4817F1E3FBFEF062
:1046000007FB012240210C4817F1DCFBFEF000FB08
:1046100000224021084817F1D5FB6006040E681CF3
:10462000C5B2082DE6DB01220821024817F1CAFBBA
:1046300070BD000000200258001C025810B5012275
:1046400008210C4817F1BEFB012240210A4817F14E
:10465000B9FBFEF0DDFA00220821064817F1B2FB93
:10466000FEF0D6FA00224021034817F1ABFBFEF022
:10467000CFFA10BD00200258001C025810B50022CD
:1046800008210A4817F19EFBFEF0C2FA01224021E0
:10469000074817F197FBFEF0BBFA012208210348F7
:1046A00017F190FBFEF0B4FA10BD00000020025894
:1046B000001C025870B5002400250122082113486F
:1046C00017F180FBFEF0A4FA01224021104817F1F7
:1046D00079FBFEF09DFA09E0601CC4B2FA2C03DD00
:1046E000FFF7CCFF012507E0FEF092FA082107480A
:1046F00017F160FB0028EFD100BF002240210448E1
:1047000017F160FBFEF084FA284670BD00200258C5
:10471000001C025837B582B005461446214603985E
:1047200009F1BDFE0190BDF80410084605B030BD8A
:104730004FF0E021096941F004014FF0E0221161DE
:10474000054908601146096941F0010111616FF0E6
:1047500070415161704700002400002410B50446E8
:104760004FF47A7104FB01F000F002F810BD000074
:1047700070B5034600224FF0E02675690D4E36688D
:1047800003FB06F44FF0E026B16910E04FF0E0269D
:10479000B06988420BD0884202D20E1A324402E03D
:1047A0002E1A0E4432440146A24200D300E0EDE747
:1047B00000BF70BD24000024F8B506460C4615461F
:1047C0000095E788BBB2A788BAB26788B9B22788D4
:1047D000B8B206F085F930460AF1D3FAF8BD10B543
:1047E00007F01CFC012006F0B9F910BDF8B505462C
:1047F0002C460CF04DFE0646206B13F1D1F83168C3
:10480000898B88422CD2606A009094F83C0000F0BA
:10481000030020B1012806D002280CD107E00020B7
:10482000ADF8000007E064208DF8020003E064208A
:104830008DF8030000BF00BF30460DF1BBFE2846D7
:1048400000990AF142FA50B100221C2128460BF0CF
:10485000A3FD0746012F01D03846F8BD00BF00BFB9
:1048600013F0B8F820630120F7E700002DE9F04FBE
:104870009BB007468B4616461A9716A80AF1D6FA39
:104880004FF4A02138460FF016FC9DF8651060F338
:1048900082018DF86510304609F0C0F8054600EB3E
:1048A000D5704FEA60083088404400B2ADF854003B
:1048B0007088404400B2ADF85600002138460FF031
:1048C000E5FC1490594602A80FF162FE16A80A9062
:1048D0004FF400300F9037480390002004901A984E
:1048E0003030FDF792F804465FE02079032800D0CD
:1048F00055E0208BADF85800208A00B2ADF85A0080
:104900006079FD2801DD149803E06079149948432B
:1049100000128DF864002568B5F92000E98B084481
:104920000090B5F92030D5E90512A0680EF198FE87
:104930008146B5F92000E98B08440090B5F9203094
:10494000D5E90512E0680EF18BFE82461FFA89F068
:10495000ADF85C001FFA8AF0ADF85E00608B404451
:1049600000B2ADF84400139415A80B9002AA1A21C6
:1049700038460BF011FD1FFA8AF01FFA89F1CDE9D4
:104980000010BDF8440083B215AA16A958460AF0D3
:10499000F5F902AA1B2138460BF0FEFC00BF2146A8
:1049A0001A983030FCF07AFF0446002C9DD11BB0E1
:1049B000BDE8F08F48CC110870B504460D460022C2
:1049C0002946204603F174F801222946204603F1C6
:1049D0006FF802222946204602F0C4FE042229462E
:1049E000204602F0BFFE70BD2DE9F74F9EB00C4689
:1049F000E078022802DC21B0BDE8F08F1CA82099E5
:104A000008F088FFB4F9200001282EDD94F8220078
:104A1000FD282ADB208840B3BDF8700014F8231F5E
:104A20004908C1F38001084400B2ADF87000BDF838
:104A3000720021784908C1F34001084400B2ADF882
:104A40007200BDF8740021784908C1F3C001401A12
:104A500000B2ADF87400BDF8760014F82319C1F364
:104A60004001401A00B2ADF876001E981CA9826879
:104A70001AA8FCF721FC00B9BDE7E07B00F00706AF
:104A800016B9A088199001E0E0881990BDF864106B
:104A90006089814200D100261CA80AF021FA1890F2
:104AA0001C2111A8FBF795FDA0788DF85D00BDF8DD
:104AB0006400ADF84C00189860B9208850B94EB920
:104AC0001CA81190E0788DF85C0011A91E980CF1DB
:104AD000B0F890E7E078FD2801DBFF2000E0E07807
:104AE00010901CA808F16EFB0F901CA808F04DFF59
:104AF0000E90DDE90E01814201DA0F9800E00E9878
:104B00000D90B4F900100D98B1EB600F02DAB4F912
:104B1000000001E00D98401007461AA808F152FB6A
:104B200081464FF0FF300C9000200B90002F01DCED
:104B3000189870B148460EF101FE0B9000233AB26E
:104B40001CA905A80BF17AFD002105A80AF084F93B
:104B50000C90BDF86800ADF80C00BDF86C00ADF825
:104B600010000B98149003A811901690FF208DF858
:104B70005C00A01DDDE90E210BF000FF8046B8F1BE
:104B8000000F0CD0022E0AD1BDF96810D8F8080029
:104B900000EB4100BDF97010A0EB41001290189895
:104BA000A0B3BDF96A502CE028B2ADF80E0028B2CF
:104BB000ADF812004A4610990B980DF07BFCBDF938
:104BC00068100FFA89F32AB20B980BF1CDFA8DF821
:104BD00054009DF85400012802D102208DF85400A1
:104BE000012E09D1BDF97210691AD8F8080000EB3E
:104BF00041000088ADF84C0011A91E980CF119F87D
:104C00006D1CBDF96E00A842CEDACCE0FFE70025AE
:104C10005CE0BDF8720028440FFA80FABDF8760017
:104C2000401B0FFA80FBBDF96A00504504DDBDF959
:104C30006E00584500DA48E04A4610990B980DF08E
:104C400039FCBDF90C100FFA89F352460B980BF1A1
:104C50008BFA8DF854009DF85400012802D10220EF
:104C60008DF85400BDF96A00504514DCADF80EA073
:104C7000ADF812A0012E0AD1BDF97210AAEB010104
:104C8000D8F8080000EB41000088ADF84C0011A9ED
:104C90001E980BF1CEFFBDF96E00584514DBADF840
:104CA0000EB0ADF812B0012E0AD1BDF97210ABEB07
:104CB0000101D8F8080000EB41000088ADF84C0075
:104CC00011A91E980BF1B5FF00BF6D1CBD42A0DB02
:104CD000BDF87000ADF80400BDF87400ADF8080030
:104CE000BDF87200384400B2ADF80600BDF8760099
:104CF000C01B00B2ADF80A0001A80AF0F1F800905C
:104D00000098B0B9AEB9BDF87200384400B2ADF841
:104D10000E00BDF87600C01B00B2ADF8120010986E
:104D20008DF85C000020149011A91E980BF181FFF2
:104D300038E010988DF85C0001208DF85400BDF922
:104D40007600A0EB070ABDF97200C51927E00098AC
:104D500070B14A4610990B980DF0ACFBBDF9681084
:104D60000FFA89F32AB20B980BF1FEF98DF8540073
:104D700028B2ADF80E0028B2ADF81200012E09D10C
:104D8000BDF97210691AD8F8080000EB41000088DC
:104D9000ADF84C0011A91E980BF14BFF6D1C554549
:104DA000D5DD00BF00BF0B9810B10B980DF00AFACB
:104DB0000C98401C28B10C980BF10EFD05A80AF0C8
:104DC0006BF8B8F1000F02D040460BF0CDFD00BFEC
:104DD00011E62DE9F04F87B083460C46164694F84D
:104DE0002200022802DC07B0BDE8F08F208C00B959
:104DF000F9E794F82300C0F3440000B9F3E794F80E
:104E0000230000F0010000B1EDE7304608F1DAF9C7
:104E10008146304608F0B9FD0746B4F90050B9455F
:104E200001DA484600E038468246B5EB6A0F01DDFC
:104E30004FEA6A05314605A808F06CFDBDF914106B
:104E400094F82300400800F0040010B1B4F92000E9
:104E500003E0B4F9200028444042084400B2ADF811
:104E60001400BDF9181094F82300400800F0080061
:104E700010B1B4F9200003E0B4F920002844404206
:104E8000081A00B2ADF81800BDF9161094F8230006
:104E9000400800F0020010B1B4F9200003E0B4F9BA
:104EA000200028444042084400B2ADF81600BDF985
:104EB0001A1094F82300C0F3400010B1B4F9200098
:104EC00003E0B4F9200028444042081A00B2ADF8CB
:104ED0001A00208C281A0FFA80F8B8F1000F01DAB6
:104EE0004FF00008A07894F82210CDE90210E08B72
:104EF000ADF804002BB205AA31465846CDF8008023
:104F000000F002F800BF6EE72DE9FF4FA3B00D4699
:104F100016461F463298FF2801DBFF2000E032983A
:104F20003290284609F0DCFF2290229868B967B9D0
:104F3000309850B93298009032462946319B2398D8
:104F4000FEF053F927B0BDE8F08F23982946826818
:104F500020A8FCF7B1F900B9F4E720A808F132F96C
:104F600081461C2119A80DF0DFFA48460EF1E6FB38
:104F70001C904FF0FF301890002F0ADD00233A46B6
:104F8000294612A80BF15AFB002112A809F064FF70
:104F90001890012331460CA8309A0BF14FFB0021E9
:104FA0000CA809F059FF0B9009A819901E90BDF8A4
:104FB000C400ADF86C0032988DF87C0033988DF801
:104FC0007D00B5F900003844B6F90010884203DDD1
:104FD000B5F90000384401E0B6F9000000B2ADF8C0
:104FE0001C00B5F90400C01BB6F90410884203DAAE
:104FF000B5F90400C01B01E0B6F9040000B2ADF839
:105000002000B5F902003844B6F90210884203DDE9
:10501000B5F90200384401E0B6F9020000B2ADF87B
:105020001E00B5F90600C01BB6F90610884203DA67
:10503000B5F90600C01B01E0B6F9060000B2ADF8F4
:10504000220007A808F1BEF80690B5F90200B6F9EB
:105050000210884201DC012000E000208246B5F900
:105060000600B6F90610884201DB012000E00020AE
:105070008346229800284CD0BDF88000ADF824006B
:10508000BDF88400ADF82800BDF9824029E0BAF1EE
:10509000000F04D1BDF91E00A04200DD20E0BBF1ED
:1050A000000F04D1BDF92200A04200DA1DE020B2B9
:1050B000ADF8260020B2ADF82A0049461C980DF044
:1050C0006AFABDF980100FFA89F322B21C980BF12D
:1050D0004BF88DF8740019A923980BF1AAFD00BFB5
:1050E000641CBDF98600A042D1DA00BF0CA809F00B
:1050F000D3FE0B980BF170FB1898401C28B112A836
:1051000009F0CAFE18980BF167FB1C980DF05AF8CD
:1051100018E7B5F90000B6F90010884201DC01205B
:1051200000E000200590B5F90400B6F904108842AB
:1051300001DB012000E0002004900120039005988D
:1051400060B1049850B1BAF1000F07D0BBF1000F65
:1051500004D00698322801DA0020039001208DF84F
:105160007400BAF1000F15D0039898B1BDF81C0077
:10517000ADF82400BDF82000ADF828006888ADF82F
:1051800026007088401E00B2ADF82A0019A92398A5
:105190000BF14FFDBBF1000F15D0039898B1BDF88E
:1051A0001C00ADF82400BDF82000ADF82800F08800
:1051B000401C00B2ADF82600E888ADF82A0019A915
:1051C00023980BF136FD059898B12888ADF8240096
:1051D0003088401E00B2ADF82800BDF81E00ADF8C2
:1051E0002600BDF82200ADF82A0019A923980BF17A
:1051F00020FD049898B1B088401C00B2ADF824009E
:10520000A888ADF82800BDF81E00ADF82600BDF84E
:105210002200ADF82A0019A923980BF10AFD039882
:10522000F0BBBDF88000ADF82400BDF88400ADF8F7
:105230002800B6F90200B5F90210401AB84201DAA6
:10524000384604E0B6F90200B5F90210401A00B27F
:105250000290002442E06888204400B20190E8886F
:10526000001B00B20090BDF982100198814205DD5B
:10527000BDF986100098814200DA2EE049461C985C
:105280000DF089F9BDF924100FFA89F3019A1C98E1
:105290000AF16AFF8DF87400BDF98210019800E0F0
:1052A00020E0814209DC0198ADF826000198ADF8B4
:1052B0002A0019A923980BF1BCFCBDF986100098AF
:1052C000814209DB0098ADF826000098ADF82A006D
:1052D00019A923980BF1ADFC00BF641C029884420D
:1052E000B9DBC7E0BDF88000ADF82400BDF984103B
:1052F000BDF91C00401E814202DABDF9840002E0C3
:10530000BDF91C00401E00B2ADF8280009A807F145
:1053100059FF8046B8F1000F48DD059810B9BAF181
:10532000000F1ED0BDF9824017E020B2ADF8260074
:1053300020B2ADF82A0041461C980DF02CF9BDF9B9
:105340002410434622B21C980AF10EFF8DF8740017
:1053500019A923980BF16DFC641CBDF91E00A04235
:10536000E3DC059810B9BBF1000F1FD0BDF9220096
:10537000441C17E020B2ADF8260020B2ADF82A0098
:1053800041461C980DF007F9BDF92410434622B29E
:105390001C980AF1E9FE8DF8740019A923980BF105
:1053A00048FC641CBDF98600A042E3DABDF9801018
:1053B000BDF92000401C814202DDBDF9800002E001
:1053C000BDF92000401C00B2ADF82400BDF88400F7
:1053D000ADF8280009A807F1F5FE8046B8F1000FE6
:1053E00048DD049810B9BAF1000F1ED0BDF9824013
:1053F00017E020B2ADF8260020B2ADF82A004146F1
:105400001C980DF0C8F8BDF92410434622B21C9830
:105410000AF1AAFE8DF8740019A923980BF109FC72
:10542000641CBDF91E00A042E3DC049810B9BBF176
:10543000000F1FD0BDF92200441C17E020B2ADF8C8
:10544000260020B2ADF82A0041461C980DF0A3F8C2
:10545000BDF92410434622B21C980AF185FE8DF84E
:10546000740019A923980BF1E4FB641CBDF98600B4
:10547000A042E3DA0CA809F00FFD0B980BF1ACF990
:1054800012A809F009FD18980BF1A6F91C980CF068
:1054900099FE00BF56E52DE9FF4F93B007469046B1
:1054A00099464FF6FF70804502D117B0BDE8F08FE6
:1054B0003E46746A208C1290208C484506D0A4F891
:1054C0002090608C20F00800083060844FF4802128
:1054D00020460FF0C4F811904FF4802120460FF1C0
:1054E00034FD054611980BF063F88246384603F008
:1054F00072FD8346BBF81600ADF83E00BDF93E00D4
:105500000AEB050108FB010000B2ADF83E00284699
:1055100005EBD071BDF83E20A2EB610109B2ADF8F8
:105520003E10BDF83E0050442844401E00B2ADF885
:105530004200706A808AADF83C00706A008BADF85A
:10554000400001A80BF15AF901AA4FF4802120462E
:105550000FF1A1FF0FAA01A9149809F015FE1298E6
:105560002084608C20F00800608400BF9DE72DE956
:10557000F04F91B007460D46904699464FF6FF70A2
:10558000804502D111B0BDE8F08F1097109F7C6A62
:10559000208C0F90208C484506D0A4F82090608C79
:1055A00020F008000830608407A80AF1AFFA07AAC3
:1055B0004FF4802120460FF106FF4FF48021204652
:1055C0000FF1C3FCADF82E00384603F004FD06468B
:1055D00006B9D7E707980AF0EBFF8246F08AADF8E4
:1055E0001600BDF91600BDF92E10514408FB01004C
:1055F00000B2ADF81600BDF92E0000EBD071BDF879
:105600001620A2EB610109B2ADF81610BDF8160024
:105610005044BDF82E100844401E00B2ADF81A00E8
:10562000A08AADF81400208BADF8180005AA03A8D5
:10563000A968FBF741FE8346BBF1000F13D0A868B1
:10564000029003A8A86030460CF006FC01900020F0
:10565000009006F1140207A92846019B09F19EFE5D
:105660000298A86000BF0F982084608C20F008008A
:10567000608400BF86E72DE9FC5F05460C461646B0
:10568000204608F0AFF98246204607F147FD8346E1
:105690001AFB0BF001900198471E4FF0000811E033
:1056A00006EB47000088009006EB470006EB480138
:1056B0000988018006EB4800BDF8001001807F1EBC
:1056C00008F101084745EBD8B4F90690688861886D
:1056D000401A401E00B2E0806888A0EB0900401E1E
:1056E00000B26080B4F9049028882188401A401ED6
:1056F00000B2A0802888A0EB0900401E00B22080E4
:10570000BDE8FC9F2DE9F04704461D46089F01FBBC
:1057100002F0A0F1010C481E00FB02F800231AE081
:1057200008EB03000CB1ACEB000000260FE0A9462B
:10573000AD1C07EB400AB9F80090AAF800900CB134
:10574000104400E0801A06F101090FFA89F68E4232
:10575000EDDB581C03B29342E2DBBDE8F0872DE994
:10576000F04782460C46154600263BE0002731E014
:10577000601E801B0FFA80F8601EC01B0FFA80F9B4
:10578000BAF1000F12D007FB048C05EB4C0308FBA9
:10579000049C05EB4C0209FB046C05EB4C0106FB79
:1057A000047C05EB4C00FDF049FF11E009FB046CA3
:1057B00005EB4C0308FB049C05EB4C0207FB048C37
:1057C00005EB4C0106FB047C05EB4C00FDF036FFBD
:1057D000781C07B2601C00EBD071B7EB610FC7DB20
:1057E000701C06B204EBD471B6EB610FBEDBBDE8F2
:1057F000F08710B5044620460CF1B4FB10BD000044
:105800002DE9F14F9EB01E980BF1EAFE05462C469D
:105810001E980AF064FD1D90606A0CF01DFB07469F
:105820005420005D00F0010010B91FB0BDE8F08FFA
:105830000FA80AF1E3FF0FAA4FF4E02128460FF169
:105840002AFE04F148010DA807F15FFCBDF8340001
:10585000616A898A084400B2ADF83400BDF8361098
:10586000606AC08A084400B2ADF83600BDF838005E
:10587000616A898A084400B2ADF83800BDF83A1070
:10588000606AC08A084400B2ADF83A000DAA0FA9B8
:105890001D9809F079FC4FF4E02128460FF1C3F878
:1058A00006464FF4E02128460EF0DEFD30440FFAA4
:1058B00080F84FF4E02128460FF165FA30440FFAE2
:1058C00080F900200B900C90216DC8191F490968C0
:1058D00088478246206DC11952460BA80CF0AEFCD9
:1058E000BDF83400404400B2ADF83400BDF83600D5
:1058F000484400B2ADF836004FF0000BD4F824A0B5
:105900005522594650460FF14AFA019001980A90E3
:1059100002A80AF1FBF802AA4FF4E02128460FF191
:1059200052FD9DF83F00022805DCBDF81400BDF8CB
:105930002810884207D000200BAB0DAA02A90090C6
:105940001D9809F12BFD00BF6FE7000070020024D5
:105950002DE9F14F9AB01A980BF142FE04461A98BD
:105960000AF0BDFC199020460EF01EFF07462046A7
:105970000EF1AEFE834607EBD771A28A02EB6101FE
:1059800009B218910BEBDB714A10E18A114409B29C
:10599000179107EBD7714E1014A809F031FA14AA29
:1059A000002120460EF0A9FF4FF41D7016FB00F0F9
:1059B000552190FBF1F0642190FBF1F000B2ADF8BD
:1059C0005200BDF85200801C00B2ADF85200002019
:1059D0001390002120460EF07DFB0546002347F67C
:1059E000FF7204F114010DA80AF128FE00210DA890
:1059F00009F032FA0C9000BFA08AADF82800E08AC6
:105A0000ADF82A00208BADF82C00608BADF82E008D
:105A100000BFBDF82800284400B2ADF82800BDF84A
:105A20002C00401B00B2ADF82C00BDF82A00284421
:105A300000B2ADF82A00BDF82E00401B00B2ADF850
:105A40002E00012347F6FF720AA904A80AF1F6FD09
:105A5000002104A809F000FA0390BDF952804FF02C
:105A6000000A4FE051462046FCF730FF0090BDF899
:105A70000000ADF850001398C0F30F290FFA89F019
:105A800011F1FCFF06EB08014843189901EBE030E7
:105A900000B2ADF804000FFA89F011F1E6FF06EB51
:105AA00008014843179901EBE03000B2ADF8060059
:105AB0000FFA89F011F1E2FF711BA1EB08014843D5
:105AC000189901EBE03000B2ADF808000FFA89F048
:105AD00011F1CBFF711BA1EB08014843179901EBB2
