:020000040800F2
:1000000058EB0624350010080D14000809140008E8
:10001000C90B10089F0F0008330C100800000000E7
:1000200000000000000000000000000011140008A3
:10003000E108100800000000290C10082B0C100823
:100040005B0010085B0010085B0010085B001008E4
:100050005B0010085B0010085B0010085B001008D4
:100060005B0010085B0010085B0010085B001008C4
:100070005B0010085B0010085B0010085B001008B4
:100080005B0010085B0010085B0010085B001008A4
:100090005B0010085B0010085B0010085B00100894
:1000A0005B0010085B0010085B0010085B00100884
:1000B0005B0010085B0010085B0010085B00100874
:1000C0005B0010085B0010085B0010085B00100864
:1000D0005B001008F11400085B0010085B001008BA
:1000E0005B0010085B001008000000005B001008B7
:1000F0005B0010085B0010085B0010085B00100834
:100100005B0010085B0010085B0010085B00100823
:100110005B0010085B001008151400085B00100855
:100120005B0010085B0010085B0010085B00100803
:100130005B0010085B0010085B0010085B001008F3
:1001400000000000000000000000000000000000AF
:100150005B0010085B0010085B0010085B001008D3
:100160005B0010085B0010085B0010085B001008C3
:100170005B0010085B0010085B0010080000000026
:100180005B0010085B0010085B0010085B001008A3
:100190005B0010085B0010085B0010085B00100893
:1001A0005B0010085B0010085B0010085B00100883
:1001B0005B0010085B0010085B0010085B00100873
:1001C0005B0010085B0010085B0010085B00100863
:1001D0005B0010085B0010085B0010085B00100853
:1001E0005B0010085B0010085B0010085B00100843
:1001F0005B0010085B0010085B0010085B00100833
:100200005B0010085B0010085B0010085B00100822
:100210005B0010085B0010085B0010085B00100812
:100220005B0010085B0010085B0010080000000075
:100230005B0010085B001008000000005B00100865
:100240005B0010085B0010085B0010085B001008E2
:100250005B0010085B0010085B0010085B001008D2
:100260005B0010085B0010085B0010085B001008C2
:100270005B0010085B0010085B0010080000000025
:100280005B0010085B0010085B0010080000000015
:10029000000000005B00100800F002F8FFF0C0FE54
:1002A0000AA090E8000C82448344AAF10107DA45D1
:1002B00001D1FFF0B5FEAFF2090EBAE80F0013F05E
:1002C000010F18BFFB1A43F0010318471C5D07001C
:1002D0003C5D07000A444FF0000C10F8013B13F09E
:1002E000070408BF10F8014B1D1108BF10F8015B8F
:1002F000641E05D010F8016B641E01F8016BF9D182
:1003000013F0080F1EBF10F8014BAD1C0C1B09D1D8
:100310006D1E58BF01F801CBFAD505E014F8016B4A
:1003200001F8016B6D1EF9D59142D6D370470000DC
:100330000023002400250026103A28BF78C1FBD8EE
:10034000520728BF30C148BF0B6070471FB51CF172
:10035000B9FC00F0BDFB0400002000211CF19CFC56
:10036000E0601FBD03B4FFF059FE03BC02F0E1F9E9
:100370000FB41CB5074B06AA7B446946009005984C
:1003800000F06BFB0020694600F10BF81CBC5DF827
:1003900014FB0000270010002DE9F05F8946044699
:1003A0004FF0000ADFF824B1FB44C0F820A020463B
:1003B000E168884700287DD0252806D0D4E90121AE
:1003C0009047206A401C2062F1E700255F462046E6
:1003D000E16888472028064607DB312E05D2B81988
:1003E00010F8200C08B10543F1E7A80701D525F066
:1003F0000405C4F81CA00027C4F818A02A2E09D0B0
:10040000304601F0EDF838B304EB8708303EC8F809
:10041000186019E059F8041B204604EB870291612B
:10042000E1688847012F064618D1E069002820DAE4
:1004300025F020051DE0D8F8180000EB800006EB41
:1004400040003038C8F818002046E1688847064662
:1004500001F0C6F80028EED1012F0AD02E2E08D1C7
:100460002046E16888477F1C0646022F45F020059C
:10047000C4DBA069002803DA404245F00105A06111
:10048000E80701D025F01005A6B1A6F14100192812
:1004900002D8203645F400654A463146204625609C
:1004A0004D46FFF0ADFD60B1012807D0ED1D25F0F0
:1004B000070000E007E000F1080978E705F104090A
:1004C00075E730467AE7206ABDE8F09FAC5B07002D
:1004D00010B5431C02E010F8011B71B18107FAD17D
:1004E0004FF0013202C88C1A8C4314EAC211F9D0C1
:1004F000C01A0A0603D0C01E10BDC01A10BD0A04DF
:1005000001D0801E10BD0902FCD0401E10BD10B5E8
:10051000203AC0F00B80B1E81850203AA0E81850FB
:10052000B1E81850A0E81850BFF4F5AF5FEA027CBC
:1005300024BFB1E81850A0E8185044BF18C918C02B
:10054000BDE810405FEA827C24BF51F8043B40F8CC
:10055000043B08BF7047D20728BF31F8023B48BFB1
:1005600011F8012B28BF20F8023B48BF00F8012BEF
:1005700070474FF0000200B5134694469646203966
:1005800022BFA0E80C50A0E80C50B1F12001BFF44C
:10059000F7AF090728BFA0E80C5048BF0CC05DF8B2
:1005A00004EB890028BF40F8042B08BF704748BF00
:1005B00020F8022B11F0804F18BF00F8012B704774
:1005C0004FF0013C50F8042B51F8043B9A4215D1EE
:1005D000A2EB0C03934313EACC130BD150F8042B7A
:1005E00051F8043B9A4209D1A2EB0C03934313EA5E
:1005F000CC13E7D04FF00000704700BFD01A01BA0B
:10060000B1FA81F101F0180122FA01F0CB40C1F1F9
:100610002001DBB2C0B2C01A2CFA01F3D11A914307
:1006200011EAC311E6D170477047704770477047B1
:1006300070472DE9FF4F0C461E464FF0FF378BB039
:10064000D2E90001DDF860800A908A46C1F30A55BC
:1006500005B93D46002108464FF00000BAF1000FF1
:1006600000F4400005DA00EB80004FF4400101EA9D
:1006700050004FEA9059B9F1010F00DDB9460A98D0
:1006800050EA4A000ED044F61050A5F2FF3545431B
:100690002F14B8F1000F1ED07542291E1EDDC9F1BE
:1006A00000021CE0B8F1010F4FF0000001D0302132
:1006B00003E0F24305E02154401CB042FBDB30462E
:1006C0000022002121540B99C1F80880C1E90020C3
:1006D0000FB0BDE8F08FBD1B6D1CDEE74A4600DAA7
:1006E000694206A800F0F8F906AB93E8070003ABEF
:1006F00083E8070050460A99FFF0EBFE8DE80700FB
:10070000A0F500501F3800900398002D0ADD42F23A
:100710001F014A460844002303A90390684600F0DD
:1007200007FB09E0A0F500504A461F38002303A943
:100730000390684600F1B8F88DE807000004000C4B
:1007400003D04FF0FF30410800E01046B8F1000F31
:1007500003D00022009215461EE0751E05D4FFF05E
:1007600025FE303262556D1EF9D5B346012208438D
:1007700002D000227F1C04E02078302801D1002222
:100780007F1E002A099784D01DE0112D07DAFFF0A3
:100790000DFE303262556D1C50EA0102F5D108435E
:1007A00002D00098C8B10EE00021681E05E0235C6D
:1007B000625C63542254401E491C8142F7DBAB4605
:1007C000A81B401E0990002004F80B000B98099A02
:1007D000C0F80880C0E9002B7AE711264FF0000826
:1007E00057E72DE9F04F88460446D21D22F0070155
:1007F00091B0D1E90001CDE90A0100F11CFA0246ED
:100800000B98C00F01D02D2007E02068810701D58B
:100810002B2002E0202101EAC000032A099001D028
:10082000072A05DB034641462046FFF005FE0BE1A3
:100830002078800601D5E06900E00620B8F1650F58
:10084000814606D0B8F1660F18D0B8F1670F70D1A5
:1008500031E00020B9F1110F009001DB112301E01C
:1008600009F101030AAA01A90CA8FFF7E2FEDDE9DC
:100870000C70002609F10105834647E001204B4634
:1008800000904FF000470AAA01A90CA8FFF7D1FE7B
:10089000DDE90DB00C995D46002610B909F10100A3
:1008A0000D18B9EB050003D4C0F1FF3609F10105BD
:1008B000A5EB09002BE0B9F1010F01DA4FF00109B6
:1008C0000020B9F1110F0090484601DD112300E02E
:1008D00003460AAA01A90CA8FFF7ABFEDDE90C70DC
:1008E0004D4600268346207800070AD4AB4500DA3F
:1008F0005D4601A8012D04DD411911F8011C3029C4
:1009000007D04F4502DA17F1040F04DA01208246BE
:100910000FE06D1EEEE7002F02DCED1B3E4403E00E
:10092000781CA84200DD7D1CB81B00F1010A4FF0C5
:1009300000472078000703D4AA4501DB4FF0FF3AB7
:100940000021B7F1004F0DF143088DF8431024D07A
:1009500002202B23002F01DA7F422D230A21021EC1
:10096000A0F1010000DC5FB197FBF1FC97FBF1F215
:1009700001FB1C7C17460CF1300C08F801CDEEE7AA
:10098000A8F1010003702188090501D5452100E087
:100990006521A0F1010800F8011C09980FA9A1EB3D
:1009A0000807FF1D00B10120411901EBEA70A169A0
:1009B0003844081A401EA0612078C00602D42046A0
:1009C000AFF30080099828B1D4E901219047206A4B
:1009D000401C20622078C00622D52046AFF300805C
:1009E0001EE0002E04DBB34502DD01A8805D00E0BF
:1009F0003020D4E901219047206A401C2062761CF7
:100A0000AAF101005FEA000A0AD100F061F8C068AB
:100A10000168405CD4E901219047206A401C2062B3
:100A2000281EA5F10105DCDC07E0D4E9012118F856
:100A3000010B9047206A401C2062381EA7F1010775
:100A4000F3DC2046AFF30080032011B041E6000044
:100A500001694A1C02610878704700B58FB0CDE982
:100A600001310021059105497944CDE90310114672
:100A70006846FFF791FC0FB000BD0000E5FFFFFFE7
:100A800010B5436913B1AFF3008001E0FFF07AFBCA
:100A9000012010BD127800F124010A7000224A7072
:100AA0000122EDE711684FF0FF32E9E7074B70B51F
:100AB0000D467B44FFF7D1FF0446284600F07EF840
:100AC00010B14FF0FF3070BD204670BD4B75100067
:100AD0000048704718E306242DE9F0478146164682
:100AE0008AB0354878440DC88DE80D003248784406
:100AF000801C03AC0DC884E80D0041F69B3008440F
:100B0000372190FBF1F290FBF1F5A5F1800501FB97
:100B100012041B3C02D56442012000E00020DFF8F3
:100B200098A080460027FA44AAF1BE0A0EE0E0072A
:100B30000AD03246684607EB470101230AEB8101E0
:100B4000FFF0B2FE8DE8070064107F1C002CEED190
:100B5000194F7F44AE3F19E0E80715D007EB0410AA
:100B60000DF1180A90E80E008AE80E00C068F04205
:100B700001D1981908903246012306A903A8FFF075
:100B800093FE03AB83E807006D10641C002DE3D1D6
:100B90004FF0010332466946B8F1000F03A802D0B6
:100BA00000F0C6F801E0FFF07FFEC9E90001C9F8D6
:100BB00008200AB0BDE8F087884F1700007B00F0DE
:100BC000800070477546FFF077FCAE460500694629
:100BD000534620F00700854618B020B5FFF03EFAD6
:100BE000BDE820404FF000064FF000074FF000082E
:100BF0004FF0000B21F00701AC46ACE8C009ACE8AF
:100C0000C009ACE8C009ACE8C0098D467047130CB8
:100C100006BF12044FF0100C4FF0000C130E04BF6F
:100C200012020CF1080C130F04BF12010CF1040C9A
:100C3000930F04BF92000CF1020CD30F04BF5200BB
:100C40000CF1010C11464FF00002A0F11F00A0EBC7
:100C50000C007047002B9C4630D477002BD01CB57D
:100C60004FEA370703B44FF010004FF01001BAF10C
:100C7000000F06D0BCF1000FDCBF40F0080040F0D0
:100C800008014FF000000FBCBDE810400BF1010B54
:100C9000BBF1010F08BF5FEA170722BF12F1010283
:100CA00011F101014FF0004143F1000300F0004059
:100CB00043EA00007047F9D35708D0E746EA0646F2
:100CC00013F1400F4FEA16461FDD13F1200FDFBF6F
:100CD00016430A46002120335B42BED0C3F12007F1
:100CE00046EA064602FA07F74FEA164646EA0706BC
:100CF000C3F1200722FA03F201FA07F721FA03F100
:100D00004FF0000342EA0702A7E746EA020646EA76
:100D100006464FEA164646EA0106BCBF46EA0646C4
:100D2000360C4FF000034FF000024FF0000194E743
:100D30002DE9804C9A46934670B491E8380007C874
:100D400031EA400C48BF34EA430C03D5FFF010FCF5
:100D5000FFF780FFF0BCBDE8008C20F07F4780EA01
:100D6000030023F07F4C07EB0C03A3F57C5300F04A
:100D70000040A3F1FE0392F0000F00F0B38095F065
:100D8000000F00F077802DE901494FEA11404FEA4A
:100D9000144621EA004800FB06FC24EA064708FB4B
:100DA00006F607FB08F800FB07F718EB06484CEBC4
:100DB000164C4FEA124B18EB07484FEA15464CEB1E
:100DC000174022EA0B4E0BFB06FC25EA06470EFBFA
:100DD00006F607FB0EFE0BFB07F71EEB064E4CEB71
:100DE000164C4FF000061EEB074E4CEB174B18EB62
:100DF0000B0840F1000018EB0E0B58EB000840F117
:100E000000008F1A4FF000013CBFC943661B14BF9E
:100E1000B5EB040C00213CBFC943F61B4FEA174455
:100E20004EEA8E0E27EA04454FEA1C4704FB076290
:100E30002CEA074C05FB07F70CFB05F604FB0CFC42
:100E400016EB074642EB174216EB0C4642EB1C42F0
:100E50001BEB060658EB0202414146EA9E0601D50D
:100E6000BDE80189B619524141EB0101A3F101032B
:100E7000BDE801894FEA14454FEA114724EA0546C7
:100E800021EA074C05FB07F406FB07F70CFB06F10C
:100E900005FB0CFC11EB074144EB17444FEA1247EA
:100EA00011EB0C4144EB1C4422EA074C05FB07F212
:100EB00006FB07F70CFB06F605FB0CFC16EB0746DA
:100EC00042EB174216EB0C4642EB1C456A1854F1F4
:100ED000000148BF7047B619524141EB0101A3F12F
:100EE0000103704795F0000F37D04FEA11424FEAE7
:100EF000144721EA024624EA074C02FB07F106FBED
:100F000007F70CFB06F402FB0CFC14EB074441EB67
:100F100017414FEA154714EB0C4441EB1C4125EAFD
:100F2000074C02FB07F506FB07F70CFB06F602FB76
:100F30000CFC16EB074645EB174516EB0C4645EB4C
:100F40001C42121951F1000148BF7047B6195241B5
:100F500041EB0101A3F1010370474FEA14454FEA49
:100F6000114724EA054621EA074C05FB07F106FB79
:100F700007F70CFB06F24FF0000605FB0CFC12EB2A
:100F8000074241EB174112EB0C4251EB1C4148BFA9
:100F90007047921841EB0101A3F10103704700BFB4
:100FA000FEE7000003480068034909780844014946
:100FB00008607047700000247800002410B50320FA
:100FC000FFF090FCFFF0A2FC10490968C1F3032177
:100FD0000F4A515C01F01F0120FA01F40B48006830
:100FE00000F00F001146085C00F01F0024FA00F02A
:100FF00008490860084804600F2000F00FF808B1A5
:10100000012010BDFFF06DFC0020FAE718440258E3
:10101000CECC1108040000240000002470B5044662
:101020001148007808B9012070BD0F4800784FF4CE
:101030007A71B1FBF0F00D490968B1FBF0F5284673
:1010400000F069F808B10120EEE7102C07D2002269
:101050002146501E00F022F80548046001E00120FE
:10106000E2E70020E0E70000780000240000002410
:10107000740000240146084600280DDB00BF00BFB5
:1010800000F01F0301229A4043099B0003F1E02373
:10109000C3F8002100BF00BF00BF70472DE9F05F1B
:1010A00080460D461646FFF0DFFD074639462A46C4
:1010B000334601F00700C0F1070ABAF1040F02D964
:1010C0004FF0040A01E0C0F1070AD14600F1040A1A
:1010D000BAF1070F02D24FF0000A01E0A0F1030AB3
:1010E000D4464FF0010A0AFA09FAAAF1010A0AEAFB
:1010F000020A0AFA0CFA4FF0010B0BFA0CFBABF1E7
:10110000010B0BEA030B4AEA0B042146404600F0B0
:1011100035FABDE8F09F70B504462546681EB0F16B
:10112000807F01D301200FE0681E4FF0E02148616D
:101130000F214FF0FF3000F021FA00204FF0E021A6
:10114000886107200861002070BD7047704700006B
:1011500038B504460E492068884217D100BF00BF49
:101160000C48006840F010000A4908600846006812
:1011700000F01000009000BF00BF00BF032201215B
:101180003620FFF78BFF3620FFF774FF38BD0000D5
:1011900000100040E8440258014691F83D00012843
:1011A00001D001207047022081F83D000868C06826
:1011B00040F001000B68D8601C4B086898421BD0B7
:1011C0000868B0F1804F17D0194B0868984213D0C7
:1011D000184B086898420FD0174B086898420BD0FC
:1011E000164B0868984207D0154B0868984203D000
:1011F000144B0868984210D108688068124B00EAC6
:101200000302062A0FD0B2F5803F0CD008680068B0
:1012100040F001000B68186005E00868006840F0C5
:1012200001000B6818600020BCE7000000000140CE
:101230000004004000080040000C00400004014091
:10124000001800400040014007000100704710B541
:10125000044620680069C0F34000D8B12068C06827
:10126000C0F34000B0B16FF00200216808610120B6
:1012700020772068806900F0030018B12046FFF74E
:10128000E5FF05E02046FFF08FFC204600F0BBF8AC
:101290000020207720680069C0F38000D8B1206862
:1012A000C068C0F38000B0B16FF00400216808612D
:1012B000022020772068806900F4407018B1204631
:1012C000FFF7C4FF05E02046FFF06EFC204600F06B
:1012D0009AF80020207720680069C0F3C000D8B1D8
:1012E0002068C068C0F3C000B0B16FF0080021688A
:1012F0000861042020772068C06900F0030018B15D
:101300002046FFF7A3FF05E02046FFF04DFC2046F6
:1013100000F079F80020207720680069C0F3001001
:10132000D8B12068C068C0F30010B0B16FF01000F1
:1013300021680861082020772068C06900F44070A7
:1013400018B12046FFF782FF05E02046FFF02CFC95
:10135000204600F058F8002020772068006900F04F
:10136000010058B12068C06800F0010030B16FF092
:101370000100216808612046FFF018FC2068006920
:10138000C0F3C01058B12068C068C0F3C01030B1BD
:101390006FF08000216808612046FFF0CDFB2068D7
:1013A0000069C0F3002058B12068C068C0F3C010C5
:1013B00030B16FF48070216808612046FFF7C5FEE8
:1013C00020680069C0F3801058B12068C068C0F37D
:1013D000801030B16FF04000216808612046FFF0B6
:1013E000F1FB20680069C0F3401058B12068C06864
:1013F000C0F3401030B16FF0200021680861204632
:10140000FFF7A4FE10BD704700BFFEE700BFFEE778
:101410007047000010B50248FFF719FF10BD00002B
:101420005804002410B50268294B98420ED0B0F140
:10143000804F0BD0274B984208D0274B984205D0BD
:10144000264B984202D0264B984203D122F07002DC
:101450004B681A431E4B984217D0B0F1804F14D0FE
:101460001C4B984211D01C4B98420ED01B4B9842FB
:101470000BD01B4B984208D01A4B984205D01A4B00
:10148000984202D0194B984203D122F44072CB68A3
:101490001A4322F080034C6943EA040202608B681D
:1014A000C3620B6883620A4B98420BD00C4B984284
:1014B00008D00C4B984205D00B4B984202D00B4BF6
:1014C000984201D10B6903630123436110BD000001
:1014D000000001400004004000080040000C0040F3
:1014E0000004014000400140004401400048014028
:1014F0001F49C96901F0200109B31D49496AC8B2F1
:101500001C49098801F40041C9B91A49098801F444
:10151000804161B10A2803D00021164A118020E0E1
:101520001449098841F40041124A118019E00D283C
:1015300006D11049098841F480410E4A118010E01B
:101540000C490988C1F30D010B4A50540949098817
:10155000491C084A118011460988C72901DD00216C
:1015600011800349096A41F00801014A116270477C
:1015700000100140100000246003002410B5002872
:1015800004DB0A07130E054A135406E00A07140E7B
:10159000034A00F00F031B1FD45410BD00E400E009
:1015A00018ED00E070B50446002508E02168481CED
:1015B00020600878303805EB850100EB4105216893
:1015C000087800F004F80028F0D1284670BD0146E4
:1015D000302903DB392901DC012070470020FCE7BA
:1015E00030380A2801D201207047002070470000DF
:1015F00010B544210748FFF0DBFD00221E210648FC
:1016000015F124FB0549086001F018FC002004498D
:10161000087010BD2C210624E11C1008F8010024DC
:10162000F40100242DE9F04F87B007460C4615461B
:101630002946204600F025F920B94FF0FF3007B0C9
:10164000BDE8F08F00222946204600F0BCF808B122
:101650000020F4E7002620460DF019FA401E00B2E3
:10166000049020460AF1D4FC401E00B20390688822
:101670006188401A0FFA80FABAF1000F16DD20884F
:10168000ADF814006088ADF81600A088ADF8180019
:101690006088504400B2ADF81A003046711C4EB25A
:1016A00007EBC0000599016006994160E8886188F0
:1016B000411A0398401A0FFA80FBBBF1000F1CDDA2
:1016C000B5F90600B4F90610884216DA2088ADF89C
:1016D0001400E888ADF81600A088ADF81800E88876
:1016E000584400B2ADF81A003046711C4EB207EBF8
:1016F000C0000599016006994160B5F90200B4F98E
:101700000210884202DDB5F9020001E0B4F90200DE
:101710008046B5F90600B4F90610884202DAB5F938
:10172000060001E0B4F9060002900298A0EB080060
:101730000FFA80F928882188401A00B20190019898
:1017400000281BDDB9F1000F18DD2088ADF814006A
:10175000ADF8168021880198084400B2ADF8180051
:1017600008EB090000B2ADF81A003046711C4EB209
:1017700007EBC0000599016006994160A88821889F
:10178000411A0498401A00B200900098002818DD11
:10179000A888ADF81400ADF81680A9880098084410
:1017A00000B2ADF8180008EB090000B2ADF81A005D
:1017B0003046711C4EB207EBC000059901600699D6
:1017C000416030463BE7F8B504460D461646002713
:1017D000B4F90000B5F90010884212DBB4F9020038
:1017E000B5F9021088420CDBB4F90400B5F9041015
:1017F000884206DCB4F90600B5F90610884200DC20
:1018000001270FB90020F8BD0EB90120FBE72088A1
:10181000ADF800006088ADF80200324669462846FF
:10182000FFF06BFA08B90020EDE7A088ADF80000E2
:101830006088ADF80200324669462846FFF05DFA3E
:1018400008B90020DFE72088ADF80000E088ADF897
:101850000200324669462846FFF04FFA08B90020D8
:10186000D1E7A088ADF80000E088ADF8020032466C
:1018700069462846FFF041FA08B90020C3E7012075
:10188000C1E70246B2F90000B1F90430984213DC16
:10189000B2F90400B1F9003098420DDBB2F9020050
:1018A000B1F90630984207DCB2F90600B1F902300E
:1018B000984201DB012070470020FCE7F8B50446A0
:1018C0000D461646B4F90400B5F90010884211DB44
:1018D000B4F90600B5F9021088420BDBB4F9000038
:1018E000B5F90410884205DCB4F90200B5F9061018
:1018F000884201DD0120F8BD0EB90020FBE72088F9
:10190000ADF800006088ADF802003246694628460E
:10191000FFF0F3F908B10020EDE7A088ADF8000072
:101920006088ADF80200324669462846FFF0E5F9C6
:1019300008B10020DFE72088ADF80000E088ADF8AE
:101940000200324669462846FFF0D7F908B1002068
:10195000D1E7A088ADF80000E088ADF8020032467B
:1019600069462846FFF0C9F908B10020C3E7012005
:10197000C1E70000F8B5054615F13AF90746002021
:10198000009035B14C49E8680860284615F132FAF4
:1019900003E00CF183F94849086047490968086980
:1019A00015F04CF844480068406920B14249096884
:1019B000486915F043F840490968C86915F03EF8D0
:1019C0003D490968086A15F039F83B480068006924
:1019D00038B9002038490968A1F8500100BF00BF9C
:1019E000F8BD15F04BF916F189FA18F06DFC324884
:1019F0000068B0F85001002856D02F4800680068F1
:101A0000007C00F0010040B32B4800680068C0680B
:101A1000406810B3002419E02748006800F598706A
:101A2000005D00B110E02448006800F5AC70FFF0E4
:101A300001FC064620480068303000EBC400016815
:101A400031604068706000BF601C84B21A48006852
:101A5000B0F85001A042DFDC00BF4FF4807116489F
:101A60000068303011F072FD20211348006800F545
:101A7000987011F06BFD00200F490968A1F8500122
:101A8000384617F005FB00900B4800680068406A74
:101A900050B10949096808680749096809684B6A2B
:101AA00006490A680099984711F010FBFFF036FAD2
:101AB00000F006F800BF93E7B0000024AC0000245B
:101AC00010B5002416E0C4EBC4000C4951F8200006
:101AD00030B1C4EBC401094A52F8210010F162FF91
:101AE000C4EBC401054A02EB81001C2111F02EFD5C
:101AF000601CC4B2042CE6DB10BD000008220624E2
:101B000010B504210148FFF053FB10BD202106242D
:101B100010B514211148FFF04BFB0FF1C3FB044635
:101B200000BF1CB900BF00BF00BFFEE700BF14B973
:101B300000BF00BF10BD0A4920460FF1CBFB094989
:101B4000204610F08DFA084920460FF1C5FB0749E1
:101B5000204610F083FA00BFECE700004421062481
:101B6000E90B1108290F1108B1111108F51C010822
:101B700070B504460D461021284611F0E7FC206898
:101B80000078012804D1A08A2880E08A68800CE0CF
:101B900020680078022802D1E068686005E02068CB
:101BA0000078042801D10A2068602068406820B1CC
:101BB000206829464268904701E000BF00BF70BD21
:101BC0002DE9FE4F0446A08A18B9E08A08B9BDE89D
:101BD000FE8FE66A96B9204605F1C1FE064606B9B3
:101BE000F5E7204607F122FD0022092130460FF0DB
:101BF000A5FD6078C0F3400000B1E8E700274FF48E
:101C00008078B14616E00021484613F0A9FB38441D
:101C100007B20021484612F182FC8246C0170AEB47
:101C20001060001200FB08F00FFA80F8484612F12D
:101C30002FF88146B9F1000FE5D117B9B8F5807FCB
:101C400011D0784207B24FF4803090FBF8F00FFAD1
:101C500080F8002000906B464246394604F114009B
:101C600013F14AFD00BF00200290019094F840005B
:101C700000F00F00032812D1304612F063FB8246B9
:101C8000304612F17DF8834603200090B4F9141019
:101C900053465A46304606F095FB029012E0304615
:101CA00012F1F0F88246304612F10AF883460C2011
:101CB0000090B4F916105B465246304606F082FB9F
:101CC000019000BF304612F00EFB054605F0010002
:101CD00028B9BDF90800002801DD0020029005F0B8
:101CE000020028B9BDF90800002801DA002002909E
:101CF00005F0040028B9BDF90400002801DD00202A
:101D0000019005F0080028B9BDF90400002801DAA7
:101D10000020019001AA02A9204618F0F4FEBDF9A6
:101D20000420BDF90810304600F02AFA6078C0F3AC
:101D3000400000B14BE7208BBDF80810084401B209
:101D40002183608BBDF80410084401B2618300BF99
:101D50003DE72DE9F84F0446D4F82CB0BBF1000F55
:101D600001D1BDE8F88F94F8400000F00F0000B9F1
:101D7000F7E70FF171FD06463068477E402158466F
:101D800012F129FC10B90021E183A183584612F118
:101D90006FF88046584612F043FB054694F8400021
:101DA00000F00F000C2843D10021A1831DBBB4F922
:101DB0001E00C7F164014843642190FBF1F001B2B9
:101DC000E183584611F17CFF8146584612F15AF8DA
:101DD00082460C200090B4F91E104B4652465846DD
:101DE00006F0F0FAE083B4F91E20002319465846A5
:101DF00014F010FA69E0204618F0C1FE00900021AE
:101E0000E1836A46204618F07EFEBDF9003041F6B7
:101E1000FF725142584605F1FBFE8146BDF80000B5
:101E2000484402B201230021584614F0F3F94CE073
:101E300094F8400000F00F00032846D10021E18310
:101E4000B8F1000F23D1B4F91C00C7F16401484375
:101E5000642190FBF1F001B2A183584611F190FF8B
:101E60008146584612F06EFA824603200090B4F97B
:101E70001C1053464A46584606F0A4FAA083B4F90B
:101E80001C1000231A46584614F0C4F91DE02046E1
:101E900016F1D0FD00900021A18300226946204662
:101EA00018F031FEBDF9003041F6FF72514258463C
:101EB00006F058FC8146BDF80000484401B20123F9
:101EC0000022584614F0A6F900BFA08B002860D16C
:101ED000E08B00285DD11DBB584611F1D3FF814630
:101EE000584611F1EDFE8246B9F1000F02DCBAF15D
:101EF000000F14DDB9F1000F06DA01234A46002174
:101F0000584614F087F90AE0BAF1000F07DA012306
:101F1000CAF1000002B20021584614F07BF900BF5C
:101F2000B8F1000F23D1584611F12AFF81465846D7
:101F300012F008FA8246B9F1000F02DCBAF1000F84
:101F400014DDB9F1000F06DA012300224946584694
:101F500014F060F90AE0BAF1000F07DA0123002259
:101F6000CAF1000001B2584614F054F900BF3246DD
:101F70000A2158460FF0E2FB6078C0F3400000B140
:101F8000EFE694F8400020F00F0184F840100021A3
:101F9000E16200BFE5E62DE9FF4104460F4614B9B2
:101FA0000BF17CFE04460CB9BDE8FF8120460DF024
:101FB00048FF00B9F8E794F82800C0F3800010B19A
:101FC00000BF00BFF0E71FB90020A4F85001EBE705
:101FD0000020ADF80800ADF80A0020460DF0D9FE4B
:101FE000401E00B2ADF80C0020460BF17CFE401EF6
:101FF00000B2ADF80E0002AA39466846FEF03CFE7B
:10200000064606B9D0E72068007CC0F3400060B106
:1020100002982063039860630120A4F8500160686F
:1020200010B1606817F0D9F8BEE72068806918B170
:10203000206869468269904700250BE004F1300072
:1020400000EBC50100226846FFF7BDFB00B1ABE71E
:10205000681C85B2B4F85001A842EFDCB4F8500116
:10206000202809DAB4F8502104F1300101EBC20054
:1020700069460CF089FC0BE00020A4F85001B4F88C
:10208000502104F1300101EBC20002A90CF07CFCEC
:10209000B4F85001401CA4F85001606810B16068A9
:1020A00017F09BF800BF7FE770B505462846FFF0A4
:1020B00073F8044600260CE02146284600F01EF87E
:1020C000064621462846FFF0D5F8204610F16AFC66
:1020D0003446002CF0D170BD70B506460024304661
:1020E000FFF05AF8054605E0641C2946304600F02A
:1020F00005F80546002DF7D1204670BD02460B4677
:102100001068001D03441868704702460B461068AB
:1021100003441868704770B50446216801F108004F
:1021200010F1FCFB0546A5B100222946204615F119
:10213000FDFA29462046626815F1EAFA606820B186
:102140002A462046616815F1F1FA6560A06800B979
:10215000A560284670BD014609B90120704748684E
:1021600018B9886808B90120F8E70020F6E70146A9
:10217000886818B18868B0F9160070470020FCE73D
:102180002DE9F04104460D4616461DB916B9012049
:10219000BDE8F081204611F113F9A068008A2844B7
:1021A00000B2A1680882A068408A304401B2A068E9
:1021B0004182012332462946204612F197FB002234
:1021C0000B2120460FF0BAFA0746012F01D03846FE
:1021D000DEE7204613F0DFFC0120D9E7F7B582B037
:1021E00004460E4614B9049805B0F0BD00BF622243
:1021F0003146204612F0BBFF0190019D00BFBDB1EA
:102200002868A8B100BF63223146204612F0AFFF14
:1022100001900198C0B207464FB13A462B68284654
:10222000049998470190BDF80400ADF8100000BF74
:102230000498D9E72DE9F04F95B004468B469146B6
:102240009A461E9D608C20F0080008306084A4F837
:1022500020902A895946204612F089FF1490A4F84C
:1022600020A02A895946204612F081FF1390608CE5
:1022700020F008006084DDE9131088420CD1DDE90C
:102280001310884208D1BDF85000BDF84C108842A8
:1022900002D115B0BDE8F08FA4F820902A895946E4
:1022A000204612F064FF1490A4F820A0594620465E
:1022B00006F103FC12902989129A1068149A13F1FE
:1022C0005DFF28890B2833D147F6FF7114988842A7
:1022D00002D0139888422BD1204612F150F9009079
:1022E00000EBD0704710204611F0D5FF009000EBB6
:1022F000D0704FEA600847F6FF711498884208D101
:10230000781C08F10101884200DA01E008F10100BF
:10231000149047F6FF711398884208D1781C08F191
:102320000101884200DA01E008F10100139000BFCA
:102330002348FFF7F0FE064600BF1EB900BF00BFEE
:1023400000BFFEE700BF06B9A3E71498F06013983A
:10235000306134602889B080C6F808B001A809F15E
:10236000C1F8314601A809F15BF9164901A80CF042
:1023700091F81548039000BF144901A809F13BF9F1
:10238000FF22002101A809F143F9298801A80CF0D6
:1023900089F8698801A809F121F9E868089000BF67
:1023A00001A8002190F8422061F3000280F8422049
:1023B00000BF2869079001A80CF0A4F800BF68E7E7
:1023C0005021062415C31108BDC51108EDC411081C
:1023D00010B514210148FEF0EBFE10BD502106247B
:1023E0000148006870470000B00000240146C1F3B6
:1023F0000412072A00DD0722D0B2704701464FF6CB
:10240000FF70814201D11F20704709B90020FBE70E
:10241000712902DA0948405CF6E7A1F1710081B246
:102420000748006838B107480068814203D2044871
:102430000068405CE8E70020E6E700008C371208FF
:102440001C0200243002002410B518210348FEF0BD
:10245000AFFE012016F086FE10BD0000FC20062411
:102460002DE9F04105460F4616460DB9BDE8F0814D
:102470002846FEF72DF88046394628460A4A126853
:1024800090470746E8193146074A126890470646C2
:102490003C4603E0A019285C2855641CA8EB060004
:1024A000A042F7D200BFE1E7600200242DE9F04F1F
:1024B00087B004460F4692469846DDE910560DB1A6
:1024C000002028801CB9002007B0BDE8F08F2078DC
:1024D00008B90020F8E70FB90020F5E74FF0000930
:1024E00006F0020010B906F0040098B1002000E0E8
:1024F000401C215C0A2905D0215C0D2902D0215CF9
:102500000029F5D1215C01B1401C15B14FF0FF311C
:102510002980D9E706F0020008B141F6FF780020D3
:102520000690059038E000200490059808B9012035
:1025300000E0002006A904AACDE90062CDE902105E
:102540000599601843465246394616F095FE834673
:102550000498A8EB00000FFA80F8049848440FFA9A
:1025600080F9BBF1000F00D11CE00598584405909C
:1025700020780A2802D020780D2800D112E0059892
:10258000205C0A2803D00598205C0D2803D105980B
:10259000401C059006E000BF0598205C10B1B8F122
:1025A000000FC0DC00BF059870B905A92046094A94
:1025B00012689047834635B10022594638460FF0DD
:1025C00068F90FFA80F900BF0DB1A5F800900598E1
:1025D0007AE7000058020024024600200FA31B786F
:1025E0008B4211D113781BB90123137001200BE02A
:1025F0001378012B02D10023137005E01378022B0E
:1026000002D10023137001201378012B04D120295B
:1026100001D1022313700120704700002300000045
:1026200073B582B0064603980190324600210846F1
:10263000019B14F1D7FE0546002001900024681C80
:1026400010F16CF9044600BF1CB900BF00BF00BF09
:10265000FEE700BF14B9002004B070BD0020605533
:102660003246691C2046039B14F1BCFE2046F3E76A
:102670002DE9FF4F8FB0DDE9217BDDF89080209EB2
:10268000DDE91C454FF00009002184EA01006940A2
:10269000084301D128F0100808F4806028B1002117
:1026A00084EA0100694008432DD000BF32463B4612
:1026B00020462946FDF0E3FC02F0FF0ABAF10A0FBA
:1026C00002DA0AF1300007E008F0200008B14120EA
:1026D00000E0612050440A38C2B2484609F10109BD
:1026E00007A90A5432463B4620462946FDF0C7FC5E
:1026F00004460D46002184EA01006940084302D0E7
:10270000B9F1200FD2D32398CDE9036BCDE90508A9
:1027100007A91E98CDE9001902900FA80FC8FEF076
:10272000E3FF13B0BDE8F08F9A4200D2885470479F
:10273000704700BF704700002DE9FF4F8BB0074680
:1027400000250C9800B9FA4FEAE20E980078252887
:102750000AD02A466D1C0E990878DDE90C13B8479B
:102760000E98401C0E90DBE20E98401C0E90002448
:1027700000BF0E9800782B2819D004DC20281ED02A
:1027800023282CD123E02D2809D0302827D144F04C
:1027900001040E98401C0E9001200A9022E044F0A3
:1027A00002040E98401C0E9001200A901AE044F09A
:1027B00004040E98401C0E9001200A9012E044F090
:1027C00008040E98401C0E9001200A900AE044F084
:1027D00010040E98401C0E9001200A9002E0002088
:1027E0000A9000BF00BF0A980028C2D180460E9907
:1027F0000878FEF7ECFE20B10EA8FEF7D3FE804667
:1028000012E00E9800782A280ED1189901C9189163
:10281000002804DA44F00204C0F1000800E0804619
:102820000E99491C0E9100BF4FF000090E980078D8
:102830002E281FD144F480640E98401C0E900E99EF
:102840000878FEF7C4FE20B10EA8FEF7ABFE814665
:1028500010E00E9800782A280CD1189901C9189117
:10286000002801DD014600E0002189460E99491C3F
:102870000E9100BF0E9800786C280AD004DC6828FE
:1028800016D06A2835D128E0742820D07A2830D193
:1028900029E044F480740E98401C0E900E98007845
:1028A0006C2804D144F400740E98401C0E9021E072
:1028B00044F080040E98401C0E900E980078682812
:1028C00004D144F040040E98401C0E9012E044F4F1
:1028D00080740E98401C0E900CE044F400740E9826
:1028E000401C0E9006E044F480740E98401C0E903C
:1028F00000E000BF00BF0E98007869281DD00EDCF4
:10290000622821D006DC25287ED050281AD05828ED
:102910007BD115E0632879D06428F9D10CE07328C5
:1029200075D004DC6F280ED07028F1D109E075282D
:1029300004D07828ECD102E000BF00BF00BF00BF88
:1029400000BF00BF00BF00BF0E980078782803D0FA
:102950000E980078582801D1102623E00E980078B0
:10296000702803D00E98007850280CD1102644F01F
:10297000100444F480740E984078562812D10E98B2
:10298000401C0E900EE00E9800786F2801D10826AA
:1029900008E00E980078622801D1022602E00A269B
:1029A00024F010040E980078582803D00E98007870
:1029B000502801D144F020040E980078692805D0F1
:1029C0000E980078642801D024F00C0404F4806090
:1029D00008B124F001040E980078692803D00E98FD
:1029E000007864287CD104F40070B8B31898C01D36
:1029F00020F007001890D0E900AB189A083218921E
:102A00000020CDE9069803E073E17CE1F2E01CE1EF
:102A1000CDE904600894BAEB00017BEB000001DA19
:102A2000012000E00020002102900846B1EB0A01DD
:102A300070EB0B0002DA5046594605E000200146D3
:102A4000B0EB0A0061EB0B01CDE900012A463846E4
:102A5000DDE90C13FFF70CFE0546C7E0FFE704F4C1
:102A60008070D0B1189850F804AB18904FEADA7023
:102A7000CDE9039802960594BAF1000F01DD5146A5
:102A800001E0CAF10001CDE900102A463846DDE92F
:102A90000C13FEF0B6FE0546A8E004F0400028B195
:102AA000189810F8041B1890C8B20DE004F08000CC
:102AB00028B1189830F8041B189008B204E0189850
:102AC00000681899091D189182464FEADA70CDE91D
:102AD000039802960594BAF1000F02DD514602E018
:102AE0000BE0CAF10001CDE900102A463846DDE9C5
:102AF0000C13FEF086FE054678E00E980078562806
:102B000018D1189850F804AB1890DAF8040000684F
:102B1000099009980090DAF800300D98421B0C9843
:102B200041193846FFF708FE0544002009905DE092
:102B30003127000804F40070D0B11898C01D20F0AF
:102B40000700CDE90698089418900020CDE90460AC
:102B50000290189903C9189A08321892CDE9000119
:102B60002A463846DDE90C13FFF782FD05463DE0B5
:102B700004F4807098B10022CDE903980296059480
:102B8000189800681899091DCDE9000218912A4685
:102B90003846DDE90C13FEF034FE054626E004F06D
:102BA000400028B1189810F8041B1890C8B20DE026
:102BB00004F0800028B1189830F8041B189088B2EF
:102BC00004E0189800681899091D189182460020A1
:102BD000CDE900A0CDE90398029605942A4638462F
:102BE000DDE90C13FEF00DFE054600BF0E98401CFB
:102BF0000E9093E0012604F0020050B905E02A4649
:102C00006D1C2020DDE90C13B8473046761C40458A
:102C1000F5D3189911F8043BD8B22A466D1C1891C7
:102C2000DDE90C13B84704F0020050B105E02A4674
:102C30006D1C2020DDE90C13B8473046761C40455A
:102C4000F5D30E98401C0E9068E0189850F804AB2D
:102C500018905046B9F1000F01D0494601E04FF0FD
:102C6000FF310A46014600E0491C0B781BB1131ED8
:102C7000A2F10102F8D10E1A04F4806028B14E4589
:102C800001D2304600E04846064604F0020050B942
:102C900005E02A466D1C2020DDE90C13B8473046BC
:102CA000761C4045F5D306E01AF8010B2A466D1C48
:102CB000DDE90C13B8479AF8000040B104F48060D5
:102CC0000028F1D0B9F10000A9F10109ECD104F01C
:102CD000020050B105E02A466D1C2020DDE90C13EE
:102CE000B8473046761C4045F5D30E98401C0E90F0
:102CF00014E02A466D1C2520DDE90C13B8470E9818
:102D0000401C0E900AE02A466D1C0E990878DDE9F9
:102D10000C13B8470E98401C0E9000BF00BF00BFB8
:102D20000E98007800287FF410AD0D98854201D2EE
:102D3000284601E00D98401E02460020DDE90C13F4
:102D4000B84728460FB0BDE8F08F024600BF481EC6
:102D5000084018B100BF00BF00BFFEE700BF481E1B
:102D60001040101A704710B502464B1E13444C1EFB
:102D700023EA040000BF4B1E0B401BB100BF00BF85
:102D800000BFFEE700BF10BD2DE9F04180460E46B2
:102D9000444601206086002500270DE056F82700F4
:102DA00025A1FDF70DFC10B1681C85B202E0608E14
:102DB000401C6086781C87B256F8270020B156F870
:102DC000270000780028E9D1208EA84201D1BDE873
:102DD000F081A06A20B1A06A0FF1E4FD0020A0629A
:102DE000E06A20B1E06A0FF1DDFD0020E062E8005A
:102DF0000FF194FDA06200BFA06A18B900BF00BF28
:102E000000BFFEE700BF68000FF188FDE06200BF71
:102E1000E06A18B900BF00BF00BFFEE700BFA06AAC
:102E200008B1E06A00B900256900E06A10F08EFB85
:102E3000258600BFCBE700000A00000010B5012086
:102E4000074908700748FEF0A7F920B9064800684E
:102E500013F1D0FF03E00448006816F0BEF910BD7E
:102E6000F40100242C210624F801002470B5044646
:102E70000D46606818B129466068FFF7F7FF2068C3
:102E800018B1294620462268904770BD70B50546A6
:102E90000C46A1B2284608F1AFFF70BD2DE9F84FEE
:102EA00004468C4690469946109FDDE90A56AA468C
:102EB0000096002032E00C9941430AEB21250D9940
:102EC0004143DDF800B00BEB21262A123312002A11
:102ED00005DB624503DA002B01DB434502DB002101
:102EE000395419E0214603FB09FB0BEB4B0B02EBBA
:102EF000420EF344594491F800B091F801E00BEB15
:102F00000E2B1FFA8BFEDDF83CB02BF810E091F889
:102F100002B007F800B000BF411C08B20E99884209
:102F2000C9DBBDE8F88F70B505460C46164606E0CD
:102F30002178284600F009F8681C85B2641C301E10
:102F4000A6F101018EB2F3D170BD70B504460E46F4
:102F500006F0C2FE2112A02202EB4101C8B206F126
:102F600071F906F1AFF92546E11704EB1161091279
:102F7000A4EB0121C8B206F165F906F1A3F93046C8
:102F800006F160F906F19EF906F182F90A2000F1D6
:102F900051FB70BD30B591B004462546A88F18B9D5
:102FA000204617F035F81EE0684608F19BFA2946DE
:102FB00068460BF093FA0D49684608F118FBA98F93
:102FC000684608F123FB0122002168460BF07AFADB
:102FD000074968460BF062FA0648039000BF68464E
:102FE0000BF090FA00BF11B030BD0000B3781108AB
:102FF000CBB5100899A001080146087900F001003E
:1030000070477CB506460C460020019000900025D4
:103010006CB16A4601A9204616F0BCFD01980A2849
:1030200005DA6A4601A9304617F06AFF054685B100
:1030300000BF284600F0A7F8A04203D200BF00BF9F
:1030400000BFFEE700BF29463046DDE9003215F13A
:10305000E1F828467CBD70B504462046FFF029F90A
:1030600005462846FFF062F9204600F082F870BD60
:1030700070B506460D462846FFF016F9F0B1284611
:1030800000F057F8044600BF1CB900BF00BF00BFE6
:10309000FEE700BF00BF2046FFF7AEFF18B900BF34
:1030A00000BF00BFFEE700BF2146304600F04FF8EA
:1030B00029462046FFF0B1F8054600BF284670BDFE
:1030C0002DE9F0410446204600F05DF8061F204639
:1030D00000F05EF80746314616F0A1FE054600BF37
:1030E0002046FFF0D7F818B100BF00BF00BFFEE7D1
:1030F00000BF2846BDE8F0812DE9F04106460C46A8
:103100001546002794B100BF1DB900BF00BF00BF26
:10311000FEE700BF2A4621463046FFF061F920460F
:10312000FFF0D0F8204600F033F807463846BDE8F7
:10313000F08110B5044600BF2046FFF0B5F818B97D
:1031400000BF00BF00BFFEE700BF206810BD7CB518
:1031500005460C46204600F016F806466A4601A9C8
:1031600014F184F921462846DDE9003215F152F8C0
:103170007CBD416841F0010141607047416821F028
:103180000201416070470146486820F00300704723
:10319000014601F10800704770B505460C46074826
:1031A000074908600846446000218160C560FDF061
:1031B000C4FC0348FDF7F0FF70BD000000100040A4
:1031C000580400242DE9F041044620460DF12EF864
:1031D0000546284610F15CFD0646284609F1C2FC6A
:1031E000074600223946304613F1B1F9BDE8F081B7
:1031F0000146C1F3C01070470146C1F3402070473B
:103200000146C1F3801070470146C1F3C0207047EA
:103210002DE9F34F87B00C46079805F1ABF88046CF
:10322000079810F1ACFC0690404600F1ECF82061E4
:10323000216948000FF068FF2060216948000FF005
:1032400063FFA060002548E05848029038F9150057
:1032500041F69A7188423FD10020019029E00199FE
:10326000079810F08BFF00905149009812F001FA76
:1032700000B11BE0009805F0EBFF8246BAF1010FA8
:1032800000D013E0009805F183F88346AB4500D0E9
:103290000CE0009811F173F90299884201DA029862
:1032A00002E0009811F16BF9029000BF0198401CF8
:1032B0000190079810F13AFC01998842CFD8029802
:1032C000002804DB0298A16821F8150003E0002122
:1032D000A06820F8151000BF6D1C2069A842B3D863
:1032E0000026B14600251BE038F9150041F69B7118
:1032F000884202DB411A0E4411E041F69A7188427D
:1033000006D1A16831F8151049440FFA81F906E099
:10331000A16821F8150009EB00010FFA81F96D1C75
:103320002069A842E0D80021079811F000FE05901E
:103330002169491EDDE9050200FB112000B206905B
:103340000698A0EB090007B2002F00DA00274FF023
:10335000FF30049000200390002513E038F9150099
:1033600041F69B7188420CDB421A11B207FB01F255
:10337000B2FBF6F212B2A36823F81520049503916C
:1033800000BF6D1C2069A842E8D8049800280ADB19
:103390000398301A7843B0FBF6F0381A01B2A268ED
:1033A000049822F8101009B0BDE8F08F01E0FFFF8B
:1033B000010006002DE9FC5F054600221146284663
:1033C00011F17AFF0021284610F104FE8246002107
:1033D000284611F024FE50440FFA80F800212846B8
:1033E00010F108FF50440FFA80F9284611F062FCF2
:1033F0004844404400B20190724C284610F196FBBC
:1034000083460021284611F07DFC012866D1002664
:103410005BE0A868006850F826706B49384612F0E7
:1034200028F900B150E0384612F018FC002839D1D4
:103430000021384610F14FFD0090009830B103286C
:1034400005D0062804D0082815D102E000BF00BF2F
:1034500000BFB5F91800B7F91410401A401CA0427B
:1034600001DA204605E0B5F91800B7F91410401A42
:10347000401C04B214E00021384611F174F870B910
:1034800007F1140008F1F8FD4044A04201DA20469B
:1034900004E007F1140008F1EFFD404404B200BF5E
:1034A00000BF10E0B5F91800B7F91410401A401C1D
:1034B000A04201DA204605E0B5F91800B7F914106A
:1034C000401A401C04B200BF761C5E45A1D33D48A3
:1034D000844269D004EB090004B265E000265BE099
:1034E000A868006850F826703749384612F0C1F8CD
:1034F00000B150E0384612F0B1FB80BB00213846E5
:1035000010F1E9FC0090009830B1012805D00428A2
:1035100004D0072815D102E000BF00BF00BFB7F9F3
:103520001800B5F91410401A401CA04201DA2046D8
:1035300005E0B7F91800B5F91410401A401C04B2A0
:1035400015E00021384611F053FF78B907F1140057
:1035500008F192FD4844A04202DA204605E008E066
:1035600007F1140008F188FD484404B200BF00BF11
:1035700010E0B7F91800B5F91410401A401CA04229
:1035800001DA204605E0B7F91800B5F91410401A21
:10359000401C04B200BF761C5E45A1D3094884429A
:1035A00002D004EB080004B20648844202D101981C
:1035B000BDE8FC9F0198844201DD2046F8E70198B0
:1035C000F6E7000001E0FFFF0100040010B504462B
:1035D00020680FF1CFF960680FF1CCF9A0680FF106
:1035E000C9F9E0680FF1C6F910BD2DE9F04F8DB0B3
:1035F00005468946B9F1000F02D10DB0BDE8F08F44
:10360000A5F81890286810B128680FF1CBF909EBDC
:103610004901062202EB41000FF180F9286000BF4A
:10362000286818B900BF00BF00BFFEE700BF2868C8
:1036300068600221286801FB0900801CE860042101
:10364000286801FB0900001DA860B9F1010F0CD129
:10365000B420696808700020E96808800120E968E2
:1036600048800020A9680880C7E709F10101C80067
:103670000FF04AFD074609F1010007EB80084FF003
:10368000000A4FEA890002B20BA90CA8FFF084FCE3
:103690000024BDF930008010079000200390CCE09A
:1036A000002616E00BA90CA800F059F90CA800F0B0
:1036B0004BF900B90FE0BDF93000801007A941F8BF
:1036C0002600BDF8300000F0030003A941F82600F1
:1036D000761C042EE6DB00BF042E00D0B3E00A996E
:1036E0000798884219D1079800B227F814000FFAFA
:1036F0008AF028F81400DDE903010844059908441C
:1037000006990844696808556868005D0007000E5E
:1037100069680855601C04B28DE0DDE90701884244
:103720002CD0079800B227F814000FFA8AF028F876
:1037300014000398696808556868005D0007000E6A
:1037400069680855601C04B20798401E00B227F84B
:1037500014000FFA8AF028F814000498001D059947
:10376000084406990844696808556868005D0007C0
:10377000000E69680855601C04B25CE0099907985E
:1037800088422CD0079800B227F814000FFA8AF06C
:1037900028F81400DDE903010844696808556868E1
:1037A000005D0007000E69680855601C04B20798A8
:1037B000401E00B227F814000FFA8AF028F814000F
:1037C0000598083006990844696808556868005DDE
:1037D0000007000E69680855601C04B22BE00798CA
:1037E00000B227F814000FFA8AF028F81400DDE977
:1037F0000301084405990844696808556868005D34
:103800000007000E69680855601C04B20798401E46
:1038100000B227F814000FFA8AF028F8140006986E
:103820000C30696808556868005D0007000E69681B
:103830000855601C04B20AF1010A0CA800F084F8D3
:1038400000287FF42DAF00BF40F2D32109FB01F027
:103850000290029880120190601E37F910100198B2
:10386000814205D1601E38F910100198814226D09E
:10387000DDE90121A1EB8220B0F5007F04DC00FB33
:1038800000F14800001407E0C0F5806000FB00F183
:1038900048000014C0F10F00019909B227F8141074
:1038A000019909B228F814106A6810556968095D11
:1038B0000907090E6A681155611C0CB200BFA61EEB
:1038C0000EE038F8160027F8140037F8160028F82C
:1038D00014006868805D69680855761E601C04B233
:1038E000002EEEDA4FF0000B00260020E968088079
:1038F00023E0E96821F81B6037F81600A96821F871
:103900001B0010E0A86830F81B0037F91610884239
:1039100003DAA86830F81B0001E037F91600A9683F
:1039200021F81B00761C38F91600584501D1A64233
:10393000E8DB0BF101000FFA80FBA642D9DB384629
:103940000FF118F800BF58E60146B1F90200B1F9CD
:103950000020904201DC012070470020FCE7B1F913
:103960000020002A07DC0B8842885200D21C1A442F
:1039700012B20A800CE042880388D21A5200521D0B
:103980000B881A4412B20A800288521E12B20280B8
:103990004288521C12B24280704737B582B0154639
:1039A000022D04DCBDF80C10084605B030BDBDF892
:1039B0000C00C00ABDF8081000EBD1241F2C01D266
:1039C000204600E01F20BDF8081060F3CF210291CF
:1039D000BDF80C00C0F34510BDF80810C1F3451147
:1039E00044183F2C01D2204600E03F20BDF80810CB
:1039F00060F34A110291BDF80C0000F01F00BDF801
:103A0000081001F01F0144181F2C01D2204600E0CD
:103A10001F20BDF8081060F304010291FF2D03D1AF
:103A2000BDF808100846C0E72A46DDE902010CF09F
:103A300023F80190BDF804100846B6E710B5806081
:103A4000C06000230361002110E0002400F1140392
:103A500043F82140002206E000F13C0303EBC113D0
:103A600043F82200521C202AF6DB491C0A29ECDB11
:103A700010BD10B50220FFF0E7FD10BD1CB500BF62
:103A80001148006840F080000F49086000BF00BF87
:103A90000846006840F48070086000BF0120009074
:103AA0000346024640210190084819F0DBFD012041
:103AB00000900346024608210190054819F0D2FD06
:103AC000FFF05EFD1CBD0000E0440258001C0258DF
:103AD000002002587CB506460D4634465420005D51
:103AE00000F00100A84233D00DB1012000E0002019
:103AF0005421095D60F300015420015504F148018F
:103B0000684608F160FABDF80000616A898A0844D5
:103B100000B2ADF80000BDF80210606AC08A084427
:103B200000B2ADF80200BDF80400616A898A084459
:103B300000B2ADF80400BDF80610606AC08A0844FF
:103B400000B2ADF806006946304612F04EF800BFEC
:103B50007CBD2DE9FF4F8DB007460D461646E87A2D
:103B6000022803DC012011B0BDE8F08F28892A6902
:103B700001460C901098FDF0E1FA04460CB90020C3
:103B8000F1E7217D01F01F000EF072F810B14FF047
:103B9000060818E0207D00F01F000E2801D18046A5
:103BA00011E0207D00F01F00142801D180460AE0BA
:103BB000217D01F01F000CF1E9FF10B14FF0050865
:103BC00001E04FF00408B8F10E0F09D1288818B9A8
:103BD0006888B0F5807F03D04FF005080020A06111
:103BE000206A38B100BF00BF31463846226A17F05C
:103BF0008EFBDEE0A069002859D031460BA80AF000
:103C0000D5FE288818B96888B0F5807F32D0304654
:103C10000AF02FFF834600BFF0887188401A401CCD
:103C200000B20890281D6988CDE90010B5F9003070
:103C300059460BA8089AFDF07BF9BDF82C00318895
:103C4000084400B2ADF82C00BDF82E00718808447D
:103C500000B2ADF82E00BDF830003188084400B243
:103C6000ADF83000BDF832007188084400B2ADF8FC
:103C7000320000BF0BAA09A8B968FCF0FDFF81461D
:103C8000B9F1000F04D1204600F131FB01206AE7B1
:103C9000D7F808A009A8B860CDF8008032462946B8
:103CA0003846A3690CF00AFBC7F808A081E0324649
:103CB0000BA8B968FCF0E0FF0A900A9820B92046EA
:103CC00000F115FB01204EE70BA80AF0D2FE099087
:103CD0000BA80AF0CEFE00EB400003900FF014FAA0
:103CE0008146D7F808A00BA907A80AF05FFE0121BA
:103CF00007A80AF0F9FEBDF92C00B6F90010401A29
:103D00000690BDF92E00B6F90210A0EB010BBDF92B
:103D10002E00059042E007AA514602A8FCF0ACFF35
:103D20000A900A9800B936E0CDF80090099803B2DD
:103D30000FFA8BF2069801B220460EF075F9049046
:103D4000049801280ED020460DF198FA00BF00BF5C
:103D500048460EF10FFE204600F1C9FAC7F808A048
:103D6000002000E702A8B8604B4607AA294638465B
:103D7000CDF800800CF0A2FABDF81E00401C00B285
:103D8000ADF81E00BDF82200401C00B2ADF82200C4
:103D90000BF1010B00BF0598401C0590BDF93210D6
:103DA00005988142B7DAC7F808A048460EF1E2FD4F
:103DB00000BF204600F19BFA0120D4E64FF0E0213D
:103DC000096941F004014FF0E022116105490860E2
:103DD0001146096941F0010111616FF070415161B3
:103DE0007047000008000024F8B506460C4615464A
:103DF0000095E788BBB2A788BAB26788B9B22788AE
:103E0000B8B206F175F830460BF0BDFFF8BD10B53D
:103E100006F142FB012006F1A9F810BD70B5044679
:103E20000D4600222946204603F18EF8012229463C
:103E3000204603F189F802222946204604F0DCF8E6
:103E400004222946204604F0D7F870BD2DE9FF4F23
:103E5000A3B00D4616461F463298FF2801DBFF200F
:103E600000E03298329028460AF15CFE22902298B7
:103E700068B967B9309850B93298009032462946EF
:103E8000319B239800F0A9FA27B0BDE8F08F239862
:103E90002946826820A8FCF0EFFE00B9F4E720A8CC
:103EA00008F1FFF881461C2119A80FF04FFB484686
:103EB0000FF02AF91C904FF0FF301890002F0ADD08
:103EC00000233A46294612A80CF00EFC002112A845
:103ED0000AF1A0FB1890012331460CA8309A0CF08F
:103EE00003FC00210CA80AF195FB0B9009A819907E
:103EF0001E90BDF8C400ADF86C0032988DF87C00BF
:103F000033988DF87D00B5F900003844B6F90010FB
:103F1000884203DDB5F90000384401E0B6F900003D
:103F200000B2ADF81C00B5F90400C01BB6F90410CE
:103F3000884203DAB5F90400C01B01E0B6F90400B9
:103F400000B2ADF82000B5F902003844B6F902100D
:103F5000884203DDB5F90200384401E0B6F90200F9
:103F600000B2ADF81E00B5F90600C01BB6F9061088
:103F7000884203DAB5F90600C01B01E0B6F9060075
:103F800000B2ADF8220007A808F18BF80690B5F949
:103F90000200B6F90210884201DC012000E0002096
:103FA0008246B5F90600B6F90610884201DB012009
:103FB00000E000208346229800284CD0BDF8800005
:103FC000ADF82400BDF88400ADF82800BDF98240AA
:103FD00029E0BAF1000F04D1BDF91E00A04200DDB6
:103FE00020E0BBF1000F04D1BDF92200A04200DAAD
:103FF0001DE020B2ADF8260020B2ADF82A004946F7
:104000001C980FF0DAFABDF980100FFA89F322B28A
:104010001C980AF137FD8DF8740019A923980BF14B
:1040200071FA00BF641CBDF98600A042D1DA00BF5E
:104030000CA80AF153FD0B980BF14AF81898401C94
:1040400028B112A80AF14AFD18980BF141F81C9802
:104050000EF190FC18E7B5F90000B6F9001088429F
:1040600001DC012000E000200590B5F90400B6F95C
:104070000410884201DB012000E0002004900120B0
:104080000390059860B1049850B1BAF1000F07D0C1
:10409000BBF1000F04D00698322801DA002003900B
:1040A00001208DF87400BAF1000F15D0039898B173
:1040B000BDF81C00ADF82400BDF82000ADF82800C4
:1040C0006888ADF826007088401E00B2ADF82A005E
:1040D00019A923980BF116FABBF1000F15D003981C
:1040E00098B1BDF81C00ADF82400BDF82000ADF873
:1040F0002800F088401C00B2ADF82600E888ADF832
:104100002A0019A923980BF1FDF9059898B1288880
:10411000ADF824003088401E00B2ADF82800BDF88C
:104120001E00ADF82600BDF82200ADF82A0019A93E
:1041300023980BF1E7F9049898B1B088401C00B2BD
:10414000ADF82400A888ADF82800BDF81E00ADF831
:104150002600BDF82200ADF82A0019A923980BF11A
:10416000D1F90398F0BBBDF88000ADF82400BDF88C
:104170008400ADF82800B6F90200B5F90210401A23
:10418000B84201DA384604E0B6F90200B5F9021087
:10419000401A00B20290002442E06888204400B235
:1041A0000190E888001B00B20090BDF982100198D0
:1041B000814205DDBDF986100098814200DA2EE0CB
:1041C00049461C980FF0F9F9BDF924100FFA89F34C
:1041D000019A1C980AF156FC8DF87400BDF9821002
:1041E000019800E020E0814209DC0198ADF826004A
:1041F0000198ADF82A0019A923980BF183F9BDF9AC
:1042000086100098814209DB0098ADF826000098DE
:10421000ADF82A0019A923980BF174F900BF641CAA
:1042200002988442B9DBC7E0BDF88000ADF82400F5
:10423000BDF98410BDF91C00401E814202DABDF9AF
:10424000840002E0BDF91C00401E00B2ADF8280059
:1042500009A807F126FF8046B8F1000F48DD059850
:1042600010B9BAF1000F1ED0BDF9824017E020B29C
:10427000ADF8260020B2ADF82A0041461C980FF098
:104280009CF9BDF92410434622B21C980AF1FAFBAE
:104290008DF8740019A923980BF134F9641CBDF949
:1042A0001E00A042E3DC059810B9BBF1000F1FD03F
:1042B000BDF92200441C17E020B2ADF8260020B260
:1042C000ADF82A0041461C980FF077F9BDF924108B
:1042D000434622B21C980AF1D5FB8DF8740019A947
:1042E00023980BF10FF9641CBDF98600A042E3DAB4
:1042F000BDF98010BDF92000401C814202DDBDF9EE
:10430000800002E0BDF92000401C00B2ADF824009E
:10431000BDF88400ADF8280009A807F1C2FE804668
:10432000B8F1000F48DD049810B9BAF1000F1ED0A3
:10433000BDF9824017E020B2ADF8260020B2ADF8FA
:104340002A0041461C980FF038F9BDF92410434665
:1043500022B21C980AF196FB8DF8740019A92398D3
:104360000BF1D0F8641CBDF91E00A042E3DC0498F8
:1043700010B9BBF1000F1FD0BDF92200441C17E09B
:1043800020B2ADF8260020B2ADF82A0041461C98B4
:104390000FF013F9BDF92410434622B21C980AF11C
:1043A00071FB8DF8740019A923980BF1ABF8641C0C
:1043B000BDF98600A042E3DA0CA80AF18FFB0B9846
:1043C0000AF186FE12A80AF189FB18980AF180FE0C
:1043D0001C980EF1CFFA00BF56E52DE9FF4F89B0CA
:1043E00080460C461546DDF858901C2168460FF0B3
:1043F000ADF807A80090BDF83000ADF808008DF8C2
:104400001890B4F90200B5F90210884201DC0120CD
:1044100000E000200646B4F90600B5F9061088420F
:1044200001DB012000E000200746B4F90000B5F9E7
:104430000010884201DC012000E000208246B4F92F
:104440000400B5F90410884201DB012000E00020DF
:1044500083462088ADF81C00A088ADF82000608855
:10446000ADF81E006888401E00B2ADF822001EB1F3
:10447000694640460BF146F8E888401C00B2ADF8AA
:104480001E00E088ADF822001FB1694640460BF1DE
:1044900039F82088ADF81C002888401E00B2ADF81D
:1044A000200016B1B5F9020001E0B4F90200ADF840
:1044B0001E0017B1B5F9060001E0B4F90600ADF829
:1044C0002200BAF1000F03D0694640460BF11AF8FA
:1044D000A888401C00B2ADF81C00A088ADF82000F0
:1044E000BBF1000F03D0694640460BF10BF80DB04D
:1044F000BDE8F08F2DE9F04105463F48006809F11D
:10450000E1FB04462868C66B706B10B13046716BD6
:104510008847394800680068008837490968096891
:10452000498810FB01F0E168884201D1012000E0D8
:1045300000200746206898B1606888B187B90CE010
:104540002D4800680068806A38B12B4A12681068EC
:10455000294A12681268916A884720690028EFD1B9
:1045600001202061244800680068C068806900F06C
:10457000010050B1204800680068C0688069C0F33D
:10458000400010B10120606101E0002060616069BD
:1045900008B1012000E0002080462868406998B1F9
:1045A0002868007CC0F3011048B12868007CC0F383
:1045B000800020B1D6E9001000F020F804E0D6E930
:1045C00000212868FEF0EBF9206890B1606880B1A6
:1045D0002868007C00F0010010B1B8F1000F08D08D
:1045E0002168A068884202D16068A06001E020686C
:1045F000A060BDE8F0810000B00000242DE9F34F79
:1046000083B00446884800680568874800680068E9
:10461000007CC0F3400040B1287CC0F3800020B192
:1046200000BF00BF05B0BDE8F08F287CC0F30110CB
:1046300002280AD121462846049AFFF0C7FD2146E8
:104640002846049AFEF0ABF9EBE0287CC0F3011099
:10465000012804D0287CC0F301100328F4D10020E5
:1046600002907148006809F12DFB824620460AF04D
:10467000EBF90646204607F1AFFC83464FF4A05005
:10468000B0FBF6F000B2584505DA4FF4A050B0FB8D
:10469000F6F000B200E058460190B4F90280287CA0
:1046A000C0F3011001280BD168882188401A401EF0
:1046B00000B2E080E088801B401C00B2608006E011
:1046C0002088608060883044401E00B2E08000276F
:1046D0009EE0ABEB07010198814201DD019801E00A
:1046E000ABEB07000FFA80F90120CAF8100047BBB6
:1046F000B34526DBB146297CC1F30111032901D161
:10470000012100E0002108463146049AFFF0A5FD92
:10471000287CC0F30110012807D1A4F8008008EB21
:104720000600401E00B2A0803FE02888401EA0EB9B
:10473000080000B2A080A088801B401C00B220802E
:1047400033E0029820B94FF420500EF0DDFC0290C7
:1047500002980090297CC1F30111032901D10121A4
:1047600000E0002108464A463146049B00F05EF80E
:10477000287CC0F3011001280AD108EB070000B221
:10478000208008EB07004844401E00B2A0800CE0E7
:104790002888401EA0EB0800C01B00B2A080A088A3
:1047A000A0EB0900401C00B2208007EB090058452F
:1047B0000DDBDAF8180000F0010040B1DAF818005B
:1047C000C0F3400018B10120CAF8140002E0002034
:1047D000CAF81400029808B9049800E0029802464A
:1047E00021462846FEF0DBF804E0A86A10B128460E
:1047F000A96A8847DAF810000028F6D106FB09F10B
:10480000049800EB4100049007EB090007B200BFD9
:104810005F45FFF65EAF029810B102980EF1AAF85C
:1048200000BF00BFFEE60000B00000242DE9F04705
:1048300004461D46089F01FB02F0A0F1010C481E32
:1048400000FB02F800231AE008EB03000CB1ACEB0C
:10485000000000260FE0A946AD1C07EB400AB9F89E
:104860000090AAF800900CB1104400E0801A06F104
:1048700001090FFA89F68E42EDDB581C03B2934210
:10488000E2DBBDE8F08700002DE9F04FA5B004465B
:104890000F46254604F1140123A8BA68FCF0ECF990
:1048A0002290229810B925B0BDE8F08FB868219009
:1048B00023A8B860002120460FF198FB1E9000212C
:1048C00020460FF1A3FC01461E98084400B21D903B
:1048D000002120460FF142FD01461E98084400B217
:1048E0001C9020460FF14BF97E35E98848430012B1
:1048F00000B21B9020460FF123F92989484300128A
:1049000000B21A9017A80BF091FD17AA00212046BB
:104910000FF115FF394605A80FF002FC0020129098
:104920008C4806900020079017A80B904FF0FF309E
:10493000139000200E900F9005AA1A2120460CF02B
:10494000FDFE0020019031222046019910F00FFC5D
:104950000090009800F0FF0B00BF002120460FF1EF
:1049600045FB04900020019033222046019910F06D
:10497000FEFB0090009800F0FF0800BF20460FF1FA
:10498000FFF9039020460FF17DFA029035F87E0979
:10499000002865D0E18A1C9801440298081A00B2E8
:1049A0000190A08AADF88000208BADF87C004FF01C
:1049B0000009B5F87E000FFA80FABBF1020F1ADD8C
:1049C0000498002817DD08F0020040B100212046BD
:1049D0000FF1C4FC18B909F101000FFA80F908F0D1
:1049E000010040B1002120460FF1A4FB18B9AAF143
:1049F00001000FFA80FA4E462FE01A987043B5F87E
:104A00007E10491E90FBF1F000B2ADF88200BDF8B7
:104A100082100198084400B2ADF88200BDF882000F
:104A2000ADF87E004B4806900120079020A80E901C
:104A30001FA80F90139605AA1A2120460CF07EFE9F
:104A40001FAB20AA17A9384609F1CCFD05AA1B21E6
:104A500020460CF073FE701C06B25645CDDB00BF3D
:104A6000B5F88000002865D0A18A1D9801440398FC
:104A7000081A00B20190E08AADF88200608BADF8B0
:104A80007E004FF00009B5F880000FFA80FABBF104
:104A9000020F1ADD0498002817DD08F0040040B169
:104AA000002120460FF1B2FB18B909F101000FFAFD
:104AB00080F908F0080040B10021204610F0BBFA50
:104AC00018B9AAF101000FFA80FA4E462FE01B98A0
:104AD0007043B5F88010491E90FBF1F000B2ADF8BC
:104AE0008000BDF880100198084400B2ADF8800045
:104AF000BDF88000ADF87C001648069002200790B3
:104B000020A80E901FA80F90139605AA1A212046E0
:104B10000CF014FE1FAB20AA17A9384609F162FD5C
:104B200005AA1B2120460CF009FE701C06B2564552
:104B3000CDDB00BF4FF0FF30139000200E900F90A0
:104B400005AA1B2120460CF0F9FD2198B86000BF92
:104B5000A9E60000D8FC11082DE9F14FDCB05C9803
:104B60000BF164FB05462C465C980BF143FB5B9014
:104B700059A928460FF122F80020CDE910506922EA
:104B8000DDE9100110F0F3FA0F900F9800B2589081
:104B90000020CDE910506A22DDE9100110F0E7FA9B
:104BA0000F900F9800B25790BDF864115898081AEA
:104BB00000B2ADF86401BDF868115898084400B21D
:104BC000ADF86801BDF866115798081A00B2ADF843
:104BD0006601BDF86A115798084400B2ADF86A0141
:104BE00059A807F17AFA834659A809F026FF56908A
:104BF000D4E90A10A0EB01095698834501DB012096
:104C000000E0002080460020559094F85C0000F001
:104C1000030001280BD1A06A002808DAE06A002806
:104C200005DDA16A206B884201D101205590002149
:104C3000284610F0C4F95490002128460FF146FB95
:104C400053900021284610F062FA52900021284625
:104C50000FF188FA519059A904F1340009F0AFFE20
:104C6000A18E5498084400B2A086218F5398081A48
:104C700001B22187E18E5298084401B2E186618F2A
:104C80005198081A01B26187B8F1000F13D004F1EE
:104C9000340009F0D2FE04280DDA569800EBD071EA
:104CA0004A10E98A1144891E0AB2E286E08E001D8C
:104CB00001B2618715E0B8F1000F12D104F13400A0
:104CC00007F10BFA04280CDA58460BEBD071AA8ACC
:104CD00002EB6101891E09B2A186A08E001D01B2FE
:104CE000218704F1340007F1F8F9509004F1340001
:104CF00009F0A3FE4F90B8F1000F01D0509800E0EA
:104D00004F988246B8F1000F05D004F13406371DE4
:104D1000FE484C9004E004F13606371DFC484C90E8
:104D2000A06D401CF8B1A36A216DC91A01FB0AF1FC
:104D300091FBF9F108B2A36A616DC91A01FB0AF18E
:104D400091FBF9F10AB2131AD4F858C003FB0CF125
:104D5000CB1701EB13631B121BB24D934D9901440A
:104D600009B24D9108E0A16A206B401A00FB0AF0DD
:104D700090FBF9F000B24D90A06C401CE0B1A36A2A
:104D8000216CC91A01FB0AF191FBF9F108B2A36A7F
:104D9000616CC91A01FB0AF191FBF9F10AB2131A0D
:104DA000D4F848C003FB0CF1CB1701EB136300EB05
:104DB00023231BB24E9308E0D4E90901401A00FBFB
:104DC0000AF090FBF9F000B24E90002011901622EC
:104DD0002846119910F0CBF910901098C0B24B9062
:104DE000B8F1000F0ED04B9801280BD130463E464B
:104DF00007464E99494209B24E914D99494209B22E
:104E00004D9100BFB8F1000F0AD031884E98084488
:104E100000B2388031884D98084400B230800AE0F2
:104E200039884E98081A401C00B2308039884D9855
:104E3000081A00B23880559878B3A26A524202FB31
:104E40000AF292FBF9F211B2B8F1000F0CD03288DD
:104E50000A4410B2B7F90020824201DD30801BE025
:104E60003A883280388017E03A88521A521C10B2C1
:104E7000B6F90020824201DD388002E032883A80B3
:104E80003080B7F90020B6F900309A4204DAB6F95A
:104E900000003A883280388000BF559800BB04F18A
:104EA00034004C99884701281ADC68465B990FF05A
:104EB00037F94FF400300D90964801900020029091
:104EC00004F1340003906A461A2128460CF036FC9F
:104ED0006A461B2128460CF031FC5DB0BDE8F08F1E
:104EE00004F1340149A809F06AFD3BA80BF0CAFCA3
:104EF0003BAA4FF40031284610F095FC29A85B9995
:104F00000FF00EF94FF40030369082482A900020BE
:104F10002B903BA82D9004F134002C9029AA1A2143
:104F200028460CF00BFC002011900B22284611990A
:104F300010F01DF91090109800B2289056988345F3
:104F400001DA584600E056982790DDE92701B1EBD9
:104F5000600F02DD279840102890BDF9EC002690E4
:104F60004F995098884201DA509800E04F98279066
:104F7000DDE92601B0EB610F02DD27984010269095
:104F8000B8F1000F08D004F1340007F1A6F801468B
:104F90002698B1EB400F0BDCB8F1000F28D104F1DB
:104FA000340009F04AFD01462698B1EB400F1FDDA1
:104FB0009DF8EF0011909DF8060110909DF80E01EC
:104FC0000F9000208DF8EF008DF806018DF80E018E
:104FD00004F134023BA95B980AF18CF811988DF822
:104FE000EF0010988DF806010F988DF80E0100BFA4
:104FF000A98A5498084400B2ADF87800298B5398D8
:10500000081A00B2ADF87C00E98A5298084400B250
:10501000ADF87A00698B5198081A00B2ADF87E009D
:1050200000231EA920A8289A0BF05EFB002120A8CF
:1050300009F1F0FA1D909DF822011C909DF80E01D7
:105040001B9000208DF80E018DF8220159A919A896
:1050500009F0B5FCBDF864105498084400B2ADF8EE
:105060006400BDF866105298084400B2ADF86600BE
:10507000BDF868105398081A00B2ADF86800BDF882
:105080006A105198081A00B2ADF86A00B8F1000F22
:1050900015D019A809F0D1FC042810DA569800EBB5
:1050A000D0714A10E98A1144891E09B2ADF8661020
:1050B000BDF86600001D00B2ADF86A0017E0B8F157
:1050C000000F14D119A807F108F804280FDA584680
:1050D0000BEBD071AA8A02EB6101891E09B2ADF80F
:1050E0006410BDF86400001D00B2ADF86800BDF9A1
:1050F000EC20002304F1340113A80BF0F5FA002191
:1051000013A809F187FA129019AA05E0DBC010086C
:105110003BEA0008F0E101083BA95B9809F1EAFFCE
:105120001B988DF80E011C988DF8220100208DF837
:10513000EF008DF806018DF8220104F134023BA93D
:105140005B9809F1D7FF13A809F1C8FC20A809F161
:10515000C5FC129809F1BCFF1D9809F1B9FF29AAF5
:105160001B2128460CF0EAFA00BFB6E6F0B591B074
:10517000054628460BF15AF8044628460BF13AF842
:105180000746264603A80BF07DFB03AA4FF44031E7
:10519000204610F048FB47F6FF70ADF80C002C20BD
:1051A000805D00F0010038B1204608F182FC0090DB
:1051B000BDF80000ADF81000214601A804F0D4F8B5
:1051C00001AA03A9384609F195FF11B0F0BD2DE9F8
:1051D000F04790B0804640460BF128F80546284637
:1051E0000EF156FD064608A80BF080F808AA00212B
:1051F000304610F0B0FA28460CF1E0FD28B19DF8D9
:105200003D0040F001008DF83D0040460AF1F2FFFC
:105210000446A76806F1140206A8A168FBF02CFD5D
:1052200010B910B0BDE8F08706A8A06004A9304608
:1052300004F026FBA88AADF80800E88AADF80A0059
:10524000288BADF80C00BDF81200ADF80E0002AAD4
:1052500002A8A168FBF010FD98B1D4F8089002A84C
:10526000A06028460CF1B3FD82460020534605F1AC
:10527000140208A90090204608F1F0FDC4F8089037
:1052800000BFA88AADF80800BDF81600ADF80A0006
:10529000288BADF80C00688BADF80E0002AA02A8AE
:1052A000A168FBF0E9FC98B1D4F8089002A8A060CE
:1052B00028460CF18CFD82460020534605F114026D
:1052C00008A90090204608F1C9FDC4F8089000BF65
:1052D000A76000BFA5E700002DE9FF4FA1B006467B
:1052E00014462498807B00F00F052298807E1F9042
:1052F000032D00D10425012D06D0022D0BD0042D45
:1053000010D0082D1DD114E0DFF86C834FF0800A17
:1053100002201E901AE0DFF864834FF0C00A0420D8
:105320001E9013E0DFF858834FF0F00A10201E9013
:105330000CE0DFF850834FF0FF0A4FF480701E90AE
:1053400004E000BF00BF25B0BDE8F08F00BF1F988C
:10535000FD2823DACC4801781F98814203D1CB483D
:105360000068A84213D000200DE018F80010FF29B3
:1053700001D11F9904E018F800101F9A5143091237
:10538000C34A1154401C1E998842EED300BFDFF877
:105390000083BD491F980870BC4805602498B0F888
:1053A00006B0249800891B900BFB05F01A90B4F905
:1053B0000000B168B1F90010884201DB002005E06F
:1053C000B068B0F90000B4F90010401A1990B4F9AF
:1053D00000005844B168B1F90410884201DC584615
:1053E00006E0B068B0F90400B4F90010401A401C9F
:1053F0001890B4F90200B168B1F90210884201DBDB
:10540000002005E0B068B0F90200B4F90210401ABB
:105410001790B4F902101B980844B168B1F906104E
:10542000884201DC1B9806E0B068B0F90600B4F9C8
:105430000210401A401C16901A991798484319995F
:1054400001FB050015902E99159801EBD0002E90C8
:10545000159800F007071C210DA80EF077F8229888
:105460008089ADF83C002298807E8DF84C0022980F
:10547000807FC0F3C2008DF84D00FCF7B1FF0190B2
:105480000AF087FC0C901B980BFB00F10C988142F2
:1054900001DD0C9802E01B990BFB01F00B900B98BF
:1054A0000DF032FE8146CDF8409000200A90218810
:1054B0001998084400B2ADF82000218818980844D3
:1054C000401E00B2ADF8240061881798084400B26D
:1054D000ADF82200BDF82200ADF8260000BFBDF8EF
:1054E0002400BDF82010401A401C00B2079000BFF5
:1054F000BDF82000ADF81400BDF82200ADF816008C
:10550000BDF82400ADF81800BDF82600ADF81A006B
:1055100000BFBDF816101698084400B2ADF81A0086
:1055200005A809F1FFFA049008A80D901290C5F1A2
:105530000800039019980BEB00011898081A6843AB
:10554000029017981C9078E00A9801902AFA07F0C8
:10555000209019981D9028E02E98007820990840F6
:105560000399C91BC8401490149830B1149818F8C6
:1055700000100A9809F8001003E000210A9809F8C1
:1055800000100398874204D22F442098E8402090CE
:1055900005E00027CDF880A02E98401C2E900A9898
:1055A000401C0A901D98401C1D9018991D98884217
:1055B000D2DB0498A0B1BDF92620BDF92010019BD3
:1055C00009EB0300079B09F15DFA8DF844009DF893
:1055D000440028B9019909EB010007990DF0B6FFC5
:1055E000DDE91801411A0A9801440B98814206D25C
:1055F000BDF82600401C00B2ADF8260012E00220E3
:105600008DF844000DA9304609F17CFFBDF8260055
:10561000401C00B2ADF82200BDF82200ADF8260013
:1056200000200A90029807442E9800EBD7002E9095
:1056300007F007071C98401C1C9016991C9888427C
:1056400082DBBDF92200BDF9261088420ED0BDF8DC
:105650002600401E00B2ADF8260002208DF844005E
:105660000DA9304609F14EFF00200A9048460DF181
:1056700081F900BF67E6000048DD01084ADD010846
:1056800056DD010866DD0108C0000024C4000024C6
:10569000B01F06242DE9FF4F8FB00C4615461E465D
:1056A000B4F90200401E0E900E9840100D900E9816
:1056B00000F001010D9808440C90B5F90000B6F90E
:1056C0000010884202DAB5F9000001E0B6F90000E6
:1056D000ADF82800B5F90000B6F90010884202DDE7
:1056E000B5F9000001E0B6F90000401E00B2ADF8C7
:1056F0002C0069880C98081A00B2ADF82A00698855
:105700000D98084400B2ADF82E000F980AA98268DF
:105710000AA8FBF0B1FA8246BAF1000F02D113B029
:10572000BDE8F08FE08818B1A08808B1012000E042
:1057300000208346012009900AA809F1F3F910B16D
:105740000020099004E0BBF1000F01D00020099077
:105750001C2102A80DF0FAFE0AA802902088ADF8DC
:105760001000207A8DF82000099820B102A90F9826
:1057700009F1C8FE78E00AA806F18CFC0746BDF9DD
:105780002E000190BDF82A00ADF82E0000200090F8
:10579000BBF1000F0BD0B4F90600B4F904100844B3
:1057A000BDF9281091FBF0F200FB12100090384672
:1057B0000DF0AAFC8046CDF814800AA80790BDF928
:1057C0002A904AE0394640460DF0F7FEBDF9281010
:1057D0003BB20FFA89F2404609F154F98DF81800EE
:1057E000BBF1000F27D09DF8180020B300980021CE
:1057F0001BE0B4F90420824207DBA3881B1A1AB20B
:105800008B1819B2831818B20BE0B4F90620B4F95A
:1058100004301A44824201DC002002E0002208F831
:1058200001204A1C11B2421C10B2B942E1DB022233
:105830008DF8182000BF02A90F9809F163FEBDF88A
:105840002A00401C00B2ADF82A00BDF82E00401C12
:1058500000B2ADF82E0009F1010901988145B1DDD2
:1058600040460DF187F800BF00BF58E72DE9FF4F14
:1058700091B00C4615461E46B4F90200401E109029
:10588000109840100F90109800F001010F980844F4
:105890000E9029880E98081A00B2ADF830002988B9
:1058A0000F98084400B2ADF83400B5F90200B6F91B
:1058B0000210884202DAB5F9020001E0B6F90200EE
:1058C000ADF83200B5F90200B6F90210884202DDE7
:1058D000B5F9020001E0B6F90200401E00B2ADF8D1
:1058E000360011980CA982680CA8FBF0C5F9814616
:1058F000B9F1000F02D115B0BDE8F08FE08818B102
:10590000A08808B1012000E00020824601200B9011
:105910000CA809F107F910B100200B9004E0BAF1CE
:10592000000F01D000200B901C2104A80DF00EFEEA
:105930000CA804902088ADF81800207A8DF8280073
:105940000B9820B104A9119809F1DCFD66E00CA8C0
:1059500006F1A0FB8346BDF936000390BDF8320086
:10596000ADF8360058460DF0CFFB02900298079034
:105970000CA8099000200190BAF1000F0BD0B4F9E7
:105980000600B4F904100844BDF9321091FBF0F29E
:1059900000FB12100190019FBDF9328037E059469B
:1059A00002980DF00AFEBDF930100FFA8BF30FFAD2
:1059B00088F2029809F166F88DF82000BAF1000F1C
:1059C00013D09DF8200070B1B4F90400B84202DA97
:1059D00000208DF82000B4F90600B4F90410084442
:1059E000B84200DC0027781C07B204A9119809F11D
:1059F00089FDBDF83200401C00B2ADF83200BDF8A0
:105A00003600401C00B2ADF8360008F101080398DA
:105A10008045C4DD02980CF1ADFF00BF00BF6AE70E
:105A20002DE9F14FD0B050980AF100FC044625460C
:105A3000288E10B951B0BDE8F08F50980AF1DAFB0A
:105A40004F90608C20F00800083060844DA92046FB
:105A50000EF1B4F80026B246B4F82080002020846D
:105A6000608C20F008000830608427A80AF00AFF44
:105A70001FA80AF03BFC27AA4FF4A02120460FF0F4
:105A8000D2FE1FAA4FF4A02120460FF064FE608CC6
:105A900020F008006084A4F82080002120460FF048
:105AA00042FB1E90002120460EF168FB1D90002154
:105AB00020460EF1C3FB1C90002120460FF0D3FAC4
:105AC0001B9009A84F990EF02BFB4FF4A0201690C5
:105AD000D7480A9000200B903DA80D9035A80E9055
